{
  "address": "0x9F77d7b38c1CB2a54AAAa032Afb89CFcD6AD7F6F",
  "abi": [
    {
      "anonymous": false,
      "inputs": [
        {
          "indexed": false,
          "internalType": "address",
          "name": "_activePoolAddress",
          "type": "address"
        }
      ],
      "name": "ActivePoolAddressChanged",
      "type": "event"
    },
    {
      "anonymous": false,
      "inputs": [
        {
          "indexed": false,
          "internalType": "address",
          "name": "_collSurplusPoolAddress",
          "type": "address"
        }
      ],
      "name": "CollSurplusPoolAddressChanged",
      "type": "event"
    },
    {
      "anonymous": false,
      "inputs": [
        {
          "indexed": false,
          "internalType": "address",
          "name": "_defaultPoolAddress",
          "type": "address"
        }
      ],
      "name": "DefaultPoolAddressChanged",
      "type": "event"
    },
    {
      "anonymous": false,
      "inputs": [
        {
          "indexed": false,
          "internalType": "address",
          "name": "_gasPoolAddress",
          "type": "address"
        }
      ],
      "name": "GasPoolAddressChanged",
      "type": "event"
    },
    {
      "anonymous": false,
      "inputs": [
        {
          "indexed": true,
          "internalType": "address",
          "name": "previousOwner",
          "type": "address"
        },
        {
          "indexed": true,
          "internalType": "address",
          "name": "newOwner",
          "type": "address"
        }
      ],
      "name": "OwnershipTransferred",
      "type": "event"
    },
    {
      "anonymous": false,
      "inputs": [
        {
          "indexed": false,
          "internalType": "address",
          "name": "_newPriceFeedAddress",
          "type": "address"
        }
      ],
      "name": "PriceFeedAddressChanged",
      "type": "event"
    },
    {
      "anonymous": false,
      "inputs": [
        {
          "indexed": false,
          "internalType": "address",
          "name": "_sortedTrovesAddress",
          "type": "address"
        }
      ],
      "name": "SortedTrovesAddressChanged",
      "type": "event"
    },
    {
      "anonymous": false,
      "inputs": [
        {
          "indexed": false,
          "internalType": "address",
          "name": "_stabilityPoolAddress",
          "type": "address"
        }
      ],
      "name": "StabilityPoolAddressChanged",
      "type": "event"
    },
    {
      "anonymous": false,
      "inputs": [
        {
          "indexed": true,
          "internalType": "address",
          "name": "_borrower",
          "type": "address"
        },
        {
          "indexed": false,
          "internalType": "uint256",
          "name": "arrayIndex",
          "type": "uint256"
        }
      ],
      "name": "TroveCreated",
      "type": "event"
    },
    {
      "anonymous": false,
      "inputs": [
        {
          "indexed": false,
          "internalType": "address",
          "name": "_newTroveManagerAddress",
          "type": "address"
        }
      ],
      "name": "TroveManagerAddressChanged",
      "type": "event"
    },
    {
      "anonymous": false,
      "inputs": [
        {
          "indexed": true,
          "internalType": "address",
          "name": "_borrower",
          "type": "address"
        },
        {
          "indexed": false,
          "internalType": "uint256",
          "name": "_debt",
          "type": "uint256"
        },
        {
          "indexed": false,
          "internalType": "uint256",
          "name": "_coll",
          "type": "uint256"
        },
        {
          "indexed": false,
          "internalType": "uint256",
          "name": "stake",
          "type": "uint256"
        },
        {
          "indexed": false,
          "internalType": "enum IBorrowerOperations.Operation",
          "name": "operation",
          "type": "uint8"
        }
      ],
      "name": "TroveUpdated",
      "type": "event"
    },
    {
      "anonymous": false,
      "inputs": [
        {
          "indexed": false,
          "internalType": "address",
          "name": "_zktStakingAddress",
          "type": "address"
        }
      ],
      "name": "ZKTStakingAddressChanged",
      "type": "event"
    },
    {
      "anonymous": false,
      "inputs": [
        {
          "indexed": true,
          "internalType": "address",
          "name": "_borrower",
          "type": "address"
        },
        {
          "indexed": false,
          "internalType": "uint256",
          "name": "_ZKUSDFee",
          "type": "uint256"
        }
      ],
      "name": "ZKUSDBorrowingFeePaid",
      "type": "event"
    },
    {
      "anonymous": false,
      "inputs": [
        {
          "indexed": false,
          "internalType": "address",
          "name": "_zkusdTokenAddress",
          "type": "address"
        }
      ],
      "name": "ZKUSDTokenAddressChanged",
      "type": "event"
    },
    {
      "inputs": [],
      "name": "BORROWING_FEE_FLOOR",
      "outputs": [
        {
          "internalType": "uint256",
          "name": "",
          "type": "uint256"
        }
      ],
      "stateMutability": "view",
      "type": "function"
    },
    {
      "inputs": [],
      "name": "CCR",
      "outputs": [
        {
          "internalType": "uint256",
          "name": "",
          "type": "uint256"
        }
      ],
      "stateMutability": "view",
      "type": "function"
    },
    {
      "inputs": [],
      "name": "DECIMAL_PRECISION",
      "outputs": [
        {
          "internalType": "uint256",
          "name": "",
          "type": "uint256"
        }
      ],
      "stateMutability": "view",
      "type": "function"
    },
    {
      "inputs": [],
      "name": "MCR",
      "outputs": [
        {
          "internalType": "uint256",
          "name": "",
          "type": "uint256"
        }
      ],
      "stateMutability": "view",
      "type": "function"
    },
    {
      "inputs": [],
      "name": "MIN_NET_DEBT",
      "outputs": [
        {
          "internalType": "uint256",
          "name": "",
          "type": "uint256"
        }
      ],
      "stateMutability": "view",
      "type": "function"
    },
    {
      "inputs": [],
      "name": "NAME",
      "outputs": [
        {
          "internalType": "string",
          "name": "",
          "type": "string"
        }
      ],
      "stateMutability": "view",
      "type": "function"
    },
    {
      "inputs": [],
      "name": "PERCENT_DIVISOR",
      "outputs": [
        {
          "internalType": "uint256",
          "name": "",
          "type": "uint256"
        }
      ],
      "stateMutability": "view",
      "type": "function"
    },
    {
      "inputs": [],
      "name": "ZKUSD_GAS_COMPENSATION",
      "outputs": [
        {
          "internalType": "uint256",
          "name": "",
          "type": "uint256"
        }
      ],
      "stateMutability": "view",
      "type": "function"
    },
    {
      "inputs": [],
      "name": "_100pct",
      "outputs": [
        {
          "internalType": "uint256",
          "name": "",
          "type": "uint256"
        }
      ],
      "stateMutability": "view",
      "type": "function"
    },
    {
      "inputs": [],
      "name": "activePool",
      "outputs": [
        {
          "internalType": "contract IActivePool",
          "name": "",
          "type": "address"
        }
      ],
      "stateMutability": "view",
      "type": "function"
    },
    {
      "inputs": [
        {
          "internalType": "address",
          "name": "_upperHint",
          "type": "address"
        },
        {
          "internalType": "address",
          "name": "_lowerHint",
          "type": "address"
        }
      ],
      "name": "addColl",
      "outputs": [],
      "stateMutability": "payable",
      "type": "function"
    },
    {
      "inputs": [
        {
          "internalType": "uint256",
          "name": "_maxFeePercentage",
          "type": "uint256"
        },
        {
          "internalType": "uint256",
          "name": "_collWithdrawal",
          "type": "uint256"
        },
        {
          "internalType": "uint256",
          "name": "_ZKUSDChange",
          "type": "uint256"
        },
        {
          "internalType": "bool",
          "name": "_isDebtIncrease",
          "type": "bool"
        },
        {
          "internalType": "address",
          "name": "_upperHint",
          "type": "address"
        },
        {
          "internalType": "address",
          "name": "_lowerHint",
          "type": "address"
        }
      ],
      "name": "adjustTrove",
      "outputs": [],
      "stateMutability": "payable",
      "type": "function"
    },
    {
      "inputs": [],
      "name": "claimCollateral",
      "outputs": [],
      "stateMutability": "nonpayable",
      "type": "function"
    },
    {
      "inputs": [],
      "name": "closeTrove",
      "outputs": [],
      "stateMutability": "nonpayable",
      "type": "function"
    },
    {
      "inputs": [],
      "name": "defaultPool",
      "outputs": [
        {
          "internalType": "contract IDefaultPool",
          "name": "",
          "type": "address"
        }
      ],
      "stateMutability": "view",
      "type": "function"
    },
    {
      "inputs": [
        {
          "internalType": "uint256",
          "name": "_debt",
          "type": "uint256"
        }
      ],
      "name": "getCompositeDebt",
      "outputs": [
        {
          "internalType": "uint256",
          "name": "",
          "type": "uint256"
        }
      ],
      "stateMutability": "pure",
      "type": "function"
    },
    {
      "inputs": [],
      "name": "getEntireSystemColl",
      "outputs": [
        {
          "internalType": "uint256",
          "name": "entireSystemColl",
          "type": "uint256"
        }
      ],
      "stateMutability": "view",
      "type": "function"
    },
    {
      "inputs": [],
      "name": "getEntireSystemDebt",
      "outputs": [
        {
          "internalType": "uint256",
          "name": "entireSystemDebt",
          "type": "uint256"
        }
      ],
      "stateMutability": "view",
      "type": "function"
    },
    {
      "inputs": [
        {
          "internalType": "address",
          "name": "_borrower",
          "type": "address"
        },
        {
          "internalType": "address",
          "name": "_upperHint",
          "type": "address"
        },
        {
          "internalType": "address",
          "name": "_lowerHint",
          "type": "address"
        }
      ],
      "name": "moveETHGainToTrove",
      "outputs": [],
      "stateMutability": "payable",
      "type": "function"
    },
    {
      "inputs": [
        {
          "internalType": "uint256",
          "name": "_maxFeePercentage",
          "type": "uint256"
        },
        {
          "internalType": "uint256",
          "name": "_ZKUSDAmount",
          "type": "uint256"
        },
        {
          "internalType": "address",
          "name": "_upperHint",
          "type": "address"
        },
        {
          "internalType": "address",
          "name": "_lowerHint",
          "type": "address"
        }
      ],
      "name": "openTrove",
      "outputs": [],
      "stateMutability": "payable",
      "type": "function"
    },
    {
      "inputs": [],
      "name": "owner",
      "outputs": [
        {
          "internalType": "address",
          "name": "",
          "type": "address"
        }
      ],
      "stateMutability": "view",
      "type": "function"
    },
    {
      "inputs": [],
      "name": "priceFeed",
      "outputs": [
        {
          "internalType": "contract IPriceFeed",
          "name": "",
          "type": "address"
        }
      ],
      "stateMutability": "view",
      "type": "function"
    },
    {
      "inputs": [],
      "name": "renounceOwnership",
      "outputs": [],
      "stateMutability": "nonpayable",
      "type": "function"
    },
    {
      "inputs": [
        {
          "internalType": "uint256",
          "name": "_ZKUSDAmount",
          "type": "uint256"
        },
        {
          "internalType": "address",
          "name": "_upperHint",
          "type": "address"
        },
        {
          "internalType": "address",
          "name": "_lowerHint",
          "type": "address"
        }
      ],
      "name": "repayZKUSD",
      "outputs": [],
      "stateMutability": "nonpayable",
      "type": "function"
    },
    {
      "inputs": [
        {
          "internalType": "address",
          "name": "_troveManagerAddress",
          "type": "address"
        },
        {
          "internalType": "address",
          "name": "_activePoolAddress",
          "type": "address"
        },
        {
          "internalType": "address",
          "name": "_defaultPoolAddress",
          "type": "address"
        },
        {
          "internalType": "address",
          "name": "_stabilityPoolAddress",
          "type": "address"
        },
        {
          "internalType": "address",
          "name": "_gasPoolAddress",
          "type": "address"
        },
        {
          "internalType": "address",
          "name": "_collSurplusPoolAddress",
          "type": "address"
        },
        {
          "internalType": "address",
          "name": "_priceFeedAddress",
          "type": "address"
        },
        {
          "internalType": "address",
          "name": "_sortedTrovesAddress",
          "type": "address"
        },
        {
          "internalType": "address",
          "name": "_zkusdTokenAddress",
          "type": "address"
        },
        {
          "internalType": "address",
          "name": "_zktStakingAddress",
          "type": "address"
        }
      ],
      "name": "setAddresses",
      "outputs": [],
      "stateMutability": "nonpayable",
      "type": "function"
    },
    {
      "inputs": [],
      "name": "sortedTroves",
      "outputs": [
        {
          "internalType": "contract ISortedTroves",
          "name": "",
          "type": "address"
        }
      ],
      "stateMutability": "view",
      "type": "function"
    },
    {
      "inputs": [
        {
          "internalType": "address",
          "name": "newOwner",
          "type": "address"
        }
      ],
      "name": "transferOwnership",
      "outputs": [],
      "stateMutability": "nonpayable",
      "type": "function"
    },
    {
      "inputs": [],
      "name": "troveManager",
      "outputs": [
        {
          "internalType": "contract ITroveManager",
          "name": "",
          "type": "address"
        }
      ],
      "stateMutability": "view",
      "type": "function"
    },
    {
      "inputs": [
        {
          "internalType": "uint256",
          "name": "_collWithdrawal",
          "type": "uint256"
        },
        {
          "internalType": "address",
          "name": "_upperHint",
          "type": "address"
        },
        {
          "internalType": "address",
          "name": "_lowerHint",
          "type": "address"
        }
      ],
      "name": "withdrawColl",
      "outputs": [],
      "stateMutability": "nonpayable",
      "type": "function"
    },
    {
      "inputs": [
        {
          "internalType": "uint256",
          "name": "_maxFeePercentage",
          "type": "uint256"
        },
        {
          "internalType": "uint256",
          "name": "_ZKUSDAmount",
          "type": "uint256"
        },
        {
          "internalType": "address",
          "name": "_upperHint",
          "type": "address"
        },
        {
          "internalType": "address",
          "name": "_lowerHint",
          "type": "address"
        }
      ],
      "name": "withdrawZKUSD",
      "outputs": [],
      "stateMutability": "nonpayable",
      "type": "function"
    },
    {
      "inputs": [],
      "name": "zktStaking",
      "outputs": [
        {
          "internalType": "contract IZKTStaking",
          "name": "",
          "type": "address"
        }
      ],
      "stateMutability": "view",
      "type": "function"
    },
    {
      "inputs": [],
      "name": "zktStakingAddress",
      "outputs": [
        {
          "internalType": "address",
          "name": "",
          "type": "address"
        }
      ],
      "stateMutability": "view",
      "type": "function"
    },
    {
      "inputs": [],
      "name": "zkusdToken",
      "outputs": [
        {
          "internalType": "contract IZKUSDToken",
          "name": "",
          "type": "address"
        }
      ],
      "stateMutability": "view",
      "type": "function"
    }
  ],
  "transactionHash": "0xb4eca01c242db672cea1b623c3776088ee39c05b4adbc1fa3423b910afbb684d",
  "args": [],
  "numDeployments": 1,
  "solcInputHash": "8d3bedc4d324e183b89fd63f58bc09d7",
  "bytecode": "0x60806040523480156200001157600080fd5b506200001d3362000023565b62000075565b600380546001600160a01b038381166001600160a01b0319831681179093556040519116919082907f8be0079c531659141344cd1fd0a4f28419497f9722a3daafe3b4186f6b6457e090600090a35050565b61345080620000856000396000f3fe6080604052600436106101ee5760003560e01c8063741bef1a1161010d578063a3f4df7e116100a0578063c6a6cf201161006f578063c6a6cf2014610546578063e34341ab14610559578063ea9638bf14610579578063f2fde38b1461058c578063f92d3433146105ac57600080fd5b8063a3f4df7e14610493578063ae918754146104e9578063b4bb222d14610509578063c192645b1461052957600080fd5b8063860665b3116100dc578063860665b31461044d578063887105d3146104605780638da5cb5b14610475578063a20baee6146103c057600080fd5b8063741bef1a146103dc578063794e5724146103fc578063795d26c3146104185780637f7dde4a1461042d57600080fd5b80635530273c116101855780636c37a4af116101545780636c37a4af146103765780636f0b0c1c14610396578063715018a6146103ab57806372fe25aa146103c057600080fd5b80635530273c146103075780635733d58f1461032757806364248d081461034357806368647db11461036357600080fd5b80633cc74225116101c15780633cc74225146102925780633d83908a146102b25780634870dd9a146102d25780634ff81443146102e757600080fd5b80630e704d50146101f357806310e7dd391461020a5780631bf435551461022a57806335a3f7071461025a575b600080fd5b3480156101ff57600080fd5b506102086105c1565b005b34801561021657600080fd5b506102086102253660046130d8565b610972565b34801561023657600080fd5b50610247681b1ae4d6e2ef50000081565b6040519081526020015b60405180910390f35b34801561026657600080fd5b50600a5461027a906001600160a01b031681565b6040516001600160a01b039091168152602001610251565b34801561029e57600080fd5b5060015461027a906001600160a01b031681565b3480156102be57600080fd5b5060045461027a906001600160a01b031681565b3480156102de57600080fd5b50610247610989565b3480156102f357600080fd5b5061024761030236600461311e565b6109a7565b34801561031357600080fd5b50610208610322366004613137565b6109b8565b34801561033357600080fd5b506102476714d1120d7b16000081565b34801561034f57600080fd5b5061020861035e366004613137565b6109ce565b610208610371366004613173565b6109e0565b34801561038257600080fd5b506102086103913660046131a6565b6109f6565b3480156103a257600080fd5b50610208610d5b565b3480156103b757600080fd5b50610208610db4565b3480156103cc57600080fd5b50610247670de0b6b3a764000081565b3480156103e857600080fd5b5060025461027a906001600160a01b031681565b34801561040857600080fd5b50610247670f43fc2c04ee000081565b34801561042457600080fd5b50610247610dc8565b34801561043957600080fd5b5060005461027a906001600160a01b031681565b61020861045b3660046130d8565b610ec4565b34801561046c57600080fd5b506102476114bd565b34801561048157600080fd5b506003546001600160a01b031661027a565b34801561049f57600080fd5b506104dc6040518060400160405280601281526020017f426f72726f7765724f7065726174696f6e73000000000000000000000000000081525081565b6040516102519190613260565b3480156104f557600080fd5b50600b5461027a906001600160a01b031681565b34801561051557600080fd5b5060095461027a906001600160a01b031681565b34801561053557600080fd5b506102476802b5e3af16b188000081565b6102086105543660046132ae565b611582565b34801561056557600080fd5b5060085461027a906001600160a01b031681565b610208610587366004613314565b611599565b34801561059857600080fd5b506102086105a7366004613340565b6115b3565b3480156105b857600080fd5b50610247611631565b600454600054600a546001600160a01b039283169291821691166105e58333611651565b60025460408051630fdb11cf60e01b815290516000926001600160a01b031691630fdb11cf916004808301926020929190829003018187875af1158015610630573d6000803e3d6000fd5b505050506040513d601f19601f82011682018060405250810190610654919061335b565b905061065f81611726565b604051630b07655760e01b81523360048201526001600160a01b03851690630b07655790602401600060405180830381600087803b1580156106a057600080fd5b505af11580156106b4573d6000803e3d6000fd5b50506040516309019aaf60e31b8152336004820152600092506001600160a01b038716915063480cd57890602401602060405180830381865afa1580156106ff573d6000803e3d6000fd5b505050506040513d601f19601f82011682018060405250810190610723919061335b565b60405163d66a255360e01b81523360048201529091506000906001600160a01b0387169063d66a255390602401602060405180830381865afa15801561076d573d6000803e3d6000fd5b505050506040513d601f19601f82011682018060405250810190610791919061335b565b90506107b084336107ab846802b5e3af16b18800006117a2565b6117b5565b60006107c183600084600088611896565b90506107cc8161190b565b604051631fc5750960e31b81523360048201526001600160a01b0388169063fe2ba84890602401600060405180830381600087803b15801561080d57600080fd5b505af1158015610821573d6000803e3d6000fd5b50506040516365e89c5760e11b81523360048201526001600160a01b038a16925063cbd138ae9150602401600060405180830381600087803b15801561086657600080fd5b505af115801561087a573d6000803e3d6000fd5b50505050336001600160a01b03167fc3770d654ed33aeea6bf11ac8ef05d02a6a04ed4686dd2f624d853bbec43cc8b600080600060016040516108c09493929190613396565b60405180910390a26108e68686336108e1866802b5e3af16b18800006117a2565b611999565b60065461090990879087906001600160a01b03166802b5e3af16b1880000611999565b6040516364a197f360e01b8152336004820152602481018490526001600160a01b038716906364a197f390604401600060405180830381600087803b15801561095157600080fd5b505af1158015610965573d6000803e3d6000fd5b5050505050505050505050565b61098333600085600186868a611a5b565b50505050565b6109a4670de0b6b3a76400006802b5e3af16b18800006133ce565b81565b60006109b282612038565b92915050565b6109c9338460008086866000611a5b565b505050565b6109c933600085600086866000611a5b565b6109f233600080600086866000611a5b565b5050565b6109fe61204d565b610a078a6120a7565b610a10896120a7565b610a19886120a7565b610a22876120a7565b610a2b866120a7565b610a34856120a7565b610a3d846120a7565b610a46836120a7565b610a4f826120a7565b610a58816120a7565b6004805473ffffffffffffffffffffffffffffffffffffffff199081166001600160a01b038d81169182179093556000805483168d85161790556001805483168c85161790556005805483168b85161790556006805483168a8516179055600780548316898516179055600280548316888516179055600b80548316878516179055600a8054831686851617905560098054831693851693841790556008805490921690921790556040519081527f143219c9e69b09e07e095fcc889b43d8f46ca892bba65f08dc3a0050869a56789060200160405180910390a16040516001600160a01b038a1681527f78f058b189175430c48dc02699e3a0031ea4ff781536dc2fab847de4babdd8829060200160405180910390a16040516001600160a01b03891681527f5ee0cae2f063ed938bb55046f6a932fb6ae792bf43624806bb90abe68a50be9b9060200160405180910390a16040516001600160a01b03881681527f82966d27eea39b038ee0fa30cd16532bb24f6e65d31cb58fb227aa5766cdcc7f9060200160405180910390a16040516001600160a01b03871681527fcfb07d791fcafc032b35837b50eb84b74df518cf4cc287e8084f47630fa70fa09060200160405180910390a16040516001600160a01b03861681527fe67f36a6e961157d6eff83b91f3af5a62131ceb6f04954ef74f51c1c05e7f88d9060200160405180910390a16040516001600160a01b03851681527f8c537274438aa850a330284665d81a85dd38267d09e4050d416bfc94142db2649060200160405180910390a16040516001600160a01b03841681527f65f4cf077bc01e4742eb5ad98326f6e95b63548ea24b17f8d5e823111fe788009060200160405180910390a16040516001600160a01b03831681527fbce04ccd812fbb02ec2145498f813470d7b7587b19477428388fe8201a1521319060200160405180910390a16040516001600160a01b03821681527f468634f5d5d4ec87457506a98d964db31fea0d63fc80a14ba75267970253ac149060200160405180910390a150505050505050505050565b60075460405163b32beb5b60e01b81523360048201526001600160a01b039091169063b32beb5b90602401600060405180830381600087803b158015610da057600080fd5b505af1158015610983573d6000803e3d6000fd5b610dbc61204d565b610dc66000612154565b565b600080546040805163512a9ebb60e01b8152905183926001600160a01b03169163512a9ebb9160048083019260209291908290030181865afa158015610e12573d6000803e3d6000fd5b505050506040513d601f19601f82011682018060405250810190610e36919061335b565b90506000600160009054906101000a90046001600160a01b03166001600160a01b031663512a9ebb6040518163ffffffff1660e01b8152600401602060405180830381865afa158015610e8d573d6000803e3d6000fd5b505050506040513d601f19601f82011682018060405250810190610eb1919061335b565b9050610ebd82826121b3565b9250505090565b6040805160608082018352600480546001600160a01b039081168452600080548216602080870191909152600a548316868801528651610100810188528281528082018390528088018390529485018290526080850182905260a0850182905260c0850182905260e085018290526002548751630fdb11cf60e01b8152975196979596931694630fdb11cf948181019492939183900301908290875af1158015610f72573d6000803e3d6000fd5b505050506040513d601f19601f82011682018060405250810190610f96919061335b565b808252600090610fa5906121bf565b9050610fb187826121dc565b8251610fbd9033612309565b6040820186905280610ff857610fdd83600001518460400151888a6123c9565b602083018190526040830151610ff2916121b3565b60408301525b6110058260400151612565565b6110128260400151612038565b60608301819052611025576110256133f0565b61103834836060015184600001516125e4565b6080830152606082015161104d903490612616565b60a0830152801561106a576110658260800151612645565b61109d565b61107782608001516126c3565b6000611090346001856060015160018760000151611896565b905061109b8161190b565b505b8251604051635d6b480f60e01b8152336004820152600160248201526001600160a01b0390911690635d6b480f90604401600060405180830381600087803b1580156110e857600080fd5b505af11580156110fc573d6000803e3d6000fd5b505084516040516372423c1760e01b81523360048201523460248201526001600160a01b0390911692506372423c1791506044016020604051808303816000875af115801561114f573d6000803e3d6000fd5b505050506040513d601f19601f82011682018060405250810190611173919061335b565b5082516060830151604051639976cf4560e01b815233600482015260248101919091526001600160a01b0390911690639976cf45906044016020604051808303816000875af11580156111ca573d6000803e3d6000fd5b505050506040513d601f19601f820116820180604052508101906111ee919061335b565b5082516040516382fe3eb960e01b81523360048201526001600160a01b03909116906382fe3eb990602401600060405180830381600087803b15801561123357600080fd5b505af1158015611247573d6000803e3d6000fd5b50508451604051630c7940bd60e11b81523360048201526001600160a01b0390911692506318f2817a91506024016020604051808303816000875af1158015611294573d6000803e3d6000fd5b505050506040513d601f19601f820116820180604052508101906112b8919061335b565b60c0830152600b5460a08301516040516346f7cf8760e01b815233600482015260248101919091526001600160a01b0387811660448301528681166064830152909116906346f7cf8790608401600060405180830381600087803b15801561131f57600080fd5b505af1158015611333573d6000803e3d6000fd5b505084516040516315d549f160e01b81523360048201526001600160a01b0390911692506315d549f191506024016020604051808303816000875af1158015611380573d6000803e3d6000fd5b505050506040513d601f19601f820116820180604052508101906113a4919061335b565b60e0830181905260405190815233907f59cfd0cd754bc5748b6770e94a4ffa5f678d885cb899dcfadc5734edb97c67ab9060200160405180910390a26113ee836020015134612751565b6114078360200151846040015133898660400151612808565b602083015160408401516006546114339291906001600160a01b03166802b5e3af16b188000080612808565b606082015160c083015160405133927fc3770d654ed33aeea6bf11ac8ef05d02a6a04ed4686dd2f624d853bbec43cc8b9261147392349190600090613396565b60405180910390a260208083015160405190815233917f26990916a37e0f8569b3c9f7472730814e6e924fda9de44752b4fb9972ef333f910160405180910390a250505050505050565b6000805460408051630a7b61df60e11b8152905183926001600160a01b0316916314f6c3be9160048083019260209291908290030181865afa158015611507573d6000803e3d6000fd5b505050506040513d601f19601f8201168201806040525081019061152b919061335b565b90506000600160009054906101000a90046001600160a01b03166001600160a01b03166314f6c3be6040518163ffffffff1660e01b8152600401602060405180830381865afa158015610e8d573d6000803e3d6000fd5b6115913386868686868c611a5b565b505050505050565b6115a16128cb565b6109c983600080600086866000611a5b565b6115bb61204d565b6001600160a01b0381166116255760405162461bcd60e51b815260206004820152602660248201527f4f776e61626c653a206e6577206f776e657220697320746865207a65726f206160448201526564647265737360d01b60648201526084015b60405180910390fd5b61162e81612154565b50565b611646620186a0670de0b6b3a76400006133ce565b6109a4906005613406565b6040516321e3780160e01b81526001600160a01b038281166004830152600091908416906321e3780190602401602060405180830381865afa15801561169b573d6000803e3d6000fd5b505050506040513d601f19601f820116820180604052508101906116bf919061335b565b9050806001146109c95760405162461bcd60e51b815260206004820152602c60248201527f4f7065726174696f6e3a2054726f766520646f6573206e6f742065786973742060448201526b1bdc881a5cc818db1bdcd95960a21b606482015260840161161c565b61172f816121bf565b1561162e5760405162461bcd60e51b815260206004820152603760248201527f4f7065726174696f6e3a204f7065726174696f6e206e6f74207065726d69747460448201527f656420647572696e67205265636f76657279204d6f6465000000000000000000606482015260840161161c565b60006117ae828461341d565b9392505050565b6040516370a0823160e01b81526001600160a01b0383811660048301528291908516906370a0823190602401602060405180830381865afa1580156117fe573d6000803e3d6000fd5b505050506040513d601f19601f82011682018060405250810190611822919061335b565b10156109c95760405162461bcd60e51b815260206004820152603c60248201527f4f7065726174696f6e3a2043616c6c657220646f65736e74206861766520656e60448201527f6f756768205a4b55534420746f206d616b652072657061796d656e7400000000606482015260840161161c565b6000806118a16114bd565b905060006118ad610dc8565b9050866118c3576118be82896117a2565b6118cd565b6118cd82896121b3565b9150846118e3576118de81876117a2565b6118ed565b6118ed81876121b3565b905060006118fc8383876125e4565b93505050505b95945050505050565b6714d1120d7b16000081101561162e5760405162461bcd60e51b815260206004820152604760248201527f4f7065726174696f6e3a20416e206f7065726174696f6e207468617420776f7560448201527f6c6420726573756c7420696e20544352203c20434352206973206e6f742070656064820152661c9b5a5d1d195960ca1b608482015260a40161161c565b6040516305af902160e31b8152600481018290526001600160a01b03851690632d7c810890602401600060405180830381600087803b1580156119db57600080fd5b505af11580156119ef573d6000803e3d6000fd5b5050604051632770a7eb60e21b81526001600160a01b0385811660048301526024820185905286169250639dc29fac9150604401600060405180830381600087803b158015611a3d57600080fd5b505af1158015611a51573d6000803e3d6000fd5b5050505050505050565b6040805160608082018352600480546001600160a01b039081168452600080548216602080870191909152600a5483168688015286516101a0810188528281528082018390528088018390529485018290526080850182905260a0850182905260c0850182905260e08501829052610100850182905261012085018290526101408501829052610160850182905261018085018290526002548751630fdb11cf60e01b8152975196979596931694630fdb11cf948181019492939183900301908290875af1158015611b31573d6000803e3d6000fd5b505050506040513d601f19601f82011682018060405250810190611b55919061335b565b808252600090611b64906121bf565b90508615611b7f57611b7684826121dc565b611b7f88612935565b611b88896129ab565b611b928989612a12565b8251611b9e908b611651565b336001600160a01b038b161480611bd457506005546001600160a01b031633148015611bca5750600034115b8015611bd4575087155b611be057611be06133f0565b8251604051630b07655760e01b81526001600160a01b038c8116600483015290911690630b07655790602401600060405180830381600087803b158015611c2657600080fd5b505af1158015611c3a573d6000803e3d6000fd5b50505050611c48348a612aa9565b15156060840152602083015260408201889052868015611c66575080155b15611c9b57611c7f836000015184604001518a876123c9565b61012083018190526040830151611c95916121b3565b60408301525b825160405163d66a255360e01b81526001600160a01b038c811660048301529091169063d66a255390602401602060405180830381865afa158015611ce4573d6000803e3d6000fd5b505050506040513d601f19601f82011682018060405250810190611d08919061335b565b608083015282516040516309019aaf60e31b81526001600160a01b038c811660048301529091169063480cd57890602401602060405180830381865afa158015611d56573d6000803e3d6000fd5b505050506040513d601f19601f82011682018060405250810190611d7a919061335b565b60a0830181905260808301518351611d939291906125e4565b8260c0018181525050611dc38260a0015183608001518460200151856060015186604001518c8860000151612ac8565b60e083015260a0820151891115611ddc57611ddc6133f0565b611de8818a8985612afb565b86158015611df65750600088115b15611e4357611e1e611e198360400151611e138560800151612b6f565b906117a2565b612565565b611e3082608001518360400151612b84565b611e4383604001518b84604001516117b5565b611e6183600001518b8460200151856060015186604001518c612c16565b6101408401526101608301528251604051630c7940bd60e11b81526001600160a01b038c81166004830152909116906318f2817a906024016020604051808303816000875af1158015611eb8573d6000803e3d6000fd5b505050506040513d601f19601f82011682018060405250810190611edc919061335b565b826101800181815250506000611f0a8360a0015184608001518560200151866060015187604001518d612e10565b600b5460405163015f109360e51b81526001600160a01b038e81166004830152602482018490528a811660448301528981166064830152929350911690632be2126090608401600060405180830381600087803b158015611f6a57600080fd5b505af1158015611f7e573d6000803e3d6000fd5b505050508a6001600160a01b03167fc3770d654ed33aeea6bf11ac8ef05d02a6a04ed4686dd2f624d853bbec43cc8b8461014001518561016001518661018001516002604051611fd19493929190613396565b60405180910390a261012083015160405190815233907f26990916a37e0f8569b3c9f7472730814e6e924fda9de44752b4fb9972ef333f9060200160405180910390a26109658460200151856040015133866020015187606001518e8e8a60400151612e41565b60006109b2826802b5e3af16b18800006121b3565b6003546001600160a01b03163314610dc65760405162461bcd60e51b815260206004820181905260248201527f4f776e61626c653a2063616c6c6572206973206e6f7420746865206f776e6572604482015260640161161c565b6001600160a01b0381166120fd5760405162461bcd60e51b815260206004820152601e60248201527f4163636f756e742063616e6e6f74206265207a65726f20616464726573730000604482015260640161161c565b6001600160a01b0381163b61162e5760405162461bcd60e51b815260206004820181905260248201527f4163636f756e7420636f64652073697a652063616e6e6f74206265207a65726f604482015260640161161c565b600380546001600160a01b0383811673ffffffffffffffffffffffffffffffffffffffff19831681179093556040519116919082907f8be0079c531659141344cd1fd0a4f28419497f9722a3daafe3b4186f6b6457e090600090a35050565b60006117ae8284613430565b6000806121cb83612ee6565b6714d1120d7b160000119392505050565b801561226057670de0b6b3a76400008211156109f25760405162461bcd60e51b815260206004820152603260248201527f4d6178206665652070657263656e74616765206d757374206c6573732074686160448201527f6e206f7220657175616c20746f20313030250000000000000000000000000000606482015260840161161c565b612275620186a0670de0b6b3a76400006133ce565b612280906005613406565b82101580156122975750670de0b6b3a76400008211155b6109f25760405162461bcd60e51b815260206004820152603060248201527f4d6178206665652070657263656e74616765206d75737420626520626574776560448201527f656e20302e352520616e64203130302500000000000000000000000000000000606482015260840161161c565b6040516321e3780160e01b81526001600160a01b038281166004830152600091908416906321e3780190602401602060405180830381865afa158015612353573d6000803e3d6000fd5b505050506040513d601f19601f82011682018060405250810190612377919061335b565b9050806001036109c95760405162461bcd60e51b815260206004820152601a60248201527f4f7065726174696f6e3a2054726f766520697320616374697665000000000000604482015260640161161c565b6000846001600160a01b0316635dba4c4a6040518163ffffffff1660e01b8152600401600060405180830381600087803b15801561240657600080fd5b505af115801561241a573d6000803e3d6000fd5b5050604051630631203b60e41b815260048101869052600092506001600160a01b038816915063631203b090602401602060405180830381865afa158015612466573d6000803e3d6000fd5b505050506040513d601f19601f8201168201806040525081019061248a919061335b565b9050612497818585612f12565b6008546040516318f40bcf60e11b8152600481018390526001600160a01b03909116906331e8179e90602401600060405180830381600087803b1580156124dd57600080fd5b505af11580156124f1573d6000803e3d6000fd5b50506009546040516340c10f1960e01b81526001600160a01b0391821660048201526024810185905290881692506340c10f199150604401600060405180830381600087803b15801561254357600080fd5b505af1158015612557573d6000803e3d6000fd5b509298975050505050505050565b681b1ae4d6e2ef50000081101561162e5760405162461bcd60e51b815260206004820152603860248201527f4f7065726174696f6e3a2054726f76652773206e65742064656274206d75737460448201527f2062652067726561746572207468616e206d696e696d756d0000000000000000606482015260840161161c565b6000821561260b576000612602846125fc8786612f7c565b90612f88565b91506117ae9050565b506000199392505050565b6000811561263c57612635826125fc8568056bc75e2d63100000612f7c565b90506109b2565b506000196109b2565b6714d1120d7b16000081101561162e5760405162461bcd60e51b815260206004820152603560248201527f4f7065726174696f6e3a204f7065726174696f6e206d757374206c656176652060448201527f74726f7665207769746820494352203e3d204343520000000000000000000000606482015260840161161c565b670f43fc2c04ee000081101561162e5760405162461bcd60e51b815260206004820152604760248201527f4f7065726174696f6e3a20416e206f7065726174696f6e207468617420776f7560448201527f6c6420726573756c7420696e20494352203c204d4352206973206e6f742070656064820152661c9b5a5d1d195960ca1b608482015260a40161161c565b6000826001600160a01b03168260405160006040518083038185875af1925050503d806000811461279e576040519150601f19603f3d011682016040523d82523d6000602084013e6127a3565b606091505b50509050806109c95760405162461bcd60e51b815260206004820152602b60248201527f4f7065726174696f6e3a2053656e64696e672045544820746f2041637469766560448201526a141bdbdb0819985a5b195960aa1b606482015260840161161c565b604051636b05e97760e01b8152600481018290526001600160a01b03861690636b05e97790602401600060405180830381600087803b15801561284a57600080fd5b505af115801561285e573d6000803e3d6000fd5b50506040516340c10f1960e01b81526001600160a01b03868116600483015260248201869052871692506340c10f199150604401600060405180830381600087803b1580156128ac57600080fd5b505af11580156128c0573d6000803e3d6000fd5b505050505050505050565b6005546001600160a01b03163314610dc65760405162461bcd60e51b815260206004820152602760248201527f4f7065726174696f6e3a2043616c6c6572206973206e6f742053746162696c696044820152661d1e48141bdbdb60ca1b606482015260840161161c565b6000811161162e5760405162461bcd60e51b815260206004820152603560248201527f4f7065726174696f6e3a204465627420696e637265617365207265717569726560448201527f73206e6f6e2d7a65726f20646562744368616e67650000000000000000000000606482015260840161161c565b3415806129b6575080155b61162e5760405162461bcd60e51b815260206004820152602760248201527f4f7065726174696f6e3a2043616e6e6f7420776974686472617720616e64206160448201526619190818dbdb1b60ca1b606482015260840161161c565b34151580612a1f57508115155b80612a2957508015155b6109f25760405162461bcd60e51b8152602060048201526044602482018190527f4f7065726174696f6e3a205468657265206d7573742062652065697468657220908201527f6120636f6c6c61746572616c206368616e6765206f7220612064656274206368606482015263616e676560e01b608482015260a40161161c565b6000808315612abd57508290506001612ac1565b8291505b9250929050565b6000806000612adb8a8a8a8a8a8a612f94565b915091506000612aec8383876125e4565b9b9a5050505050505050505050565b8315612b3457612b0a83612fd2565b8115612b2f57612b1d8160e00151612645565b612b2f8160e001518260c00151613046565b610983565b612b418160e001516126c3565b612b5e816020015182606001518360400151858560000151611896565b61010082018190526109839061190b565b60006109b2826802b5e3af16b18800006117a2565b612b97826802b5e3af16b18800006117a2565b8111156109f25760405162461bcd60e51b815260206004820152604160248201527f4f7065726174696f6e3a20416d6f756e7420726570616964206d757374206e6f60448201527f74206265206c6172676572207468616e207468652054726f76652773206465626064820152601d60fa1b608482015260a40161161c565b600080600085612c985760405163d3d6f84360e01b81526001600160a01b038981166004830152602482018990528a169063d3d6f843906044016020604051808303816000875af1158015612c6f573d6000803e3d6000fd5b505050506040513d601f19601f82011682018060405250810190612c93919061335b565b612d0b565b6040516372423c1760e01b81526001600160a01b038981166004830152602482018990528a16906372423c17906044016020604051808303816000875af1158015612ce7573d6000803e3d6000fd5b505050506040513d601f19601f82011682018060405250810190612d0b919061335b565b9050600084612d8c57604051630930874960e11b81526001600160a01b038a81166004830152602482018890528b16906312610e92906044016020604051808303816000875af1158015612d63573d6000803e3d6000fd5b505050506040513d601f19601f82011682018060405250810190612d87919061335b565b612dff565b604051639976cf4560e01b81526001600160a01b038a81166004830152602482018890528b1690639976cf45906044016020604051808303816000875af1158015612ddb573d6000803e3d6000fd5b505050506040513d601f19601f82011682018060405250810190612dff919061335b565b919a91995090975050505050505050565b6000806000612e23898989898989612f94565b915091506000612e338383612616565b9a9950505050505050505050565b8115612e5957612e548888888685612808565b612e65565b612e6588888886611999565b8315612e7a57612e758886612751565b611a51565b6040516364a197f360e01b81526001600160a01b038781166004830152602482018790528916906364a197f390604401600060405180830381600087803b158015612ec457600080fd5b505af1158015612ed8573d6000803e3d6000fd5b505050505050505050505050565b600080612ef16114bd565b90506000612efd610dc8565b9050612f0a8282866125e4565b949350505050565b6000612f2a836125fc86670de0b6b3a7640000612f7c565b9050818111156109835760405162461bcd60e51b815260206004820152601d60248201527f4665652065786365656465642070726f7669646564206d6178696d756d000000604482015260640161161c565b60006117ae8284613406565b60006117ae82846133ce565b600080878786612fad57612fa88a896117a2565b612fb7565b612fb78a896121b3565b915084612fc857612d8789876117a2565b612dff89876121b3565b801561162e5760405162461bcd60e51b815260206004820152603c60248201527f4f7065726174696f6e3a20436f6c6c61746572616c207769746864726177616c60448201527f206e6f74207065726d6974746564205265636f76657279204d6f646500000000606482015260840161161c565b808210156109f25760405162461bcd60e51b815260206004820152603c60248201527f4f7065726174696f6e3a2043616e6e6f7420646563726561736520796f75722060448201527f54726f766527732049435220696e205265636f76657279204d6f646500000000606482015260840161161c565b80356001600160a01b03811681146130d357600080fd5b919050565b600080600080608085870312156130ee57600080fd5b8435935060208501359250613105604086016130bc565b9150613113606086016130bc565b905092959194509250565b60006020828403121561313057600080fd5b5035919050565b60008060006060848603121561314c57600080fd5b8335925061315c602085016130bc565b915061316a604085016130bc565b90509250925092565b6000806040838503121561318657600080fd5b61318f836130bc565b915061319d602084016130bc565b90509250929050565b6000806000806000806000806000806101408b8d0312156131c657600080fd5b6131cf8b6130bc565b99506131dd60208c016130bc565b98506131eb60408c016130bc565b97506131f960608c016130bc565b965061320760808c016130bc565b955061321560a08c016130bc565b945061322360c08c016130bc565b935061323160e08c016130bc565b92506132406101008c016130bc565b915061324f6101208c016130bc565b90509295989b9194979a5092959850565b600060208083528351808285015260005b8181101561328d57858101830151858201604001528201613271565b506000604082860101526040601f19601f8301168501019250505092915050565b60008060008060008060c087890312156132c757600080fd5b863595506020870135945060408701359350606087013580151581146132ec57600080fd5b92506132fa608088016130bc565b915061330860a088016130bc565b90509295509295509295565b60008060006060848603121561332957600080fd5b613332846130bc565b925061315c602085016130bc565b60006020828403121561335257600080fd5b6117ae826130bc565b60006020828403121561336d57600080fd5b5051919050565b6003811061339257634e487b7160e01b600052602160045260246000fd5b9052565b8481526020810184905260408101839052608081016119026060830184613374565b634e487b7160e01b600052601160045260246000fd5b6000826133eb57634e487b7160e01b600052601260045260246000fd5b500490565b634e487b7160e01b600052600160045260246000fd5b80820281158282048414176109b2576109b26133b8565b818103818111156109b2576109b26133b8565b808201808211156109b2576109b26133b856fea164736f6c6343000811000a",
  "devdoc": {
    "kind": "dev",
    "methods": {
      "owner()": {
        "details": "Returns the address of the current owner."
      },
      "renounceOwnership()": {
        "details": "Leaves the contract without owner. It will not be possible to call `onlyOwner` functions. Can only be called by the current owner. NOTE: Renouncing ownership will leave the contract without an owner, thereby disabling any functionality that is only available to the owner."
      },
      "transferOwnership(address)": {
        "details": "Transfers ownership of the contract to a new account (`newOwner`). Can only be called by the current owner."
      }
    },
    "version": 1
  },
  "userdoc": {
    "kind": "user",
    "methods": {
      "claimCollateral()": {
        "notice": "Claim remaining collateral from a redemption or from a liquidation with ICR > MCR in Recovery Mode"
      }
    },
    "version": 1
  },
  "storageLayout": {
    "storage": [
      {
        "astId": 5445,
        "contract": "contracts/protocol/BorrowerOperations.sol:BorrowerOperations",
        "label": "activePool",
        "offset": 0,
        "slot": "0",
        "type": "t_contract(IActivePool)5639"
      },
      {
        "astId": 5448,
        "contract": "contracts/protocol/BorrowerOperations.sol:BorrowerOperations",
        "label": "defaultPool",
        "offset": 0,
        "slot": "1",
        "type": "t_contract(IDefaultPool)5992"
      },
      {
        "astId": 5451,
        "contract": "contracts/protocol/BorrowerOperations.sol:BorrowerOperations",
        "label": "priceFeed",
        "offset": 0,
        "slot": "2",
        "type": "t_contract(IPriceFeed)6162"
      },
      {
        "astId": 53,
        "contract": "contracts/protocol/BorrowerOperations.sol:BorrowerOperations",
        "label": "_owner",
        "offset": 0,
        "slot": "3",
        "type": "t_address"
      },
      {
        "astId": 10682,
        "contract": "contracts/protocol/BorrowerOperations.sol:BorrowerOperations",
        "label": "troveManager",
        "offset": 0,
        "slot": "4",
        "type": "t_contract(ITroveManager)6984"
      },
      {
        "astId": 10684,
        "contract": "contracts/protocol/BorrowerOperations.sol:BorrowerOperations",
        "label": "stabilityPoolAddress",
        "offset": 0,
        "slot": "5",
        "type": "t_address"
      },
      {
        "astId": 10686,
        "contract": "contracts/protocol/BorrowerOperations.sol:BorrowerOperations",
        "label": "gasPoolAddress",
        "offset": 0,
        "slot": "6",
        "type": "t_address"
      },
      {
        "astId": 10689,
        "contract": "contracts/protocol/BorrowerOperations.sol:BorrowerOperations",
        "label": "collSurplusPool",
        "offset": 0,
        "slot": "7",
        "type": "t_contract(ICollSurplusPool)5935"
      },
      {
        "astId": 10692,
        "contract": "contracts/protocol/BorrowerOperations.sol:BorrowerOperations",
        "label": "zktStaking",
        "offset": 0,
        "slot": "8",
        "type": "t_contract(IZKTStaking)7129"
      },
      {
        "astId": 10694,
        "contract": "contracts/protocol/BorrowerOperations.sol:BorrowerOperations",
        "label": "zktStakingAddress",
        "offset": 0,
        "slot": "9",
        "type": "t_address"
      },
      {
        "astId": 10697,
        "contract": "contracts/protocol/BorrowerOperations.sol:BorrowerOperations",
        "label": "zkusdToken",
        "offset": 0,
        "slot": "10",
        "type": "t_contract(IZKUSDToken)7220"
      },
      {
        "astId": 10700,
        "contract": "contracts/protocol/BorrowerOperations.sol:BorrowerOperations",
        "label": "sortedTroves",
        "offset": 0,
        "slot": "11",
        "type": "t_contract(ISortedTroves)6310"
      }
    ],
    "types": {
      "t_address": {
        "encoding": "inplace",
        "label": "address",
        "numberOfBytes": "20"
      },
      "t_contract(IActivePool)5639": {
        "encoding": "inplace",
        "label": "contract IActivePool",
        "numberOfBytes": "20"
      },
      "t_contract(ICollSurplusPool)5935": {
        "encoding": "inplace",
        "label": "contract ICollSurplusPool",
        "numberOfBytes": "20"
      },
      "t_contract(IDefaultPool)5992": {
        "encoding": "inplace",
        "label": "contract IDefaultPool",
        "numberOfBytes": "20"
      },
      "t_contract(IPriceFeed)6162": {
        "encoding": "inplace",
        "label": "contract IPriceFeed",
        "numberOfBytes": "20"
      },
      "t_contract(ISortedTroves)6310": {
        "encoding": "inplace",
        "label": "contract ISortedTroves",
        "numberOfBytes": "20"
      },
      "t_contract(ITroveManager)6984": {
        "encoding": "inplace",
        "label": "contract ITroveManager",
        "numberOfBytes": "20"
      },
      "t_contract(IZKTStaking)7129": {
        "encoding": "inplace",
        "label": "contract IZKTStaking",
        "numberOfBytes": "20"
      },
      "t_contract(IZKUSDToken)7220": {
        "encoding": "inplace",
        "label": "contract IZKUSDToken",
        "numberOfBytes": "20"
      }
    }
  }
}