{
  "address": "0x7dDf6305B82D3bB49D1D17f480D29E9B97b98017",
  "abi": [
    {
      "anonymous": false,
      "inputs": [
        {
          "indexed": true,
          "internalType": "address",
          "name": "previousOwner",
          "type": "address"
        },
        {
          "indexed": true,
          "internalType": "address",
          "name": "newOwner",
          "type": "address"
        }
      ],
      "name": "OwnershipTransferred",
      "type": "event"
    },
    {
      "anonymous": false,
      "inputs": [
        {
          "indexed": false,
          "internalType": "address",
          "name": "_sortedTrovesAddress",
          "type": "address"
        }
      ],
      "name": "SortedTrovesAddressChanged",
      "type": "event"
    },
    {
      "anonymous": false,
      "inputs": [
        {
          "indexed": false,
          "internalType": "address",
          "name": "_troveManagerAddress",
          "type": "address"
        }
      ],
      "name": "TroveManagerAddressChanged",
      "type": "event"
    },
    {
      "inputs": [],
      "name": "BORROWING_FEE_FLOOR",
      "outputs": [
        {
          "internalType": "uint256",
          "name": "",
          "type": "uint256"
        }
      ],
      "stateMutability": "view",
      "type": "function"
    },
    {
      "inputs": [],
      "name": "CCR",
      "outputs": [
        {
          "internalType": "uint256",
          "name": "",
          "type": "uint256"
        }
      ],
      "stateMutability": "view",
      "type": "function"
    },
    {
      "inputs": [],
      "name": "DECIMAL_PRECISION",
      "outputs": [
        {
          "internalType": "uint256",
          "name": "",
          "type": "uint256"
        }
      ],
      "stateMutability": "view",
      "type": "function"
    },
    {
      "inputs": [],
      "name": "MCR",
      "outputs": [
        {
          "internalType": "uint256",
          "name": "",
          "type": "uint256"
        }
      ],
      "stateMutability": "view",
      "type": "function"
    },
    {
      "inputs": [],
      "name": "MIN_NET_DEBT",
      "outputs": [
        {
          "internalType": "uint256",
          "name": "",
          "type": "uint256"
        }
      ],
      "stateMutability": "view",
      "type": "function"
    },
    {
      "inputs": [],
      "name": "NAME",
      "outputs": [
        {
          "internalType": "string",
          "name": "",
          "type": "string"
        }
      ],
      "stateMutability": "view",
      "type": "function"
    },
    {
      "inputs": [],
      "name": "PERCENT_DIVISOR",
      "outputs": [
        {
          "internalType": "uint256",
          "name": "",
          "type": "uint256"
        }
      ],
      "stateMutability": "view",
      "type": "function"
    },
    {
      "inputs": [],
      "name": "ZKUSD_GAS_COMPENSATION",
      "outputs": [
        {
          "internalType": "uint256",
          "name": "",
          "type": "uint256"
        }
      ],
      "stateMutability": "view",
      "type": "function"
    },
    {
      "inputs": [],
      "name": "_100pct",
      "outputs": [
        {
          "internalType": "uint256",
          "name": "",
          "type": "uint256"
        }
      ],
      "stateMutability": "view",
      "type": "function"
    },
    {
      "inputs": [],
      "name": "activePool",
      "outputs": [
        {
          "internalType": "contract IActivePool",
          "name": "",
          "type": "address"
        }
      ],
      "stateMutability": "view",
      "type": "function"
    },
    {
      "inputs": [
        {
          "internalType": "uint256",
          "name": "_coll",
          "type": "uint256"
        },
        {
          "internalType": "uint256",
          "name": "_debt",
          "type": "uint256"
        },
        {
          "internalType": "uint256",
          "name": "_price",
          "type": "uint256"
        }
      ],
      "name": "computeCR",
      "outputs": [
        {
          "internalType": "uint256",
          "name": "",
          "type": "uint256"
        }
      ],
      "stateMutability": "pure",
      "type": "function"
    },
    {
      "inputs": [
        {
          "internalType": "uint256",
          "name": "_coll",
          "type": "uint256"
        },
        {
          "internalType": "uint256",
          "name": "_debt",
          "type": "uint256"
        }
      ],
      "name": "computeNominalCR",
      "outputs": [
        {
          "internalType": "uint256",
          "name": "",
          "type": "uint256"
        }
      ],
      "stateMutability": "pure",
      "type": "function"
    },
    {
      "inputs": [],
      "name": "defaultPool",
      "outputs": [
        {
          "internalType": "contract IDefaultPool",
          "name": "",
          "type": "address"
        }
      ],
      "stateMutability": "view",
      "type": "function"
    },
    {
      "inputs": [
        {
          "internalType": "uint256",
          "name": "_CR",
          "type": "uint256"
        },
        {
          "internalType": "uint256",
          "name": "_numTrials",
          "type": "uint256"
        },
        {
          "internalType": "uint256",
          "name": "_inputRandomSeed",
          "type": "uint256"
        }
      ],
      "name": "getApproxHint",
      "outputs": [
        {
          "internalType": "address",
          "name": "hintAddress",
          "type": "address"
        },
        {
          "internalType": "uint256",
          "name": "diff",
          "type": "uint256"
        },
        {
          "internalType": "uint256",
          "name": "latestRandomSeed",
          "type": "uint256"
        }
      ],
      "stateMutability": "view",
      "type": "function"
    },
    {
      "inputs": [],
      "name": "getEntireSystemColl",
      "outputs": [
        {
          "internalType": "uint256",
          "name": "entireSystemColl",
          "type": "uint256"
        }
      ],
      "stateMutability": "view",
      "type": "function"
    },
    {
      "inputs": [],
      "name": "getEntireSystemDebt",
      "outputs": [
        {
          "internalType": "uint256",
          "name": "entireSystemDebt",
          "type": "uint256"
        }
      ],
      "stateMutability": "view",
      "type": "function"
    },
    {
      "inputs": [
        {
          "internalType": "uint256",
          "name": "_ZKUSDamount",
          "type": "uint256"
        },
        {
          "internalType": "uint256",
          "name": "_price",
          "type": "uint256"
        },
        {
          "internalType": "uint256",
          "name": "_maxIterations",
          "type": "uint256"
        }
      ],
      "name": "getRedemptionHints",
      "outputs": [
        {
          "internalType": "address",
          "name": "firstRedemptionHint",
          "type": "address"
        },
        {
          "internalType": "uint256",
          "name": "partialRedemptionHintNICR",
          "type": "uint256"
        },
        {
          "internalType": "uint256",
          "name": "truncatedZKUSDamount",
          "type": "uint256"
        }
      ],
      "stateMutability": "view",
      "type": "function"
    },
    {
      "inputs": [],
      "name": "owner",
      "outputs": [
        {
          "internalType": "address",
          "name": "",
          "type": "address"
        }
      ],
      "stateMutability": "view",
      "type": "function"
    },
    {
      "inputs": [],
      "name": "priceFeed",
      "outputs": [
        {
          "internalType": "contract IPriceFeed",
          "name": "",
          "type": "address"
        }
      ],
      "stateMutability": "view",
      "type": "function"
    },
    {
      "inputs": [],
      "name": "renounceOwnership",
      "outputs": [],
      "stateMutability": "nonpayable",
      "type": "function"
    },
    {
      "inputs": [
        {
          "internalType": "address",
          "name": "_sortedTrovesAddress",
          "type": "address"
        },
        {
          "internalType": "address",
          "name": "_troveManagerAddress",
          "type": "address"
        }
      ],
      "name": "setAddresses",
      "outputs": [],
      "stateMutability": "nonpayable",
      "type": "function"
    },
    {
      "inputs": [],
      "name": "sortedTroves",
      "outputs": [
        {
          "internalType": "contract ISortedTroves",
          "name": "",
          "type": "address"
        }
      ],
      "stateMutability": "view",
      "type": "function"
    },
    {
      "inputs": [
        {
          "internalType": "address",
          "name": "newOwner",
          "type": "address"
        }
      ],
      "name": "transferOwnership",
      "outputs": [],
      "stateMutability": "nonpayable",
      "type": "function"
    },
    {
      "inputs": [],
      "name": "troveManager",
      "outputs": [
        {
          "internalType": "contract ITroveManager",
          "name": "",
          "type": "address"
        }
      ],
      "stateMutability": "view",
      "type": "function"
    }
  ],
  "transactionHash": "0xe710517db692ca838229f4014992d336008bfa50f76cbe8d16856fa55e29442a",
  "args": [],
  "numDeployments": 1,
  "solcInputHash": "8d3bedc4d324e183b89fd63f58bc09d7",
  "bytecode": "0x608060405234801561001057600080fd5b5061001a3361001f565b610071565b600380546001600160a01b038381166001600160a01b0319831681179093556040519116919082907f8be0079c531659141344cd1fd0a4f28419497f9722a3daafe3b4186f6b6457e090600090a35050565b61131d806100806000396000f3fe608060405234801561001057600080fd5b50600436106101985760003560e01c80637b41bdbe116100e3578063a3f4df7e1161008c578063c394a7fa11610066578063c394a7fa1461034f578063f2fde38b14610362578063f92d34331461037557600080fd5b8063a3f4df7e146102f5578063ae9187541461032c578063c192645b1461033f57600080fd5b80638da5cb5b116100bd5780638da5cb5b146102d157806390107afe146102e2578063a20baee61461026a57600080fd5b80637b41bdbe146102a35780637f7dde4a146102b6578063887105d3146102c957600080fd5b80635733d58f11610145578063741bef1a1161011f578063741bef1a14610279578063794e57241461028c578063795d26c31461029b57600080fd5b80635733d58f14610251578063715018a61461026057806372fe25aa1461026a57600080fd5b80633d83908a116101765780633d83908a146102235780634870dd9a14610236578063525acdbb1461023e57600080fd5b806313144dba1461019d5780631bf43555146101da5780633cc74225146101f8575b600080fd5b6101b06101ab366004611112565b61037d565b604080516001600160a01b0390941684526020840192909252908201526060015b60405180910390f35b6101ea681b1ae4d6e2ef50000081565b6040519081526020016101d1565b60015461020b906001600160a01b031681565b6040516001600160a01b0390911681526020016101d1565b60055461020b906001600160a01b031681565b6101ea610855565b6101ea61024c366004611112565b610873565b6101ea6714d1120d7b16000081565b61026861088a565b005b6101ea670de0b6b3a764000081565b60025461020b906001600160a01b031681565b6101ea670f43fc2c04ee000081565b6101ea61089e565b6101b06102b1366004611112565b61099a565b60005461020b906001600160a01b031681565b6101ea610c80565b6003546001600160a01b031661020b565b6102686102f0366004611153565b610d45565b61031f6040518060400160405280600b81526020016a48696e7448656c7065727360a81b81525081565b6040516101d1919061118c565b60045461020b906001600160a01b031681565b6101ea6802b5e3af16b188000081565b6101ea61035d3660046111da565b610e0d565b6102686103703660046111fc565b610e22565b6101ea610ea0565b6004805460408051634d62283160e01b81529051600093849384936001600160a01b0390911692899285928592634d622831928281019260209291908290030181865afa1580156103d2573d6000803e3d6000fd5b505050506040513d601f19601f820116820180604052508101906103f69190611219565b90505b6001600160a01b0381161580159061048b5750600554604051630d293c7160e41b81526001600160a01b038381166004830152602482018b9052670f43fc2c04ee000092169063d293c71090604401602060405180830381865afa158015610465573d6000803e3d6000fd5b505050506040513d601f19601f820116820180604052508101906104899190611236565b105b1561050157604051632dc9c0eb60e21b81526001600160a01b03828116600483015284169063b72703ac90602401602060405180830381865afa1580156104d6573d6000803e3d6000fd5b505050506040513d601f19601f820116820180604052508101906104fa9190611219565b90506103f9565b809550866000036105125760001996505b6001600160a01b0381161580159061052a5750600082115b8015610541575060008761053d81611265565b9850115b1561083d576005546040516343833a7f60e01b81526001600160a01b038381166004830152600092610635929116906343833a7f90602401602060405180830381865afa158015610596573d6000803e3d6000fd5b505050506040513d601f19601f820116820180604052508101906105ba9190611236565b60055460405163d66a255360e01b81526001600160a01b03868116600483015261062f92169063d66a255390602401602060405180830381865afa158015610606573d6000803e3d6000fd5b505050506040513d601f19601f8201168201806040525081019061062a9190611236565b610ec0565b90610ed5565b9050828111156107bd57681b1ae4d6e2ef5000008111156107b757600061066e8461066984681b1ae4d6e2ef500000610ee1565b610eed565b600554604051635d8c960960e01b81526001600160a01b038681166004830152929350600092610752921690635d8c960990602401602060405180830381865afa1580156106c0573d6000803e3d6000fd5b505050506040513d601f19601f820116820180604052508101906106e49190611236565b6005546040516309019aaf60e31b81526001600160a01b0388811660048301529091169063480cd57890602401602060405180830381865afa15801561072e573d6000803e3d6000fd5b505050506040513d601f19601f8201168201806040525081019061062f9190611236565b9050600061077c6107758d61076f86670de0b6b3a7640000610f03565b90610f0f565b8390610ee1565b9050600061078a8585610ee1565b9050600061079782610f1b565b90506107a38382610f30565b9a506107af8886610ee1565b975050505050505b5061083d565b6107c78382610ee1565b604051632dc9c0eb60e21b81526001600160a01b0384811660048301529194509085169063b72703ac90602401602060405180830381865afa158015610811573d6000803e3d6000fd5b505050506040513d601f19601f820116820180604052508101906108359190611219565b915050610512565b6108478983610ee1565b935050505093509350939050565b610870670de0b6b3a76400006802b5e3af16b1880000611292565b81565b6000610880848484610f5f565b90505b9392505050565b610892610f89565b61089c6000610fe3565b565b600080546040805163512a9ebb60e01b8152905183926001600160a01b03169163512a9ebb9160048083019260209291908290030181865afa1580156108e8573d6000803e3d6000fd5b505050506040513d601f19601f8201168201806040525081019061090c9190611236565b90506000600160009054906101000a90046001600160a01b03166001600160a01b031663512a9ebb6040518163ffffffff1660e01b8152600401602060405180830381865afa158015610963573d6000803e3d6000fd5b505050506040513d601f19601f820116820180604052508101906109879190611236565b90506109938282610ed5565b9250505090565b600080600080600560009054906101000a90046001600160a01b03166001600160a01b03166349eefeee6040518163ffffffff1660e01b8152600401602060405180830381865afa1580156109f3573d6000803e3d6000fd5b505050506040513d601f19601f82011682018060405250810190610a179190611236565b905080600003610a31576000808693509350935050610c77565b6004805460408051634d62283160e01b815290516001600160a01b0390921692634d6228319282820192602092908290030181865afa158015610a78573d6000803e3d6000fd5b505050506040513d601f19601f82011682018060405250810190610a9c9190611219565b60055460405163b0d8e18160e01b81526001600160a01b038084166004830152929650610b16928a92169063b0d8e18190602401602060405180830381865afa158015610aed573d6000803e3d6000fd5b505050506040513d601f19601f82011682018060405250810190610b119190611236565b611042565b925084915060015b86811015610c745760408051602081018590520160408051601f19818403018152919052805160209091012092506000610b5883856112a6565b600554604051633669c91160e21b8152600481018390529192506000916001600160a01b039091169063d9a7244490602401602060405180830381865afa158015610ba7573d6000803e3d6000fd5b505050506040513d601f19601f82011682018060405250810190610bcb9190611219565b60055460405163b0d8e18160e01b81526001600160a01b0380841660048301529293506000929091169063b0d8e18190602401602060405180830381865afa158015610c1b573d6000803e3d6000fd5b505050506040513d601f19601f82011682018060405250810190610c3f9190611236565b90506000610c4d828d611042565b905087811015610c5e578097508298505b84610c68816112ba565b95505050505050610b1e565b50505b93509350939050565b6000805460408051630a7b61df60e11b8152905183926001600160a01b0316916314f6c3be9160048083019260209291908290030181865afa158015610cca573d6000803e3d6000fd5b505050506040513d601f19601f82011682018060405250810190610cee9190611236565b90506000600160009054906101000a90046001600160a01b03166001600160a01b03166314f6c3be6040518163ffffffff1660e01b8152600401602060405180830381865afa158015610963573d6000803e3d6000fd5b610d4d610f89565b610d5682611065565b610d5f81611065565b600480546001600160a01b0384811673ffffffffffffffffffffffffffffffffffffffff19928316811790935560058054918516919092161790556040519081527f65f4cf077bc01e4742eb5ad98326f6e95b63548ea24b17f8d5e823111fe788009060200160405180910390a16040516001600160a01b03821681527f143219c9e69b09e07e095fcc889b43d8f46ca892bba65f08dc3a0050869a56789060200160405180910390a15050565b6000610e198383610f30565b90505b92915050565b610e2a610f89565b6001600160a01b038116610e945760405162461bcd60e51b815260206004820152602660248201527f4f776e61626c653a206e6577206f776e657220697320746865207a65726f206160448201526564647265737360d01b60648201526084015b60405180910390fd5b610e9d81610fe3565b50565b610eb5620186a0670de0b6b3a7640000611292565b6108709060056112d3565b6000610e1c826802b5e3af16b1880000610ee1565b6000610e1982846112ea565b6000610e1982846112fd565b6000818310610efc5781610e19565b5090919050565b6000610e1982846112d3565b6000610e198284611292565b6000610e1c826802b5e3af16b1880000610ed5565b60008115610f5657610f4f8261076f8568056bc75e2d63100000610f03565b9050610e1c565b50600019610e1c565b60008215610f80576000610f778461076f8786610f03565b91506108839050565b50600019610883565b6003546001600160a01b0316331461089c5760405162461bcd60e51b815260206004820181905260248201527f4f776e61626c653a2063616c6c6572206973206e6f7420746865206f776e65726044820152606401610e8b565b600380546001600160a01b0383811673ffffffffffffffffffffffffffffffffffffffff19831681179093556040519116919082907f8be0079c531659141344cd1fd0a4f28419497f9722a3daafe3b4186f6b6457e090600090a35050565b60008183101561105b576110568284610ee1565b610e19565b610e198383610ee1565b6001600160a01b0381166110bb5760405162461bcd60e51b815260206004820152601e60248201527f4163636f756e742063616e6e6f74206265207a65726f206164647265737300006044820152606401610e8b565b6001600160a01b0381163b610e9d5760405162461bcd60e51b815260206004820181905260248201527f4163636f756e7420636f64652073697a652063616e6e6f74206265207a65726f6044820152606401610e8b565b60008060006060848603121561112757600080fd5b505081359360208301359350604090920135919050565b6001600160a01b0381168114610e9d57600080fd5b6000806040838503121561116657600080fd5b82356111718161113e565b915060208301356111818161113e565b809150509250929050565b600060208083528351808285015260005b818110156111b95785810183015185820160400152820161119d565b506000604082860101526040601f19601f8301168501019250505092915050565b600080604083850312156111ed57600080fd5b50508035926020909101359150565b60006020828403121561120e57600080fd5b81356108838161113e565b60006020828403121561122b57600080fd5b81516108838161113e565b60006020828403121561124857600080fd5b5051919050565b634e487b7160e01b600052601160045260246000fd5b6000816112745761127461124f565b506000190190565b634e487b7160e01b600052601260045260246000fd5b6000826112a1576112a161127c565b500490565b6000826112b5576112b561127c565b500690565b6000600182016112cc576112cc61124f565b5060010190565b8082028115828204841417610e1c57610e1c61124f565b80820180821115610e1c57610e1c61124f565b81810381811115610e1c57610e1c61124f56fea164736f6c6343000811000a",
  "devdoc": {
    "kind": "dev",
    "methods": {
      "owner()": {
        "details": "Returns the address of the current owner."
      },
      "renounceOwnership()": {
        "details": "Leaves the contract without owner. It will not be possible to call `onlyOwner` functions. Can only be called by the current owner. NOTE: Renouncing ownership will leave the contract without an owner, thereby disabling any functionality that is only available to the owner."
      },
      "transferOwnership(address)": {
        "details": "Transfers ownership of the contract to a new account (`newOwner`). Can only be called by the current owner."
      }
    },
    "version": 1
  },
  "userdoc": {
    "kind": "user",
    "methods": {},
    "version": 1
  },
  "storageLayout": {
    "storage": [
      {
        "astId": 5445,
        "contract": "contracts/protocol/HintHelpers.sol:HintHelpers",
        "label": "activePool",
        "offset": 0,
        "slot": "0",
        "type": "t_contract(IActivePool)5639"
      },
      {
        "astId": 5448,
        "contract": "contracts/protocol/HintHelpers.sol:HintHelpers",
        "label": "defaultPool",
        "offset": 0,
        "slot": "1",
        "type": "t_contract(IDefaultPool)5992"
      },
      {
        "astId": 5451,
        "contract": "contracts/protocol/HintHelpers.sol:HintHelpers",
        "label": "priceFeed",
        "offset": 0,
        "slot": "2",
        "type": "t_contract(IPriceFeed)6162"
      },
      {
        "astId": 53,
        "contract": "contracts/protocol/HintHelpers.sol:HintHelpers",
        "label": "_owner",
        "offset": 0,
        "slot": "3",
        "type": "t_address"
      },
      {
        "astId": 13154,
        "contract": "contracts/protocol/HintHelpers.sol:HintHelpers",
        "label": "sortedTroves",
        "offset": 0,
        "slot": "4",
        "type": "t_contract(ISortedTroves)6310"
      },
      {
        "astId": 13157,
        "contract": "contracts/protocol/HintHelpers.sol:HintHelpers",
        "label": "troveManager",
        "offset": 0,
        "slot": "5",
        "type": "t_contract(ITroveManager)6984"
      }
    ],
    "types": {
      "t_address": {
        "encoding": "inplace",
        "label": "address",
        "numberOfBytes": "20"
      },
      "t_contract(IActivePool)5639": {
        "encoding": "inplace",
        "label": "contract IActivePool",
        "numberOfBytes": "20"
      },
      "t_contract(IDefaultPool)5992": {
        "encoding": "inplace",
        "label": "contract IDefaultPool",
        "numberOfBytes": "20"
      },
      "t_contract(IPriceFeed)6162": {
        "encoding": "inplace",
        "label": "contract IPriceFeed",
        "numberOfBytes": "20"
      },
      "t_contract(ISortedTroves)6310": {
        "encoding": "inplace",
        "label": "contract ISortedTroves",
        "numberOfBytes": "20"
      },
      "t_contract(ITroveManager)6984": {
        "encoding": "inplace",
        "label": "contract ITroveManager",
        "numberOfBytes": "20"
      }
    }
  }
}