{
  "address": "0xB2d8829015929E92B7655de4b7F3Bf928D4699F5",
  "abi": [
    {
      "anonymous": false,
      "inputs": [
        {
          "indexed": false,
          "internalType": "address",
          "name": "_newActivePoolAddress",
          "type": "address"
        }
      ],
      "name": "ActivePoolAddressChanged",
      "type": "event"
    },
    {
      "anonymous": false,
      "inputs": [
        {
          "indexed": false,
          "internalType": "address",
          "name": "_newBorrowerOperationsAddress",
          "type": "address"
        }
      ],
      "name": "BorrowerOperationsAddressChanged",
      "type": "event"
    },
    {
      "anonymous": false,
      "inputs": [
        {
          "indexed": false,
          "internalType": "address",
          "name": "_newCommunityIssuanceAddress",
          "type": "address"
        }
      ],
      "name": "CommunityIssuanceAddressChanged",
      "type": "event"
    },
    {
      "anonymous": false,
      "inputs": [
        {
          "indexed": false,
          "internalType": "address",
          "name": "_newDefaultPoolAddress",
          "type": "address"
        }
      ],
      "name": "DefaultPoolAddressChanged",
      "type": "event"
    },
    {
      "anonymous": false,
      "inputs": [
        {
          "indexed": true,
          "internalType": "address",
          "name": "_depositor",
          "type": "address"
        },
        {
          "indexed": false,
          "internalType": "uint256",
          "name": "_P",
          "type": "uint256"
        },
        {
          "indexed": false,
          "internalType": "uint256",
          "name": "_S",
          "type": "uint256"
        },
        {
          "indexed": false,
          "internalType": "uint256",
          "name": "_G",
          "type": "uint256"
        }
      ],
      "name": "DepositSnapshotUpdated",
      "type": "event"
    },
    {
      "anonymous": false,
      "inputs": [
        {
          "indexed": true,
          "internalType": "address",
          "name": "_depositor",
          "type": "address"
        },
        {
          "indexed": false,
          "internalType": "uint256",
          "name": "_ETH",
          "type": "uint256"
        },
        {
          "indexed": false,
          "internalType": "uint256",
          "name": "_ZKUSDLoss",
          "type": "uint256"
        }
      ],
      "name": "ETHGainWithdrawn",
      "type": "event"
    },
    {
      "anonymous": false,
      "inputs": [
        {
          "indexed": false,
          "internalType": "uint256",
          "name": "_currentEpoch",
          "type": "uint256"
        }
      ],
      "name": "EpochUpdated",
      "type": "event"
    },
    {
      "anonymous": false,
      "inputs": [
        {
          "indexed": false,
          "internalType": "address",
          "name": "_to",
          "type": "address"
        },
        {
          "indexed": false,
          "internalType": "uint256",
          "name": "_amount",
          "type": "uint256"
        }
      ],
      "name": "EtherSent",
      "type": "event"
    },
    {
      "anonymous": false,
      "inputs": [
        {
          "indexed": true,
          "internalType": "address",
          "name": "_frontEnd",
          "type": "address"
        },
        {
          "indexed": false,
          "internalType": "uint256",
          "name": "_kickbackRate",
          "type": "uint256"
        }
      ],
      "name": "FrontEndRegistered",
      "type": "event"
    },
    {
      "anonymous": false,
      "inputs": [
        {
          "indexed": true,
          "internalType": "address",
          "name": "_frontEnd",
          "type": "address"
        },
        {
          "indexed": false,
          "internalType": "uint256",
          "name": "_P",
          "type": "uint256"
        },
        {
          "indexed": false,
          "internalType": "uint256",
          "name": "_G",
          "type": "uint256"
        }
      ],
      "name": "FrontEndSnapshotUpdated",
      "type": "event"
    },
    {
      "anonymous": false,
      "inputs": [
        {
          "indexed": true,
          "internalType": "address",
          "name": "_frontEnd",
          "type": "address"
        },
        {
          "indexed": false,
          "internalType": "uint256",
          "name": "_newFrontEndStake",
          "type": "uint256"
        },
        {
          "indexed": false,
          "internalType": "address",
          "name": "_depositor",
          "type": "address"
        }
      ],
      "name": "FrontEndStakeChanged",
      "type": "event"
    },
    {
      "anonymous": false,
      "inputs": [
        {
          "indexed": true,
          "internalType": "address",
          "name": "_depositor",
          "type": "address"
        },
        {
          "indexed": true,
          "internalType": "address",
          "name": "_frontEnd",
          "type": "address"
        }
      ],
      "name": "FrontEndTagSet",
      "type": "event"
    },
    {
      "anonymous": false,
      "inputs": [
        {
          "indexed": false,
          "internalType": "uint256",
          "name": "_G",
          "type": "uint256"
        },
        {
          "indexed": false,
          "internalType": "uint256",
          "name": "_epoch",
          "type": "uint256"
        },
        {
          "indexed": false,
          "internalType": "uint256",
          "name": "_scale",
          "type": "uint256"
        }
      ],
      "name": "G_Updated",
      "type": "event"
    },
    {
      "anonymous": false,
      "inputs": [
        {
          "indexed": true,
          "internalType": "address",
          "name": "previousOwner",
          "type": "address"
        },
        {
          "indexed": true,
          "internalType": "address",
          "name": "newOwner",
          "type": "address"
        }
      ],
      "name": "OwnershipTransferred",
      "type": "event"
    },
    {
      "anonymous": false,
      "inputs": [
        {
          "indexed": false,
          "internalType": "uint256",
          "name": "_P",
          "type": "uint256"
        }
      ],
      "name": "P_Updated",
      "type": "event"
    },
    {
      "anonymous": false,
      "inputs": [
        {
          "indexed": false,
          "internalType": "address",
          "name": "_newPriceFeedAddress",
          "type": "address"
        }
      ],
      "name": "PriceFeedAddressChanged",
      "type": "event"
    },
    {
      "anonymous": false,
      "inputs": [
        {
          "indexed": false,
          "internalType": "uint256",
          "name": "_S",
          "type": "uint256"
        },
        {
          "indexed": false,
          "internalType": "uint256",
          "name": "_epoch",
          "type": "uint256"
        },
        {
          "indexed": false,
          "internalType": "uint256",
          "name": "_scale",
          "type": "uint256"
        }
      ],
      "name": "S_Updated",
      "type": "event"
    },
    {
      "anonymous": false,
      "inputs": [
        {
          "indexed": false,
          "internalType": "uint256",
          "name": "_currentScale",
          "type": "uint256"
        }
      ],
      "name": "ScaleUpdated",
      "type": "event"
    },
    {
      "anonymous": false,
      "inputs": [
        {
          "indexed": false,
          "internalType": "address",
          "name": "_newSortedTrovesAddress",
          "type": "address"
        }
      ],
      "name": "SortedTrovesAddressChanged",
      "type": "event"
    },
    {
      "anonymous": false,
      "inputs": [
        {
          "indexed": false,
          "internalType": "uint256",
          "name": "_newBalance",
          "type": "uint256"
        }
      ],
      "name": "StabilityPoolETHBalanceUpdated",
      "type": "event"
    },
    {
      "anonymous": false,
      "inputs": [
        {
          "indexed": false,
          "internalType": "uint256",
          "name": "_newBalance",
          "type": "uint256"
        }
      ],
      "name": "StabilityPoolZKUSDBalanceUpdated",
      "type": "event"
    },
    {
      "anonymous": false,
      "inputs": [
        {
          "indexed": false,
          "internalType": "address",
          "name": "_newTroveManagerAddress",
          "type": "address"
        }
      ],
      "name": "TroveManagerAddressChanged",
      "type": "event"
    },
    {
      "anonymous": false,
      "inputs": [
        {
          "indexed": true,
          "internalType": "address",
          "name": "_depositor",
          "type": "address"
        },
        {
          "indexed": false,
          "internalType": "uint256",
          "name": "_newDeposit",
          "type": "uint256"
        }
      ],
      "name": "UserDepositChanged",
      "type": "event"
    },
    {
      "anonymous": false,
      "inputs": [
        {
          "indexed": true,
          "internalType": "address",
          "name": "_depositor",
          "type": "address"
        },
        {
          "indexed": false,
          "internalType": "uint256",
          "name": "_ZKT",
          "type": "uint256"
        }
      ],
      "name": "ZKTPaidToDepositor",
      "type": "event"
    },
    {
      "anonymous": false,
      "inputs": [
        {
          "indexed": true,
          "internalType": "address",
          "name": "_frontEnd",
          "type": "address"
        },
        {
          "indexed": false,
          "internalType": "uint256",
          "name": "_ZKT",
          "type": "uint256"
        }
      ],
      "name": "ZKTPaidToFrontEnd",
      "type": "event"
    },
    {
      "anonymous": false,
      "inputs": [
        {
          "indexed": false,
          "internalType": "address",
          "name": "_newZKUSDTokenAddress",
          "type": "address"
        }
      ],
      "name": "ZKUSDTokenAddressChanged",
      "type": "event"
    },
    {
      "inputs": [],
      "name": "BORROWING_FEE_FLOOR",
      "outputs": [
        {
          "internalType": "uint256",
          "name": "",
          "type": "uint256"
        }
      ],
      "stateMutability": "view",
      "type": "function"
    },
    {
      "inputs": [],
      "name": "CCR",
      "outputs": [
        {
          "internalType": "uint256",
          "name": "",
          "type": "uint256"
        }
      ],
      "stateMutability": "view",
      "type": "function"
    },
    {
      "inputs": [],
      "name": "DECIMAL_PRECISION",
      "outputs": [
        {
          "internalType": "uint256",
          "name": "",
          "type": "uint256"
        }
      ],
      "stateMutability": "view",
      "type": "function"
    },
    {
      "inputs": [],
      "name": "DefaultKickbackRate",
      "outputs": [
        {
          "internalType": "uint256",
          "name": "",
          "type": "uint256"
        }
      ],
      "stateMutability": "view",
      "type": "function"
    },
    {
      "inputs": [],
      "name": "MCR",
      "outputs": [
        {
          "internalType": "uint256",
          "name": "",
          "type": "uint256"
        }
      ],
      "stateMutability": "view",
      "type": "function"
    },
    {
      "inputs": [],
      "name": "MIN_NET_DEBT",
      "outputs": [
        {
          "internalType": "uint256",
          "name": "",
          "type": "uint256"
        }
      ],
      "stateMutability": "view",
      "type": "function"
    },
    {
      "inputs": [],
      "name": "NAME",
      "outputs": [
        {
          "internalType": "string",
          "name": "",
          "type": "string"
        }
      ],
      "stateMutability": "view",
      "type": "function"
    },
    {
      "inputs": [],
      "name": "P",
      "outputs": [
        {
          "internalType": "uint256",
          "name": "",
          "type": "uint256"
        }
      ],
      "stateMutability": "view",
      "type": "function"
    },
    {
      "inputs": [],
      "name": "PERCENT_DIVISOR",
      "outputs": [
        {
          "internalType": "uint256",
          "name": "",
          "type": "uint256"
        }
      ],
      "stateMutability": "view",
      "type": "function"
    },
    {
      "inputs": [],
      "name": "SCALE_FACTOR",
      "outputs": [
        {
          "internalType": "uint256",
          "name": "",
          "type": "uint256"
        }
      ],
      "stateMutability": "view",
      "type": "function"
    },
    {
      "inputs": [],
      "name": "ZKUSD_GAS_COMPENSATION",
      "outputs": [
        {
          "internalType": "uint256",
          "name": "",
          "type": "uint256"
        }
      ],
      "stateMutability": "view",
      "type": "function"
    },
    {
      "inputs": [],
      "name": "_100pct",
      "outputs": [
        {
          "internalType": "uint256",
          "name": "",
          "type": "uint256"
        }
      ],
      "stateMutability": "view",
      "type": "function"
    },
    {
      "inputs": [],
      "name": "activePool",
      "outputs": [
        {
          "internalType": "contract IActivePool",
          "name": "",
          "type": "address"
        }
      ],
      "stateMutability": "view",
      "type": "function"
    },
    {
      "inputs": [],
      "name": "borrowerOperations",
      "outputs": [
        {
          "internalType": "contract IBorrowerOperations",
          "name": "",
          "type": "address"
        }
      ],
      "stateMutability": "view",
      "type": "function"
    },
    {
      "inputs": [],
      "name": "communityIssuance",
      "outputs": [
        {
          "internalType": "contract ICommunityIssuance",
          "name": "",
          "type": "address"
        }
      ],
      "stateMutability": "view",
      "type": "function"
    },
    {
      "inputs": [],
      "name": "currentEpoch",
      "outputs": [
        {
          "internalType": "uint256",
          "name": "",
          "type": "uint256"
        }
      ],
      "stateMutability": "view",
      "type": "function"
    },
    {
      "inputs": [],
      "name": "currentScale",
      "outputs": [
        {
          "internalType": "uint256",
          "name": "",
          "type": "uint256"
        }
      ],
      "stateMutability": "view",
      "type": "function"
    },
    {
      "inputs": [],
      "name": "defaultPool",
      "outputs": [
        {
          "internalType": "contract IDefaultPool",
          "name": "",
          "type": "address"
        }
      ],
      "stateMutability": "view",
      "type": "function"
    },
    {
      "inputs": [
        {
          "internalType": "address",
          "name": "",
          "type": "address"
        }
      ],
      "name": "depositSnapshots",
      "outputs": [
        {
          "internalType": "uint256",
          "name": "S",
          "type": "uint256"
        },
        {
          "internalType": "uint256",
          "name": "P",
          "type": "uint256"
        },
        {
          "internalType": "uint256",
          "name": "G",
          "type": "uint256"
        },
        {
          "internalType": "uint256",
          "name": "scale",
          "type": "uint256"
        },
        {
          "internalType": "uint256",
          "name": "epoch",
          "type": "uint256"
        }
      ],
      "stateMutability": "view",
      "type": "function"
    },
    {
      "inputs": [
        {
          "internalType": "address",
          "name": "",
          "type": "address"
        }
      ],
      "name": "deposits",
      "outputs": [
        {
          "internalType": "uint256",
          "name": "",
          "type": "uint256"
        }
      ],
      "stateMutability": "view",
      "type": "function"
    },
    {
      "inputs": [
        {
          "internalType": "uint256",
          "name": "",
          "type": "uint256"
        },
        {
          "internalType": "uint256",
          "name": "",
          "type": "uint256"
        }
      ],
      "name": "epochToScaleToG",
      "outputs": [
        {
          "internalType": "uint256",
          "name": "",
          "type": "uint256"
        }
      ],
      "stateMutability": "view",
      "type": "function"
    },
    {
      "inputs": [
        {
          "internalType": "uint256",
          "name": "",
          "type": "uint256"
        },
        {
          "internalType": "uint256",
          "name": "",
          "type": "uint256"
        }
      ],
      "name": "epochToScaleToSum",
      "outputs": [
        {
          "internalType": "uint256",
          "name": "",
          "type": "uint256"
        }
      ],
      "stateMutability": "view",
      "type": "function"
    },
    {
      "inputs": [
        {
          "internalType": "address",
          "name": "",
          "type": "address"
        }
      ],
      "name": "frontEndSnapshots",
      "outputs": [
        {
          "internalType": "uint256",
          "name": "S",
          "type": "uint256"
        },
        {
          "internalType": "uint256",
          "name": "P",
          "type": "uint256"
        },
        {
          "internalType": "uint256",
          "name": "G",
          "type": "uint256"
        },
        {
          "internalType": "uint256",
          "name": "scale",
          "type": "uint256"
        },
        {
          "internalType": "uint256",
          "name": "epoch",
          "type": "uint256"
        }
      ],
      "stateMutability": "view",
      "type": "function"
    },
    {
      "inputs": [
        {
          "internalType": "address",
          "name": "",
          "type": "address"
        }
      ],
      "name": "frontEndStakes",
      "outputs": [
        {
          "internalType": "uint256",
          "name": "",
          "type": "uint256"
        }
      ],
      "stateMutability": "view",
      "type": "function"
    },
    {
      "inputs": [
        {
          "internalType": "address",
          "name": "_frontEnd",
          "type": "address"
        }
      ],
      "name": "getCompoundedFrontEndStake",
      "outputs": [
        {
          "internalType": "uint256",
          "name": "",
          "type": "uint256"
        }
      ],
      "stateMutability": "view",
      "type": "function"
    },
    {
      "inputs": [
        {
          "internalType": "address",
          "name": "_depositor",
          "type": "address"
        }
      ],
      "name": "getCompoundedZKUSDDeposit",
      "outputs": [
        {
          "internalType": "uint256",
          "name": "",
          "type": "uint256"
        }
      ],
      "stateMutability": "view",
      "type": "function"
    },
    {
      "inputs": [
        {
          "internalType": "address",
          "name": "_depositor",
          "type": "address"
        }
      ],
      "name": "getDepositorETHGain",
      "outputs": [
        {
          "internalType": "uint256",
          "name": "",
          "type": "uint256"
        }
      ],
      "stateMutability": "view",
      "type": "function"
    },
    {
      "inputs": [
        {
          "internalType": "address",
          "name": "_depositor",
          "type": "address"
        }
      ],
      "name": "getDepositorZKTGain",
      "outputs": [
        {
          "internalType": "uint256",
          "name": "",
          "type": "uint256"
        }
      ],
      "stateMutability": "view",
      "type": "function"
    },
    {
      "inputs": [],
      "name": "getETH",
      "outputs": [
        {
          "internalType": "uint256",
          "name": "",
          "type": "uint256"
        }
      ],
      "stateMutability": "view",
      "type": "function"
    },
    {
      "inputs": [],
      "name": "getEntireSystemColl",
      "outputs": [
        {
          "internalType": "uint256",
          "name": "entireSystemColl",
          "type": "uint256"
        }
      ],
      "stateMutability": "view",
      "type": "function"
    },
    {
      "inputs": [],
      "name": "getEntireSystemDebt",
      "outputs": [
        {
          "internalType": "uint256",
          "name": "entireSystemDebt",
          "type": "uint256"
        }
      ],
      "stateMutability": "view",
      "type": "function"
    },
    {
      "inputs": [
        {
          "internalType": "address",
          "name": "_frontEnd",
          "type": "address"
        }
      ],
      "name": "getFrontEndZKTGain",
      "outputs": [
        {
          "internalType": "uint256",
          "name": "",
          "type": "uint256"
        }
      ],
      "stateMutability": "view",
      "type": "function"
    },
    {
      "inputs": [],
      "name": "getTotalZKUSDDeposits",
      "outputs": [
        {
          "internalType": "uint256",
          "name": "",
          "type": "uint256"
        }
      ],
      "stateMutability": "view",
      "type": "function"
    },
    {
      "inputs": [],
      "name": "lastETHError_Offset",
      "outputs": [
        {
          "internalType": "uint256",
          "name": "",
          "type": "uint256"
        }
      ],
      "stateMutability": "view",
      "type": "function"
    },
    {
      "inputs": [],
      "name": "lastZKTError",
      "outputs": [
        {
          "internalType": "uint256",
          "name": "",
          "type": "uint256"
        }
      ],
      "stateMutability": "view",
      "type": "function"
    },
    {
      "inputs": [],
      "name": "lastZKUSDLossError_Offset",
      "outputs": [
        {
          "internalType": "uint256",
          "name": "",
          "type": "uint256"
        }
      ],
      "stateMutability": "view",
      "type": "function"
    },
    {
      "inputs": [
        {
          "internalType": "uint256",
          "name": "_debtToOffset",
          "type": "uint256"
        },
        {
          "internalType": "uint256",
          "name": "_collToAdd",
          "type": "uint256"
        }
      ],
      "name": "offset",
      "outputs": [],
      "stateMutability": "nonpayable",
      "type": "function"
    },
    {
      "inputs": [],
      "name": "owner",
      "outputs": [
        {
          "internalType": "address",
          "name": "",
          "type": "address"
        }
      ],
      "stateMutability": "view",
      "type": "function"
    },
    {
      "inputs": [],
      "name": "priceFeed",
      "outputs": [
        {
          "internalType": "contract IPriceFeed",
          "name": "",
          "type": "address"
        }
      ],
      "stateMutability": "view",
      "type": "function"
    },
    {
      "inputs": [
        {
          "internalType": "uint256",
          "name": "_amount",
          "type": "uint256"
        }
      ],
      "name": "provideToSP",
      "outputs": [],
      "stateMutability": "nonpayable",
      "type": "function"
    },
    {
      "inputs": [],
      "name": "renounceOwnership",
      "outputs": [],
      "stateMutability": "nonpayable",
      "type": "function"
    },
    {
      "inputs": [
        {
          "internalType": "address",
          "name": "_borrowerOperationsAddress",
          "type": "address"
        },
        {
          "internalType": "address",
          "name": "_troveManagerAddress",
          "type": "address"
        },
        {
          "internalType": "address",
          "name": "_activePoolAddress",
          "type": "address"
        },
        {
          "internalType": "address",
          "name": "_zkusdTokenAddress",
          "type": "address"
        },
        {
          "internalType": "address",
          "name": "_sortedTrovesAddress",
          "type": "address"
        },
        {
          "internalType": "address",
          "name": "_priceFeedAddress",
          "type": "address"
        },
        {
          "internalType": "address",
          "name": "_communityIssuanceAddress",
          "type": "address"
        },
        {
          "internalType": "address",
          "name": "_treasuryAddress",
          "type": "address"
        }
      ],
      "name": "setAddresses",
      "outputs": [],
      "stateMutability": "nonpayable",
      "type": "function"
    },
    {
      "inputs": [],
      "name": "sortedTroves",
      "outputs": [
        {
          "internalType": "contract ISortedTroves",
          "name": "",
          "type": "address"
        }
      ],
      "stateMutability": "view",
      "type": "function"
    },
    {
      "inputs": [
        {
          "internalType": "address",
          "name": "newOwner",
          "type": "address"
        }
      ],
      "name": "transferOwnership",
      "outputs": [],
      "stateMutability": "nonpayable",
      "type": "function"
    },
    {
      "inputs": [],
      "name": "treasury",
      "outputs": [
        {
          "internalType": "address",
          "name": "",
          "type": "address"
        }
      ],
      "stateMutability": "view",
      "type": "function"
    },
    {
      "inputs": [],
      "name": "troveManager",
      "outputs": [
        {
          "internalType": "contract ITroveManager",
          "name": "",
          "type": "address"
        }
      ],
      "stateMutability": "view",
      "type": "function"
    },
    {
      "inputs": [
        {
          "internalType": "address",
          "name": "_upperHint",
          "type": "address"
        },
        {
          "internalType": "address",
          "name": "_lowerHint",
          "type": "address"
        }
      ],
      "name": "withdrawETHGainToTrove",
      "outputs": [],
      "stateMutability": "nonpayable",
      "type": "function"
    },
    {
      "inputs": [
        {
          "internalType": "uint256",
          "name": "_amount",
          "type": "uint256"
        }
      ],
      "name": "withdrawFromSP",
      "outputs": [],
      "stateMutability": "nonpayable",
      "type": "function"
    },
    {
      "inputs": [],
      "name": "zkusdToken",
      "outputs": [
        {
          "internalType": "contract IZKUSDToken",
          "name": "",
          "type": "address"
        }
      ],
      "stateMutability": "view",
      "type": "function"
    },
    {
      "stateMutability": "payable",
      "type": "receive"
    }
  ],
  "transactionHash": "0xa882041ea13171749a0654889ff7fa5da722c1c26de19f9b715cb12b6cdb0716",
  "args": [],
  "numDeployments": 1,
  "solcInputHash": "8d3bedc4d324e183b89fd63f58bc09d7",
  "bytecode": "0x6080604052670de0b6b3a764000060105534801561001c57600080fd5b506100263361002b565b61007d565b600380546001600160a01b038381166001600160a01b0319831681179093556040519116919082907f8be0079c531659141344cd1fd0a4f28419497f9722a3daafe3b4186f6b6457e090600090a35050565b612fc0806200008d6000396000f3fe6080604052600436106103225760003560e01c80637f7dde4a116101a5578063c192645b116100ec578063e681526311610095578063f92d34331161006f578063f92d343314610968578063fbf92d911461097d578063fc7e286d14610993578063fda0101a146109c057600080fd5b8063e6815263146108f0578063eb6b2fa614610910578063f2fde38b1461094857600080fd5b8063d7fb0443116100c6578063d7fb0443146108a5578063dbd1e266146108bb578063df9cd84f146108d057600080fd5b8063c192645b14610850578063ce4b5bbe1461086d578063d733cfd01461088557600080fd5b8063a20baee61161014e578063a7d7434f11610128578063a7d7434f146107f0578063ae91875414610810578063aeafa4141461083057600080fd5b8063a20baee6146105fe578063a3f4df7e14610794578063a4e59ac8146107da57600080fd5b80638b8fbd921161017f5780638b8fbd92146107405780638da5cb5b1461075657806395fb16bb1461077457600080fd5b80637f7dde4a146106c157806386da0824146106e1578063887105d31461072b57600080fd5b80635733d58f11610269578063741bef1a1161021257806378c77a24116101ec57806378c77a2414610670578063794e572414610690578063795d26c3146106ac57600080fd5b8063741bef1a1461061a578063766718081461063a57806377553ad41461065057600080fd5b806361d027b31161024357806361d027b3146105c9578063715018a6146105e957806372fe25aa146105fe57600080fd5b80635733d58f146105485780635a0edf77146105645780635d2de6421461059c57600080fd5b806334178d36116102cb5780633cc74225116102a55780633cc74225146104f35780633d83908a146105135780634870dd9a1461053357600080fd5b806334178d361461048657806335a3f7071461049b578063389e92a5146104d357600080fd5b80632e54bf95116102fc5780632e54bf951461042e5780632ee435bb14610450578063335525ad1461046657600080fd5b806314f6c3be1461037b57806316b9d3c51461039f5780631bf435551461041157600080fd5b366103765761032f6109e0565b60095461033c9034610a51565b60098190556040519081527fceb6d671277d4354fd29977ada70695fbd93a16612abf765d6b0e25c28dc6db39060200160405180910390a1005b600080fd5b34801561038757600080fd5b506009545b6040519081526020015b60405180910390f35b3480156103ab57600080fd5b506103e96103ba366004612d63565b600f60205260009081526040902080546001820154600283015460038401546004909401549293919290919085565b604080519586526020860194909452928401919091526060830152608082015260a001610396565b34801561041d57600080fd5b5061038c681b1ae4d6e2ef50000081565b34801561043a57600080fd5b5061044e610449366004612d87565b610a66565b005b34801561045c57600080fd5b5061038c60175481565b34801561047257600080fd5b5061044e610481366004612da0565b610be9565b34801561049257600080fd5b5061038c610c4b565b3480156104a757600080fd5b506006546104bb906001600160a01b031681565b6040516001600160a01b039091168152602001610396565b3480156104df57600080fd5b5061038c6104ee366004612d63565b610c80565b3480156104ff57600080fd5b506001546104bb906001600160a01b031681565b34801561051f57600080fd5b506005546104bb906001600160a01b031681565b34801561053f57600080fd5b5061038c610d0f565b34801561055457600080fd5b5061038c6714d1120d7b16000081565b34801561057057600080fd5b5061038c61057f366004612da0565b601460209081526000928352604080842090915290825290205481565b3480156105a857600080fd5b5061038c6105b7366004612d63565b600e6020526000908152604090205481565b3480156105d557600080fd5b50600d546104bb906001600160a01b031681565b3480156105f557600080fd5b5061044e610d2a565b34801561060a57600080fd5b5061038c670de0b6b3a764000081565b34801561062657600080fd5b506002546104bb906001600160a01b031681565b34801561064657600080fd5b5061038c60125481565b34801561065c57600080fd5b506004546104bb906001600160a01b031681565b34801561067c57600080fd5b5061044e61068b366004612d87565b610d3c565b34801561069c57600080fd5b5061038c670f43fc2c04ee000081565b3480156106b857600080fd5b5061038c610ea2565b3480156106cd57600080fd5b506000546104bb906001600160a01b031681565b3480156106ed57600080fd5b506103e96106fc366004612d63565b600c60205260009081526040902080546001820154600283015460038401546004909401549293919290919085565b34801561073757600080fd5b5061038c610f9e565b34801561074c57600080fd5b5061038c60105481565b34801561076257600080fd5b506003546001600160a01b03166104bb565b34801561078057600080fd5b506008546104bb906001600160a01b031681565b3480156107a057600080fd5b506107cd6040518060400160405280600d81526020016c14dd18589a5b1a5d1e541bdbdb609a1b81525081565b6040516103969190612dc2565b3480156107e657600080fd5b5061038c60115481565b3480156107fc57600080fd5b5061038c61080b366004612d63565b611063565b34801561081c57600080fd5b506007546104bb906001600160a01b031681565b34801561083c57600080fd5b5061038c61084b366004612d63565b6110e9565b34801561085c57600080fd5b5061038c6802b5e3af16b188000081565b34801561087957600080fd5b5061038c633b9aca0081565b34801561089157600080fd5b5061044e6108a0366004612e10565b6111bc565b3480156108b157600080fd5b5061038c60165481565b3480156108c757600080fd5b50600a5461038c565b3480156108dc57600080fd5b5061038c6108eb366004612d63565b61142e565b3480156108fc57600080fd5b5061038c61090b366004612d63565b6114b4565b34801561091c57600080fd5b5061038c61092b366004612da0565b601360209081526000928352604080842090915290825290205481565b34801561095457600080fd5b5061044e610963366004612d63565b6115a2565b34801561097457600080fd5b5061038c61161b565b34801561098957600080fd5b5061038c60155481565b34801561099f57600080fd5b5061038c6109ae366004612d63565b600b6020526000908152604090205481565b3480156109cc57600080fd5b5061044e6109db366004612eb9565b61163b565b6000546001600160a01b03163314610a4f5760405162461bcd60e51b815260206004820152602760248201527f53746162696c697479506f6f6c3a2043616c6c6572206973206e6f74204163746044820152661a5d99541bdbdb60ca1b60648201526084015b60405180910390fd5b565b6000610a5d8284612f08565b90505b92915050565b8015610a7457610a74611873565b336000908152600b6020526040902054610a8d81611a6b565b6008546001600160a01b0316610aa281611ae1565b6000610aad33610c80565b90506000610aba33611063565b90506000610ac88683611b56565b90506000610ad68684611b6c565b9050610ae28533611b78565b6000610aed3361142e565b90506000610afb8285611b6c565b9050610b073382611ce7565b604080518281523360208201819052917f99920012339b5a3368d3a04b8606ce412c46ed92b7dcd8602d41fc8862cb8f25910160405180910390a2610b4c3385611e16565b6000610b588686611b6c565b9050610b643382611e97565b60405181815233907fbce78369dccab09eec1986f4d409ab09ffbb47d65423e5148fcf98411c5111c99060200160405180910390a2604080518881526020810186905233917f51457222ebca92c335c9c86e2baa1cc0e40ffaa9084a51452980d5ba8dec2f63910160405180910390a2610bdd87611fe0565b50505050505050505050565b610bf1612111565b600a54801580610bff575082155b15610c0957505050565b600854610c1e906001600160a01b0316611ae1565b600080610c2c84868561217d565b91509150610c3a828261224b565b610c4484866124a4565b5050505050565b6103e8610c61670de0b6b3a7640000600a612f1b565b610c6b9190612f32565b610c7d90670de0b6b3a7640000612f54565b81565b6001600160a01b0381166000908152600b6020526040812054808203610ca95750600092915050565b6001600160a01b0383166000908152600c60209081526040808320815160a081018352815481526001820154938101939093526002810154918301919091526003810154606083015260040154608082015290610d0683836125d6565b95945050505050565b610c7d670de0b6b3a76400006802b5e3af16b1880000612f32565b610d3261268a565b610a4f60006126e4565b610d4581612743565b336000908152600b60205260409020546008546001600160a01b0316610d6a81611ae1565b6000610d7533610c80565b90506000610d8233611063565b90506000610d908583611b6c565b9050610d9c8433611b78565b6000610da73361142e565b90506000610db58289610a51565b9050610dc13382611ce7565b604080518281523360208201819052917f99920012339b5a3368d3a04b8606ce412c46ed92b7dcd8602d41fc8862cb8f25910160405180910390a2610e0633896127a2565b6000610e12858a610a51565b9050610e1e3382611e97565b60405181815233907fbce78369dccab09eec1986f4d409ab09ffbb47d65423e5148fcf98411c5111c99060200160405180910390a2604080518781526020810186905233917f51457222ebca92c335c9c86e2baa1cc0e40ffaa9084a51452980d5ba8dec2f63910160405180910390a2610e9786611fe0565b505050505050505050565b600080546040805163512a9ebb60e01b8152905183926001600160a01b03169163512a9ebb9160048083019260209291908290030181865afa158015610eec573d6000803e3d6000fd5b505050506040513d601f19601f82011682018060405250810190610f109190612f67565b90506000600160009054906101000a90046001600160a01b03166001600160a01b031663512a9ebb6040518163ffffffff1660e01b8152600401602060405180830381865afa158015610f67573d6000803e3d6000fd5b505050506040513d601f19601f82011682018060405250810190610f8b9190612f67565b9050610f978282610a51565b9250505090565b6000805460408051630a7b61df60e11b8152905183926001600160a01b0316916314f6c3be9160048083019260209291908290030181865afa158015610fe8573d6000803e3d6000fd5b505050506040513d601f19601f8201168201806040525081019061100c9190612f67565b90506000600160009054906101000a90046001600160a01b03166001600160a01b03166314f6c3be6040518163ffffffff1660e01b8152600401602060405180830381865afa158015610f67573d6000803e3d6000fd5b6001600160a01b0381166000908152600b602052604081205480820361108c5750600092915050565b6001600160a01b0383166000908152600c60209081526040808320815160a081018352815481526001820154938101939093526002810154918301919091526003810154606083015260040154608082015290610d06838361285e565b6001600160a01b0381166000908152600b60205260408120548082036111125750600092915050565b6001600160a01b0383166000908152600c60209081526040808320815160a081018352815481526001820154938101939093526002810154918301919091526003810154606083015260040154608082015290610d06670de0b6b3a76400006111b661117e8686612927565b6103e8611194670de0b6b3a7640000600a612f1b565b61119e9190612f32565b6111b090670de0b6b3a7640000612f54565b9061298c565b90612998565b6111c461268a565b6111cd886129a4565b6111d6876129a4565b6111df866129a4565b6111e8856129a4565b6111f1846129a4565b6111fa836129a4565b611203826129a4565b6004805473ffffffffffffffffffffffffffffffffffffffff199081166001600160a01b038b81169182179093556005805483168b85161790556000805483168a8516179055600680548316898516179055600780548316888516179055600280548316878516179055600880548316868516179055600d80549092169284169290921790556040519081527f3ca631ffcd2a9b5d9ae18543fc82f58eb4ca33af9e6ab01b7a8e95331e6ed9859060200160405180910390a16040516001600160a01b03881681527f143219c9e69b09e07e095fcc889b43d8f46ca892bba65f08dc3a0050869a56789060200160405180910390a16040516001600160a01b03871681527f78f058b189175430c48dc02699e3a0031ea4ff781536dc2fab847de4babdd8829060200160405180910390a16040516001600160a01b03861681527fbce04ccd812fbb02ec2145498f813470d7b7587b19477428388fe8201a1521319060200160405180910390a16040516001600160a01b03851681527f65f4cf077bc01e4742eb5ad98326f6e95b63548ea24b17f8d5e823111fe788009060200160405180910390a16040516001600160a01b03841681527f8c537274438aa850a330284665d81a85dd38267d09e4050d416bfc94142db2649060200160405180910390a16040516001600160a01b03831681527f3055265812fb8447b9ada4a5d804ec43bd528ec40e89c952bbc7b85dc5ac68119060200160405180910390a15050505050505050565b6001600160a01b0381166000908152600e60205260408120548082036114575750600092915050565b6001600160a01b0383166000908152600f60209081526040808320815160a081018352815481526001820154938101939093526002810154918301919091526003810154606083015260040154608082015290610d06838361285e565b6001600160a01b0381166000908152600e60205260408120548082036114dd5750600092915050565b60006115236103e86114f8670de0b6b3a7640000600a612f1b565b6115029190612f32565b61151490670de0b6b3a7640000612f54565b670de0b6b3a764000090611b6c565b6001600160a01b0385166000908152600f60209081526040808320815160a0810183528154815260018201549381019390935260028101549183019190915260038101546060830152600401546080820152919250611598670de0b6b3a76400006111b66115918786612927565b869061298c565b9695505050505050565b6115aa61268a565b6001600160a01b03811661160f5760405162461bcd60e51b815260206004820152602660248201527f4f776e61626c653a206e6577206f776e657220697320746865207a65726f206160448201526564647265737360d01b6064820152608401610a46565b611618816126e4565b50565b611630620186a0670de0b6b3a7640000612f32565b610c7d906005612f1b565b336000908152600b602052604090205461165481611a6b565b61165d33612a51565b61166633612b43565b6008546001600160a01b031661167b81611ae1565b600061168633610c80565b9050600061169333611063565b905060006116a18583611b6c565b90506116ad8433611b78565b60006116b83361142e565b9050806116c53382611ce7565b604080518281523360208201819052917f99920012339b5a3368d3a04b8606ce412c46ed92b7dcd8602d41fc8862cb8f25910160405180910390a261170a3385611e97565b604080518681526020810185905233917f51457222ebca92c335c9c86e2baa1cc0e40ffaa9084a51452980d5ba8dec2f63910160405180910390a260405184815233907fbce78369dccab09eec1986f4d409ab09ffbb47d65423e5148fcf98411c5111c99060200160405180910390a26009546117879086611b6c565b60098190556040519081527fceb6d671277d4354fd29977ada70695fbd93a16612abf765d6b0e25c28dc6db39060200160405180910390a160408051338152602081018790527f6109e2559dfa766aaec7118351d48a523f0a4157f49c8d68749c8ac41318ad12910160405180910390a16004805460405163ea9638bf60e01b815233928101929092526001600160a01b038b811660248401528a81166044840152169063ea9638bf9087906064016000604051808303818588803b15801561184f57600080fd5b505af1158015611863573d6000803e3d6000fd5b5050505050505050505050505050565b60025460408051630fdb11cf60e01b815290516000926001600160a01b031691630fdb11cf916004808301926020929190829003018187875af11580156118be573d6000803e3d6000fd5b505050506040513d601f19601f820116820180604052508101906118e29190612f67565b90506000600760009054906101000a90046001600160a01b03166001600160a01b0316634d6228316040518163ffffffff1660e01b8152600401602060405180830381865afa158015611939573d6000803e3d6000fd5b505050506040513d601f19601f8201168201806040525081019061195d9190612f80565b600554604051630d293c7160e41b81526001600160a01b038084166004830152602482018690529293506000929091169063d293c71090604401602060405180830381865afa1580156119b4573d6000803e3d6000fd5b505050506040513d601f19601f820116820180604052508101906119d89190612f67565b9050670f43fc2c04ee0000811015611a665760405162461bcd60e51b8152602060048201526044602482018190527f53746162696c697479506f6f6c3a2043616e6e6f742077697468647261772077908201527f68696c65207468657265206172652074726f766573207769746820494352203c6064820152631026a1a960e11b608482015260a401610a46565b505050565b600081116116185760405162461bcd60e51b815260206004820152603060248201527f53746162696c697479506f6f6c3a2055736572206d757374206861766520612060448201527f6e6f6e2d7a65726f206465706f736974000000000000000000000000000000006064820152608401610a46565b6000816001600160a01b031663a9d394806040518163ffffffff1660e01b81526004016020604051808303816000875af1158015611b23573d6000803e3d6000fd5b505050506040513d601f19601f82011682018060405250810190611b479190612f67565b9050611b5281612bc6565b5050565b6000818310611b655781610a5d565b5090919050565b6000610a5d8284612f54565b6000611b83826114b4565b600d54604051630e04ac8f60e11b81526001600160a01b03918216600482015260248101839052919250841690631c09591e90604401600060405180830381600087803b158015611bd357600080fd5b505af1158015611be7573d6000803e3d6000fd5b5050600d546040518481526001600160a01b0390911692507f1b5a24a60494bc3156f87c622d15f9e3fe9afe48f3bad341f020203480721844915060200160405180910390a26000611c38836110e9565b604051630e04ac8f60e11b81526001600160a01b0385811660048301526024820183905291925090851690631c09591e90604401600060405180830381600087803b158015611c8657600080fd5b505af1158015611c9a573d6000803e3d6000fd5b50505050826001600160a01b03167f2100cd07c3a49fa04dd1d90e15284b0b70b3b84a05d9486b474a2a51e631bf0682604051611cd991815260200190565b60405180910390a250505050565b6001600160a01b0382166000908152600e60205260408120829055819003611d83576001600160a01b0382166000818152600f6020526040808220828155600181018390556002810183905560038101839055600401829055517fbb1322f85cc7cc8bac4e172a5bc5dcc0c1959007f9a030032abf9258205f0e4591611d77918190918252602082015260400190565b60405180910390a25050565b60115460125460105460008281526014602090815260408083208684528252808320546001600160a01b038916808552600f845293829020600181018690556002810182905560038101889055600401869055815185815292830181905292917fbb1322f85cc7cc8bac4e172a5bc5dcc0c1959007f9a030032abf9258205f0e45910160405180910390a2505050505050565b80600003611e22575050565b600654604051631062c15f60e11b81523060048201526001600160a01b03848116602483015260448201849052909116906320c582be90606401600060405180830381600087803b158015611e7657600080fd5b505af1158015611e8a573d6000803e3d6000fd5b50505050611b5281612cac565b6001600160a01b0382166000908152600b60205260408120829055819003611f2d576001600160a01b0382166000818152600c6020908152604080832083815560018101849055600281018490556003810184905560040183905580518381529182018390528101919091527f2d6cc0bcdf72c9486f6451bde6b80f44066f4558f77f44dbfedbe7d8b295225a90606001611d77565b6011546012546010546000828152601360209081526040808320868452825280832054858452601483528184208785528352818420546001600160a01b038a16808652600c85529483902060018101879055828155600281018290556003810189905560040187905582518681529384018290529183018290529290917f2d6cc0bcdf72c9486f6451bde6b80f44066f4558f77f44dbfedbe7d8b295225a9060600160405180910390a250505050505050565b80600003611feb5750565b600954600090611ffb9083611b6c565b60098190556040518181529091507fceb6d671277d4354fd29977ada70695fbd93a16612abf765d6b0e25c28dc6db39060200160405180910390a160408051338152602081018490527f6109e2559dfa766aaec7118351d48a523f0a4157f49c8d68749c8ac41318ad12910160405180910390a1604051600090339084908381818185875af1925050503d80600081146120b1576040519150601f19603f3d011682016040523d82523d6000602084013e6120b6565b606091505b5050905080611a665760405162461bcd60e51b815260206004820152602160248201527f53746162696c697479506f6f6c3a2073656e64696e6720455448206661696c656044820152601960fa1b6064820152608401610a46565b6005546001600160a01b03163314610a4f5760405162461bcd60e51b815260206004820152602960248201527f53746162696c697479506f6f6c3a2043616c6c6572206973206e6f742054726f6044820152683b32a6b0b730b3b2b960b91b6064820152608401610a46565b60008060006121a96016546121a3670de0b6b3a76400008961298c90919063ffffffff16565b90610a51565b9050838511156121bb576121bb612f9d565b8385036121d7576000601755670de0b6b3a7640000915061221f565b6017546000906121f9906121f388670de0b6b3a764000061298c565b90611b6c565b905061220a60016121a38388612998565b925061221a816121f3858861298c565b601755505b6122298185612998565b925061223f612238848661298c565b8290611b6c565b60165550935093915050565b6010546000670de0b6b3a764000083111561226857612268612f9d565b600061227c670de0b6b3a764000085611b6c565b6011546012546000818152601360209081526040808320858452909152812054939450919290916122ad898861298c565b905060006122bb8383610a51565b600085815260136020908152604080832089845282529182902083905581518381529081018790529081018790529091507ff258cb8cfa272c0e6630207ad61a9e61acc2a2c4e24ab2500f9d47028f877d109060600160405180910390a1856000036123ae5761232c846001610a51565b60128190556040519081527fb33a1f54dde4e0082c45281b338d78b2c4b5be163b6ffffa5d0d6d1050ba5a589060200160405180910390a1600060118190556040519081527f3bed654efb708b58f2d77966f880bd1798be286fdd36983d20cbf0897e186c6e9060200160405180910390a1670de0b6b3a76400009650612450565b633b9aca006123c9670de0b6b3a76400006111b68b8a61298c565b1015612437576123ed670de0b6b3a76400006111b6633b9aca006111b08c8b61298c565b96506123fa856001610a51565b60118190556040519081527f3bed654efb708b58f2d77966f880bd1798be286fdd36983d20cbf0897e186c6e9060200160405180910390a1612450565b61244d670de0b6b3a76400006111b68a8961298c565b96505b6000871161246057612460612f9d565b60108790556040518781527fc1a9618cb59ebca77cbdbc2949f126823c407ff13edb285fd0262519a9c18e8c9060200160405180910390a150505050505050505050565b6000546040516305af902160e31b8152600481018390526001600160a01b03909116908190632d7c810890602401600060405180830381600087803b1580156124ec57600080fd5b505af1158015612500573d6000803e3d6000fd5b5050505061250d82612cac565b600654604051632770a7eb60e21b8152306004820152602481018490526001600160a01b0390911690639dc29fac90604401600060405180830381600087803b15801561255957600080fd5b505af115801561256d573d6000803e3d6000fd5b50506040516364a197f360e01b8152306004820152602481018690526001600160a01b03841692506364a197f39150604401600060405180830381600087803b1580156125b957600080fd5b505af11580156125cd573d6000803e3d6000fd5b50505050505050565b608081015160608201518251602080850151600085815260138352604080822086835290935291822054919493929185906126119084611b6c565b60008681526013602052604081209192509061265690633b9aca009083612639896001610a51565b81526020019081526020016000205461299890919063ffffffff16565b9050600061267c670de0b6b3a76400006111b686816126758888610a51565b8f9061298c565b9a9950505050505050505050565b6003546001600160a01b03163314610a4f5760405162461bcd60e51b815260206004820181905260248201527f4f776e61626c653a2063616c6c6572206973206e6f7420746865206f776e65726044820152606401610a46565b600380546001600160a01b0383811673ffffffffffffffffffffffffffffffffffffffff19831681179093556040519116919082907f8be0079c531659141344cd1fd0a4f28419497f9722a3daafe3b4186f6b6457e090600090a35050565b600081116116185760405162461bcd60e51b815260206004820152602660248201527f53746162696c697479506f6f6c3a20416d6f756e74206d757374206265206e6f6044820152656e2d7a65726f60d01b6064820152608401610a46565b600654604051632ee65eeb60e21b81526001600160a01b038481166004830152306024830152604482018490529091169063bb997bac90606401600060405180830381600087803b1580156127f657600080fd5b505af115801561280a573d6000803e3d6000fd5b5050600a546000925061281e915083610a51565b600a8190556040518181529091507fc5ee6fb858a22859c568a103df828f481b378a432ae4e0a5cbc076430130bdb29060200160405180910390a1505050565b6020810151606082015160808301516012546000939291908110156128895760009350505050610a60565b6000806128a184601154611b6c90919063ffffffff16565b9050806000036128cb576128c4856111b66010548b61298c90919063ffffffff16565b91506128f9565b806001036128f4576128c4633b9aca006111b6876111b66010548d61298c90919063ffffffff16565b600091505b61290788633b9aca00612998565b82101561291c57600095505050505050610a60565b509695505050505050565b6080810151606082015160408084015160208086015160008681526014835284812086825290925292812054909493929085906129649084611b6c565b60008681526014602052604081209192509061265690633b9aca009083612639896001610a51565b6000610a5d8284612f1b565b6000610a5d8284612f32565b6001600160a01b0381166129fa5760405162461bcd60e51b815260206004820152601e60248201527f4163636f756e742063616e6e6f74206265207a65726f206164647265737300006044820152606401610a46565b6001600160a01b0381163b6116185760405162461bcd60e51b815260206004820181905260248201527f4163636f756e7420636f64652073697a652063616e6e6f74206265207a65726f6044820152606401610a46565b6005546040516321e3780160e01b81526001600160a01b038381166004830152909116906321e3780190602401602060405180830381865afa158015612a9b573d6000803e3d6000fd5b505050506040513d601f19601f82011682018060405250810190612abf9190612f67565b6001146116185760405162461bcd60e51b815260206004820152604660248201527f53746162696c697479506f6f6c3a2063616c6c6572206d75737420686176652060448201527f616e206163746976652074726f766520746f207769746864726177204554484760648201526561696e20746f60d01b608482015260a401610a46565b6000612b4e82610c80565b905060008111611b525760405162461bcd60e51b815260206004820152603160248201527f53746162696c697479506f6f6c3a2063616c6c6572206d75737420686176652060448201527f6e6f6e2d7a65726f20455448204761696e0000000000000000000000000000006064820152608401610a46565b600a54801580612bd4575081155b15612bdd575050565b6000612be98383612cfb565b90506000612c026010548361298c90919063ffffffff16565b60125460009081526014602090815260408083206011548452909152902054909150612c2e9082610a51565b6012805460009081526014602081815260408084206011805486529083528185209690965593548084529181528383209454808452948152918390205483519081529182015280820192909252517ff183c509dedcdb1c9bd9cdcbf39fa395eedecb48f9666dcef9da50f7f2084e529181900360600190a150505050565b600a54600090612cbc9083611b6c565b600a8190556040518181529091507fc5ee6fb858a22859c568a103df828f481b378a432ae4e0a5cbc076430130bdb29060200160405180910390a15050565b600080612d1f6015546121a3670de0b6b3a76400008761298c90919063ffffffff16565b90506000612d2d8285612998565b9050612d43612d3c828661298c565b8390611b6c565b601555949350505050565b6001600160a01b038116811461161857600080fd5b600060208284031215612d7557600080fd5b8135612d8081612d4e565b9392505050565b600060208284031215612d9957600080fd5b5035919050565b60008060408385031215612db357600080fd5b50508035926020909101359150565b600060208083528351808285015260005b81811015612def57858101830151858201604001528201612dd3565b506000604082860101526040601f19601f8301168501019250505092915050565b600080600080600080600080610100898b031215612e2d57600080fd5b8835612e3881612d4e565b97506020890135612e4881612d4e565b96506040890135612e5881612d4e565b95506060890135612e6881612d4e565b94506080890135612e7881612d4e565b935060a0890135612e8881612d4e565b925060c0890135612e9881612d4e565b915060e0890135612ea881612d4e565b809150509295985092959890939650565b60008060408385031215612ecc57600080fd5b8235612ed781612d4e565b91506020830135612ee781612d4e565b809150509250929050565b634e487b7160e01b600052601160045260246000fd5b80820180821115610a6057610a60612ef2565b8082028115828204841417610a6057610a60612ef2565b600082612f4f57634e487b7160e01b600052601260045260246000fd5b500490565b81810381811115610a6057610a60612ef2565b600060208284031215612f7957600080fd5b5051919050565b600060208284031215612f9257600080fd5b8151612d8081612d4e565b634e487b7160e01b600052600160045260246000fdfea164736f6c6343000811000a",
  "devdoc": {
    "kind": "dev",
    "methods": {
      "owner()": {
        "details": "Returns the address of the current owner."
      },
      "renounceOwnership()": {
        "details": "Leaves the contract without owner. It will not be possible to call `onlyOwner` functions. Can only be called by the current owner. NOTE: Renouncing ownership will leave the contract without an owner, thereby disabling any functionality that is only available to the owner."
      },
      "transferOwnership(address)": {
        "details": "Transfers ownership of the contract to a new account (`newOwner`). Can only be called by the current owner."
      }
    },
    "version": 1
  },
  "userdoc": {
    "kind": "user",
    "methods": {},
    "version": 1
  },
  "storageLayout": {
    "storage": [
      {
        "astId": 5445,
        "contract": "contracts/protocol/StabilityPool.sol:StabilityPool",
        "label": "activePool",
        "offset": 0,
        "slot": "0",
        "type": "t_contract(IActivePool)5639"
      },
      {
        "astId": 5448,
        "contract": "contracts/protocol/StabilityPool.sol:StabilityPool",
        "label": "defaultPool",
        "offset": 0,
        "slot": "1",
        "type": "t_contract(IDefaultPool)5992"
      },
      {
        "astId": 5451,
        "contract": "contracts/protocol/StabilityPool.sol:StabilityPool",
        "label": "priceFeed",
        "offset": 0,
        "slot": "2",
        "type": "t_contract(IPriceFeed)6162"
      },
      {
        "astId": 53,
        "contract": "contracts/protocol/StabilityPool.sol:StabilityPool",
        "label": "_owner",
        "offset": 0,
        "slot": "3",
        "type": "t_address"
      },
      {
        "astId": 15137,
        "contract": "contracts/protocol/StabilityPool.sol:StabilityPool",
        "label": "borrowerOperations",
        "offset": 0,
        "slot": "4",
        "type": "t_contract(IBorrowerOperations)5875"
      },
      {
        "astId": 15140,
        "contract": "contracts/protocol/StabilityPool.sol:StabilityPool",
        "label": "troveManager",
        "offset": 0,
        "slot": "5",
        "type": "t_contract(ITroveManager)6984"
      },
      {
        "astId": 15143,
        "contract": "contracts/protocol/StabilityPool.sol:StabilityPool",
        "label": "zkusdToken",
        "offset": 0,
        "slot": "6",
        "type": "t_contract(IZKUSDToken)7220"
      },
      {
        "astId": 15146,
        "contract": "contracts/protocol/StabilityPool.sol:StabilityPool",
        "label": "sortedTroves",
        "offset": 0,
        "slot": "7",
        "type": "t_contract(ISortedTroves)6310"
      },
      {
        "astId": 15149,
        "contract": "contracts/protocol/StabilityPool.sol:StabilityPool",
        "label": "communityIssuance",
        "offset": 0,
        "slot": "8",
        "type": "t_contract(ICommunityIssuance)5969"
      },
      {
        "astId": 15151,
        "contract": "contracts/protocol/StabilityPool.sol:StabilityPool",
        "label": "ETH",
        "offset": 0,
        "slot": "9",
        "type": "t_uint256"
      },
      {
        "astId": 15153,
        "contract": "contracts/protocol/StabilityPool.sol:StabilityPool",
        "label": "totalZKUSDDeposits",
        "offset": 0,
        "slot": "10",
        "type": "t_uint256"
      },
      {
        "astId": 15168,
        "contract": "contracts/protocol/StabilityPool.sol:StabilityPool",
        "label": "deposits",
        "offset": 0,
        "slot": "11",
        "type": "t_mapping(t_address,t_uint256)"
      },
      {
        "astId": 15173,
        "contract": "contracts/protocol/StabilityPool.sol:StabilityPool",
        "label": "depositSnapshots",
        "offset": 0,
        "slot": "12",
        "type": "t_mapping(t_address,t_struct(Snapshots)15164_storage)"
      },
      {
        "astId": 15175,
        "contract": "contracts/protocol/StabilityPool.sol:StabilityPool",
        "label": "treasury",
        "offset": 0,
        "slot": "13",
        "type": "t_address"
      },
      {
        "astId": 15189,
        "contract": "contracts/protocol/StabilityPool.sol:StabilityPool",
        "label": "frontEndStakes",
        "offset": 0,
        "slot": "14",
        "type": "t_mapping(t_address,t_uint256)"
      },
      {
        "astId": 15194,
        "contract": "contracts/protocol/StabilityPool.sol:StabilityPool",
        "label": "frontEndSnapshots",
        "offset": 0,
        "slot": "15",
        "type": "t_mapping(t_address,t_struct(Snapshots)15164_storage)"
      },
      {
        "astId": 15197,
        "contract": "contracts/protocol/StabilityPool.sol:StabilityPool",
        "label": "P",
        "offset": 0,
        "slot": "16",
        "type": "t_uint256"
      },
      {
        "astId": 15202,
        "contract": "contracts/protocol/StabilityPool.sol:StabilityPool",
        "label": "currentScale",
        "offset": 0,
        "slot": "17",
        "type": "t_uint256"
      },
      {
        "astId": 15204,
        "contract": "contracts/protocol/StabilityPool.sol:StabilityPool",
        "label": "currentEpoch",
        "offset": 0,
        "slot": "18",
        "type": "t_uint256"
      },
      {
        "astId": 15210,
        "contract": "contracts/protocol/StabilityPool.sol:StabilityPool",
        "label": "epochToScaleToSum",
        "offset": 0,
        "slot": "19",
        "type": "t_mapping(t_uint256,t_mapping(t_uint256,t_uint256))"
      },
      {
        "astId": 15216,
        "contract": "contracts/protocol/StabilityPool.sol:StabilityPool",
        "label": "epochToScaleToG",
        "offset": 0,
        "slot": "20",
        "type": "t_mapping(t_uint256,t_mapping(t_uint256,t_uint256))"
      },
      {
        "astId": 15218,
        "contract": "contracts/protocol/StabilityPool.sol:StabilityPool",
        "label": "lastZKTError",
        "offset": 0,
        "slot": "21",
        "type": "t_uint256"
      },
      {
        "astId": 15220,
        "contract": "contracts/protocol/StabilityPool.sol:StabilityPool",
        "label": "lastETHError_Offset",
        "offset": 0,
        "slot": "22",
        "type": "t_uint256"
      },
      {
        "astId": 15222,
        "contract": "contracts/protocol/StabilityPool.sol:StabilityPool",
        "label": "lastZKUSDLossError_Offset",
        "offset": 0,
        "slot": "23",
        "type": "t_uint256"
      }
    ],
    "types": {
      "t_address": {
        "encoding": "inplace",
        "label": "address",
        "numberOfBytes": "20"
      },
      "t_contract(IActivePool)5639": {
        "encoding": "inplace",
        "label": "contract IActivePool",
        "numberOfBytes": "20"
      },
      "t_contract(IBorrowerOperations)5875": {
        "encoding": "inplace",
        "label": "contract IBorrowerOperations",
        "numberOfBytes": "20"
      },
      "t_contract(ICommunityIssuance)5969": {
        "encoding": "inplace",
        "label": "contract ICommunityIssuance",
        "numberOfBytes": "20"
      },
      "t_contract(IDefaultPool)5992": {
        "encoding": "inplace",
        "label": "contract IDefaultPool",
        "numberOfBytes": "20"
      },
      "t_contract(IPriceFeed)6162": {
        "encoding": "inplace",
        "label": "contract IPriceFeed",
        "numberOfBytes": "20"
      },
      "t_contract(ISortedTroves)6310": {
        "encoding": "inplace",
        "label": "contract ISortedTroves",
        "numberOfBytes": "20"
      },
      "t_contract(ITroveManager)6984": {
        "encoding": "inplace",
        "label": "contract ITroveManager",
        "numberOfBytes": "20"
      },
      "t_contract(IZKUSDToken)7220": {
        "encoding": "inplace",
        "label": "contract IZKUSDToken",
        "numberOfBytes": "20"
      },
      "t_mapping(t_address,t_struct(Snapshots)15164_storage)": {
        "encoding": "mapping",
        "key": "t_address",
        "label": "mapping(address => struct StabilityPool.Snapshots)",
        "numberOfBytes": "32",
        "value": "t_struct(Snapshots)15164_storage"
      },
      "t_mapping(t_address,t_uint256)": {
        "encoding": "mapping",
        "key": "t_address",
        "label": "mapping(address => uint256)",
        "numberOfBytes": "32",
        "value": "t_uint256"
      },
      "t_mapping(t_uint256,t_mapping(t_uint256,t_uint256))": {
        "encoding": "mapping",
        "key": "t_uint256",
        "label": "mapping(uint256 => mapping(uint256 => uint256))",
        "numberOfBytes": "32",
        "value": "t_mapping(t_uint256,t_uint256)"
      },
      "t_mapping(t_uint256,t_uint256)": {
        "encoding": "mapping",
        "key": "t_uint256",
        "label": "mapping(uint256 => uint256)",
        "numberOfBytes": "32",
        "value": "t_uint256"
      },
      "t_struct(Snapshots)15164_storage": {
        "encoding": "inplace",
        "label": "struct StabilityPool.Snapshots",
        "members": [
          {
            "astId": 15155,
            "contract": "contracts/protocol/StabilityPool.sol:StabilityPool",
            "label": "S",
            "offset": 0,
            "slot": "0",
            "type": "t_uint256"
          },
          {
            "astId": 15157,
            "contract": "contracts/protocol/StabilityPool.sol:StabilityPool",
            "label": "P",
            "offset": 0,
            "slot": "1",
            "type": "t_uint256"
          },
          {
            "astId": 15159,
            "contract": "contracts/protocol/StabilityPool.sol:StabilityPool",
            "label": "G",
            "offset": 0,
            "slot": "2",
            "type": "t_uint256"
          },
          {
            "astId": 15161,
            "contract": "contracts/protocol/StabilityPool.sol:StabilityPool",
            "label": "scale",
            "offset": 0,
            "slot": "3",
            "type": "t_uint256"
          },
          {
            "astId": 15163,
            "contract": "contracts/protocol/StabilityPool.sol:StabilityPool",
            "label": "epoch",
            "offset": 0,
            "slot": "4",
            "type": "t_uint256"
          }
        ],
        "numberOfBytes": "160"
      },
      "t_uint256": {
        "encoding": "inplace",
        "label": "uint256",
        "numberOfBytes": "32"
      }
    }
  }
}