{
  "address": "0x777C90AA16c4843b7e81015C66936573308bD6dd",
  "abi": [
    {
      "anonymous": false,
      "inputs": [
        {
          "indexed": false,
          "internalType": "address",
          "name": "_activePoolAddress",
          "type": "address"
        }
      ],
      "name": "ActivePoolAddressChanged",
      "type": "event"
    },
    {
      "anonymous": false,
      "inputs": [
        {
          "indexed": false,
          "internalType": "uint256",
          "name": "_baseRate",
          "type": "uint256"
        }
      ],
      "name": "BaseRateUpdated",
      "type": "event"
    },
    {
      "anonymous": false,
      "inputs": [
        {
          "indexed": false,
          "internalType": "address",
          "name": "_newBorrowerOperationsAddress",
          "type": "address"
        }
      ],
      "name": "BorrowerOperationsAddressChanged",
      "type": "event"
    },
    {
      "anonymous": false,
      "inputs": [
        {
          "indexed": false,
          "internalType": "address",
          "name": "_collSurplusPoolAddress",
          "type": "address"
        }
      ],
      "name": "CollSurplusPoolAddressChanged",
      "type": "event"
    },
    {
      "anonymous": false,
      "inputs": [
        {
          "indexed": false,
          "internalType": "address",
          "name": "_defaultPoolAddress",
          "type": "address"
        }
      ],
      "name": "DefaultPoolAddressChanged",
      "type": "event"
    },
    {
      "anonymous": false,
      "inputs": [
        {
          "indexed": false,
          "internalType": "address",
          "name": "_gasPoolAddress",
          "type": "address"
        }
      ],
      "name": "GasPoolAddressChanged",
      "type": "event"
    },
    {
      "anonymous": false,
      "inputs": [
        {
          "indexed": false,
          "internalType": "uint256",
          "name": "_L_Native",
          "type": "uint256"
        },
        {
          "indexed": false,
          "internalType": "uint256",
          "name": "_L_Debt",
          "type": "uint256"
        }
      ],
      "name": "LTermsUpdated",
      "type": "event"
    },
    {
      "anonymous": false,
      "inputs": [
        {
          "indexed": false,
          "internalType": "uint256",
          "name": "_lastFeeOpTime",
          "type": "uint256"
        }
      ],
      "name": "LastFeeOpTimeUpdated",
      "type": "event"
    },
    {
      "anonymous": false,
      "inputs": [
        {
          "indexed": false,
          "internalType": "uint256",
          "name": "_liquidatedDebt",
          "type": "uint256"
        },
        {
          "indexed": false,
          "internalType": "uint256",
          "name": "_liquidatedColl",
          "type": "uint256"
        },
        {
          "indexed": false,
          "internalType": "uint256",
          "name": "_collGasCompensation",
          "type": "uint256"
        },
        {
          "indexed": false,
          "internalType": "uint256",
          "name": "_ZKUSDGasCompensation",
          "type": "uint256"
        }
      ],
      "name": "Liquidation",
      "type": "event"
    },
    {
      "anonymous": false,
      "inputs": [
        {
          "indexed": true,
          "internalType": "address",
          "name": "previousOwner",
          "type": "address"
        },
        {
          "indexed": true,
          "internalType": "address",
          "name": "newOwner",
          "type": "address"
        }
      ],
      "name": "OwnershipTransferred",
      "type": "event"
    },
    {
      "anonymous": false,
      "inputs": [
        {
          "indexed": false,
          "internalType": "address",
          "name": "_newPriceFeedAddress",
          "type": "address"
        }
      ],
      "name": "PriceFeedAddressChanged",
      "type": "event"
    },
    {
      "anonymous": false,
      "inputs": [
        {
          "indexed": false,
          "internalType": "uint256",
          "name": "_attemptedZKUSDAmount",
          "type": "uint256"
        },
        {
          "indexed": false,
          "internalType": "uint256",
          "name": "_actualZKUSDAmount",
          "type": "uint256"
        },
        {
          "indexed": false,
          "internalType": "uint256",
          "name": "_ETHSent",
          "type": "uint256"
        },
        {
          "indexed": false,
          "internalType": "uint256",
          "name": "_ETHFee",
          "type": "uint256"
        }
      ],
      "name": "Redemption",
      "type": "event"
    },
    {
      "anonymous": false,
      "inputs": [
        {
          "indexed": false,
          "internalType": "address",
          "name": "_sortedTrovesAddress",
          "type": "address"
        }
      ],
      "name": "SortedTrovesAddressChanged",
      "type": "event"
    },
    {
      "anonymous": false,
      "inputs": [
        {
          "indexed": false,
          "internalType": "address",
          "name": "_stabilityPoolAddress",
          "type": "address"
        }
      ],
      "name": "StabilityPoolAddressChanged",
      "type": "event"
    },
    {
      "anonymous": false,
      "inputs": [
        {
          "indexed": false,
          "internalType": "uint256",
          "name": "_totalStakesSnapshot",
          "type": "uint256"
        },
        {
          "indexed": false,
          "internalType": "uint256",
          "name": "_totalCollateralSnapshot",
          "type": "uint256"
        }
      ],
      "name": "SystemSnapshotsUpdated",
      "type": "event"
    },
    {
      "anonymous": false,
      "inputs": [
        {
          "indexed": false,
          "internalType": "uint256",
          "name": "_newTotalStakes",
          "type": "uint256"
        }
      ],
      "name": "TotalStakesUpdated",
      "type": "event"
    },
    {
      "anonymous": false,
      "inputs": [
        {
          "indexed": false,
          "internalType": "address",
          "name": "_borrower",
          "type": "address"
        },
        {
          "indexed": false,
          "internalType": "uint256",
          "name": "_newIndex",
          "type": "uint256"
        }
      ],
      "name": "TroveIndexUpdated",
      "type": "event"
    },
    {
      "anonymous": false,
      "inputs": [
        {
          "indexed": true,
          "internalType": "address",
          "name": "_borrower",
          "type": "address"
        },
        {
          "indexed": false,
          "internalType": "uint256",
          "name": "_debt",
          "type": "uint256"
        },
        {
          "indexed": false,
          "internalType": "uint256",
          "name": "_coll",
          "type": "uint256"
        },
        {
          "indexed": false,
          "internalType": "enum ITroveManager.Operation",
          "name": "operation",
          "type": "uint8"
        }
      ],
      "name": "TroveLiquidated",
      "type": "event"
    },
    {
      "anonymous": false,
      "inputs": [
        {
          "indexed": false,
          "internalType": "address",
          "name": "_borrower",
          "type": "address"
        },
        {
          "indexed": false,
          "internalType": "uint256",
          "name": "_L_Native",
          "type": "uint256"
        },
        {
          "indexed": false,
          "internalType": "uint256",
          "name": "_L_Debt",
          "type": "uint256"
        }
      ],
      "name": "TroveSnapshotsUpdated",
      "type": "event"
    },
    {
      "anonymous": false,
      "inputs": [
        {
          "indexed": true,
          "internalType": "address",
          "name": "_borrower",
          "type": "address"
        },
        {
          "indexed": false,
          "internalType": "uint256",
          "name": "_debt",
          "type": "uint256"
        },
        {
          "indexed": false,
          "internalType": "uint256",
          "name": "_coll",
          "type": "uint256"
        },
        {
          "indexed": false,
          "internalType": "uint256",
          "name": "stake",
          "type": "uint256"
        },
        {
          "indexed": false,
          "internalType": "enum ITroveManager.Operation",
          "name": "operation",
          "type": "uint8"
        }
      ],
      "name": "TroveUpdated",
      "type": "event"
    },
    {
      "anonymous": false,
      "inputs": [
        {
          "indexed": false,
          "internalType": "address",
          "name": "_zktStakingAddress",
          "type": "address"
        }
      ],
      "name": "ZKTStakingAddressChanged",
      "type": "event"
    },
    {
      "anonymous": false,
      "inputs": [
        {
          "indexed": false,
          "internalType": "address",
          "name": "_zkTokenAddress",
          "type": "address"
        }
      ],
      "name": "ZKTokenAddressChanged",
      "type": "event"
    },
    {
      "anonymous": false,
      "inputs": [
        {
          "indexed": false,
          "internalType": "address",
          "name": "_newZKUSDTokenAddress",
          "type": "address"
        }
      ],
      "name": "ZKUSDTokenAddressChanged",
      "type": "event"
    },
    {
      "inputs": [],
      "name": "BETA",
      "outputs": [
        {
          "internalType": "uint256",
          "name": "",
          "type": "uint256"
        }
      ],
      "stateMutability": "view",
      "type": "function"
    },
    {
      "inputs": [],
      "name": "BOOTSTRAP_PERIOD",
      "outputs": [
        {
          "internalType": "uint256",
          "name": "",
          "type": "uint256"
        }
      ],
      "stateMutability": "view",
      "type": "function"
    },
    {
      "inputs": [],
      "name": "BORROWING_FEE_FLOOR",
      "outputs": [
        {
          "internalType": "uint256",
          "name": "",
          "type": "uint256"
        }
      ],
      "stateMutability": "view",
      "type": "function"
    },
    {
      "inputs": [],
      "name": "CCR",
      "outputs": [
        {
          "internalType": "uint256",
          "name": "",
          "type": "uint256"
        }
      ],
      "stateMutability": "view",
      "type": "function"
    },
    {
      "inputs": [],
      "name": "DECIMAL_PRECISION",
      "outputs": [
        {
          "internalType": "uint256",
          "name": "",
          "type": "uint256"
        }
      ],
      "stateMutability": "view",
      "type": "function"
    },
    {
      "inputs": [],
      "name": "L_ETH",
      "outputs": [
        {
          "internalType": "uint256",
          "name": "",
          "type": "uint256"
        }
      ],
      "stateMutability": "view",
      "type": "function"
    },
    {
      "inputs": [],
      "name": "L_ZKUSDDebt",
      "outputs": [
        {
          "internalType": "uint256",
          "name": "",
          "type": "uint256"
        }
      ],
      "stateMutability": "view",
      "type": "function"
    },
    {
      "inputs": [],
      "name": "MAX_BORROWING_FEE",
      "outputs": [
        {
          "internalType": "uint256",
          "name": "",
          "type": "uint256"
        }
      ],
      "stateMutability": "view",
      "type": "function"
    },
    {
      "inputs": [],
      "name": "MCR",
      "outputs": [
        {
          "internalType": "uint256",
          "name": "",
          "type": "uint256"
        }
      ],
      "stateMutability": "view",
      "type": "function"
    },
    {
      "inputs": [],
      "name": "MINUTE_DECAY_FACTOR",
      "outputs": [
        {
          "internalType": "uint256",
          "name": "",
          "type": "uint256"
        }
      ],
      "stateMutability": "view",
      "type": "function"
    },
    {
      "inputs": [],
      "name": "MIN_NET_DEBT",
      "outputs": [
        {
          "internalType": "uint256",
          "name": "",
          "type": "uint256"
        }
      ],
      "stateMutability": "view",
      "type": "function"
    },
    {
      "inputs": [],
      "name": "PERCENT_DIVISOR",
      "outputs": [
        {
          "internalType": "uint256",
          "name": "",
          "type": "uint256"
        }
      ],
      "stateMutability": "view",
      "type": "function"
    },
    {
      "inputs": [],
      "name": "REDEMPTION_FEE_FLOOR",
      "outputs": [
        {
          "internalType": "uint256",
          "name": "",
          "type": "uint256"
        }
      ],
      "stateMutability": "view",
      "type": "function"
    },
    {
      "inputs": [],
      "name": "SECONDS_IN_ONE_MINUTE",
      "outputs": [
        {
          "internalType": "uint256",
          "name": "",
          "type": "uint256"
        }
      ],
      "stateMutability": "view",
      "type": "function"
    },
    {
      "inputs": [
        {
          "internalType": "uint256",
          "name": "",
          "type": "uint256"
        }
      ],
      "name": "TroveOwners",
      "outputs": [
        {
          "internalType": "address",
          "name": "",
          "type": "address"
        }
      ],
      "stateMutability": "view",
      "type": "function"
    },
    {
      "inputs": [
        {
          "internalType": "address",
          "name": "",
          "type": "address"
        }
      ],
      "name": "Troves",
      "outputs": [
        {
          "internalType": "uint256",
          "name": "debt",
          "type": "uint256"
        },
        {
          "internalType": "uint256",
          "name": "coll",
          "type": "uint256"
        },
        {
          "internalType": "uint256",
          "name": "stake",
          "type": "uint256"
        },
        {
          "internalType": "enum TroveManager.Status",
          "name": "status",
          "type": "uint8"
        },
        {
          "internalType": "uint256",
          "name": "arrayIndex",
          "type": "uint256"
        }
      ],
      "stateMutability": "view",
      "type": "function"
    },
    {
      "inputs": [],
      "name": "ZKUSD_GAS_COMPENSATION",
      "outputs": [
        {
          "internalType": "uint256",
          "name": "",
          "type": "uint256"
        }
      ],
      "stateMutability": "view",
      "type": "function"
    },
    {
      "inputs": [],
      "name": "_100pct",
      "outputs": [
        {
          "internalType": "uint256",
          "name": "",
          "type": "uint256"
        }
      ],
      "stateMutability": "view",
      "type": "function"
    },
    {
      "inputs": [],
      "name": "activePool",
      "outputs": [
        {
          "internalType": "contract IActivePool",
          "name": "",
          "type": "address"
        }
      ],
      "stateMutability": "view",
      "type": "function"
    },
    {
      "inputs": [
        {
          "internalType": "address",
          "name": "_borrower",
          "type": "address"
        }
      ],
      "name": "addTroveOwnerToArray",
      "outputs": [
        {
          "internalType": "uint256",
          "name": "index",
          "type": "uint256"
        }
      ],
      "stateMutability": "nonpayable",
      "type": "function"
    },
    {
      "inputs": [
        {
          "internalType": "address",
          "name": "_borrower",
          "type": "address"
        }
      ],
      "name": "applyPendingRewards",
      "outputs": [],
      "stateMutability": "nonpayable",
      "type": "function"
    },
    {
      "inputs": [],
      "name": "baseRate",
      "outputs": [
        {
          "internalType": "uint256",
          "name": "",
          "type": "uint256"
        }
      ],
      "stateMutability": "view",
      "type": "function"
    },
    {
      "inputs": [
        {
          "internalType": "address[]",
          "name": "_troveArray",
          "type": "address[]"
        }
      ],
      "name": "batchLiquidateTroves",
      "outputs": [],
      "stateMutability": "nonpayable",
      "type": "function"
    },
    {
      "inputs": [],
      "name": "borrowerOperationsAddress",
      "outputs": [
        {
          "internalType": "address",
          "name": "",
          "type": "address"
        }
      ],
      "stateMutability": "view",
      "type": "function"
    },
    {
      "inputs": [
        {
          "internalType": "uint256",
          "name": "_price",
          "type": "uint256"
        }
      ],
      "name": "checkRecoveryMode",
      "outputs": [
        {
          "internalType": "bool",
          "name": "",
          "type": "bool"
        }
      ],
      "stateMutability": "view",
      "type": "function"
    },
    {
      "inputs": [
        {
          "internalType": "address",
          "name": "_borrower",
          "type": "address"
        }
      ],
      "name": "closeTrove",
      "outputs": [],
      "stateMutability": "nonpayable",
      "type": "function"
    },
    {
      "inputs": [],
      "name": "decayBaseRateFromBorrowing",
      "outputs": [],
      "stateMutability": "nonpayable",
      "type": "function"
    },
    {
      "inputs": [
        {
          "internalType": "address",
          "name": "_borrower",
          "type": "address"
        },
        {
          "internalType": "uint256",
          "name": "_collDecrease",
          "type": "uint256"
        }
      ],
      "name": "decreaseTroveColl",
      "outputs": [
        {
          "internalType": "uint256",
          "name": "",
          "type": "uint256"
        }
      ],
      "stateMutability": "nonpayable",
      "type": "function"
    },
    {
      "inputs": [
        {
          "internalType": "address",
          "name": "_borrower",
          "type": "address"
        },
        {
          "internalType": "uint256",
          "name": "_debtDecrease",
          "type": "uint256"
        }
      ],
      "name": "decreaseTroveDebt",
      "outputs": [
        {
          "internalType": "uint256",
          "name": "",
          "type": "uint256"
        }
      ],
      "stateMutability": "nonpayable",
      "type": "function"
    },
    {
      "inputs": [],
      "name": "defaultPool",
      "outputs": [
        {
          "internalType": "contract IDefaultPool",
          "name": "",
          "type": "address"
        }
      ],
      "stateMutability": "view",
      "type": "function"
    },
    {
      "inputs": [
        {
          "internalType": "uint256",
          "name": "_ZKUSDDebt",
          "type": "uint256"
        }
      ],
      "name": "getBorrowingFee",
      "outputs": [
        {
          "internalType": "uint256",
          "name": "",
          "type": "uint256"
        }
      ],
      "stateMutability": "view",
      "type": "function"
    },
    {
      "inputs": [
        {
          "internalType": "uint256",
          "name": "_ZKUSDDebt",
          "type": "uint256"
        }
      ],
      "name": "getBorrowingFeeWithDecay",
      "outputs": [
        {
          "internalType": "uint256",
          "name": "",
          "type": "uint256"
        }
      ],
      "stateMutability": "view",
      "type": "function"
    },
    {
      "inputs": [],
      "name": "getBorrowingRate",
      "outputs": [
        {
          "internalType": "uint256",
          "name": "",
          "type": "uint256"
        }
      ],
      "stateMutability": "view",
      "type": "function"
    },
    {
      "inputs": [],
      "name": "getBorrowingRateWithDecay",
      "outputs": [
        {
          "internalType": "uint256",
          "name": "",
          "type": "uint256"
        }
      ],
      "stateMutability": "view",
      "type": "function"
    },
    {
      "inputs": [
        {
          "internalType": "address",
          "name": "_borrower",
          "type": "address"
        },
        {
          "internalType": "uint256",
          "name": "_price",
          "type": "uint256"
        }
      ],
      "name": "getCurrentICR",
      "outputs": [
        {
          "internalType": "uint256",
          "name": "",
          "type": "uint256"
        }
      ],
      "stateMutability": "view",
      "type": "function"
    },
    {
      "inputs": [
        {
          "internalType": "address",
          "name": "_borrower",
          "type": "address"
        }
      ],
      "name": "getEntireDebtAndColl",
      "outputs": [
        {
          "internalType": "uint256",
          "name": "debt",
          "type": "uint256"
        },
        {
          "internalType": "uint256",
          "name": "coll",
          "type": "uint256"
        },
        {
          "internalType": "uint256",
          "name": "pendingZKUSDDebtReward",
          "type": "uint256"
        },
        {
          "internalType": "uint256",
          "name": "pendingETHReward",
          "type": "uint256"
        }
      ],
      "stateMutability": "view",
      "type": "function"
    },
    {
      "inputs": [],
      "name": "getEntireSystemColl",
      "outputs": [
        {
          "internalType": "uint256",
          "name": "entireSystemColl",
          "type": "uint256"
        }
      ],
      "stateMutability": "view",
      "type": "function"
    },
    {
      "inputs": [],
      "name": "getEntireSystemDebt",
      "outputs": [
        {
          "internalType": "uint256",
          "name": "entireSystemDebt",
          "type": "uint256"
        }
      ],
      "stateMutability": "view",
      "type": "function"
    },
    {
      "inputs": [
        {
          "internalType": "address",
          "name": "_borrower",
          "type": "address"
        }
      ],
      "name": "getNominalICR",
      "outputs": [
        {
          "internalType": "uint256",
          "name": "",
          "type": "uint256"
        }
      ],
      "stateMutability": "view",
      "type": "function"
    },
    {
      "inputs": [
        {
          "internalType": "address",
          "name": "_borrower",
          "type": "address"
        }
      ],
      "name": "getPendingETHReward",
      "outputs": [
        {
          "internalType": "uint256",
          "name": "",
          "type": "uint256"
        }
      ],
      "stateMutability": "view",
      "type": "function"
    },
    {
      "inputs": [
        {
          "internalType": "address",
          "name": "_borrower",
          "type": "address"
        }
      ],
      "name": "getPendingZKUSDDebtReward",
      "outputs": [
        {
          "internalType": "uint256",
          "name": "",
          "type": "uint256"
        }
      ],
      "stateMutability": "view",
      "type": "function"
    },
    {
      "inputs": [
        {
          "internalType": "uint256",
          "name": "_ETHDrawn",
          "type": "uint256"
        }
      ],
      "name": "getRedemptionFeeWithDecay",
      "outputs": [
        {
          "internalType": "uint256",
          "name": "",
          "type": "uint256"
        }
      ],
      "stateMutability": "view",
      "type": "function"
    },
    {
      "inputs": [],
      "name": "getRedemptionRate",
      "outputs": [
        {
          "internalType": "uint256",
          "name": "",
          "type": "uint256"
        }
      ],
      "stateMutability": "view",
      "type": "function"
    },
    {
      "inputs": [],
      "name": "getRedemptionRateWithDecay",
      "outputs": [
        {
          "internalType": "uint256",
          "name": "",
          "type": "uint256"
        }
      ],
      "stateMutability": "view",
      "type": "function"
    },
    {
      "inputs": [
        {
          "internalType": "uint256",
          "name": "_price",
          "type": "uint256"
        }
      ],
      "name": "getTCR",
      "outputs": [
        {
          "internalType": "uint256",
          "name": "",
          "type": "uint256"
        }
      ],
      "stateMutability": "view",
      "type": "function"
    },
    {
      "inputs": [
        {
          "internalType": "address",
          "name": "_borrower",
          "type": "address"
        }
      ],
      "name": "getTroveColl",
      "outputs": [
        {
          "internalType": "uint256",
          "name": "",
          "type": "uint256"
        }
      ],
      "stateMutability": "view",
      "type": "function"
    },
    {
      "inputs": [
        {
          "internalType": "address",
          "name": "_borrower",
          "type": "address"
        }
      ],
      "name": "getTroveDebt",
      "outputs": [
        {
          "internalType": "uint256",
          "name": "",
          "type": "uint256"
        }
      ],
      "stateMutability": "view",
      "type": "function"
    },
    {
      "inputs": [
        {
          "internalType": "uint256",
          "name": "_index",
          "type": "uint256"
        }
      ],
      "name": "getTroveFromTroveOwnersArray",
      "outputs": [
        {
          "internalType": "address",
          "name": "",
          "type": "address"
        }
      ],
      "stateMutability": "view",
      "type": "function"
    },
    {
      "inputs": [],
      "name": "getTroveOwnersCount",
      "outputs": [
        {
          "internalType": "uint256",
          "name": "",
          "type": "uint256"
        }
      ],
      "stateMutability": "view",
      "type": "function"
    },
    {
      "inputs": [
        {
          "internalType": "address",
          "name": "_borrower",
          "type": "address"
        }
      ],
      "name": "getTroveStake",
      "outputs": [
        {
          "internalType": "uint256",
          "name": "",
          "type": "uint256"
        }
      ],
      "stateMutability": "view",
      "type": "function"
    },
    {
      "inputs": [
        {
          "internalType": "address",
          "name": "_borrower",
          "type": "address"
        }
      ],
      "name": "getTroveStatus",
      "outputs": [
        {
          "internalType": "uint256",
          "name": "",
          "type": "uint256"
        }
      ],
      "stateMutability": "view",
      "type": "function"
    },
    {
      "inputs": [
        {
          "internalType": "address",
          "name": "_borrower",
          "type": "address"
        }
      ],
      "name": "hasPendingRewards",
      "outputs": [
        {
          "internalType": "bool",
          "name": "",
          "type": "bool"
        }
      ],
      "stateMutability": "view",
      "type": "function"
    },
    {
      "inputs": [
        {
          "internalType": "address",
          "name": "_borrower",
          "type": "address"
        },
        {
          "internalType": "uint256",
          "name": "_collIncrease",
          "type": "uint256"
        }
      ],
      "name": "increaseTroveColl",
      "outputs": [
        {
          "internalType": "uint256",
          "name": "",
          "type": "uint256"
        }
      ],
      "stateMutability": "nonpayable",
      "type": "function"
    },
    {
      "inputs": [
        {
          "internalType": "address",
          "name": "_borrower",
          "type": "address"
        },
        {
          "internalType": "uint256",
          "name": "_debtIncrease",
          "type": "uint256"
        }
      ],
      "name": "increaseTroveDebt",
      "outputs": [
        {
          "internalType": "uint256",
          "name": "",
          "type": "uint256"
        }
      ],
      "stateMutability": "nonpayable",
      "type": "function"
    },
    {
      "inputs": [],
      "name": "lastETHError_Redistribution",
      "outputs": [
        {
          "internalType": "uint256",
          "name": "",
          "type": "uint256"
        }
      ],
      "stateMutability": "view",
      "type": "function"
    },
    {
      "inputs": [],
      "name": "lastFeeOperationTime",
      "outputs": [
        {
          "internalType": "uint256",
          "name": "",
          "type": "uint256"
        }
      ],
      "stateMutability": "view",
      "type": "function"
    },
    {
      "inputs": [],
      "name": "lastZKUSDDebtError_Redistribution",
      "outputs": [
        {
          "internalType": "uint256",
          "name": "",
          "type": "uint256"
        }
      ],
      "stateMutability": "view",
      "type": "function"
    },
    {
      "inputs": [
        {
          "internalType": "address",
          "name": "_borrower",
          "type": "address"
        }
      ],
      "name": "liquidate",
      "outputs": [],
      "stateMutability": "nonpayable",
      "type": "function"
    },
    {
      "inputs": [
        {
          "internalType": "uint256",
          "name": "_n",
          "type": "uint256"
        }
      ],
      "name": "liquidateTroves",
      "outputs": [],
      "stateMutability": "nonpayable",
      "type": "function"
    },
    {
      "inputs": [],
      "name": "owner",
      "outputs": [
        {
          "internalType": "address",
          "name": "",
          "type": "address"
        }
      ],
      "stateMutability": "view",
      "type": "function"
    },
    {
      "inputs": [],
      "name": "priceFeed",
      "outputs": [
        {
          "internalType": "contract IPriceFeed",
          "name": "",
          "type": "address"
        }
      ],
      "stateMutability": "view",
      "type": "function"
    },
    {
      "inputs": [
        {
          "internalType": "uint256",
          "name": "_ZKUSDamount",
          "type": "uint256"
        },
        {
          "internalType": "address",
          "name": "_firstRedemptionHint",
          "type": "address"
        },
        {
          "internalType": "address",
          "name": "_upperPartialRedemptionHint",
          "type": "address"
        },
        {
          "internalType": "address",
          "name": "_lowerPartialRedemptionHint",
          "type": "address"
        },
        {
          "internalType": "uint256",
          "name": "_partialRedemptionHintNICR",
          "type": "uint256"
        },
        {
          "internalType": "uint256",
          "name": "_maxIterations",
          "type": "uint256"
        },
        {
          "internalType": "uint256",
          "name": "_maxFeePercentage",
          "type": "uint256"
        }
      ],
      "name": "redeemCollateral",
      "outputs": [],
      "stateMutability": "nonpayable",
      "type": "function"
    },
    {
      "inputs": [
        {
          "internalType": "address",
          "name": "_borrower",
          "type": "address"
        }
      ],
      "name": "removeStake",
      "outputs": [],
      "stateMutability": "nonpayable",
      "type": "function"
    },
    {
      "inputs": [],
      "name": "renounceOwnership",
      "outputs": [],
      "stateMutability": "nonpayable",
      "type": "function"
    },
    {
      "inputs": [
        {
          "internalType": "address",
          "name": "",
          "type": "address"
        }
      ],
      "name": "rewardSnapshots",
      "outputs": [
        {
          "internalType": "uint256",
          "name": "ETH",
          "type": "uint256"
        },
        {
          "internalType": "uint256",
          "name": "ZKUSDDebt",
          "type": "uint256"
        }
      ],
      "stateMutability": "view",
      "type": "function"
    },
    {
      "inputs": [
        {
          "internalType": "address",
          "name": "_borrowerOperationsAddress",
          "type": "address"
        },
        {
          "internalType": "address",
          "name": "_activePoolAddress",
          "type": "address"
        },
        {
          "internalType": "address",
          "name": "_defaultPoolAddress",
          "type": "address"
        },
        {
          "internalType": "address",
          "name": "_stabilityPoolAddress",
          "type": "address"
        },
        {
          "internalType": "address",
          "name": "_gasPoolAddress",
          "type": "address"
        },
        {
          "internalType": "address",
          "name": "_collSurplusPoolAddress",
          "type": "address"
        },
        {
          "internalType": "address",
          "name": "_priceFeedAddress",
          "type": "address"
        },
        {
          "internalType": "address",
          "name": "_zkusdTokenAddress",
          "type": "address"
        },
        {
          "internalType": "address",
          "name": "_sortedTrovesAddress",
          "type": "address"
        },
        {
          "internalType": "address",
          "name": "_zkTokenAddress",
          "type": "address"
        },
        {
          "internalType": "address",
          "name": "_zktStakingAddress",
          "type": "address"
        }
      ],
      "name": "setAddresses",
      "outputs": [],
      "stateMutability": "nonpayable",
      "type": "function"
    },
    {
      "inputs": [
        {
          "internalType": "address",
          "name": "_borrower",
          "type": "address"
        },
        {
          "internalType": "uint256",
          "name": "_num",
          "type": "uint256"
        }
      ],
      "name": "setTroveStatus",
      "outputs": [],
      "stateMutability": "nonpayable",
      "type": "function"
    },
    {
      "inputs": [],
      "name": "sortedTroves",
      "outputs": [
        {
          "internalType": "contract ISortedTroves",
          "name": "",
          "type": "address"
        }
      ],
      "stateMutability": "view",
      "type": "function"
    },
    {
      "inputs": [],
      "name": "stabilityPool",
      "outputs": [
        {
          "internalType": "contract IStabilityPool",
          "name": "",
          "type": "address"
        }
      ],
      "stateMutability": "view",
      "type": "function"
    },
    {
      "inputs": [],
      "name": "totalCollateralSnapshot",
      "outputs": [
        {
          "internalType": "uint256",
          "name": "",
          "type": "uint256"
        }
      ],
      "stateMutability": "view",
      "type": "function"
    },
    {
      "inputs": [],
      "name": "totalStakes",
      "outputs": [
        {
          "internalType": "uint256",
          "name": "",
          "type": "uint256"
        }
      ],
      "stateMutability": "view",
      "type": "function"
    },
    {
      "inputs": [],
      "name": "totalStakesSnapshot",
      "outputs": [
        {
          "internalType": "uint256",
          "name": "",
          "type": "uint256"
        }
      ],
      "stateMutability": "view",
      "type": "function"
    },
    {
      "inputs": [
        {
          "internalType": "address",
          "name": "newOwner",
          "type": "address"
        }
      ],
      "name": "transferOwnership",
      "outputs": [],
      "stateMutability": "nonpayable",
      "type": "function"
    },
    {
      "inputs": [
        {
          "internalType": "address",
          "name": "_borrower",
          "type": "address"
        }
      ],
      "name": "updateStakeAndTotalStakes",
      "outputs": [
        {
          "internalType": "uint256",
          "name": "",
          "type": "uint256"
        }
      ],
      "stateMutability": "nonpayable",
      "type": "function"
    },
    {
      "inputs": [
        {
          "internalType": "address",
          "name": "_borrower",
          "type": "address"
        }
      ],
      "name": "updateTroveRewardSnapshots",
      "outputs": [],
      "stateMutability": "nonpayable",
      "type": "function"
    },
    {
      "inputs": [],
      "name": "zkToken",
      "outputs": [
        {
          "internalType": "contract IZKToken",
          "name": "",
          "type": "address"
        }
      ],
      "stateMutability": "view",
      "type": "function"
    },
    {
      "inputs": [],
      "name": "zktStaking",
      "outputs": [
        {
          "internalType": "contract IZKTStaking",
          "name": "",
          "type": "address"
        }
      ],
      "stateMutability": "view",
      "type": "function"
    },
    {
      "inputs": [],
      "name": "zkusdToken",
      "outputs": [
        {
          "internalType": "contract IZKUSDToken",
          "name": "",
          "type": "address"
        }
      ],
      "stateMutability": "view",
      "type": "function"
    }
  ],
  "transactionHash": "0xedac205d18b6182300c70133ac9e8c27dbcad43213009fe8a62c452b97ce3978",
  "args": [],
  "numDeployments": 1,
  "solcInputHash": "8d3bedc4d324e183b89fd63f58bc09d7",
  "bytecode": "0x60806040523480156200001157600080fd5b506200001d3362000023565b62000075565b600380546001600160a01b038381166001600160a01b0319831681179093556040519116919082907f8be0079c531659141344cd1fd0a4f28419497f9722a3daafe3b4186f6b6457e090600090a35050565b615a5d80620000856000396000f3fe608060405234801561001057600080fd5b506004361061046a5760003560e01c8063756b253e1161024c578063b91af97c11610146578063d3d6f843116100c3578063e34341ab11610087578063e34341ab146109c9578063f2fde38b146109dc578063f36b2425146109ef578063f92d3433146109f7578063fe2ba848146109ff57600080fd5b8063d3d6f84314610954578063d5b3563514610967578063d66a25531461097a578063d9a72444146109a3578063e2ac77b0146109b657600080fd5b8063c52861f21161010a578063c52861f21461090e578063c7b5548114610916578063cbd138ae14610925578063d293c71014610938578063d380a37c1461094b57600080fd5b8063b91af97c146108a5578063bcd37526146108d8578063bf9befb1146108eb578063c192645b146108f4578063c35bc5501461090457600080fd5b8063887105d3116101d4578063a20baee611610198578063a20baee614610771578063ae91875414610859578063b0d8e1811461086c578063b7f8cf9b1461087f578063b82f263d1461089257600080fd5b8063887105d31461081b5780638da5cb5b1461082357806396d711ff146108345780639976cf451461083d5780639dd233d21461085057600080fd5b80637985c5e41161021b5780637985c5e4146107c65780637d8c87aa146107d95780637f7dde4a146107ec578063807d138d146107ff57806382fe3eb91461080857600080fd5b8063756b253e14610793578063794e5724146107a6578063795d26c3146107b5578063797250e3146107bd57600080fd5b8063477d66cf1161036857806361ec893d116102e55780636ef64338116102a95780636ef6433814610705578063715018a61461075657806372423c171461075e57806372fe25aa14610771578063741bef1a1461078057600080fd5b806361ec893d146106a3578063631203b0146106ab57806364cee260146106be578063653d46e7146106ea57806366ca4a21146106fd57600080fd5b80635733d58f1161032c5780635733d58f1461065d5780635d6b480f1461066c5780635d8c96091461067f5780635dba4c4a146106925780635e2084d01461069a57600080fd5b8063477d66cf146105eb578063480cd578146105fe5780634870dd9a1461062a57806349eefeee146106325780634e443d9e1461063a57600080fd5b80631f68f20a116103f65780632f865568116103ba5780632f8655681461059657806335a3f707146105a95780633cc74225146105bc57806343712f5a146105cf57806343833a7f146105d857600080fd5b80631f68f20a1461056257806321e378011461056b578063240926691461057e57806328d28b5b146105865780632b11551a1461058e57600080fd5b806315d549f11161043d57806315d549f1146104dd5780631673c79a146104f057806318f2817a1461052c5780631bf435551461053f5780631e8b1c2b1461054f57600080fd5b8063048c661d1461046f578063071a75411461049f5780630b076557146104b557806312610e92146104ca575b600080fd5b600554610482906001600160a01b031681565b6040516001600160a01b0390911681526020015b60405180910390f35b6104a7600281565b604051908152602001610496565b6104c86104c33660046155d1565b610a12565b005b6104a76104d83660046155ee565b610a3a565b6104a76104eb3660046155d1565b610a8c565b6105176104fe3660046155d1565b6014602052600090815260409020805460019091015482565b60408051928352602083019190915201610496565b6104a761053a3660046155d1565b610a9f565b6104a7681b1ae4d6e2ef50000081565b6104c861055d366004615630565b610ab2565b6104a7600c5481565b6104a76105793660046155d1565b610f02565b6104a7610f32565b6104a7610f53565b6104a7610f67565b6104c86105a43660046155d1565b610f79565b600854610482906001600160a01b031681565b600154610482906001600160a01b031681565b6104a760135481565b6104a76105e63660046155d1565b610fe5565b6104a76105f93660046156f5565b6110a1565b6104a761060c3660046155d1565b6001600160a01b03166000908152600e602052604090206001015490565b6104a76110b4565b6015546104a7565b61064d6106483660046156f5565b6110cf565b6040519015158152602001610496565b6104a76714d1120d7b16000081565b6104c861067a3660046155ee565b6110da565b6104a761068d3660046155d1565b611132565b6104c861115a565b6104a760175481565b6104a7603c81565b6104a76106b93660046156f5565b6111c6565b6104a76106cc3660046155d1565b6001600160a01b03166000908152600e602052604090206002015490565b6104c86106f83660046156f5565b6111d3565b6104a76115f1565b6107456107133660046155d1565b600e602052600090815260409020805460018201546002830154600384015460049094015492939192909160ff169085565b604051610496959493929190615724565b6104c8611603565b6104a761076c3660046155ee565b611617565b6104a7670de0b6b3a764000081565b600254610482906001600160a01b031681565b6104826107a13660046156f5565b61166e565b6104a7670f43fc2c04ee000081565b6104a7611698565b6104a760165481565b6104c86107d436600461575c565b611794565b600954610482906001600160a01b031681565b600054610482906001600160a01b031681565b6104a760105481565b6104c86108163660046155d1565b611b34565b6104a7611b45565b6003546001600160a01b0316610482565b6104a760115481565b6104a761084b3660046155ee565b611c0a565b6104a760125481565b600b54610482906001600160a01b031681565b6104a761087a3660046155d1565b611c37565b600454610482906001600160a01b031681565b6104a76108a03660046156f5565b611c5e565b6108b86108b33660046155d1565b611c69565b604080519485526020850193909352918301526060820152608001610496565b6104c86108e6366004615836565b611cc1565b6104a7600f5481565b6104a76802b5e3af16b188000081565b6104a76212750081565b6104a761244b565b6104a7670ddd4b8c6c7d70d881565b6104c86109333660046155d1565b61245d565b6104a76109463660046155ee565b612470565b6104a7600d5481565b6104a76109623660046155ee565b61248f565b6104a76109753660046156f5565b6124bf565b6104a76109883660046155d1565b6001600160a01b03166000908152600e602052604090205490565b6104826109b13660046156f5565b6124d2565b61064d6109c43660046155d1565b612502565b600a54610482906001600160a01b031681565b6104c86109ea3660046155d1565b612565565b6104a76125db565b6104a76125e8565b6104c8610a0d3660046155d1565b6125fd565b610a1a61260e565b600054600154610a37916001600160a01b0390811691168361268e565b50565b6000610a4461260e565b6001600160a01b0383166000908152600e6020526040812054610a6790846127a6565b6001600160a01b0385166000908152600e602052604090208190559150505b92915050565b6000610a9661260e565b610a86826127b9565b6000610aa961260e565b610a8682612837565b8051600003610b2e5760405162461bcd60e51b815260206004820152603660248201527f54726f76654d616e616765723a2043616c6c646174612061646472657373206160448201527f72726179206d757374206e6f7420626520656d7074790000000000000000000060648201526084015b60405180910390fd5b600080546001546005546040805160a081018252858152602081018690529081018590526060810185905260808101949094526001600160a01b0392831693918316921690610bc26040518061012001604052806000815260200160008152602001600081526020016000815260200160008152602001600081526020016000815260200160008152602001600081525090565b600260009054906101000a90046001600160a01b03166001600160a01b0316630fdb11cf6040518163ffffffff1660e01b81526004016020604051808303816000875af1158015610c17573d6000803e3d6000fd5b505050506040513d601f19601f82011682018060405250810190610c3b91906158a4565b826000018181525050826001600160a01b031663dbd1e2666040518163ffffffff1660e01b8152600401602060405180830381865afa158015610c82573d6000803e3d6000fd5b505050506040513d601f19601f82011682018060405250810190610ca691906158a4565b60208301528151610cb6906128db565b1580156040840152610cde57610cd78585846000015185602001518a6128f8565b9050610cf6565b610cf38585846000015185602001518a612bf0565b90505b6000816020015111610d555760405162461bcd60e51b815260206004820152602260248201527f54726f76654d616e616765723a206e6f7468696e6720746f206c697175696461604482015261746560f01b6064820152608401610b25565b608081015160a082015160405163335525ad60e01b81526001600160a01b0386169263335525ad92610d9292600401918252602082015260400190565b600060405180830381600087803b158015610dac57600080fd5b505af1158015610dc0573d6000803e3d6000fd5b50505050610dd885858360c001518460e00151612d91565b61010081015115610e51576007546101008201516040516364a197f360e01b81526001600160a01b0392831660048201526024810191909152908616906364a197f390604401600060405180830381600087803b158015610e3857600080fd5b505af1158015610e4c573d6000803e3d6000fd5b505050505b610e5f858260400151612fce565b6020810151606083015261010081015160408201518251610e8b9291610e8591906127a6565b906127a6565b6080838101829052606080850151604085810151868401518251938452602084019690965290820152908101929092527f4152c73dd2614c4f9fc35e8c9cf16013cd588c75b49a4c1673ecffdcbcda9403910160405180910390a1610efa853383606001518460400151613112565b505050505050565b6001600160a01b0381166000908152600e602052604081206003015460ff166004811115610a8657610a8661570e565b610f456064670de0b6b3a76400006158e9565b610f509060056158fd565b81565b610f456103e8670de0b6b3a76400006158e9565b6000610f74600c546131f8565b905090565b610f828161322e565b604080516001808252818301909252600091602080830190803683370190505090508181600081518110610fb857610fb8615914565b60200260200101906001600160a01b031690816001600160a01b031681525050610fe181610ab2565b5050565b6001600160a01b038116600090815260146020526040812060010154601354829061101090836127a6565b905080158061104f575060016001600160a01b0385166000908152600e602052604090206003015460ff16600481111561104c5761104c61570e565b14155b1561105e575060009392505050565b6001600160a01b0384166000908152600e602052604081206002015490611097670de0b6b3a764000061109184866132d3565b906132df565b9695505050505050565b6000610a866110ae6115f1565b836132eb565b610f50670de0b6b3a76400006802b5e3af16b18800006158e9565b6000610a86826128db565b6110e261260e565b8060048111156110f4576110f461570e565b6001600160a01b0383166000908152600e60205260409020600301805460ff191660018360048111156111295761112961570e565b02179055505050565b6001600160a01b038116600090815260146020526040812054601254829061101090836127a6565b61116261260e565b600061116c613303565b9050670de0b6b3a76400008111156111865761118661592a565b600c8190556040518181527fc454ee9b76c52f782a256af821b857ca6e125d1e3333bcede402fec2bed9600c9060200160405180910390a1610a37613347565b6000610a866110ae6125db565b6040805160e081018252600080546001600160a01b03908116835260015481166020808501919091528385018390526060808501849052600b54831660808087019190915260a080870186905260c087018690526005548851918201895286825293810186905296870185905290860184905285019290925291929116906112a06040518061012001604052806000815260200160008152602001600081526020016000815260200160008152602001600081526020016000815260200160008152602001600081525090565b600260009054906101000a90046001600160a01b03166001600160a01b0316630fdb11cf6040518163ffffffff1660e01b81526004016020604051808303816000875af11580156112f5573d6000803e3d6000fd5b505050506040513d601f19601f8201168201806040525081019061131991906158a4565b826000018181525050826001600160a01b031663dbd1e2666040518163ffffffff1660e01b8152600401602060405180830381865afa158015611360573d6000803e3d6000fd5b505050506040513d601f19601f8201168201806040525081019061138491906158a4565b60208301528151611394906128db565b15801560408401526113bb576113b48483600001518460200151886133a5565b90506113db565b6113d88460000151856020015184600001518560200151896137f5565b90505b600081602001511161143a5760405162461bcd60e51b815260206004820152602260248201527f54726f76654d616e616765723a206e6f7468696e6720746f206c697175696461604482015261746560f01b6064820152608401610b25565b608081015160a082015160405163335525ad60e01b81526001600160a01b0386169263335525ad9261147792600401918252602082015260400190565b600060405180830381600087803b15801561149157600080fd5b505af11580156114a5573d6000803e3d6000fd5b505050506114c5846000015185602001518360c001518460e00151612d91565b6101008101511561153f5783516007546101008301516040516364a197f360e01b81526001600160a01b03928316600482015260248101919091529116906364a197f390604401600060405180830381600087803b15801561152657600080fd5b505af115801561153a573d6000803e3d6000fd5b505050505b61155184600001518260400151612fce565b60208101516060830152610100810151604082015182516115779291610e8591906127a6565b6080838101829052606080850151604085810151868401518251938452602084019690965290820152908101929092527f4152c73dd2614c4f9fc35e8c9cf16013cd588c75b49a4c1673ecffdcbcda9403910160405180910390a16115ea84600001513383606001518460400151613112565b5050505050565b6000610f746115fe613303565b6139f7565b61160b613a38565b6116156000613a92565b565b600061162161260e565b6001600160a01b0383166000908152600e60205260408120600101546116479084613ae4565b6001600160a01b0385166000908152600e6020526040902060010181905591505092915050565b6015818154811061167e57600080fd5b6000918252602090912001546001600160a01b0316905081565b600080546040805163512a9ebb60e01b8152905183926001600160a01b03169163512a9ebb9160048083019260209291908290030181865afa1580156116e2573d6000803e3d6000fd5b505050506040513d601f19601f8201168201806040525081019061170691906158a4565b90506000600160009054906101000a90046001600160a01b03166001600160a01b031663512a9ebb6040518163ffffffff1660e01b8152600401602060405180830381865afa15801561175d573d6000803e3d6000fd5b505050506040513d601f19601f8201168201806040525081019061178191906158a4565b905061178d8282613ae4565b9250505090565b61179c613a38565b6117a58b613af0565b6117ae8a613af0565b6117b789613af0565b6117c088613af0565b6117c987613af0565b6117d286613af0565b6117db85613af0565b6117e484613af0565b6117ed83613af0565b6117f682613af0565b6117ff81613af0565b600480546001600160a01b03199081166001600160a01b038e81169182179093556000805483168e85161790556001805483168d85161790556005805483168c85161790556006805483168b85161790556007805483168a8516179055600280548316898516179055600880548316888516179055600b80548316878516179055600980548316868516179055600a80549092169284169290921790556040519081527f3ca631ffcd2a9b5d9ae18543fc82f58eb4ca33af9e6ab01b7a8e95331e6ed9859060200160405180910390a16040516001600160a01b038b1681527f78f058b189175430c48dc02699e3a0031ea4ff781536dc2fab847de4babdd8829060200160405180910390a16040516001600160a01b038a1681527f5ee0cae2f063ed938bb55046f6a932fb6ae792bf43624806bb90abe68a50be9b9060200160405180910390a16040516001600160a01b03891681527f82966d27eea39b038ee0fa30cd16532bb24f6e65d31cb58fb227aa5766cdcc7f9060200160405180910390a16040516001600160a01b03881681527fcfb07d791fcafc032b35837b50eb84b74df518cf4cc287e8084f47630fa70fa09060200160405180910390a16040516001600160a01b03871681527fe67f36a6e961157d6eff83b91f3af5a62131ceb6f04954ef74f51c1c05e7f88d9060200160405180910390a16040516001600160a01b03861681527f8c537274438aa850a330284665d81a85dd38267d09e4050d416bfc94142db2649060200160405180910390a16040516001600160a01b03851681527fbce04ccd812fbb02ec2145498f813470d7b7587b19477428388fe8201a1521319060200160405180910390a16040516001600160a01b03841681527f65f4cf077bc01e4742eb5ad98326f6e95b63548ea24b17f8d5e823111fe788009060200160405180910390a16040516001600160a01b03831681527ff55325269d355f8306353e57757c17459a2218cc11a6e53d0f6ee0c8c16a5e249060200160405180910390a16040516001600160a01b03821681527f468634f5d5d4ec87457506a98d964db31fea0d63fc80a14ba75267970253ac149060200160405180910390a15050505050505050505050565b611b3c61260e565b610a3781613b9d565b6000805460408051630a7b61df60e11b8152905183926001600160a01b0316916314f6c3be9160048083019260209291908290030181865afa158015611b8f573d6000803e3d6000fd5b505050506040513d601f19601f82011682018060405250810190611bb391906158a4565b90506000600160009054906101000a90046001600160a01b03166001600160a01b03166314f6c3be6040518163ffffffff1660e01b8152600401602060405180830381865afa15801561175d573d6000803e3d6000fd5b6000611c1461260e565b6001600160a01b0383166000908152600e6020526040812054610a679084613ae4565b6000806000611c4584613c07565b915091506000611c558383613c81565b95945050505050565b6000610a8682613cb0565b6001600160a01b0381166000908152600e602052604081208054600190910154909180611c9585610fe5565b9150611ca085611132565b9050611cac8483613ae4565b9350611cb88382613ae4565b92509193509193565b6040805160e08082018352600080546001600160a01b0390811684526001548116602080860191909152600854821685870152600a548216606080870191909152600b548316608080880191909152600754841660a08089019190915260065490941660c080890191909152885161010081018a5286815293840186905297830185905290820184905281018390529081018290529384018190529083015290611d6a83613cdc565b611d72613d84565b600260009054906101000a90046001600160a01b03166001600160a01b0316630fdb11cf6040518163ffffffff1660e01b81526004016020604051808303816000875af1158015611dc7573d6000803e3d6000fd5b505050506040513d601f19601f82011682018060405250810190611deb91906158a4565b60c08201819052611dfb90613e78565b611e0489613eeb565b611e138260400151338b613f61565b611e1b611698565b60e0820181905260408381015190516370a0823160e01b81523360048201526001600160a01b03909116906370a0823190602401602060405180830381865afa158015611e6c573d6000803e3d6000fd5b505050506040513d601f19601f82011682018060405250810190611e9091906158a4565b1115611e9e57611e9e61592a565b888152608082015160c0820151600091611eb9918b90614068565b15611ec5575087611fd6565b82608001516001600160a01b0316634d6228316040518163ffffffff1660e01b8152600401602060405180830381865afa158015611f07573d6000803e3d6000fd5b505050506040513d601f19601f82011682018060405250810190611f2b9190615940565b90505b6001600160a01b03811615801590611f5a5750670f43fc2c04ee0000611f58828460c00151612470565b105b15611fd6576080830151604051632dc9c0eb60e21b81526001600160a01b0383811660048301529091169063b72703ac90602401602060405180830381865afa158015611fab573d6000803e3d6000fd5b505050506040513d601f19601f82011682018060405250810190611fcf9190615940565b9050611f2e565b84600003611fe45760001994505b6001600160a01b03811615801590611ffc5750815115155b80156120085750600085115b1561211457846120178161595d565b6080850151604051632dc9c0eb60e21b81526001600160a01b0385811660048301529298506000935091169063b72703ac90602401602060405180830381865afa158015612069573d6000803e3d6000fd5b505050506040513d601f19601f8201168201806040525081019061208d9190615940565b90506120a2846000015185602001518461268e565b60006120bb858486600001518760c001518e8e8e6141ad565b90508060400151156120ce575050612114565b805160208501516120de91613ae4565b60208086019190915281015160408501516120f891613ae4565b60408501528051845161210a916127a6565b8452509050611fe4565b600082604001511161217a5760405162461bcd60e51b815260206004820152602960248201527f54726f76654d616e616765723a20556e61626c6520746f2072656465656d20616044820152681b9e48185b5bdd5b9d60ba1b6064820152608401610b25565b61219182604001518360c001518460e00151614455565b5061219f82604001516144f1565b6060830181905260408301516121b69190866144fe565b8251606080850151908401516040516364a197f360e01b81526001600160a01b03928316600482015260248101919091529116906364a197f390604401600060405180830381600087803b15801561220d57600080fd5b505af1158015612221573d6000803e3d6000fd5b5050505082606001516001600160a01b0316631e3e2a1a83606001516040518263ffffffff1660e01b815260040161225b91815260200190565b600060405180830381600087803b15801561227557600080fd5b505af1158015612289573d6000803e3d6000fd5b50505050606082015160408301516122a0916127a6565b60808301526020820151604080840151606085015191517f43a3f4082a4dbc33d78e317d2497d3a730bc7fc3574159dcea1056e62e5d9ad8936122fc938f93919293845260208401929092526040830152606082015260800190565b60405180910390a160408084015160208401519151632770a7eb60e21b815233600482015260248101929092526001600160a01b031690639dc29fac90604401600060405180830381600087803b15801561235657600080fd5b505af115801561236a573d6000803e3d6000fd5b5050845160208501516040516305af902160e31b81526001600160a01b039092169350632d7c810892506123a49160040190815260200190565b600060405180830381600087803b1580156123be57600080fd5b505af11580156123d2573d6000803e3d6000fd5b5050845160808501516040516364a197f360e01b815233600482015260248101919091526001600160a01b0390911692506364a197f39150604401600060405180830381600087803b15801561242757600080fd5b505af115801561243b573d6000803e3d6000fd5b5050505050505050505050505050565b6000610f74612458613303565b6131f8565b61246561260e565b610a37816002614568565b600080600061247e85613c07565b915091506000611097838387614692565b600061249961260e565b6001600160a01b0383166000908152600e602052604081206001015461164790846127a6565b6000610a866124cc61244b565b836146bc565b6000601582815481106124e7576124e7615914565b6000918252602090912001546001600160a01b031692915050565b600060016001600160a01b0383166000908152600e602052604090206003015460ff1660048111156125365761253661570e565b1461254357506000919050565b506012546001600160a01b039091166000908152601460205260409020541090565b61256d613a38565b6001600160a01b0381166125d25760405162461bcd60e51b815260206004820152602660248201527f4f776e61626c653a206e6577206f776e657220697320746865207a65726f206160448201526564647265737360d01b6064820152608401610b25565b610a3781613a92565b6000610f74600c546139f7565b610f45620186a0670de0b6b3a76400006158e9565b61260561260e565b610a378161474c565b6004546001600160a01b031633146116155760405162461bcd60e51b815260206004820152603b60248201527f54726f76654d616e616765723a2043616c6c6572206973206e6f74207468652060448201527f426f72726f7765724f7065726174696f6e7320636f6e747261637400000000006064820152608401610b25565b61269781612502565b156127a1576126a58161322e565b60006126b082611132565b905060006126bd83610fe5565b6001600160a01b0384166000908152600e60205260409020600101549091506126e69083613ae4565b6001600160a01b0384166000908152600e602052604090206001810191909155546127119082613ae4565b6001600160a01b0384166000908152600e602052604090205561273383613b9d565b61273f85858385614796565b6001600160a01b0383166000818152600e60205260408082208054600182015460029092015492517fc3770d654ed33aeea6bf11ac8ef05d02a6a04ed4686dd2f624d853bbec43cc8b946127969492939291615988565b60405180910390a250505b505050565b60006127b282846159aa565b9392505050565b601580546001808201835560008381527f55f448fdea98c4d29eb340757ef0a66cd03dbb9538908a6a81d96026b71ec47590920180546001600160a01b0319166001600160a01b0386161790559154909161281491906127a6565b6001600160a01b039092166000908152600e602052604090206004018290555090565b6001600160a01b0381166000908152600e6020526040812060010154819061285e90614877565b6001600160a01b0384166000908152600e60205260409020600201805490829055600f549192509061289c90839061289690846127a6565b90613ae4565b600f8190556040519081527f6bac5e0eb3c44eb03a60ab11ec3a2c051771616aecadbcfff2630aabae5203829060200160405180910390a15092915050565b6000806128e783613cb0565b6714d1120d7b160000119392505050565b6129476040518061012001604052806000815260200160008152602001600081526020016000815260200160008152602001600081526020016000815260200160008152602001600081525090565b6129926040518060e0016040528060008152602001600081526020016000815260200160006001600160a01b0316815260200160001515815260200160008152602001600081525090565b6129e16040518061012001604052806000815260200160008152602001600081526020016000815260200160008152602001600081526020016000815260200160008152602001600081525090565b848252600060808301526129f3611698565b60a0830152612a00611b45565b60c0830152600060208301525b835182602001511015612be55783826020015181518110612a3057612a30615914565b6020908102919091018101516001600160a01b0316606084018190526000908152600e909152604090206003015460019060ff166004811115612a7557612a7561570e565b03612bcd57612a88826060015187612470565b60408301526080820151612b7557670f43fc2c04ee0000826040015110158015612ab157508151155b612bcd576000612aca8360c001518460a0015189614692565b9050612ae78989856060015186604001518760000151868d6148b8565b60808101518451919350612afb91906127a6565b8352608082015160a0840151612b10916127a6565b8360a0018181525050612b45826101000151610e858460400151610e858660a001518860c001516127a690919063ffffffff16565b60c0840152612b548483614c79565b9350612b698360c001518460a0015189614da1565b15608084015250612bcd565b81608001518015612b915750670f43fc2c04ee00008260400151105b15612bcd57612baa888884606001518560000151614dc2565b60808101518351919250612bbe91906127a6565b8252612bca8382614c79565b92505b60208201805190612bdd826159bd565b905250612a0d565b505095945050505050565b612c3f6040518061012001604052806000815260200160008152602001600081526020016000815260200160008152602001600081526020016000815260200160008152602001600081525090565b612c8a6040518060e0016040528060008152602001600081526020016000815260200160006001600160a01b0316815260200160001515815260200160008152602001600081525090565b612cd96040518061012001604052806000815260200160008152602001600081526020016000815260200160008152602001600081526020016000815260200160008152602001600081525090565b848252600060208301525b835182602001511015612be55783826020015181518110612d0757612d07615914565b60209081029190910101516001600160a01b031660608301819052612d2c9087612470565b60408301819052670f43fc2c04ee00001115612d7957612d56888884606001518560000151614dc2565b60808101518351919250612d6a91906127a6565b8252612d768382614c79565b92505b60208201805190612d89826159bd565b905250612ce4565b8115612fc857601654600090612db39061289684670de0b6b3a76400006132d3565b90506000612dd8601754612896670de0b6b3a7640000876132d390919063ffffffff16565b90506000612df1600f54846132df90919063ffffffff16565b90506000612e0a600f54846132df90919063ffffffff16565b9050612e2b612e24600f54846132d390919063ffffffff16565b85906127a6565b601655600f54612e4790612e409083906132d3565b84906127a6565b601755601254612e579083613ae4565b601255601354612e679082613ae4565b60138190556012546040517f9f8bc8ab0daf5bceef75ecfd2085d1fcc6548c657ea970d9a23a60610d0737e392612ea5928252602082015260400190565b60405180910390a16040516305af902160e31b8152600481018790526001600160a01b03891690632d7c810890602401600060405180830381600087803b158015612eef57600080fd5b505af1158015612f03573d6000803e3d6000fd5b5050604051636b05e97760e01b8152600481018990526001600160a01b038a169250636b05e9779150602401600060405180830381600087803b158015612f4957600080fd5b505af1158015612f5d573d6000803e3d6000fd5b50506040516364a197f360e01b81526001600160a01b038a81166004830152602482018990528b1692506364a197f39150604401600060405180830381600087803b158015612fab57600080fd5b505af1158015612fbf573d6000803e3d6000fd5b50505050505050505b50505050565b600f546010819055506000826001600160a01b03166314f6c3be6040518163ffffffff1660e01b8152600401602060405180830381865afa158015613017573d6000803e3d6000fd5b505050506040513d601f19601f8201168201806040525081019061303b91906158a4565b90506000600160009054906101000a90046001600160a01b03166001600160a01b03166314f6c3be6040518163ffffffff1660e01b8152600401602060405180830381865afa158015613092573d6000803e3d6000fd5b505050506040513d601f19601f820116820180604052508101906130b691906158a4565b90506130c68161289684866127a6565b60118190556010546040517f51bf4c63ec3cba9d03d43238abbdd979dd91bd16d9895c74ceea9118c7baaf6092613104928252602082015260400190565b60405180910390a150505050565b811561318957600854600654604051631062c15f60e11b81526001600160a01b0391821660048201528582166024820152604481018590529116906320c582be90606401600060405180830381600087803b15801561317057600080fd5b505af1158015613184573d6000803e3d6000fd5b505050505b8015612fc8576040516364a197f360e01b81526001600160a01b038481166004830152602482018390528516906364a197f3906044015b600060405180830381600087803b1580156131da57600080fd5b505af11580156131ee573d6000803e3d6000fd5b5050505050505050565b6000610a86613220836132156103e8670de0b6b3a76400006158e9565b6128969060056158fd565b670de0b6b3a7640000614f75565b60016001600160a01b0382166000908152600e602052604090206003015460ff1660048111156132605761326061570e565b14610a375760405162461bcd60e51b815260206004820152602f60248201527f54726f76654d616e616765723a2054726f766520646f6573206e6f742065786960448201527f7374206f7220697320636c6f73656400000000000000000000000000000000006064820152608401610b25565b60006127b282846158fd565b60006127b282846158e9565b60006127b2670de0b6b3a764000061109185856132d3565b60008061330e614f8b565b90506000613324670ddd4b8c6c7d70d883614fa7565b905061178d670de0b6b3a764000061109183600c546132d390919063ffffffff16565b600061335e600d54426127a690919063ffffffff16565b9050603c8110610a375742600d8190556040519081527f860f8d2f0c74dd487e89e2883e3b25b8159ce1e1b3433a291cba7b82c508f3bc906020015b60405180910390a150565b6133f46040518061012001604052806000815260200160008152602001600081526020016000815260200160008152602001600081526020016000815260200160008152602001600081525090565b61343f6040518060e0016040528060008152602001600081526020016000815260200160006001600160a01b0316815260200160001515815260200160008152602001600081525090565b61348e6040518061012001604052806000815260200160008152602001600081526020016000815260200160008152602001600081526020016000815260200160008152602001600081525090565b848252600060808301526134a0611698565b60a08301526134ad611b45565b8260c001818152505086608001516001600160a01b0316634d6228316040518163ffffffff1660e01b8152600401602060405180830381865afa1580156134f8573d6000803e3d6000fd5b505050506040513d601f19601f8201168201806040525081019061351c9190615940565b82606001906001600160a01b031690816001600160a01b031681525050600087608001516001600160a01b0316631e2231436040518163ffffffff1660e01b8152600401602060405180830381865afa15801561357d573d6000803e3d6000fd5b505050506040513d601f19601f820116820180604052508101906135a19190615940565b6000602085015290505b8483602001511080156135d45750806001600160a01b031683606001516001600160a01b031614155b156137ea5760808801516060840151604051632dc9c0eb60e21b81526001600160a01b039182166004820152600092919091169063b72703ac90602401602060405180830381865afa15801561362e573d6000803e3d6000fd5b505050506040513d601f19601f820116820180604052508101906136529190615940565b9050613662846060015189612470565b6040850152608084015161375a57670f43fc2c04ee000084604001511015801561368b57508351155b1561369657506137ea565b60006136ab8560c001518660a001518b614692565b8a5160208c01516060880151604089015189519495506136cc94868f6148b8565b608081015186519195506136e091906127a6565b8552608084015160a08601516136f5916127a6565b8560a001818152505061372a846101000151610e858660400151610e858860a001518a60c001516127a690919063ffffffff16565b60c08601526137398685614c79565b955061374e8560c001518660a001518b614da1565b156080860152506137c4565b836080015180156137765750670f43fc2c04ee00008460400151105b156137be5761379789600001518a6020015186606001518760000151614dc2565b608081015185519194506137ab91906127a6565b84526137b78584614c79565b94506137c4565b506137ea565b6001600160a01b03166060840152602083018051906137e2826159bd565b9052506135ab565b505050949350505050565b6138446040518061012001604052806000815260200160008152602001600081526020016000815260200160008152602001600081526020016000815260200160008152602001600081525090565b61388f6040518060e0016040528060008152602001600081526020016000815260200160006001600160a01b0316815260200160001515815260200160008152602001600081525090565b6138de6040518061012001604052806000815260200160008152602001600081526020016000815260200160008152602001600081526020016000815260200160008152602001600081525090565b600b54858352600060208401526001600160a01b03165b84836020015110156139eb57806001600160a01b0316634d6228316040518163ffffffff1660e01b8152600401602060405180830381865afa15801561393f573d6000803e3d6000fd5b505050506040513d601f19601f820116820180604052508101906139639190615940565b6001600160a01b03166060840181905261397d9088612470565b60408401819052670f43fc2c04ee000011156139ce576139a7898985606001518660000151614dc2565b608081015184519193506139bb91906127a6565b83526139c78483614c79565b93506139d3565b6139eb565b602083018051906139e3826159bd565b9052506138f5565b50505095945050505050565b6000610a86613a1583613215620186a0670de0b6b3a76400006158e9565b613a286064670de0b6b3a76400006158e9565b613a339060056158fd565b614f75565b6003546001600160a01b031633146116155760405162461bcd60e51b815260206004820181905260248201527f4f776e61626c653a2063616c6c6572206973206e6f7420746865206f776e65726044820152606401610b25565b600380546001600160a01b038381166001600160a01b0319831681179093556040519116919082907f8be0079c531659141344cd1fd0a4f28419497f9722a3daafe3b4186f6b6457e090600090a35050565b60006127b282846159d6565b6001600160a01b038116613b465760405162461bcd60e51b815260206004820152601e60248201527f4163636f756e742063616e6e6f74206265207a65726f206164647265737300006044820152606401610b25565b6001600160a01b0381163b610a375760405162461bcd60e51b815260206004820181905260248201527f4163636f756e7420636f64652073697a652063616e6e6f74206265207a65726f6044820152606401610b25565b601280546001600160a01b03831660008181526014602090815260409182902093845560135460019094018490559354815192835293820193909352918201527fc3d426bcfc672bd74f6fae61c225e06f556f80dad48af8a4631b295030a7ad3d9060600161339a565b6000806000613c1584611132565b90506000613c2285610fe5565b6001600160a01b0386166000908152600e602052604081206001015491925090613c4c9084613ae4565b6001600160a01b0387166000908152600e602052604081205491925090613c739084613ae4565b919791965090945050505050565b60008115613ca757613ca0826110918568056bc75e2d631000006132d3565b9050610a86565b50600019610a86565b600080613cbb611b45565b90506000613cc7611698565b9050613cd4828286614692565b949350505050565b613cf06103e8670de0b6b3a76400006158e9565b613cfb9060056158fd565b8110158015613d125750670de0b6b3a76400008111155b610a375760405162461bcd60e51b815260206004820152603060248201527f4d6178206665652070657263656e74616765206d75737420626520626574776560448201527f656e20302e352520616e642031303025000000000000000000000000000000006064820152608401610b25565b60095460408051631e425be160e11b815290516000926001600160a01b031691633c84b7c29160048083019260209291908290030181865afa158015613dce573d6000803e3d6000fd5b505050506040513d601f19601f82011682018060405250810190613df291906158a4565b9050613e018162127500613ae4565b421015610a37576040805162461bcd60e51b81526020600482015260248101919091527f54726f76654d616e616765723a20526564656d7074696f6e7320617265206e6f60448201527f7420616c6c6f77656420647572696e6720626f6f7473747261702070686173656064820152608401610b25565b670f43fc2c04ee0000613e8a82613cb0565b1015610a375760405162461bcd60e51b815260206004820152602a60248201527f54726f76654d616e616765723a2043616e6e6f742072656465656d207768656e604482015269102a21a9101e1026a1a960b11b6064820152608401610b25565b60008111610a375760405162461bcd60e51b815260206004820152602e60248201527f54726f76654d616e616765723a20416d6f756e74206d7573742062652067726560448201527f61746572207468616e207a65726f0000000000000000000000000000000000006064820152608401610b25565b6040516370a0823160e01b81526001600160a01b0383811660048301528291908516906370a0823190602401602060405180830381865afa158015613faa573d6000803e3d6000fd5b505050506040513d601f19601f82011682018060405250810190613fce91906158a4565b10156127a15760405162461bcd60e51b815260206004820152604f60248201527f54726f76654d616e616765723a2052657175657374656420726564656d70746960448201527f6f6e20616d6f756e74206d757374206265203c3d20757365722773205a4b555360648201527f4420746f6b656e2062616c616e63650000000000000000000000000000000000608482015260a401610b25565b60006001600160a01b03831615806140e75750604051630bb7c8fd60e31b81526001600160a01b038481166004830152851690635dbe47e890602401602060405180830381865afa1580156140c1573d6000803e3d6000fd5b505050506040513d601f19601f820116820180604052508101906140e591906159e9565b155b806141025750670f43fc2c04ee00006141008484612470565b105b1561410f575060006127b2565b60405163765e015960e01b81526001600160a01b0384811660048301526000919086169063765e015990602401602060405180830381865afa158015614159573d6000803e3d6000fd5b505050506040513d601f19601f8201168201806040525081019061417d9190615940565b90506001600160a01b0381161580611c555750670f43fc2c04ee00006141a38285612470565b1095945050505050565b6141d3604051806060016040528060008152602001600081526020016000151581525090565b6001600160a01b0387166000908152600e6020526040902054614205908790613a33906802b5e3af16b18800006127a6565b80825261422090869061109190670de0b6b3a76400006132d3565b60208083019190915281516001600160a01b0389166000908152600e909252604082205461424d916127a6565b6020808401516001600160a01b038b166000908152600e9092526040822060010154929350909161427d916127a6565b90506802b5e3af16b18800008203614307576142988961474c565b6142a3896004614568565b6142b88a8a6802b5e3af16b18800008461504b565b886001600160a01b03167fc3770d654ed33aeea6bf11ac8ef05d02a6a04ed4686dd2f624d853bbec43cc8b600080600060036040516142fa9493929190615988565b60405180910390a2614447565b60006143138284613c81565b905084811415806143345750681b1ae4d6e2ef500000614332846151b6565b105b15614348575050600160408301525061444a565b60808b015160405163015f109360e51b81526001600160a01b038c81166004830152602482018490528981166044830152888116606483015290911690632be2126090608401600060405180830381600087803b1580156143a857600080fd5b505af11580156143bc573d6000803e3d6000fd5b5050506001600160a01b038b166000908152600e60205260409020848155600101839055506143ea8a612837565b506001600160a01b038a166000818152600e6020526040908190206002015490517fc3770d654ed33aeea6bf11ac8ef05d02a6a04ed4686dd2f624d853bbec43cc8b9161443d9187918791600390615988565b60405180910390a2505b50505b979650505050505050565b600080614460613303565b905060006144728461109188886132d3565b9050600061448b6144848360026132df565b8490613ae4565b905061449f81670de0b6b3a7640000614f75565b9050600081116144b1576144b161592a565b600c8190556040518181527fc454ee9b76c52f782a256af821b857ca6e125d1e3333bcede402fec2bed9600c9060200160405180910390a1611097613347565b6000610a866124cc610f67565b60006145168361109186670de0b6b3a76400006132d3565b905081811115612fc85760405162461bcd60e51b815260206004820152601d60248201527f4665652065786365656465642070726f7669646564206d6178696d756d0000006044820152606401610b25565b600081600481111561457c5761457c61570e565b1415801561459c575060018160048111156145995761459961570e565b14155b6145a8576145a861592a565b6015546145b4816151cb565b6001600160a01b0383166000908152600e60205260409020600301805483919060ff191660018360048111156145ec576145ec61570e565b02179055506001600160a01b0383166000908152600e6020908152604080832060018082018590559084905560149092528220828155015561462e83826152a5565b600b54604051631484968760e11b81526001600160a01b038581166004830152909116906329092d0e90602401600060405180830381600087803b15801561467557600080fd5b505af1158015614689573d6000803e3d6000fd5b50505050505050565b600082156146b35760006146aa8461109187866132d3565b91506127b29050565b506000196127b2565b6000806146d5670de0b6b3a764000061109186866132d3565b90508281106127b25760405162461bcd60e51b815260206004820152603660248201527f54726f76654d616e616765723a2046656520776f756c6420656174207570206160448201527f6c6c2072657475726e656420636f6c6c61746572616c000000000000000000006064820152608401610b25565b6001600160a01b0381166000908152600e6020526040902060020154600f5461477590826127a6565b600f55506001600160a01b03166000908152600e6020526040812060020155565b6040516305af902160e31b8152600481018390526001600160a01b03841690632d7c810890602401600060405180830381600087803b1580156147d857600080fd5b505af11580156147ec573d6000803e3d6000fd5b5050604051636b05e97760e01b8152600481018590526001600160a01b0387169250636b05e9779150602401600060405180830381600087803b15801561483257600080fd5b505af1158015614846573d6000803e3d6000fd5b505060405163be41205f60e01b8152600481018490526001600160a01b038616925063be41205f91506024016131c0565b60008060115460000361488b575081610a86565b60006010541161489d5761489d61592a565b6127b2601154611091601054866132d390919063ffffffff16565b6149076040518061012001604052806000815260200160008152602001600081526020016000815260200160008152602001600081526020016000815260200160008152602001600081525090565b61492b60405180606001604052806000815260200160008152602001600081525090565b60155460011061493b575061444a565b61494487611c69565b6040850152602084810191909152840181905290835261496390615433565b604083018190526802b5e3af16b188000060608401526020830151614987916127a6565b8152670de0b6b3a76400008611614a76576149ac898983602001518460400151614796565b6149b58761474c565b60006080830181905260a0830152815160c0830152805160e08301526149dc876003614568565b815160208301516040516001600160a01b038a16927fea67486ed7ebe3eea8ab3390efd4a3c8aae48be5bea27df104a8af786c40843492614a1f92600290615a0b565b60405180910390a2866001600160a01b03167fc3770d654ed33aeea6bf11ac8ef05d02a6a04ed4686dd2f624d853bbec43cc8b60008060006002604051614a699493929190615988565b60405180910390a2614c6d565b670de0b6b3a764000086118015614a945750670f43fc2c04ee000086105b15614ae457614aad898983602001518460400151614796565b614ab68761474c565b81518151614ac591908761545a565b60e086015260c085015260a084015260808301526149dc876003614568565b670f43fc2c04ee00008610158015614afb57508386105b8015614b08575081518510155b15614c1557614b21898983602001518460400151614796565b84600003614b3157614b3161592a565b614b3a8761474c565b614b4d82600001518360200151856154b4565b9150614b5a876003614568565b61010082015115614bd257600754610100830151604051633f10abab60e01b81526001600160a01b038a811660048301526024820192909252911690633f10abab90604401600060405180830381600087803b158015614bb957600080fd5b505af1158015614bcd573d6000803e3d6000fd5b505050505b815160a08301516040516001600160a01b038a16927fea67486ed7ebe3eea8ab3390efd4a3c8aae48be5bea27df104a8af786c40843492614a1f92600290615a0b565b614c646040518061012001604052806000815260200160008152602001600081526020016000815260200160008152602001600081526020016000815260200160008152602001600081525090565b915061444a9050565b50979650505050505050565b614cc86040518061012001604052806000815260200160008152602001600081526020016000815260200160008152602001600081526020016000815260200160008152602001600081525090565b60408083015190840151614cdb91613ae4565b604082015260608083015190840151614cf391613ae4565b606082015281516020840151614d0891613ae4565b6020808301919091528201518351614d1f91613ae4565b815260808083015190840151614d3491613ae4565b608082015260a08083015190840151614d4c91613ae4565b60a082015260c08083015190840151614d6491613ae4565b60c082015260e08083015190840151614d7c91613ae4565b60e08201526101008083015190840151614d9591613ae4565b61010082015292915050565b600080614daf858585614692565b6714d1120d7b1600001195945050505050565b614e116040518061012001604052806000815260200160008152602001600081526020016000815260200160008152602001600081526020016000815260200160008152602001600081525090565b614e3560405180606001604052806000815260200160008152602001600081525090565b614e3e84611c69565b60408501908152602085810192835286019290925291845290519051614e68918891889190614796565b614e718461474c565b614e7e8260200151615433565b604083018190526802b5e3af16b188000060608401526020830151600091614ea691906127a6565b9050614eb78360000151828661545a565b60e087015260c086015260a08501526080840152614ed6856003614568565b825160208401516040516001600160a01b038816927fea67486ed7ebe3eea8ab3390efd4a3c8aae48be5bea27df104a8af786c40843492614f1992600190615a0b565b60405180910390a2846001600160a01b03167fc3770d654ed33aeea6bf11ac8ef05d02a6a04ed4686dd2f624d853bbec43cc8b60008060006001604051614f639493929190615988565b60405180910390a25050949350505050565b6000818310614f8457816127b2565b5090919050565b6000610f74603c611091600d54426127a690919063ffffffff16565b6000631f540500821115614fbd57631f54050091505b81600003614fd45750670de0b6b3a7640000610a86565b670de0b6b3a764000083835b600181111561504157614ff4600282615a26565b600003615019576150058283615583565b91506150128160026132df565b9050614fe0565b6150238284615583565b925061502f8283615583565b915061501260026110918360016127a6565b6110978284615583565b6040848101516006549151632770a7eb60e21b81526001600160a01b03928316600482015260248101859052911690639dc29fac90604401600060405180830381600087803b15801561509d57600080fd5b505af11580156150b1573d6000803e3d6000fd5b505085516040516305af902160e31b8152600481018690526001600160a01b039091169250632d7c81089150602401600060405180830381600087803b1580156150fa57600080fd5b505af115801561510e573d6000803e3d6000fd5b50505060a0850151604051633f10abab60e01b81526001600160a01b038681166004830152602482018590529091169150633f10abab90604401600060405180830381600087803b15801561516257600080fd5b505af1158015615176573d6000803e3d6000fd5b5050855160a08701516040516364a197f360e01b81526001600160a01b03918216600482015260248101869052911692506364a197f391506044016131c0565b6000610a86826802b5e3af16b18800006127a6565b6001811180156152465750600b546040805163de8fa43160e01b815290516001926001600160a01b03169163de8fa4319160048083019260209291908290030181865afa158015615220573d6000803e3d6000fd5b505050506040513d601f19601f8201168201806040525081019061524491906158a4565b115b610a375760405162461bcd60e51b815260206004820152602a60248201527f54726f76654d616e616765723a204f6e6c79206f6e652074726f766520696e206044820152697468652073797374656d60b01b6064820152608401610b25565b6001600160a01b0382166000908152600e602052604081206003015460ff16908160048111156152d7576152d761570e565b141580156152f7575060018160048111156152f4576152f461570e565b14155b6153035761530361592a565b6001600160a01b0383166000908152600e602052604081206004015490839061532d8260016127a6565b90508083111561533f5761533f61592a565b60006015828154811061535457615354615914565b600091825260209091200154601580546001600160a01b03909216925082918690811061538357615383615914565b600091825260208083209190910180546001600160a01b0319166001600160a01b03948516179055918316808252600e835260409182902060040187905581519081529182018690527f02b04ae5f7be9ca7c103293a2aa15f3c339d15d6eda53b721fef7b0e609c831a910160405180910390a1601580548061540857615408615a3a565b600082815260209020810160001990810180546001600160a01b031916905501905550505050505050565b6000615450670de0b6b3a76400006802b5e3af16b18800006158e9565b610a8690836158e9565b6000808080841561549e5761546f8786614f75565b935061547f8761109188876132d3565b925061548b87856127a6565b915061549786846127a6565b90506154ab565b5060009250829150859050845b93509350935093565b6155036040518061012001604052806000815260200160008152602001600081526020016000815260200160008152602001600081526020016000815260200160008152602001600081525090565b8381526020810183905260006155258361109187670f43fc2c04ee00006132d3565b905061553081615433565b604083018190526802b5e3af16b18800006060840152608083018690526155589082906127a6565b60a083015261556784826127a6565b61010083015250600060c0820181905260e08201529392505050565b60008061559084846132d3565b9050613cd4670de0b6b3a76400006110916144846002836158e9565b6001600160a01b0381168114610a3757600080fd5b80356155cc816155ac565b919050565b6000602082840312156155e357600080fd5b81356127b2816155ac565b6000806040838503121561560157600080fd5b823561560c816155ac565b946020939093013593505050565b634e487b7160e01b600052604160045260246000fd5b6000602080838503121561564357600080fd5b823567ffffffffffffffff8082111561565b57600080fd5b818501915085601f83011261566f57600080fd5b8135818111156156815761568161561a565b8060051b604051601f19603f830116810181811085821117156156a6576156a661561a565b6040529182528482019250838101850191888311156156c457600080fd5b938501935b828510156156e9576156da856155c1565b845293850193928501926156c9565b98975050505050505050565b60006020828403121561570757600080fd5b5035919050565b634e487b7160e01b600052602160045260246000fd5b858152602081018590526040810184905260a08101600584106157495761574961570e565b6060820193909352608001529392505050565b60008060008060008060008060008060006101608c8e03121561577e57600080fd5b8b35615789816155ac565b9a5060208c0135615799816155ac565b995060408c01356157a9816155ac565b985060608c01356157b9816155ac565b975060808c01356157c9816155ac565b965060a08c01356157d9816155ac565b955060c08c01356157e9816155ac565b94506157f760e08d016155c1565b93506158066101008d016155c1565b92506158156101208d016155c1565b91506158246101408d016155c1565b90509295989b509295989b9093969950565b600080600080600080600060e0888a03121561585157600080fd5b873596506020880135615863816155ac565b95506040880135615873816155ac565b94506060880135615883816155ac565b9699959850939660808101359560a0820135955060c0909101359350915050565b6000602082840312156158b657600080fd5b5051919050565b634e487b7160e01b600052601260045260246000fd5b634e487b7160e01b600052601160045260246000fd5b6000826158f8576158f86158bd565b500490565b8082028115828204841417610a8657610a866158d3565b634e487b7160e01b600052603260045260246000fd5b634e487b7160e01b600052600160045260246000fd5b60006020828403121561595257600080fd5b81516127b2816155ac565b60008161596c5761596c6158d3565b506000190190565b600481106159845761598461570e565b9052565b848152602081018490526040810183905260808101611c556060830184615974565b81810381811115610a8657610a866158d3565b6000600182016159cf576159cf6158d3565b5060010190565b80820180821115610a8657610a866158d3565b6000602082840312156159fb57600080fd5b815180151581146127b257600080fd5b8381526020810183905260608101613cd46040830184615974565b600082615a3557615a356158bd565b500690565b634e487b7160e01b600052603160045260246000fdfea164736f6c6343000811000a",
  "devdoc": {
    "kind": "dev",
    "methods": {
      "owner()": {
        "details": "Returns the address of the current owner."
      },
      "renounceOwnership()": {
        "details": "Leaves the contract without owner. It will not be possible to call `onlyOwner` functions. Can only be called by the current owner. NOTE: Renouncing ownership will leave the contract without an owner, thereby disabling any functionality that is only available to the owner."
      },
      "transferOwnership(address)": {
        "details": "Transfers ownership of the contract to a new account (`newOwner`). Can only be called by the current owner."
      }
    },
    "version": 1
  },
  "userdoc": {
    "kind": "user",
    "methods": {},
    "version": 1
  },
  "storageLayout": {
    "storage": [
      {
        "astId": 5445,
        "contract": "contracts/protocol/TroveManager.sol:TroveManager",
        "label": "activePool",
        "offset": 0,
        "slot": "0",
        "type": "t_contract(IActivePool)5639"
      },
      {
        "astId": 5448,
        "contract": "contracts/protocol/TroveManager.sol:TroveManager",
        "label": "defaultPool",
        "offset": 0,
        "slot": "1",
        "type": "t_contract(IDefaultPool)5992"
      },
      {
        "astId": 5451,
        "contract": "contracts/protocol/TroveManager.sol:TroveManager",
        "label": "priceFeed",
        "offset": 0,
        "slot": "2",
        "type": "t_contract(IPriceFeed)6162"
      },
      {
        "astId": 53,
        "contract": "contracts/protocol/TroveManager.sol:TroveManager",
        "label": "_owner",
        "offset": 0,
        "slot": "3",
        "type": "t_address"
      },
      {
        "astId": 17246,
        "contract": "contracts/protocol/TroveManager.sol:TroveManager",
        "label": "borrowerOperationsAddress",
        "offset": 0,
        "slot": "4",
        "type": "t_address"
      },
      {
        "astId": 17250,
        "contract": "contracts/protocol/TroveManager.sol:TroveManager",
        "label": "stabilityPool",
        "offset": 0,
        "slot": "5",
        "type": "t_contract(IStabilityPool)6539"
      },
      {
        "astId": 17252,
        "contract": "contracts/protocol/TroveManager.sol:TroveManager",
        "label": "gasPoolAddress",
        "offset": 0,
        "slot": "6",
        "type": "t_address"
      },
      {
        "astId": 17255,
        "contract": "contracts/protocol/TroveManager.sol:TroveManager",
        "label": "collSurplusPool",
        "offset": 0,
        "slot": "7",
        "type": "t_contract(ICollSurplusPool)5935"
      },
      {
        "astId": 17259,
        "contract": "contracts/protocol/TroveManager.sol:TroveManager",
        "label": "zkusdToken",
        "offset": 0,
        "slot": "8",
        "type": "t_contract(IZKUSDToken)7220"
      },
      {
        "astId": 17263,
        "contract": "contracts/protocol/TroveManager.sol:TroveManager",
        "label": "zkToken",
        "offset": 0,
        "slot": "9",
        "type": "t_contract(IZKToken)7164"
      },
      {
        "astId": 17267,
        "contract": "contracts/protocol/TroveManager.sol:TroveManager",
        "label": "zktStaking",
        "offset": 0,
        "slot": "10",
        "type": "t_contract(IZKTStaking)7129"
      },
      {
        "astId": 17270,
        "contract": "contracts/protocol/TroveManager.sol:TroveManager",
        "label": "sortedTroves",
        "offset": 0,
        "slot": "11",
        "type": "t_contract(ISortedTroves)6310"
      },
      {
        "astId": 17300,
        "contract": "contracts/protocol/TroveManager.sol:TroveManager",
        "label": "baseRate",
        "offset": 0,
        "slot": "12",
        "type": "t_uint256"
      },
      {
        "astId": 17302,
        "contract": "contracts/protocol/TroveManager.sol:TroveManager",
        "label": "lastFeeOperationTime",
        "offset": 0,
        "slot": "13",
        "type": "t_uint256"
      },
      {
        "astId": 17325,
        "contract": "contracts/protocol/TroveManager.sol:TroveManager",
        "label": "Troves",
        "offset": 0,
        "slot": "14",
        "type": "t_mapping(t_address,t_struct(Trove)17320_storage)"
      },
      {
        "astId": 17327,
        "contract": "contracts/protocol/TroveManager.sol:TroveManager",
        "label": "totalStakes",
        "offset": 0,
        "slot": "15",
        "type": "t_uint256"
      },
      {
        "astId": 17329,
        "contract": "contracts/protocol/TroveManager.sol:TroveManager",
        "label": "totalStakesSnapshot",
        "offset": 0,
        "slot": "16",
        "type": "t_uint256"
      },
      {
        "astId": 17331,
        "contract": "contracts/protocol/TroveManager.sol:TroveManager",
        "label": "totalCollateralSnapshot",
        "offset": 0,
        "slot": "17",
        "type": "t_uint256"
      },
      {
        "astId": 17333,
        "contract": "contracts/protocol/TroveManager.sol:TroveManager",
        "label": "L_ETH",
        "offset": 0,
        "slot": "18",
        "type": "t_uint256"
      },
      {
        "astId": 17335,
        "contract": "contracts/protocol/TroveManager.sol:TroveManager",
        "label": "L_ZKUSDDebt",
        "offset": 0,
        "slot": "19",
        "type": "t_uint256"
      },
      {
        "astId": 17340,
        "contract": "contracts/protocol/TroveManager.sol:TroveManager",
        "label": "rewardSnapshots",
        "offset": 0,
        "slot": "20",
        "type": "t_mapping(t_address,t_struct(RewardSnapshot)17345_storage)"
      },
      {
        "astId": 17348,
        "contract": "contracts/protocol/TroveManager.sol:TroveManager",
        "label": "TroveOwners",
        "offset": 0,
        "slot": "21",
        "type": "t_array(t_address)dyn_storage"
      },
      {
        "astId": 17350,
        "contract": "contracts/protocol/TroveManager.sol:TroveManager",
        "label": "lastETHError_Redistribution",
        "offset": 0,
        "slot": "22",
        "type": "t_uint256"
      },
      {
        "astId": 17352,
        "contract": "contracts/protocol/TroveManager.sol:TroveManager",
        "label": "lastZKUSDDebtError_Redistribution",
        "offset": 0,
        "slot": "23",
        "type": "t_uint256"
      }
    ],
    "types": {
      "t_address": {
        "encoding": "inplace",
        "label": "address",
        "numberOfBytes": "20"
      },
      "t_array(t_address)dyn_storage": {
        "base": "t_address",
        "encoding": "dynamic_array",
        "label": "address[]",
        "numberOfBytes": "32"
      },
      "t_contract(IActivePool)5639": {
        "encoding": "inplace",
        "label": "contract IActivePool",
        "numberOfBytes": "20"
      },
      "t_contract(ICollSurplusPool)5935": {
        "encoding": "inplace",
        "label": "contract ICollSurplusPool",
        "numberOfBytes": "20"
      },
      "t_contract(IDefaultPool)5992": {
        "encoding": "inplace",
        "label": "contract IDefaultPool",
        "numberOfBytes": "20"
      },
      "t_contract(IPriceFeed)6162": {
        "encoding": "inplace",
        "label": "contract IPriceFeed",
        "numberOfBytes": "20"
      },
      "t_contract(ISortedTroves)6310": {
        "encoding": "inplace",
        "label": "contract ISortedTroves",
        "numberOfBytes": "20"
      },
      "t_contract(IStabilityPool)6539": {
        "encoding": "inplace",
        "label": "contract IStabilityPool",
        "numberOfBytes": "20"
      },
      "t_contract(IZKTStaking)7129": {
        "encoding": "inplace",
        "label": "contract IZKTStaking",
        "numberOfBytes": "20"
      },
      "t_contract(IZKToken)7164": {
        "encoding": "inplace",
        "label": "contract IZKToken",
        "numberOfBytes": "20"
      },
      "t_contract(IZKUSDToken)7220": {
        "encoding": "inplace",
        "label": "contract IZKUSDToken",
        "numberOfBytes": "20"
      },
      "t_enum(Status)17308": {
        "encoding": "inplace",
        "label": "enum TroveManager.Status",
        "numberOfBytes": "1"
      },
      "t_mapping(t_address,t_struct(RewardSnapshot)17345_storage)": {
        "encoding": "mapping",
        "key": "t_address",
        "label": "mapping(address => struct TroveManager.RewardSnapshot)",
        "numberOfBytes": "32",
        "value": "t_struct(RewardSnapshot)17345_storage"
      },
      "t_mapping(t_address,t_struct(Trove)17320_storage)": {
        "encoding": "mapping",
        "key": "t_address",
        "label": "mapping(address => struct TroveManager.Trove)",
        "numberOfBytes": "32",
        "value": "t_struct(Trove)17320_storage"
      },
      "t_struct(RewardSnapshot)17345_storage": {
        "encoding": "inplace",
        "label": "struct TroveManager.RewardSnapshot",
        "members": [
          {
            "astId": 17342,
            "contract": "contracts/protocol/TroveManager.sol:TroveManager",
            "label": "ETH",
            "offset": 0,
            "slot": "0",
            "type": "t_uint256"
          },
          {
            "astId": 17344,
            "contract": "contracts/protocol/TroveManager.sol:TroveManager",
            "label": "ZKUSDDebt",
            "offset": 0,
            "slot": "1",
            "type": "t_uint256"
          }
        ],
        "numberOfBytes": "64"
      },
      "t_struct(Trove)17320_storage": {
        "encoding": "inplace",
        "label": "struct TroveManager.Trove",
        "members": [
          {
            "astId": 17310,
            "contract": "contracts/protocol/TroveManager.sol:TroveManager",
            "label": "debt",
            "offset": 0,
            "slot": "0",
            "type": "t_uint256"
          },
          {
            "astId": 17312,
            "contract": "contracts/protocol/TroveManager.sol:TroveManager",
            "label": "coll",
            "offset": 0,
            "slot": "1",
            "type": "t_uint256"
          },
          {
            "astId": 17314,
            "contract": "contracts/protocol/TroveManager.sol:TroveManager",
            "label": "stake",
            "offset": 0,
            "slot": "2",
            "type": "t_uint256"
          },
          {
            "astId": 17317,
            "contract": "contracts/protocol/TroveManager.sol:TroveManager",
            "label": "status",
            "offset": 0,
            "slot": "3",
            "type": "t_enum(Status)17308"
          },
          {
            "astId": 17319,
            "contract": "contracts/protocol/TroveManager.sol:TroveManager",
            "label": "arrayIndex",
            "offset": 0,
            "slot": "4",
            "type": "t_uint256"
          }
        ],
        "numberOfBytes": "160"
      },
      "t_uint256": {
        "encoding": "inplace",
        "label": "uint256",
        "numberOfBytes": "32"
      }
    }
  }
}