{
  "address": "0xB17a6fb68A8Bbb78Bb00A4731D09ce25F947836b",
  "abi": [
    {
      "inputs": [
        {
          "internalType": "address",
          "name": "_troveManagerAddress",
          "type": "address"
        },
        {
          "internalType": "address",
          "name": "_stabilityPoolAddress",
          "type": "address"
        },
        {
          "internalType": "address",
          "name": "_borrowerOperationsAddress",
          "type": "address"
        },
        {
          "internalType": "address",
          "name": "_depositManagerAddress",
          "type": "address"
        }
      ],
      "stateMutability": "nonpayable",
      "type": "constructor"
    },
    {
      "anonymous": false,
      "inputs": [
        {
          "indexed": true,
          "internalType": "address",
          "name": "owner",
          "type": "address"
        },
        {
          "indexed": true,
          "internalType": "address",
          "name": "spender",
          "type": "address"
        },
        {
          "indexed": false,
          "internalType": "uint256",
          "name": "value",
          "type": "uint256"
        }
      ],
      "name": "Approval",
      "type": "event"
    },
    {
      "anonymous": false,
      "inputs": [
        {
          "indexed": false,
          "internalType": "address",
          "name": "_newBorrowerOperationsAddress",
          "type": "address"
        }
      ],
      "name": "BorrowerOperationsAddressChanged",
      "type": "event"
    },
    {
      "anonymous": false,
      "inputs": [
        {
          "indexed": false,
          "internalType": "address",
          "name": "_depositManagerAddress",
          "type": "address"
        }
      ],
      "name": "DepositManagerAddressChanged",
      "type": "event"
    },
    {
      "anonymous": false,
      "inputs": [
        {
          "indexed": false,
          "internalType": "address",
          "name": "_newStabilityPoolAddress",
          "type": "address"
        }
      ],
      "name": "StabilityPoolAddressChanged",
      "type": "event"
    },
    {
      "anonymous": false,
      "inputs": [
        {
          "indexed": true,
          "internalType": "address",
          "name": "from",
          "type": "address"
        },
        {
          "indexed": true,
          "internalType": "address",
          "name": "to",
          "type": "address"
        },
        {
          "indexed": false,
          "internalType": "uint256",
          "name": "value",
          "type": "uint256"
        }
      ],
      "name": "Transfer",
      "type": "event"
    },
    {
      "anonymous": false,
      "inputs": [
        {
          "indexed": false,
          "internalType": "address",
          "name": "_troveManagerAddress",
          "type": "address"
        }
      ],
      "name": "TroveManagerAddressChanged",
      "type": "event"
    },
    {
      "anonymous": false,
      "inputs": [
        {
          "indexed": false,
          "internalType": "address",
          "name": "_user",
          "type": "address"
        },
        {
          "indexed": false,
          "internalType": "uint256",
          "name": "_amount",
          "type": "uint256"
        }
      ],
      "name": "ZKUSDTokenBalanceUpdated",
      "type": "event"
    },
    {
      "inputs": [
        {
          "internalType": "address",
          "name": "owner",
          "type": "address"
        },
        {
          "internalType": "address",
          "name": "spender",
          "type": "address"
        }
      ],
      "name": "allowance",
      "outputs": [
        {
          "internalType": "uint256",
          "name": "",
          "type": "uint256"
        }
      ],
      "stateMutability": "view",
      "type": "function"
    },
    {
      "inputs": [
        {
          "internalType": "address",
          "name": "spender",
          "type": "address"
        },
        {
          "internalType": "uint256",
          "name": "amount",
          "type": "uint256"
        }
      ],
      "name": "approve",
      "outputs": [
        {
          "internalType": "bool",
          "name": "",
          "type": "bool"
        }
      ],
      "stateMutability": "nonpayable",
      "type": "function"
    },
    {
      "inputs": [
        {
          "internalType": "address",
          "name": "account",
          "type": "address"
        }
      ],
      "name": "balanceOf",
      "outputs": [
        {
          "internalType": "uint256",
          "name": "",
          "type": "uint256"
        }
      ],
      "stateMutability": "view",
      "type": "function"
    },
    {
      "inputs": [],
      "name": "borrowerOperationsAddress",
      "outputs": [
        {
          "internalType": "address",
          "name": "",
          "type": "address"
        }
      ],
      "stateMutability": "view",
      "type": "function"
    },
    {
      "inputs": [
        {
          "internalType": "address",
          "name": "_account",
          "type": "address"
        },
        {
          "internalType": "uint256",
          "name": "_amount",
          "type": "uint256"
        }
      ],
      "name": "burn",
      "outputs": [],
      "stateMutability": "nonpayable",
      "type": "function"
    },
    {
      "inputs": [
        {
          "internalType": "address",
          "name": "_account",
          "type": "address"
        },
        {
          "internalType": "uint256",
          "name": "_amount",
          "type": "uint256"
        }
      ],
      "name": "burnFromDeposit",
      "outputs": [],
      "stateMutability": "nonpayable",
      "type": "function"
    },
    {
      "inputs": [],
      "name": "decimals",
      "outputs": [
        {
          "internalType": "uint8",
          "name": "",
          "type": "uint8"
        }
      ],
      "stateMutability": "view",
      "type": "function"
    },
    {
      "inputs": [
        {
          "internalType": "address",
          "name": "spender",
          "type": "address"
        },
        {
          "internalType": "uint256",
          "name": "subtractedValue",
          "type": "uint256"
        }
      ],
      "name": "decreaseAllowance",
      "outputs": [
        {
          "internalType": "bool",
          "name": "",
          "type": "bool"
        }
      ],
      "stateMutability": "nonpayable",
      "type": "function"
    },
    {
      "inputs": [],
      "name": "depositManagerAddress",
      "outputs": [
        {
          "internalType": "address",
          "name": "",
          "type": "address"
        }
      ],
      "stateMutability": "view",
      "type": "function"
    },
    {
      "inputs": [],
      "name": "domainSeparator",
      "outputs": [
        {
          "internalType": "bytes32",
          "name": "",
          "type": "bytes32"
        }
      ],
      "stateMutability": "view",
      "type": "function"
    },
    {
      "inputs": [
        {
          "internalType": "address",
          "name": "spender",
          "type": "address"
        },
        {
          "internalType": "uint256",
          "name": "addedValue",
          "type": "uint256"
        }
      ],
      "name": "increaseAllowance",
      "outputs": [
        {
          "internalType": "bool",
          "name": "",
          "type": "bool"
        }
      ],
      "stateMutability": "nonpayable",
      "type": "function"
    },
    {
      "inputs": [
        {
          "internalType": "address",
          "name": "_account",
          "type": "address"
        },
        {
          "internalType": "uint256",
          "name": "_amount",
          "type": "uint256"
        }
      ],
      "name": "mint",
      "outputs": [],
      "stateMutability": "nonpayable",
      "type": "function"
    },
    {
      "inputs": [
        {
          "internalType": "address",
          "name": "_account",
          "type": "address"
        },
        {
          "internalType": "uint256",
          "name": "_amount",
          "type": "uint256"
        }
      ],
      "name": "mintToDeposit",
      "outputs": [],
      "stateMutability": "nonpayable",
      "type": "function"
    },
    {
      "inputs": [],
      "name": "name",
      "outputs": [
        {
          "internalType": "string",
          "name": "",
          "type": "string"
        }
      ],
      "stateMutability": "view",
      "type": "function"
    },
    {
      "inputs": [
        {
          "internalType": "address",
          "name": "owner",
          "type": "address"
        }
      ],
      "name": "nonces",
      "outputs": [
        {
          "internalType": "uint256",
          "name": "",
          "type": "uint256"
        }
      ],
      "stateMutability": "view",
      "type": "function"
    },
    {
      "inputs": [
        {
          "internalType": "address",
          "name": "owner",
          "type": "address"
        },
        {
          "internalType": "address",
          "name": "spender",
          "type": "address"
        },
        {
          "internalType": "uint256",
          "name": "amount",
          "type": "uint256"
        },
        {
          "internalType": "uint256",
          "name": "deadline",
          "type": "uint256"
        },
        {
          "internalType": "uint8",
          "name": "v",
          "type": "uint8"
        },
        {
          "internalType": "bytes32",
          "name": "r",
          "type": "bytes32"
        },
        {
          "internalType": "bytes32",
          "name": "s",
          "type": "bytes32"
        }
      ],
      "name": "permit",
      "outputs": [],
      "stateMutability": "nonpayable",
      "type": "function"
    },
    {
      "inputs": [],
      "name": "permitTypeHash",
      "outputs": [
        {
          "internalType": "bytes32",
          "name": "",
          "type": "bytes32"
        }
      ],
      "stateMutability": "pure",
      "type": "function"
    },
    {
      "inputs": [
        {
          "internalType": "address",
          "name": "_poolAddress",
          "type": "address"
        },
        {
          "internalType": "address",
          "name": "_receiver",
          "type": "address"
        },
        {
          "internalType": "uint256",
          "name": "_amount",
          "type": "uint256"
        }
      ],
      "name": "returnFromPool",
      "outputs": [],
      "stateMutability": "nonpayable",
      "type": "function"
    },
    {
      "inputs": [
        {
          "internalType": "address",
          "name": "_sender",
          "type": "address"
        },
        {
          "internalType": "address",
          "name": "_poolAddress",
          "type": "address"
        },
        {
          "internalType": "uint256",
          "name": "_amount",
          "type": "uint256"
        }
      ],
      "name": "sendToPool",
      "outputs": [],
      "stateMutability": "nonpayable",
      "type": "function"
    },
    {
      "inputs": [],
      "name": "stabilityPoolAddress",
      "outputs": [
        {
          "internalType": "address",
          "name": "",
          "type": "address"
        }
      ],
      "stateMutability": "view",
      "type": "function"
    },
    {
      "inputs": [],
      "name": "symbol",
      "outputs": [
        {
          "internalType": "string",
          "name": "",
          "type": "string"
        }
      ],
      "stateMutability": "view",
      "type": "function"
    },
    {
      "inputs": [],
      "name": "totalSupply",
      "outputs": [
        {
          "internalType": "uint256",
          "name": "",
          "type": "uint256"
        }
      ],
      "stateMutability": "view",
      "type": "function"
    },
    {
      "inputs": [
        {
          "internalType": "address",
          "name": "recipient",
          "type": "address"
        },
        {
          "internalType": "uint256",
          "name": "amount",
          "type": "uint256"
        }
      ],
      "name": "transfer",
      "outputs": [
        {
          "internalType": "bool",
          "name": "",
          "type": "bool"
        }
      ],
      "stateMutability": "nonpayable",
      "type": "function"
    },
    {
      "inputs": [
        {
          "internalType": "address",
          "name": "sender",
          "type": "address"
        },
        {
          "internalType": "address",
          "name": "recipient",
          "type": "address"
        },
        {
          "internalType": "uint256",
          "name": "amount",
          "type": "uint256"
        }
      ],
      "name": "transferFrom",
      "outputs": [
        {
          "internalType": "bool",
          "name": "",
          "type": "bool"
        }
      ],
      "stateMutability": "nonpayable",
      "type": "function"
    },
    {
      "inputs": [],
      "name": "troveManagerAddress",
      "outputs": [
        {
          "internalType": "address",
          "name": "",
          "type": "address"
        }
      ],
      "stateMutability": "view",
      "type": "function"
    },
    {
      "inputs": [],
      "name": "version",
      "outputs": [
        {
          "internalType": "string",
          "name": "",
          "type": "string"
        }
      ],
      "stateMutability": "pure",
      "type": "function"
    }
  ],
  "transactionHash": "0xeb86085934665e3bf82499cc7267cc353ac4737561b2efba72cc84b93b6b0442",
  "args": [
    "0x7A071f9C24aFE7E3F4f77415b21dFE777f7d5E30",
    "0x0Fb352152A0CB8FAE79101A676079Fb55B8608D9",
    "0x7B5267E2354393FB128a88b9b841cE3264Ac4b39",
    "0x5646b0A0E8CF59051275881652AFD9D500851c05"
  ],
  "numDeployments": 1,
  "solcInputHash": "86ff82a7dcea9d0b86c350418d855a56",
  "bytecode": "0x6101806040523480156200001257600080fd5b5060405162001d7e38038062001d7e83398101604081905262000035916200039d565b6040518060400160405280601081526020016f2d25aaa9a21029ba30b13632b1b7b4b760811b8152506040518060400160405280601081526020016f2d25aaa9a21029ba30b13632b1b7b4b760811b815250604051806040016040528060058152602001641692d554d160da1b8152508160039081620000b691906200049f565b506004620000c582826200049f565b5050815160209283012060408051808201825260018152603160f81b9085015260c08281527fc89efdaa54c0f20c7adf612882df0950f5a951637e0307cdcb4c672f298b8bc660e08190524660a081815284517f8b73c3c69bb8fe3d512ecc4cf759cc79239f7b179b0ffacaa9a75d522b39400f818a0152808601969096526060860192909252608080860191909152308583015283518086039092018252939091019091528051930192909220909152506200018284620002ae565b6200018d83620002ae565b6200019882620002ae565b6001600160a01b0384166101008190526040519081527f143219c9e69b09e07e095fcc889b43d8f46ca892bba65f08dc3a0050869a56789060200160405180910390a16001600160a01b0383166101208190526040519081527f82966d27eea39b038ee0fa30cd16532bb24f6e65d31cb58fb227aa5766cdcc7f9060200160405180910390a16001600160a01b0382166101408190526040519081527f3ca631ffcd2a9b5d9ae18543fc82f58eb4ca33af9e6ab01b7a8e95331e6ed9859060200160405180910390a16001600160a01b0381166101608190526040519081527f6c987af767c4304f8d841627b3c32fc0afcc5633ece6d14e69931db719ff25269060200160405180910390a1505050506200056b565b6001600160a01b0381166200030a5760405162461bcd60e51b815260206004820152601e60248201527f4163636f756e742063616e6e6f74206265207a65726f2061646472657373000060448201526064015b60405180910390fd5b62000320816200037160201b62000aab1760201c565b6200036e5760405162461bcd60e51b815260206004820181905260248201527f4163636f756e7420636f64652073697a652063616e6e6f74206265207a65726f604482015260640162000301565b50565b6001600160a01b03163b151590565b80516001600160a01b03811681146200039857600080fd5b919050565b60008060008060808587031215620003b457600080fd5b620003bf8562000380565b9350620003cf6020860162000380565b9250620003df6040860162000380565b9150620003ef6060860162000380565b905092959194509250565b634e487b7160e01b600052604160045260246000fd5b600181811c908216806200042557607f821691505b6020821081036200044657634e487b7160e01b600052602260045260246000fd5b50919050565b601f8211156200049a57600081815260208120601f850160051c81016020861015620004755750805b601f850160051c820191505b81811015620004965782815560010162000481565b5050505b505050565b81516001600160401b03811115620004bb57620004bb620003fa565b620004d381620004cc845462000410565b846200044c565b602080601f8311600181146200050b5760008415620004f25750858301515b600019600386901b1c1916600185901b17855562000496565b600085815260208120601f198616915b828110156200053c578886015182559484019460019091019084016200051b565b50858210156200055b5787850151600019600388901b60f8161c191681555b5050505050600190811b01905550565b60805160a05160c05160e05161010051610120516101405161016051611759620006256000396000818161032401528181610567015261064a0152600081816103f101528181610f8d0152818161114001526112ff0152600081816101f901528181610c1b01528181610f120152818161136401526114370152600081816102fd01528181610be901528181610f4f015261133101526000610a5d01526000610a38015260006109bd015260006109e501526117596000f3fe608060405234801561001057600080fd5b50600436106101ae5760003560e01c80636c497f05116100ee578063a457c2d711610097578063bb997bac11610071578063bb997bac14610413578063d505accf14610426578063dd62ed3e14610439578063f698da251461047257600080fd5b8063a457c2d7146103c6578063a9059cbb146103d9578063b7f8cf9b146103ec57600080fd5b80637ecebe00116100c85780637ecebe001461038257806395d89b41146103ab5780639dc29fac146103b357600080fd5b80636c497f051461031f57806370a0823114610346578063729551d11461036f57600080fd5b806323b872dd1161015b578063395093511161013557806339509351146102b557806340c10f19146102c857806354fd4d50146102db5780635a4d28bb146102f857600080fd5b806323b872dd1461028057806330f91e8d14610293578063313ce567146102a657600080fd5b806310ce43bd1161018c57806310ce43bd1461023357806318160ddd1461026357806320c582be1461026b57600080fd5b806306fdde03146101b3578063095ea7b3146101d15780630b622ab2146101f4575b600080fd5b6101bb61047a565b6040516101c8919061153f565b60405180910390f35b6101e46101df3660046115a9565b61050c565b60405190151581526020016101c8565b61021b7f000000000000000000000000000000000000000000000000000000000000000081565b6040516001600160a01b0390911681526020016101c8565b7f6e71edae12b1b97f4d1f60370fef10105fa2faae0126114a169c64845d6126c95b6040519081526020016101c8565b600254610255565b61027e6102793660046115d3565b610526565b005b6101e461028e3660046115d3565b61053e565b61027e6102a13660046115a9565b61055c565b604051601281526020016101c8565b6101e46102c33660046115a9565b6105f8565b61027e6102d63660046115a9565b610637565b6040805180820190915260018152603160f81b60208201526101bb565b61021b7f000000000000000000000000000000000000000000000000000000000000000081565b61021b7f000000000000000000000000000000000000000000000000000000000000000081565b61025561035436600461160f565b6001600160a01b031660009081526020819052604090205490565b61027e61037d3660046115a9565b61063f565b61025561039036600461160f565b6001600160a01b031660009081526005602052604090205490565b6101bb6106d2565b61027e6103c13660046115a9565b6106e1565b6101e46103d43660046115a9565b6106e9565b6101e46103e73660046115a9565b610786565b61021b7f000000000000000000000000000000000000000000000000000000000000000081565b61027e6104213660046115d3565b6107a2565b61027e61043436600461162a565b6107aa565b61025561044736600461169d565b6001600160a01b03918216600090815260016020908152604080832093909416825291909152205490565b6102556109b9565b606060038054610489906116d0565b80601f01602080910402602001604051908101604052809291908181526020018280546104b5906116d0565b80156105025780601f106104d757610100808354040283529160200191610502565b820191906000526020600020905b8154815290600101906020018083116104e557829003601f168201915b5050505050905090565b60003361051a818585610aba565b60019150505b92915050565b61052e610bde565b610539838383610cb1565b505050565b600061054983610e57565b61055484848461105d565b949350505050565b336001600160a01b037f000000000000000000000000000000000000000000000000000000000000000016146105ea5760405162461bcd60e51b815260206004820152602860248201527f5a4b555344546f6b656e3a2043616c6c6572206973206e6f74204465706f73696044820152673a26b0b730b3b2b960c11b60648201526084015b60405180910390fd5b6105f48282611076565b5050565b3360008181526001602090815260408083206001600160a01b038716845290915281205490919061051a9082908690610632908790611720565b610aba565b6105ea611135565b336001600160a01b037f000000000000000000000000000000000000000000000000000000000000000016146106c85760405162461bcd60e51b815260206004820152602860248201527f5a4b555344546f6b656e3a2043616c6c6572206973206e6f74204465706f73696044820152673a26b0b730b3b2b960c11b60648201526084016105e1565b6105f482826111c2565b606060048054610489906116d0565b6106c86112f4565b3360008181526001602090815260408083206001600160a01b03871684529091528120549091908381101561076e5760405162461bcd60e51b815260206004820152602560248201527f45524332303a2064656372656173656420616c6c6f77616e63652062656c6f77604482015264207a65726f60d81b60648201526084016105e1565b61077b8286868403610aba565b506001949350505050565b600061079183610e57565b61079b838361141e565b9392505050565b61052e61142c565b428410156107fa5760405162461bcd60e51b815260206004820152601760248201527f5a4b5553443a206578706972656420646561646c696e6500000000000000000060448201526064016105e1565b60006108046109b9565b6001600160a01b038916600090815260056020526040812080547f6e71edae12b1b97f4d1f60370fef10105fa2faae0126114a169c64845d6126c9928c928c928c9290919061085283611733565b909155506040805160208101969096526001600160a01b0394851690860152929091166060840152608083015260a082015260c0810187905260e001604051602081830303815290604052805190602001206040516020016108cb92919061190160f01b81526002810192909252602282015260420190565b60408051601f198184030181528282528051602091820120600080855291840180845281905260ff88169284019290925260608301869052608083018590529092509060019060a0016020604051602081039080840390855afa158015610936573d6000803e3d6000fd5b505050602060405103519050886001600160a01b0316816001600160a01b0316146109a35760405162461bcd60e51b815260206004820152601860248201527f5a4b5553443a20696e76616c6964207369676e6174757265000000000000000060448201526064016105e1565b6109ae898989610aba565b505050505050505050565b60007f00000000000000000000000000000000000000000000000000000000000000004603610a0757507f000000000000000000000000000000000000000000000000000000000000000090565b50604080517f8b73c3c69bb8fe3d512ecc4cf759cc79239f7b179b0ffacaa9a75d522b39400f6020808301919091527f0000000000000000000000000000000000000000000000000000000000000000828401527f000000000000000000000000000000000000000000000000000000000000000060608301524660808301523060a0808401919091528351808403909101815260c0909201909252805191012090565b6001600160a01b03163b151590565b6001600160a01b038316610b1c5760405162461bcd60e51b8152602060048201526024808201527f45524332303a20617070726f76652066726f6d20746865207a65726f206164646044820152637265737360e01b60648201526084016105e1565b6001600160a01b038216610b7d5760405162461bcd60e51b815260206004820152602260248201527f45524332303a20617070726f766520746f20746865207a65726f206164647265604482015261737360f01b60648201526084016105e1565b6001600160a01b0383811660008181526001602090815260408083209487168084529482529182902085905590518481527f8c5be1e5ebec7d5bd14f71427d1e84f3dd0314c0f7b2291e5b200ac8c7c3b925910160405180910390a3505050565b336001600160a01b037f0000000000000000000000000000000000000000000000000000000000000000161480610c3d5750336001600160a01b037f000000000000000000000000000000000000000000000000000000000000000016145b610caf5760405162461bcd60e51b815260206004820152603760248201527f5a4b5553443a2043616c6c6572206973206e6569746865722054726f76654d6160448201527f6e61676572206e6f722053746162696c697479506f6f6c00000000000000000060648201526084016105e1565b565b6001600160a01b038316610d155760405162461bcd60e51b815260206004820152602560248201527f45524332303a207472616e736665722066726f6d20746865207a65726f206164604482015264647265737360d81b60648201526084016105e1565b6001600160a01b038216610d775760405162461bcd60e51b815260206004820152602360248201527f45524332303a207472616e7366657220746f20746865207a65726f206164647260448201526265737360e81b60648201526084016105e1565b6001600160a01b03831660009081526020819052604090205481811015610def5760405162461bcd60e51b815260206004820152602660248201527f45524332303a207472616e7366657220616d6f756e7420657863656564732062604482015265616c616e636560d01b60648201526084016105e1565b6001600160a01b03848116600081815260208181526040808320878703905593871680835291849020805487019055925185815290927fddf252ad1be2c89b69c2b068fc378daa952ba7f163c4a11628f55a4df523b3ef910160405180910390a35b50505050565b6001600160a01b03811615801590610e7857506001600160a01b0381163014155b610f105760405162461bcd60e51b815260206004820152605660248201527f5a4b5553443a2043616e6e6f74207472616e7366657220746f6b656e7320646960448201527f726563746c7920746f20746865205a4b55534420746f6b656e20636f6e74726160648201527f6374206f7220746865207a65726f206164647265737300000000000000000000608482015260a4016105e1565b7f00000000000000000000000000000000000000000000000000000000000000006001600160a01b0316816001600160a01b031614158015610f8457507f00000000000000000000000000000000000000000000000000000000000000006001600160a01b0316816001600160a01b031614155b8015610fc257507f00000000000000000000000000000000000000000000000000000000000000006001600160a01b0316816001600160a01b031614155b61105a5760405162461bcd60e51b815260206004820152605860248201527f5a4b5553443a2043616e6e6f74207472616e7366657220746f6b656e7320646960448201527f726563746c7920746f207468652053746162696c697479506f6f6c2c2054726f60648201527f76654d616e61676572206f7220426f72726f7765724f70730000000000000000608482015260a4016105e1565b50565b60003361106b8582856114b3565b61077b858585610cb1565b6001600160a01b0382166110cc5760405162461bcd60e51b815260206004820152601f60248201527f45524332303a206d696e7420746f20746865207a65726f20616464726573730060448201526064016105e1565b80600260008282546110de9190611720565b90915550506001600160a01b038216600081815260208181526040808320805486019055518481527fddf252ad1be2c89b69c2b068fc378daa952ba7f163c4a11628f55a4df523b3ef910160405180910390a35050565b336001600160a01b037f00000000000000000000000000000000000000000000000000000000000000001614610caf5760405162461bcd60e51b815260206004820152602c60248201527f5a4b555344546f6b656e3a2043616c6c6572206973206e6f7420426f72726f7760448201526b65724f7065726174696f6e7360a01b60648201526084016105e1565b6001600160a01b0382166112225760405162461bcd60e51b815260206004820152602160248201527f45524332303a206275726e2066726f6d20746865207a65726f206164647265736044820152607360f81b60648201526084016105e1565b6001600160a01b038216600090815260208190526040902054818110156112965760405162461bcd60e51b815260206004820152602260248201527f45524332303a206275726e20616d6f756e7420657863656564732062616c616e604482015261636560f01b60648201526084016105e1565b6001600160a01b0383166000818152602081815260408083208686039055600280548790039055518581529192917fddf252ad1be2c89b69c2b068fc378daa952ba7f163c4a11628f55a4df523b3ef910160405180910390a3505050565b336001600160a01b037f00000000000000000000000000000000000000000000000000000000000000001614806113535750336001600160a01b037f000000000000000000000000000000000000000000000000000000000000000016145b806113865750336001600160a01b037f000000000000000000000000000000000000000000000000000000000000000016145b610caf5760405162461bcd60e51b815260206004820152604e60248201527f5a4b5553443a2043616c6c6572206973206e65697468657220426f72726f776560448201527f724f7065726174696f6e73206e6f722054726f76654d616e61676572206e6f7260648201527f2053746162696c697479506f6f6c000000000000000000000000000000000000608482015260a4016105e1565b60003361051a818585610cb1565b336001600160a01b037f00000000000000000000000000000000000000000000000000000000000000001614610caf5760405162461bcd60e51b815260206004820152602660248201527f5a4b5553443a2043616c6c6572206973206e6f74207468652053746162696c696044820152651d1e541bdbdb60d21b60648201526084016105e1565b6001600160a01b038381166000908152600160209081526040808320938616835292905220546000198114610e5157818110156115325760405162461bcd60e51b815260206004820152601d60248201527f45524332303a20696e73756666696369656e7420616c6c6f77616e636500000060448201526064016105e1565b610e518484848403610aba565b600060208083528351808285015260005b8181101561156c57858101830151858201604001528201611550565b506000604082860101526040601f19601f8301168501019250505092915050565b80356001600160a01b03811681146115a457600080fd5b919050565b600080604083850312156115bc57600080fd5b6115c58361158d565b946020939093013593505050565b6000806000606084860312156115e857600080fd5b6115f18461158d565b92506115ff6020850161158d565b9150604084013590509250925092565b60006020828403121561162157600080fd5b61079b8261158d565b600080600080600080600060e0888a03121561164557600080fd5b61164e8861158d565b965061165c6020890161158d565b95506040880135945060608801359350608088013560ff8116811461168057600080fd5b9699959850939692959460a0840135945060c09093013592915050565b600080604083850312156116b057600080fd5b6116b98361158d565b91506116c76020840161158d565b90509250929050565b600181811c908216806116e457607f821691505b60208210810361170457634e487b7160e01b600052602260045260246000fd5b50919050565b634e487b7160e01b600052601160045260246000fd5b808201808211156105205761052061170a565b6000600182016117455761174561170a565b506001019056fea164736f6c6343000811000a",
  "devdoc": {
    "kind": "dev",
    "methods": {
      "allowance(address,address)": {
        "details": "See {IERC20-allowance}."
      },
      "approve(address,uint256)": {
        "details": "See {IERC20-approve}. NOTE: If `amount` is the maximum `uint256`, the allowance is not updated on `transferFrom`. This is semantically equivalent to an infinite approval. Requirements: - `spender` cannot be the zero address."
      },
      "balanceOf(address)": {
        "details": "See {IERC20-balanceOf}."
      },
      "decimals()": {
        "details": "Returns the number of decimals used to get its user representation. For example, if `decimals` equals `2`, a balance of `505` tokens should be displayed to a user as `5.05` (`505 / 10 ** 2`). Tokens usually opt for a value of 18, imitating the relationship between Ether and Wei. This is the default value returned by this function, unless it's overridden. NOTE: This information is only used for _display_ purposes: it in no way affects any of the arithmetic of the contract, including {IERC20-balanceOf} and {IERC20-transfer}."
      },
      "decreaseAllowance(address,uint256)": {
        "details": "Atomically decreases the allowance granted to `spender` by the caller. This is an alternative to {approve} that can be used as a mitigation for problems described in {IERC20-approve}. Emits an {Approval} event indicating the updated allowance. Requirements: - `spender` cannot be the zero address. - `spender` must have allowance for the caller of at least `subtractedValue`."
      },
      "increaseAllowance(address,uint256)": {
        "details": "Atomically increases the allowance granted to `spender` by the caller. This is an alternative to {approve} that can be used as a mitigation for problems described in {IERC20-approve}. Emits an {Approval} event indicating the updated allowance. Requirements: - `spender` cannot be the zero address."
      },
      "name()": {
        "details": "Returns the name of the token."
      },
      "nonces(address)": {
        "details": "Returns the current ERC2612 nonce for `owner`. This value must be included whenever a signature is generated for {permit}. Every successful call to {permit} increases `owner`'s nonce by one. This prevents a signature from being used multiple times. `owner` can limit the time a Permit is valid for by setting `deadline` to a value in the near future. The deadline argument can be set to uint(-1) to create Permits that effectively never expire."
      },
      "permit(address,address,uint256,uint256,uint8,bytes32,bytes32)": {
        "details": "Sets `amount` as the allowance of `spender` over `owner`'s tokens, given `owner`'s signed approval. IMPORTANT: The same issues {IERC20-approve} has related to transaction ordering also apply here. Emits an {Approval} event. Requirements: - `owner` cannot be the zero address. - `spender` cannot be the zero address. - `deadline` must be a timestamp in the future. - `v`, `r` and `s` must be a valid `secp256k1` signature from `owner` over the EIP712-formatted function arguments. - the signature must use ``owner``'s current nonce (see {nonces}). For more information on the signature format, see the https://eips.ethereum.org/EIPS/eip-2612#specification[relevant EIP section]."
      },
      "symbol()": {
        "details": "Returns the symbol of the token, usually a shorter version of the name."
      },
      "totalSupply()": {
        "details": "See {IERC20-totalSupply}."
      }
    },
    "version": 1
  },
  "userdoc": {
    "kind": "user",
    "methods": {},
    "version": 1
  },
  "storageLayout": {
    "storage": [
      {
        "astId": 174,
        "contract": "contracts/common/ZKUSDToken.sol:ZKUSDToken",
        "label": "_balances",
        "offset": 0,
        "slot": "0",
        "type": "t_mapping(t_address,t_uint256)"
      },
      {
        "astId": 180,
        "contract": "contracts/common/ZKUSDToken.sol:ZKUSDToken",
        "label": "_allowances",
        "offset": 0,
        "slot": "1",
        "type": "t_mapping(t_address,t_mapping(t_address,t_uint256))"
      },
      {
        "astId": 182,
        "contract": "contracts/common/ZKUSDToken.sol:ZKUSDToken",
        "label": "_totalSupply",
        "offset": 0,
        "slot": "2",
        "type": "t_uint256"
      },
      {
        "astId": 184,
        "contract": "contracts/common/ZKUSDToken.sol:ZKUSDToken",
        "label": "_name",
        "offset": 0,
        "slot": "3",
        "type": "t_string_storage"
      },
      {
        "astId": 186,
        "contract": "contracts/common/ZKUSDToken.sol:ZKUSDToken",
        "label": "_symbol",
        "offset": 0,
        "slot": "4",
        "type": "t_string_storage"
      },
      {
        "astId": 5286,
        "contract": "contracts/common/ZKUSDToken.sol:ZKUSDToken",
        "label": "_nonces",
        "offset": 0,
        "slot": "5",
        "type": "t_mapping(t_address,t_uint256)"
      }
    ],
    "types": {
      "t_address": {
        "encoding": "inplace",
        "label": "address",
        "numberOfBytes": "20"
      },
      "t_mapping(t_address,t_mapping(t_address,t_uint256))": {
        "encoding": "mapping",
        "key": "t_address",
        "label": "mapping(address => mapping(address => uint256))",
        "numberOfBytes": "32",
        "value": "t_mapping(t_address,t_uint256)"
      },
      "t_mapping(t_address,t_uint256)": {
        "encoding": "mapping",
        "key": "t_address",
        "label": "mapping(address => uint256)",
        "numberOfBytes": "32",
        "value": "t_uint256"
      },
      "t_string_storage": {
        "encoding": "bytes",
        "label": "string",
        "numberOfBytes": "32"
      },
      "t_uint256": {
        "encoding": "inplace",
        "label": "uint256",
        "numberOfBytes": "32"
      }
    }
  }
}