{
  "address": "0x24B21C82833Af237fB70772A690Fcd44779eCAde",
  "abi": [
    {
      "anonymous": false,
      "inputs": [
        {
          "indexed": false,
          "internalType": "address",
          "name": "_newActivePoolAddress",
          "type": "address"
        }
      ],
      "name": "ActivePoolAddressChanged",
      "type": "event"
    },
    {
      "anonymous": false,
      "inputs": [
        {
          "indexed": false,
          "internalType": "address",
          "name": "_to",
          "type": "address"
        },
        {
          "indexed": false,
          "internalType": "uint256",
          "name": "_amount",
          "type": "uint256"
        }
      ],
      "name": "ConfluxSent",
      "type": "event"
    },
    {
      "anonymous": false,
      "inputs": [
        {
          "indexed": false,
          "internalType": "address",
          "name": "_newDefaultPoolAddress",
          "type": "address"
        }
      ],
      "name": "DefaultPoolAddressChanged",
      "type": "event"
    },
    {
      "anonymous": false,
      "inputs": [
        {
          "indexed": false,
          "internalType": "uint256",
          "name": "_ETH",
          "type": "uint256"
        }
      ],
      "name": "DefaultPoolETHBalanceUpdated",
      "type": "event"
    },
    {
      "anonymous": false,
      "inputs": [
        {
          "indexed": false,
          "internalType": "uint256",
          "name": "_ZKUSDDebt",
          "type": "uint256"
        }
      ],
      "name": "DefaultPoolZKUSDDebtUpdated",
      "type": "event"
    },
    {
      "anonymous": false,
      "inputs": [
        {
          "indexed": false,
          "internalType": "uint256",
          "name": "_newBalance",
          "type": "uint256"
        }
      ],
      "name": "ETHBalanceUpdated",
      "type": "event"
    },
    {
      "anonymous": false,
      "inputs": [
        {
          "indexed": true,
          "internalType": "address",
          "name": "previousOwner",
          "type": "address"
        },
        {
          "indexed": true,
          "internalType": "address",
          "name": "newOwner",
          "type": "address"
        }
      ],
      "name": "OwnershipTransferred",
      "type": "event"
    },
    {
      "anonymous": false,
      "inputs": [
        {
          "indexed": false,
          "internalType": "address",
          "name": "_newStabilityPoolAddress",
          "type": "address"
        }
      ],
      "name": "StabilityPoolAddressChanged",
      "type": "event"
    },
    {
      "anonymous": false,
      "inputs": [
        {
          "indexed": false,
          "internalType": "address",
          "name": "_newTroveManagerAddress",
          "type": "address"
        }
      ],
      "name": "TroveManagerAddressChanged",
      "type": "event"
    },
    {
      "anonymous": false,
      "inputs": [
        {
          "indexed": false,
          "internalType": "uint256",
          "name": "_newBalance",
          "type": "uint256"
        }
      ],
      "name": "ZKUSDBalanceUpdated",
      "type": "event"
    },
    {
      "inputs": [],
      "name": "NAME",
      "outputs": [
        {
          "internalType": "string",
          "name": "",
          "type": "string"
        }
      ],
      "stateMutability": "view",
      "type": "function"
    },
    {
      "inputs": [],
      "name": "activePoolAddress",
      "outputs": [
        {
          "internalType": "address",
          "name": "",
          "type": "address"
        }
      ],
      "stateMutability": "view",
      "type": "function"
    },
    {
      "inputs": [
        {
          "internalType": "uint256",
          "name": "_amount",
          "type": "uint256"
        }
      ],
      "name": "decreaseZKUSDDebt",
      "outputs": [],
      "stateMutability": "nonpayable",
      "type": "function"
    },
    {
      "inputs": [],
      "name": "getETH",
      "outputs": [
        {
          "internalType": "uint256",
          "name": "",
          "type": "uint256"
        }
      ],
      "stateMutability": "view",
      "type": "function"
    },
    {
      "inputs": [],
      "name": "getZKUSDDebt",
      "outputs": [
        {
          "internalType": "uint256",
          "name": "",
          "type": "uint256"
        }
      ],
      "stateMutability": "view",
      "type": "function"
    },
    {
      "inputs": [
        {
          "internalType": "uint256",
          "name": "_amount",
          "type": "uint256"
        }
      ],
      "name": "increaseZKUSDDebt",
      "outputs": [],
      "stateMutability": "nonpayable",
      "type": "function"
    },
    {
      "inputs": [],
      "name": "owner",
      "outputs": [
        {
          "internalType": "address",
          "name": "",
          "type": "address"
        }
      ],
      "stateMutability": "view",
      "type": "function"
    },
    {
      "inputs": [],
      "name": "renounceOwnership",
      "outputs": [],
      "stateMutability": "nonpayable",
      "type": "function"
    },
    {
      "inputs": [
        {
          "internalType": "uint256",
          "name": "_amount",
          "type": "uint256"
        }
      ],
      "name": "sendETHToActivePool",
      "outputs": [],
      "stateMutability": "nonpayable",
      "type": "function"
    },
    {
      "inputs": [
        {
          "internalType": "address",
          "name": "_troveManagerAddress",
          "type": "address"
        },
        {
          "internalType": "address",
          "name": "_activePoolAddress",
          "type": "address"
        }
      ],
      "name": "setAddresses",
      "outputs": [],
      "stateMutability": "nonpayable",
      "type": "function"
    },
    {
      "inputs": [
        {
          "internalType": "address",
          "name": "newOwner",
          "type": "address"
        }
      ],
      "name": "transferOwnership",
      "outputs": [],
      "stateMutability": "nonpayable",
      "type": "function"
    },
    {
      "inputs": [],
      "name": "troveManagerAddress",
      "outputs": [
        {
          "internalType": "address",
          "name": "",
          "type": "address"
        }
      ],
      "stateMutability": "view",
      "type": "function"
    },
    {
      "stateMutability": "payable",
      "type": "receive"
    }
  ],
  "transactionHash": "0x968733cf93ad9b5860cebeacab5b6812abaec3b033bda5a67a2ae63368e0603e",
  "args": [],
  "numDeployments": 1,
  "solcInputHash": "bf12f2a685c1515bc5b2e5b55e573542",
  "bytecode": "0x608060405234801561001057600080fd5b5061001a3361001f565b61006f565b600080546001600160a01b038381166001600160a01b0319831681178455604051919092169283917f8be0079c531659141344cd1fd0a4f28419497f9722a3daafe3b4186f6b6457e09190a35050565b61094c8061007e6000396000f3fe6080604052600436106100cb5760003560e01c80638da5cb5b11610074578063b08bc7221161004e578063b08bc7221461026e578063be41205f1461028e578063f2fde38b146102ae57600080fd5b80638da5cb5b146101ec57806390107afe1461020a578063a3f4df7e1461022a57600080fd5b80635a4d28bb116100a55780635a4d28bb1461017f5780636b05e977146101b7578063715018a6146101d757600080fd5b806314f6c3be146101245780632d7c810814610148578063512a9ebb1461016a57600080fd5b3661011f576100d86102ce565b6003546100e59034610341565b60038190556040519081527f9a14ae677a60400af9176bed2e2d5ce8dfa6405e6c1702debb27668f567214289060200160405180910390a1005b600080fd5b34801561013057600080fd5b506003545b6040519081526020015b60405180910390f35b34801561015457600080fd5b50610168610163366004610832565b610356565b005b34801561017657600080fd5b50600454610135565b34801561018b57600080fd5b5060015461019f906001600160a01b031681565b6040516001600160a01b03909116815260200161013f565b3480156101c357600080fd5b506101686101d2366004610832565b6103a6565b3480156101e357600080fd5b506101686103bb565b3480156101f857600080fd5b506000546001600160a01b031661019f565b34801561021657600080fd5b50610168610225366004610867565b6103cd565b34801561023657600080fd5b506102616040518060400160405280600b81526020016a111959985d5b1d141bdbdb60aa1b81525081565b60405161013f919061089a565b34801561027a57600080fd5b5060025461019f906001600160a01b031681565b34801561029a57600080fd5b506101686102a9366004610832565b610495565b3480156102ba57600080fd5b506101686102c93660046108e8565b6105db565b6002546001600160a01b0316331461033f5760405162461bcd60e51b815260206004820152602960248201527f44656661756c74506f6f6c3a2043616c6c6572206973206e6f7420746865204160448201526818dd1a5d99541bdbdb60ba1b60648201526084015b60405180910390fd5b565b600061034d8284610919565b90505b92915050565b61035e610654565b60045461036b90826106c2565b60048190556040519081527f791bb5400c9344b800b678e0c8945f11cf6a1709491a85febfe82305657d62969060200160405180910390a150565b6103ae610654565b60045461036b9082610341565b6103c36106ce565b61033f6000610728565b6103d56106ce565b6103de82610785565b6103e781610785565b600180546001600160a01b0384811673ffffffffffffffffffffffffffffffffffffffff19928316811790935560028054918516919092161790556040519081527f143219c9e69b09e07e095fcc889b43d8f46ca892bba65f08dc3a0050869a56789060200160405180910390a16040516001600160a01b03821681527f78f058b189175430c48dc02699e3a0031ea4ff781536dc2fab847de4babdd8829060200160405180910390a15050565b61049d610654565b6002546003546001600160a01b03909116906104b990836106c2565b60038190556040519081527f9a14ae677a60400af9176bed2e2d5ce8dfa6405e6c1702debb27668f567214289060200160405180910390a1604080516001600160a01b0383168152602081018490527fa9ed1e3aebb4eb39f9f71cd1d73d902290379cfd2d99fae04d46ea624c49f523910160405180910390a16000816001600160a01b03168360405160006040518083038185875af1925050503d8060008114610580576040519150601f19603f3d011682016040523d82523d6000602084013e610585565b606091505b50509050806105d65760405162461bcd60e51b815260206004820152601f60248201527f44656661756c74506f6f6c3a2073656e64696e6720455448206661696c6564006044820152606401610336565b505050565b6105e36106ce565b6001600160a01b0381166106485760405162461bcd60e51b815260206004820152602660248201527f4f776e61626c653a206e6577206f776e657220697320746865207a65726f206160448201526564647265737360d01b6064820152608401610336565b61065181610728565b50565b6001546001600160a01b0316331461033f5760405162461bcd60e51b815260206004820152602b60248201527f44656661756c74506f6f6c3a2043616c6c6572206973206e6f7420746865205460448201526a3937bb32a6b0b730b3b2b960a91b6064820152608401610336565b600061034d828461092c565b6000546001600160a01b0316331461033f5760405162461bcd60e51b815260206004820181905260248201527f4f776e61626c653a2063616c6c6572206973206e6f7420746865206f776e65726044820152606401610336565b600080546001600160a01b0383811673ffffffffffffffffffffffffffffffffffffffff19831681178455604051919092169283917f8be0079c531659141344cd1fd0a4f28419497f9722a3daafe3b4186f6b6457e09190a35050565b6001600160a01b0381166107db5760405162461bcd60e51b815260206004820152601e60248201527f4163636f756e742063616e6e6f74206265207a65726f206164647265737300006044820152606401610336565b6001600160a01b0381163b6106515760405162461bcd60e51b815260206004820181905260248201527f4163636f756e7420636f64652073697a652063616e6e6f74206265207a65726f6044820152606401610336565b60006020828403121561084457600080fd5b5035919050565b80356001600160a01b038116811461086257600080fd5b919050565b6000806040838503121561087a57600080fd5b6108838361084b565b91506108916020840161084b565b90509250929050565b600060208083528351808285015260005b818110156108c7578581018301518582016040015282016108ab565b506000604082860101526040601f19601f8301168501019250505092915050565b6000602082840312156108fa57600080fd5b61034d8261084b565b634e487b7160e01b600052601160045260246000fd5b8082018082111561035057610350610903565b818103818111156103505761035061090356fea164736f6c6343000811000a",
  "devdoc": {
    "kind": "dev",
    "methods": {
      "owner()": {
        "details": "Returns the address of the current owner."
      },
      "renounceOwnership()": {
        "details": "Leaves the contract without owner. It will not be possible to call `onlyOwner` functions. Can only be called by the current owner. NOTE: Renouncing ownership will leave the contract without an owner, thereby disabling any functionality that is only available to the owner."
      },
      "transferOwnership(address)": {
        "details": "Transfers ownership of the contract to a new account (`newOwner`). Can only be called by the current owner."
      }
    },
    "version": 1
  },
  "userdoc": {
    "kind": "user",
    "methods": {},
    "version": 1
  },
  "storageLayout": {
    "storage": [
      {
        "astId": 7,
        "contract": "contracts/protocol/DefaultPool.sol:DefaultPool",
        "label": "_owner",
        "offset": 0,
        "slot": "0",
        "type": "t_address"
      },
      {
        "astId": 10084,
        "contract": "contracts/protocol/DefaultPool.sol:DefaultPool",
        "label": "troveManagerAddress",
        "offset": 0,
        "slot": "1",
        "type": "t_address"
      },
      {
        "astId": 10086,
        "contract": "contracts/protocol/DefaultPool.sol:DefaultPool",
        "label": "activePoolAddress",
        "offset": 0,
        "slot": "2",
        "type": "t_address"
      },
      {
        "astId": 10088,
        "contract": "contracts/protocol/DefaultPool.sol:DefaultPool",
        "label": "ETH",
        "offset": 0,
        "slot": "3",
        "type": "t_uint256"
      },
      {
        "astId": 10090,
        "contract": "contracts/protocol/DefaultPool.sol:DefaultPool",
        "label": "ZKUSDDebt",
        "offset": 0,
        "slot": "4",
        "type": "t_uint256"
      }
    ],
    "types": {
      "t_address": {
        "encoding": "inplace",
        "label": "address",
        "numberOfBytes": "20"
      },
      "t_uint256": {
        "encoding": "inplace",
        "label": "uint256",
        "numberOfBytes": "32"
      }
    }
  }
}