{
  "address": "0xaD64C57D19cA98ED45cc7E6DFdcbaEd6B7FF01a6",
  "abi": [
    {
      "inputs": [
        {
          "internalType": "contract TroveManager",
          "name": "_troveManager",
          "type": "address"
        },
        {
          "internalType": "contract ISortedTroves",
          "name": "_sortedTroves",
          "type": "address"
        }
      ],
      "stateMutability": "nonpayable",
      "type": "constructor"
    },
    {
      "inputs": [
        {
          "internalType": "int256",
          "name": "_startIdx",
          "type": "int256"
        },
        {
          "internalType": "uint256",
          "name": "_count",
          "type": "uint256"
        }
      ],
      "name": "getMultipleSortedTroves",
      "outputs": [
        {
          "components": [
            {
              "internalType": "address",
              "name": "owner",
              "type": "address"
            },
            {
              "internalType": "uint256",
              "name": "debt",
              "type": "uint256"
            },
            {
              "internalType": "uint256",
              "name": "coll",
              "type": "uint256"
            },
            {
              "internalType": "uint256",
              "name": "stake",
              "type": "uint256"
            },
            {
              "internalType": "uint256",
              "name": "snapshotETH",
              "type": "uint256"
            },
            {
              "internalType": "uint256",
              "name": "snapshotZKUSDDebt",
              "type": "uint256"
            }
          ],
          "internalType": "struct MultiTroveGetter.CombinedTroveData[]",
          "name": "_troves",
          "type": "tuple[]"
        }
      ],
      "stateMutability": "view",
      "type": "function"
    },
    {
      "inputs": [],
      "name": "sortedTroves",
      "outputs": [
        {
          "internalType": "contract ISortedTroves",
          "name": "",
          "type": "address"
        }
      ],
      "stateMutability": "view",
      "type": "function"
    },
    {
      "inputs": [],
      "name": "troveManager",
      "outputs": [
        {
          "internalType": "contract TroveManager",
          "name": "",
          "type": "address"
        }
      ],
      "stateMutability": "view",
      "type": "function"
    }
  ],
  "transactionHash": "0x03781356a040d7e009eef5a422006f05da9ec102b4615a8a7dd85b980d36862e",
  "args": [
    "0x1A8FAf4BC79c7e8c698519cC7449179aEafA27DF",
    "0x044955112c7d6921a765BAC103D4FED126f5c7d4"
  ],
  "numDeployments": 1,
  "solcInputHash": "bf12f2a685c1515bc5b2e5b55e573542",
  "bytecode": "0x608060405234801561001057600080fd5b50604051610c84380380610c8483398101604081905261002f91610078565b600080546001600160a01b039384166001600160a01b031991821617909155600180549290931691161790556100b2565b6001600160a01b038116811461007557600080fd5b50565b6000806040838503121561008b57600080fd5b825161009681610060565b60208401519092506100a781610060565b809150509250929050565b610bc3806100c16000396000f3fe608060405234801561001057600080fd5b50600436106100415760003560e01c80633d83908a14610046578063ae91875414610076578063b90bce4514610089575b600080fd5b600054610059906001600160a01b031681565b6040516001600160a01b0390911681526020015b60405180910390f35b600154610059906001600160a01b031681565b61009c6100973660046109a5565b6100a9565b60405161006d91906109c7565b6060600080600085126100c1575083905060016100dc565b6100cc856001610a5e565b6100d590610a7e565b9150600090505b6001546040805163de8fa43160e01b815290516000926001600160a01b03169163de8fa4319160048083019260209291908290030181865afa158015610126573d6000803e3d6000fd5b505050506040513d601f19601f8201168201806040525081019061014a9190610a9a565b90508083106101c65760408051600080825260208201909252906101be565b6101ab6040518060c0016040528060006001600160a01b0316815260200160008152602001600081526020016000815260200160008152602001600081525090565b8152602001906001900390816101695790505b509350610206565b60006101d28483610ac9565b9050808611156101e0578095505b82156101f7576101f0848761020f565b9450610204565b61020184876105de565b94505b505b50505092915050565b60606000600160009054906101000a90046001600160a01b03166001600160a01b0316631e2231436040518163ffffffff1660e01b8152600401602060405180830381865afa158015610266573d6000803e3d6000fd5b505050506040513d601f19601f8201168201806040525081019061028a9190610ae2565b905060005b848110156103175760015460405163765e015960e01b81526001600160a01b0384811660048301529091169063765e015990602401602060405180830381865afa1580156102e1573d6000803e3d6000fd5b505050506040513d601f19601f820116820180604052508101906103059190610ae2565b915061031081610b12565b905061028f565b508267ffffffffffffffff81111561033157610331610ab3565b6040519080825280602002602001820160405280156103a457816020015b6103916040518060c0016040528060006001600160a01b0316815260200160008152602001600081526020016000815260200160008152602001600081525090565b81526020019060019003908161034f5790505b50915060005b838110156105d657818382815181106103c5576103c5610b2b565b60209081029190910101516001600160a01b039182169052600054604051630ddec86760e31b81528483166004820152911690636ef643389060240160a060405180830381865afa15801561041e573d6000803e3d6000fd5b505050506040513d601f19601f820116820180604052508101906104429190610b41565b90505085848151811061045757610457610b2b565b602002602001015160200186858151811061047457610474610b2b565b602002602001015160400187868151811061049157610491610b2b565b60209081029190910101516060019290925291905252600054604051630b39e3cd60e11b81526001600160a01b03848116600483015290911690631673c79a906024016040805180830381865afa1580156104f0573d6000803e3d6000fd5b505050506040513d601f19601f820116820180604052508101906105149190610b92565b84838151811061052657610526610b2b565b602002602001015160800185848151811061054357610543610b2b565b602090810291909101015160a001919091525260015460405163765e015960e01b81526001600160a01b0384811660048301529091169063765e015990602401602060405180830381865afa1580156105a0573d6000803e3d6000fd5b505050506040513d601f19601f820116820180604052508101906105c49190610ae2565b91506105cf81610b12565b90506103aa565b505092915050565b60606000600160009054906101000a90046001600160a01b03166001600160a01b0316634d6228316040518163ffffffff1660e01b8152600401602060405180830381865afa158015610635573d6000803e3d6000fd5b505050506040513d601f19601f820116820180604052508101906106599190610ae2565b905060005b848110156106e657600154604051632dc9c0eb60e21b81526001600160a01b0384811660048301529091169063b72703ac90602401602060405180830381865afa1580156106b0573d6000803e3d6000fd5b505050506040513d601f19601f820116820180604052508101906106d49190610ae2565b91506106df81610b12565b905061065e565b508267ffffffffffffffff81111561070057610700610ab3565b60405190808252806020026020018201604052801561077357816020015b6107606040518060c0016040528060006001600160a01b0316815260200160008152602001600081526020016000815260200160008152602001600081525090565b81526020019060019003908161071e5790505b50915060005b838110156105d6578183828151811061079457610794610b2b565b60209081029190910101516001600160a01b039182169052600054604051630ddec86760e31b81528483166004820152911690636ef643389060240160a060405180830381865afa1580156107ed573d6000803e3d6000fd5b505050506040513d601f19601f820116820180604052508101906108119190610b41565b90505085848151811061082657610826610b2b565b602002602001015160200186858151811061084357610843610b2b565b602002602001015160400187868151811061086057610860610b2b565b60209081029190910101516060019290925291905252600054604051630b39e3cd60e11b81526001600160a01b03848116600483015290911690631673c79a906024016040805180830381865afa1580156108bf573d6000803e3d6000fd5b505050506040513d601f19601f820116820180604052508101906108e39190610b92565b8483815181106108f5576108f5610b2b565b602002602001015160800185848151811061091257610912610b2b565b602090810291909101015160a0019190915252600154604051632dc9c0eb60e21b81526001600160a01b0384811660048301529091169063b72703ac90602401602060405180830381865afa15801561096f573d6000803e3d6000fd5b505050506040513d601f19601f820116820180604052508101906109939190610ae2565b915061099e81610b12565b9050610779565b600080604083850312156109b857600080fd5b50508035926020909101359150565b602080825282518282018190526000919060409081850190868401855b82811015610a3b57815180516001600160a01b0316855286810151878601528581015186860152606080820151908601526080808201519086015260a0908101519085015260c090930192908501906001016109e4565b5091979650505050505050565b634e487b7160e01b600052601160045260246000fd5b80820182811260008312801582168215821617156105d6576105d6610a48565b6000600160ff1b8201610a9357610a93610a48565b5060000390565b600060208284031215610aac57600080fd5b5051919050565b634e487b7160e01b600052604160045260246000fd5b81810381811115610adc57610adc610a48565b92915050565b600060208284031215610af457600080fd5b81516001600160a01b0381168114610b0b57600080fd5b9392505050565b600060018201610b2457610b24610a48565b5060010190565b634e487b7160e01b600052603260045260246000fd5b600080600080600060a08688031215610b5957600080fd5b855194506020860151935060408601519250606086015160058110610b7d57600080fd5b80925050608086015190509295509295909350565b60008060408385031215610ba557600080fd5b50508051602090910151909290915056fea164736f6c6343000811000a",
  "devdoc": {
    "kind": "dev",
    "methods": {},
    "version": 1
  },
  "userdoc": {
    "kind": "user",
    "methods": {},
    "version": 1
  },
  "storageLayout": {
    "storage": [
      {
        "astId": 10724,
        "contract": "contracts/protocol/MultiTroveGetter.sol:MultiTroveGetter",
        "label": "troveManager",
        "offset": 0,
        "slot": "0",
        "type": "t_contract(TroveManager)19069"
      },
      {
        "astId": 10727,
        "contract": "contracts/protocol/MultiTroveGetter.sol:MultiTroveGetter",
        "label": "sortedTroves",
        "offset": 0,
        "slot": "1",
        "type": "t_contract(ISortedTroves)5954"
      }
    ],
    "types": {
      "t_contract(ISortedTroves)5954": {
        "encoding": "inplace",
        "label": "contract ISortedTroves",
        "numberOfBytes": "20"
      },
      "t_contract(TroveManager)19069": {
        "encoding": "inplace",
        "label": "contract TroveManager",
        "numberOfBytes": "20"
      }
    }
  }
}