{
  "address": "0x044955112c7d6921a765BAC103D4FED126f5c7d4",
  "abi": [
    {
      "anonymous": false,
      "inputs": [
        {
          "indexed": false,
          "internalType": "address",
          "name": "_borrowerOperationsAddress",
          "type": "address"
        }
      ],
      "name": "BorrowerOperationsAddressChanged",
      "type": "event"
    },
    {
      "anonymous": false,
      "inputs": [
        {
          "indexed": false,
          "internalType": "address",
          "name": "_id",
          "type": "address"
        },
        {
          "indexed": false,
          "internalType": "address",
          "name": "_prevId",
          "type": "address"
        },
        {
          "indexed": false,
          "internalType": "address",
          "name": "_nextId",
          "type": "address"
        },
        {
          "indexed": false,
          "internalType": "uint256",
          "name": "_NICR",
          "type": "uint256"
        }
      ],
      "name": "NodeAdded",
      "type": "event"
    },
    {
      "anonymous": false,
      "inputs": [
        {
          "indexed": false,
          "internalType": "address",
          "name": "_id",
          "type": "address"
        }
      ],
      "name": "NodeRemoved",
      "type": "event"
    },
    {
      "anonymous": false,
      "inputs": [
        {
          "indexed": true,
          "internalType": "address",
          "name": "previousOwner",
          "type": "address"
        },
        {
          "indexed": true,
          "internalType": "address",
          "name": "newOwner",
          "type": "address"
        }
      ],
      "name": "OwnershipTransferred",
      "type": "event"
    },
    {
      "anonymous": false,
      "inputs": [
        {
          "indexed": false,
          "internalType": "address",
          "name": "_sortedDoublyLLAddress",
          "type": "address"
        }
      ],
      "name": "SortedTrovesAddressChanged",
      "type": "event"
    },
    {
      "anonymous": false,
      "inputs": [
        {
          "indexed": false,
          "internalType": "address",
          "name": "_troveManagerAddress",
          "type": "address"
        }
      ],
      "name": "TroveManagerAddressChanged",
      "type": "event"
    },
    {
      "anonymous": false,
      "inputs": [
        {
          "indexed": false,
          "internalType": "address",
          "name": "_head",
          "type": "address"
        },
        {
          "indexed": false,
          "internalType": "address",
          "name": "_tail",
          "type": "address"
        },
        {
          "indexed": false,
          "internalType": "uint256",
          "name": "_currentSize",
          "type": "uint256"
        }
      ],
      "name": "UpdateLink",
      "type": "event"
    },
    {
      "inputs": [],
      "name": "NAME",
      "outputs": [
        {
          "internalType": "string",
          "name": "",
          "type": "string"
        }
      ],
      "stateMutability": "view",
      "type": "function"
    },
    {
      "inputs": [],
      "name": "borrowerOperationsAddress",
      "outputs": [
        {
          "internalType": "address",
          "name": "",
          "type": "address"
        }
      ],
      "stateMutability": "view",
      "type": "function"
    },
    {
      "inputs": [
        {
          "internalType": "address",
          "name": "_id",
          "type": "address"
        }
      ],
      "name": "contains",
      "outputs": [
        {
          "internalType": "bool",
          "name": "",
          "type": "bool"
        }
      ],
      "stateMutability": "view",
      "type": "function"
    },
    {
      "inputs": [],
      "name": "data",
      "outputs": [
        {
          "internalType": "address",
          "name": "head",
          "type": "address"
        },
        {
          "internalType": "address",
          "name": "tail",
          "type": "address"
        },
        {
          "internalType": "uint256",
          "name": "maxSize",
          "type": "uint256"
        },
        {
          "internalType": "uint256",
          "name": "size",
          "type": "uint256"
        }
      ],
      "stateMutability": "view",
      "type": "function"
    },
    {
      "inputs": [
        {
          "internalType": "uint256",
          "name": "_NICR",
          "type": "uint256"
        },
        {
          "internalType": "address",
          "name": "_prevId",
          "type": "address"
        },
        {
          "internalType": "address",
          "name": "_nextId",
          "type": "address"
        }
      ],
      "name": "findInsertPosition",
      "outputs": [
        {
          "internalType": "address",
          "name": "",
          "type": "address"
        },
        {
          "internalType": "address",
          "name": "",
          "type": "address"
        }
      ],
      "stateMutability": "view",
      "type": "function"
    },
    {
      "inputs": [],
      "name": "getFirst",
      "outputs": [
        {
          "internalType": "address",
          "name": "",
          "type": "address"
        }
      ],
      "stateMutability": "view",
      "type": "function"
    },
    {
      "inputs": [],
      "name": "getLast",
      "outputs": [
        {
          "internalType": "address",
          "name": "",
          "type": "address"
        }
      ],
      "stateMutability": "view",
      "type": "function"
    },
    {
      "inputs": [],
      "name": "getMaxSize",
      "outputs": [
        {
          "internalType": "uint256",
          "name": "",
          "type": "uint256"
        }
      ],
      "stateMutability": "view",
      "type": "function"
    },
    {
      "inputs": [
        {
          "internalType": "address",
          "name": "_id",
          "type": "address"
        }
      ],
      "name": "getNext",
      "outputs": [
        {
          "internalType": "address",
          "name": "",
          "type": "address"
        }
      ],
      "stateMutability": "view",
      "type": "function"
    },
    {
      "inputs": [
        {
          "internalType": "address",
          "name": "_id",
          "type": "address"
        }
      ],
      "name": "getPrev",
      "outputs": [
        {
          "internalType": "address",
          "name": "",
          "type": "address"
        }
      ],
      "stateMutability": "view",
      "type": "function"
    },
    {
      "inputs": [],
      "name": "getSize",
      "outputs": [
        {
          "internalType": "uint256",
          "name": "",
          "type": "uint256"
        }
      ],
      "stateMutability": "view",
      "type": "function"
    },
    {
      "inputs": [
        {
          "internalType": "address",
          "name": "_id",
          "type": "address"
        },
        {
          "internalType": "uint256",
          "name": "_NICR",
          "type": "uint256"
        },
        {
          "internalType": "address",
          "name": "_prevId",
          "type": "address"
        },
        {
          "internalType": "address",
          "name": "_nextId",
          "type": "address"
        }
      ],
      "name": "insert",
      "outputs": [],
      "stateMutability": "nonpayable",
      "type": "function"
    },
    {
      "inputs": [],
      "name": "isEmpty",
      "outputs": [
        {
          "internalType": "bool",
          "name": "",
          "type": "bool"
        }
      ],
      "stateMutability": "view",
      "type": "function"
    },
    {
      "inputs": [],
      "name": "isFull",
      "outputs": [
        {
          "internalType": "bool",
          "name": "",
          "type": "bool"
        }
      ],
      "stateMutability": "view",
      "type": "function"
    },
    {
      "inputs": [],
      "name": "owner",
      "outputs": [
        {
          "internalType": "address",
          "name": "",
          "type": "address"
        }
      ],
      "stateMutability": "view",
      "type": "function"
    },
    {
      "inputs": [
        {
          "internalType": "address",
          "name": "_id",
          "type": "address"
        },
        {
          "internalType": "uint256",
          "name": "_newNICR",
          "type": "uint256"
        },
        {
          "internalType": "address",
          "name": "_prevId",
          "type": "address"
        },
        {
          "internalType": "address",
          "name": "_nextId",
          "type": "address"
        }
      ],
      "name": "reInsert",
      "outputs": [],
      "stateMutability": "nonpayable",
      "type": "function"
    },
    {
      "inputs": [
        {
          "internalType": "address",
          "name": "_id",
          "type": "address"
        }
      ],
      "name": "remove",
      "outputs": [],
      "stateMutability": "nonpayable",
      "type": "function"
    },
    {
      "inputs": [],
      "name": "renounceOwnership",
      "outputs": [],
      "stateMutability": "nonpayable",
      "type": "function"
    },
    {
      "inputs": [
        {
          "internalType": "uint256",
          "name": "_size",
          "type": "uint256"
        },
        {
          "internalType": "address",
          "name": "_troveManagerAddress",
          "type": "address"
        },
        {
          "internalType": "address",
          "name": "_borrowerOperationsAddress",
          "type": "address"
        }
      ],
      "name": "setParams",
      "outputs": [],
      "stateMutability": "nonpayable",
      "type": "function"
    },
    {
      "inputs": [
        {
          "internalType": "address",
          "name": "newOwner",
          "type": "address"
        }
      ],
      "name": "transferOwnership",
      "outputs": [],
      "stateMutability": "nonpayable",
      "type": "function"
    },
    {
      "inputs": [],
      "name": "troveManager",
      "outputs": [
        {
          "internalType": "contract ITroveManager",
          "name": "",
          "type": "address"
        }
      ],
      "stateMutability": "view",
      "type": "function"
    },
    {
      "inputs": [
        {
          "internalType": "uint256",
          "name": "_NICR",
          "type": "uint256"
        },
        {
          "internalType": "address",
          "name": "_prevId",
          "type": "address"
        },
        {
          "internalType": "address",
          "name": "_nextId",
          "type": "address"
        }
      ],
      "name": "validInsertPosition",
      "outputs": [
        {
          "internalType": "bool",
          "name": "",
          "type": "bool"
        }
      ],
      "stateMutability": "view",
      "type": "function"
    }
  ],
  "transactionHash": "0x4a93804b24c61052c731e9327fd618c8cd91f6b6ff4a62504e9dd83d689831e4",
  "args": [],
  "numDeployments": 1,
  "solcInputHash": "bf12f2a685c1515bc5b2e5b55e573542",
  "bytecode": "0x608060405234801561001057600080fd5b5061001a3361001f565b61006f565b600080546001600160a01b038381166001600160a01b0319831681178455604051919092169283917f8be0079c531659141344cd1fd0a4f28419497f9722a3daafe3b4186f6b6457e09190a35050565b61182e8061007e6000396000f3fe608060405234801561001057600080fd5b50600436106101625760003560e01c8063715018a6116100c8578063b72703ac1161008c578063de8fa43111610066578063de8fa431146103aa578063f2fde38b146103b2578063f376d798146103c557600080fd5b8063b72703ac1461035c578063b7f8cf9b1461038b578063babd3d9a1461039e57600080fd5b8063715018a61461028d57806373d4a13a14610295578063765e0159146102e25780638da5cb5b14610313578063a3f4df7e1461032457600080fd5b8063416980dc1161012a5780635dbe47e8116101045780635dbe47e81461024657806363e1d57c14610272578063681fe70c1461028457600080fd5b8063416980dc146101ef57806346f7cf87146102225780634d6228311461023557600080fd5b80631e2231431461016757806329092d0e146101915780632be21260146101a65780633d83908a146101b95780633fce12d5146101cc575b600080fd5b6003546001600160a01b03165b6040516001600160a01b0390911681526020015b60405180910390f35b6101a461019f3660046116da565b6103d8565b005b6101a46101b43660046116f5565b6103ec565b600254610174906001600160a01b031681565b6101df6101da366004611742565b6104fa565b6040519015158152602001610188565b6102026101fd366004611742565b61051d565b604080516001600160a01b03938416815292909116602083015201610188565b6101a46102303660046116f5565b610547565b6004546001600160a01b0316610174565b6101df6102543660046116da565b6001600160a01b031660009081526007602052604090205460ff1690565b6005545b604051908152602001610188565b600654156101df565b6101a461055c565b6003546004546005546006546102b7936001600160a01b039081169316919084565b604080516001600160a01b039586168152949093166020850152918301526060820152608001610188565b6101746102f03660046116da565b6001600160a01b0390811660009081526007602052604090205461010090041690565b6000546001600160a01b0316610174565b61034f6040518060400160405280600c81526020016b536f7274656454726f76657360a01b81525081565b604051610188919061177e565b61017461036a3660046116da565b6001600160a01b039081166000908152600760205260409020600101541690565b600154610174906001600160a01b031681565b600554600654146101df565b600654610276565b6101a46103c03660046116da565b610570565b6101a46103d3366004611742565b6105e6565b6103e0610701565b6103e981610770565b50565b6002546001600160a01b031661040181610a32565b6001600160a01b03851660009081526007602052604090205460ff166104815760405162461bcd60e51b815260206004820152602a60248201527f536f7274656454726f7665733a204c69737420646f6573206e6f7420636f6e74604482015269185a5b881d1a19481a5960b21b60648201526084015b60405180910390fd5b600084116104dd5760405162461bcd60e51b815260206004820152602360248201527f536f7274656454726f7665733a204e494352206d75737420626520706f73697460448201526269766560e81b6064820152608401610478565b6104e685610770565b6104f38186868686610ab5565b5050505050565b600254600090610515906001600160a01b0316858585610ee0565b949350505050565b600254600090819061053a906001600160a01b0316868686611117565b915091505b935093915050565b6002546001600160a01b03166104e681610a32565b6105646112fa565b61056e6000611354565b565b6105786112fa565b6001600160a01b0381166105dd5760405162461bcd60e51b815260206004820152602660248201527f4f776e61626c653a206e6577206f776e657220697320746865207a65726f206160448201526564647265737360d01b6064820152608401610478565b6103e981611354565b6105ee6112fa565b600083116106485760405162461bcd60e51b815260206004820152602160248201527f536f7274656454726f7665733a2053697a652063616e6e6f74206265207a65726044820152606f60f81b6064820152608401610478565b610651826113a4565b61065a816113a4565b6005839055600280546001600160a01b038481166001600160a01b0319928316811790935560018054918516919092161790556040519081527f143219c9e69b09e07e095fcc889b43d8f46ca892bba65f08dc3a0050869a56789060200160405180910390a16040516001600160a01b03821681527f3ca631ffcd2a9b5d9ae18543fc82f58eb4ca33af9e6ab01b7a8e95331e6ed9859060200160405180910390a1505050565b6002546001600160a01b0316331461056e5760405162461bcd60e51b815260206004820152602c60248201527f536f7274656454726f7665733a2043616c6c6572206973206e6f74207468652060448201526b2a3937bb32a6b0b730b3b2b960a11b6064820152608401610478565b6001600160a01b03811660009081526007602052604090205460ff166107eb5760405162461bcd60e51b815260206004820152602a60248201527f536f7274656454726f7665733a204c69737420646f6573206e6f7420636f6e74604482015269185a5b881d1a19481a5960b21b6064820152608401610478565b6006546001101561092b576003546001600160a01b0390811690821603610858576001600160a01b0380821660009081526007602052604080822054600380546001600160a01b031990811661010090930490951691821790558252902060010180549091169055610948565b6004546001600160a01b03908116908216036108bc576001600160a01b0380821660009081526007602052604080822060010154600480546001600160a01b03191691909416908117909355918152208054610100600160a81b0319169055610948565b6001600160a01b038082166000908152600760205260408082208054600180830180548716865284862080546101009485900489168502610100600160a81b03199091161790555492549190910485168452919092200180546001600160a01b03191691909216179055610948565b600380546001600160a01b03199081169091556004805490911690555b6001600160a01b0381166000908152600760205260409020805474ffffffffffffffffffffffffffffffffffffffffff19168155600190810180546001600160a01b031916905560065461099b91611451565b6006819055600354600454604080516001600160a01b0393841681529290911660208301528101919091527f0c8e03ef85af57c0379589c8cc9cb05bf122d3e8d09aa3014fad437384c586519060600160405180910390a16040516001600160a01b03821681527fcfc24166db4bb677e857cacabd1541fb2b30645021b27c5130419589b84db52b9060200160405180910390a150565b6001546001600160a01b0316331480610a535750336001600160a01b038216145b6103e95760405162461bcd60e51b815260206004820152602d60248201527f536f7274656454726f7665733a2043616c6c6572206973206e6569746865722060448201526c424f206e6f722054726f76654d60981b6064820152608401610478565b60055460065403610b085760405162461bcd60e51b815260206004820152601a60248201527f536f7274656454726f7665733a204c6973742069732066756c6c0000000000006044820152606401610478565b6001600160a01b03841660009081526007602052604090205460ff1615610b865760405162461bcd60e51b815260206004820152602c60248201527f536f7274656454726f7665733a204c69737420616c726561647920636f6e746160448201526b696e7320746865206e6f646560a01b6064820152608401610478565b6001600160a01b038416610bdc5760405162461bcd60e51b815260206004820152601f60248201527f536f7274656454726f7665733a2049642063616e6e6f74206265207a65726f006044820152606401610478565b60008311610c385760405162461bcd60e51b815260206004820152602360248201527f536f7274656454726f7665733a204e494352206d75737420626520706f73697460448201526269766560e81b6064820152608401610478565b8181610c4687868484610ee0565b610c5c57610c5687868484611117565b90925090505b6001600160a01b038087166000908152600760205260409020805460ff191660011790558216158015610c9657506001600160a01b038116155b15610ccb57600380546001600160a01b0388166001600160a01b03199182168117909255600480549091169091179055610e1f565b6001600160a01b038216610d3f57600380546001600160a01b03888116600081815260076020526040808220805495851661010002610100600160a81b0319909616959095179094558454909216825291902060010180546001600160a01b03199081168317909155825416179055610e1f565b6001600160a01b038116610daf57600480546001600160a01b0388811660008181526007602052604080822060010180549585166001600160a01b031996871617905585549093168152919091208054610100600160a81b03191661010083021790558254909116179055610e1f565b6001600160a01b038087166000818152600760205260408082208054858716610100818102610100600160a81b031993841617845560019384018054988b166001600160a01b0319998a168117909155865284862080549188029190931617909155835291200180549092161790555b600654610e2d906001611466565b6006819055600354600454604080516001600160a01b0393841681529290911660208301528101919091527f0c8e03ef85af57c0379589c8cc9cb05bf122d3e8d09aa3014fad437384c586519060600160405180910390a1604080516001600160a01b03888116825286811660208301528516818301526060810187905290517f340b8b7673cd30ef44e87aa0e6ba8f1d4b53ea6be7c346e19743181720e76be69181900360800190a150505050505050565b60006001600160a01b038316158015610f0057506001600160a01b038216155b15610f1157600654155b9050610515565b6001600160a01b038316610fac576003546001600160a01b038381169116148015610f0a575060405163b0d8e18160e01b81526001600160a01b03838116600483015286169063b0d8e181906024015b602060405180830381865afa158015610f7e573d6000803e3d6000fd5b505050506040513d601f19601f82011682018060405250810190610fa291906117cc565b8410159050610515565b6001600160a01b038216611046576004546001600160a01b038481169116148015610f0a575060405163b0d8e18160e01b81526001600160a01b03848116600483015286169063b0d8e18190602401602060405180830381865afa158015611018573d6000803e3d6000fd5b505050506040513d601f19601f8201168201806040525081019061103c91906117cc565b8411159050610515565b6001600160a01b03838116600090815260076020526040902054610100900481169083161480156110e2575060405163b0d8e18160e01b81526001600160a01b03848116600483015285919087169063b0d8e18190602401602060405180830381865afa1580156110bb573d6000803e3d6000fd5b505050506040513d601f19601f820116820180604052508101906110df91906117cc565b10155b8015610f0a575060405163b0d8e18160e01b81526001600160a01b03838116600483015286169063b0d8e18190602401610f61565b60008083836001600160a01b038216156111c5576001600160a01b03821660009081526007602052604090205460ff1615806111bb575060405163b0d8e18160e01b81526001600160a01b03838116600483015289169063b0d8e18190602401602060405180830381865afa158015611194573d6000803e3d6000fd5b505050506040513d601f19601f820116820180604052508101906111b891906117cc565b87115b156111c557600091505b6001600160a01b0381161561126d576001600160a01b03811660009081526007602052604090205460ff161580611264575060405163b0d8e18160e01b81526001600160a01b03828116600483015289169063b0d8e18190602401602060405180830381865afa15801561123d573d6000803e3d6000fd5b505050506040513d601f19601f8201168201806040525081019061126191906117cc565b87105b1561126d575060005b6001600160a01b03821615801561128b57506001600160a01b038116155b156112b4576003546112a990899089906001600160a01b0316611472565b9350935050506112f1565b6001600160a01b0382166112cd576112a988888361159b565b6001600160a01b0381166112e6576112a9888884611472565b6112a9888884611472565b94509492505050565b6000546001600160a01b0316331461056e5760405162461bcd60e51b815260206004820181905260248201527f4f776e61626c653a2063616c6c6572206973206e6f7420746865206f776e65726044820152606401610478565b600080546001600160a01b038381166001600160a01b0319831681178455604051919092169283917f8be0079c531659141344cd1fd0a4f28419497f9722a3daafe3b4186f6b6457e09190a35050565b6001600160a01b0381166113fa5760405162461bcd60e51b815260206004820152601e60248201527f4163636f756e742063616e6e6f74206265207a65726f206164647265737300006044820152606401610478565b6001600160a01b0381163b6103e95760405162461bcd60e51b815260206004820181905260248201527f4163636f756e7420636f64652073697a652063616e6e6f74206265207a65726f6044820152606401610478565b600061145d82846117fb565b90505b92915050565b600061145d828461180e565b60035460009081906001600160a01b0384811691161480156114fd575060405163b0d8e18160e01b81526001600160a01b03848116600483015286169063b0d8e18190602401602060405180830381865afa1580156114d5573d6000803e3d6000fd5b505050506040513d601f19601f820116820180604052508101906114f991906117cc565b8410155b1561150d5750600090508161053f565b6001600160a01b038084166000908152600760205260409020548491610100909104165b6001600160a01b03821615801590611552575061155087878484610ee0565b155b1561158f57506001600160a01b03908116600090815260076020526040808220546101009081900484168084529190922054909291900416611531565b90969095509350505050565b60045460009081906001600160a01b038481169116148015611626575060405163b0d8e18160e01b81526001600160a01b03848116600483015286169063b0d8e18190602401602060405180830381865afa1580156115fe573d6000803e3d6000fd5b505050506040513d601f19601f8201168201806040525081019061162291906117cc565b8411155b156116365750819050600061053f565b6001600160a01b038084166000908152600760205260409020600101548491165b6001600160a01b03821615801590611678575061167687878385610ee0565b155b156116b357506001600160a01b0390811660009081526007602052604080822060019081015484168084529190922090910154909116611657565b969095509350505050565b80356001600160a01b03811681146116d557600080fd5b919050565b6000602082840312156116ec57600080fd5b61145d826116be565b6000806000806080858703121561170b57600080fd5b611714856116be565b935060208501359250611729604086016116be565b9150611737606086016116be565b905092959194509250565b60008060006060848603121561175757600080fd5b83359250611767602085016116be565b9150611775604085016116be565b90509250925092565b600060208083528351808285015260005b818110156117ab5785810183015185820160400152820161178f565b506000604082860101526040601f19601f8301168501019250505092915050565b6000602082840312156117de57600080fd5b5051919050565b634e487b7160e01b600052601160045260246000fd5b81810381811115611460576114606117e5565b80820180821115611460576114606117e556fea164736f6c6343000811000a",
  "devdoc": {
    "kind": "dev",
    "methods": {
      "owner()": {
        "details": "Returns the address of the current owner."
      },
      "renounceOwnership()": {
        "details": "Leaves the contract without owner. It will not be possible to call `onlyOwner` functions. Can only be called by the current owner. NOTE: Renouncing ownership will leave the contract without an owner, thereby disabling any functionality that is only available to the owner."
      },
      "transferOwnership(address)": {
        "details": "Transfers ownership of the contract to a new account (`newOwner`). Can only be called by the current owner."
      }
    },
    "version": 1
  },
  "userdoc": {
    "kind": "user",
    "methods": {},
    "version": 1
  },
  "storageLayout": {
    "storage": [
      {
        "astId": 7,
        "contract": "contracts/protocol/SortedTroves.sol:SortedTroves",
        "label": "_owner",
        "offset": 0,
        "slot": "0",
        "type": "t_address"
      },
      {
        "astId": 11084,
        "contract": "contracts/protocol/SortedTroves.sol:SortedTroves",
        "label": "borrowerOperationsAddress",
        "offset": 0,
        "slot": "1",
        "type": "t_address"
      },
      {
        "astId": 11087,
        "contract": "contracts/protocol/SortedTroves.sol:SortedTroves",
        "label": "troveManager",
        "offset": 0,
        "slot": "2",
        "type": "t_contract(ITroveManager)6628"
      },
      {
        "astId": 11111,
        "contract": "contracts/protocol/SortedTroves.sol:SortedTroves",
        "label": "data",
        "offset": 0,
        "slot": "3",
        "type": "t_struct(Data)11108_storage"
      }
    ],
    "types": {
      "t_address": {
        "encoding": "inplace",
        "label": "address",
        "numberOfBytes": "20"
      },
      "t_bool": {
        "encoding": "inplace",
        "label": "bool",
        "numberOfBytes": "1"
      },
      "t_contract(ITroveManager)6628": {
        "encoding": "inplace",
        "label": "contract ITroveManager",
        "numberOfBytes": "20"
      },
      "t_mapping(t_address,t_struct(Node)11094_storage)": {
        "encoding": "mapping",
        "key": "t_address",
        "label": "mapping(address => struct SortedTroves.Node)",
        "numberOfBytes": "32",
        "value": "t_struct(Node)11094_storage"
      },
      "t_struct(Data)11108_storage": {
        "encoding": "inplace",
        "label": "struct SortedTroves.Data",
        "members": [
          {
            "astId": 11096,
            "contract": "contracts/protocol/SortedTroves.sol:SortedTroves",
            "label": "head",
            "offset": 0,
            "slot": "0",
            "type": "t_address"
          },
          {
            "astId": 11098,
            "contract": "contracts/protocol/SortedTroves.sol:SortedTroves",
            "label": "tail",
            "offset": 0,
            "slot": "1",
            "type": "t_address"
          },
          {
            "astId": 11100,
            "contract": "contracts/protocol/SortedTroves.sol:SortedTroves",
            "label": "maxSize",
            "offset": 0,
            "slot": "2",
            "type": "t_uint256"
          },
          {
            "astId": 11102,
            "contract": "contracts/protocol/SortedTroves.sol:SortedTroves",
            "label": "size",
            "offset": 0,
            "slot": "3",
            "type": "t_uint256"
          },
          {
            "astId": 11107,
            "contract": "contracts/protocol/SortedTroves.sol:SortedTroves",
            "label": "nodes",
            "offset": 0,
            "slot": "4",
            "type": "t_mapping(t_address,t_struct(Node)11094_storage)"
          }
        ],
        "numberOfBytes": "160"
      },
      "t_struct(Node)11094_storage": {
        "encoding": "inplace",
        "label": "struct SortedTroves.Node",
        "members": [
          {
            "astId": 11089,
            "contract": "contracts/protocol/SortedTroves.sol:SortedTroves",
            "label": "exists",
            "offset": 0,
            "slot": "0",
            "type": "t_bool"
          },
          {
            "astId": 11091,
            "contract": "contracts/protocol/SortedTroves.sol:SortedTroves",
            "label": "nextId",
            "offset": 1,
            "slot": "0",
            "type": "t_address"
          },
          {
            "astId": 11093,
            "contract": "contracts/protocol/SortedTroves.sol:SortedTroves",
            "label": "prevId",
            "offset": 0,
            "slot": "1",
            "type": "t_address"
          }
        ],
        "numberOfBytes": "64"
      },
      "t_uint256": {
        "encoding": "inplace",
        "label": "uint256",
        "numberOfBytes": "32"
      }
    }
  }
}