{
  "address": "0x61101a05697D2b84d6C094B840A1Ce23c1D102a5",
  "abi": [
    {
      "anonymous": false,
      "inputs": [
        {
          "indexed": false,
          "internalType": "address",
          "name": "_newActivePoolAddress",
          "type": "address"
        }
      ],
      "name": "ActivePoolAddressChanged",
      "type": "event"
    },
    {
      "anonymous": false,
      "inputs": [
        {
          "indexed": false,
          "internalType": "uint256",
          "name": "_NEON",
          "type": "uint256"
        }
      ],
      "name": "ActivePoolNEONBalanceUpdated",
      "type": "event"
    },
    {
      "anonymous": false,
      "inputs": [
        {
          "indexed": false,
          "internalType": "uint256",
          "name": "_ZKUSDDebt",
          "type": "uint256"
        }
      ],
      "name": "ActivePoolZKUSDDebtUpdated",
      "type": "event"
    },
    {
      "anonymous": false,
      "inputs": [
        {
          "indexed": false,
          "internalType": "address",
          "name": "_newBorrowerOperationsAddress",
          "type": "address"
        }
      ],
      "name": "BorrowerOperationsAddressChanged",
      "type": "event"
    },
    {
      "anonymous": false,
      "inputs": [
        {
          "indexed": false,
          "internalType": "address",
          "name": "_newDefaultPoolAddress",
          "type": "address"
        }
      ],
      "name": "DefaultPoolAddressChanged",
      "type": "event"
    },
    {
      "anonymous": false,
      "inputs": [
        {
          "indexed": false,
          "internalType": "address",
          "name": "_to",
          "type": "address"
        },
        {
          "indexed": false,
          "internalType": "uint256",
          "name": "_amount",
          "type": "uint256"
        }
      ],
      "name": "EtherSent",
      "type": "event"
    },
    {
      "anonymous": false,
      "inputs": [
        {
          "indexed": false,
          "internalType": "uint256",
          "name": "_newBalance",
          "type": "uint256"
        }
      ],
      "name": "NEONBalanceUpdated",
      "type": "event"
    },
    {
      "anonymous": false,
      "inputs": [
        {
          "indexed": true,
          "internalType": "address",
          "name": "previousOwner",
          "type": "address"
        },
        {
          "indexed": true,
          "internalType": "address",
          "name": "newOwner",
          "type": "address"
        }
      ],
      "name": "OwnershipTransferred",
      "type": "event"
    },
    {
      "anonymous": false,
      "inputs": [
        {
          "indexed": false,
          "internalType": "address",
          "name": "_newStabilityPoolAddress",
          "type": "address"
        }
      ],
      "name": "StabilityPoolAddressChanged",
      "type": "event"
    },
    {
      "anonymous": false,
      "inputs": [
        {
          "indexed": false,
          "internalType": "address",
          "name": "_newTroveManagerAddress",
          "type": "address"
        }
      ],
      "name": "TroveManagerAddressChanged",
      "type": "event"
    },
    {
      "anonymous": false,
      "inputs": [
        {
          "indexed": false,
          "internalType": "uint256",
          "name": "_newBalance",
          "type": "uint256"
        }
      ],
      "name": "ZKUSDBalanceUpdated",
      "type": "event"
    },
    {
      "inputs": [],
      "name": "NAME",
      "outputs": [
        {
          "internalType": "string",
          "name": "",
          "type": "string"
        }
      ],
      "stateMutability": "view",
      "type": "function"
    },
    {
      "inputs": [],
      "name": "borrowerOperationsAddress",
      "outputs": [
        {
          "internalType": "address",
          "name": "",
          "type": "address"
        }
      ],
      "stateMutability": "view",
      "type": "function"
    },
    {
      "inputs": [
        {
          "internalType": "uint256",
          "name": "_amount",
          "type": "uint256"
        }
      ],
      "name": "decreaseZKUSDDebt",
      "outputs": [],
      "stateMutability": "nonpayable",
      "type": "function"
    },
    {
      "inputs": [],
      "name": "defaultPoolAddress",
      "outputs": [
        {
          "internalType": "address",
          "name": "",
          "type": "address"
        }
      ],
      "stateMutability": "view",
      "type": "function"
    },
    {
      "inputs": [],
      "name": "getNEON",
      "outputs": [
        {
          "internalType": "uint256",
          "name": "",
          "type": "uint256"
        }
      ],
      "stateMutability": "view",
      "type": "function"
    },
    {
      "inputs": [],
      "name": "getZKUSDDebt",
      "outputs": [
        {
          "internalType": "uint256",
          "name": "",
          "type": "uint256"
        }
      ],
      "stateMutability": "view",
      "type": "function"
    },
    {
      "inputs": [
        {
          "internalType": "uint256",
          "name": "_amount",
          "type": "uint256"
        }
      ],
      "name": "increaseZKUSDDebt",
      "outputs": [],
      "stateMutability": "nonpayable",
      "type": "function"
    },
    {
      "inputs": [],
      "name": "owner",
      "outputs": [
        {
          "internalType": "address",
          "name": "",
          "type": "address"
        }
      ],
      "stateMutability": "view",
      "type": "function"
    },
    {
      "inputs": [],
      "name": "renounceOwnership",
      "outputs": [],
      "stateMutability": "nonpayable",
      "type": "function"
    },
    {
      "inputs": [
        {
          "internalType": "address",
          "name": "_account",
          "type": "address"
        },
        {
          "internalType": "uint256",
          "name": "_amount",
          "type": "uint256"
        }
      ],
      "name": "sendNEON",
      "outputs": [],
      "stateMutability": "nonpayable",
      "type": "function"
    },
    {
      "inputs": [
        {
          "internalType": "address",
          "name": "_borrowerOperationsAddress",
          "type": "address"
        },
        {
          "internalType": "address",
          "name": "_troveManagerAddress",
          "type": "address"
        },
        {
          "internalType": "address",
          "name": "_stabilityPoolAddress",
          "type": "address"
        },
        {
          "internalType": "address",
          "name": "_defaultPoolAddress",
          "type": "address"
        }
      ],
      "name": "setAddresses",
      "outputs": [],
      "stateMutability": "nonpayable",
      "type": "function"
    },
    {
      "inputs": [],
      "name": "stabilityPoolAddress",
      "outputs": [
        {
          "internalType": "address",
          "name": "",
          "type": "address"
        }
      ],
      "stateMutability": "view",
      "type": "function"
    },
    {
      "inputs": [
        {
          "internalType": "address",
          "name": "newOwner",
          "type": "address"
        }
      ],
      "name": "transferOwnership",
      "outputs": [],
      "stateMutability": "nonpayable",
      "type": "function"
    },
    {
      "inputs": [],
      "name": "troveManagerAddress",
      "outputs": [
        {
          "internalType": "address",
          "name": "",
          "type": "address"
        }
      ],
      "stateMutability": "view",
      "type": "function"
    },
    {
      "stateMutability": "payable",
      "type": "receive"
    }
  ],
  "transactionHash": "0x47b4e1ec21d61e8b1d93b0516c40914123d5ead448040ca4bd18c894d8e56c6e",
  "args": [],
  "numDeployments": 1,
  "solcInputHash": "035045f1e037f3a6258fc3cece2987fc",
  "bytecode": "0x608060405234801561001057600080fd5b5061001a3361001f565b61006f565b600080546001600160a01b038381166001600160a01b0319831681178455604051919092169283917f8be0079c531659141344cd1fd0a4f28419497f9722a3daafe3b4186f6b6457e09190a35050565b610bad8061007e6000396000f3fe6080604052600436106100e15760003560e01c80638da5cb5b1161007f578063aac1846f11610059578063aac1846f146102a3578063b7f8cf9b146102c3578063e66675ca146102e3578063f2fde38b1461030357600080fd5b80638da5cb5b1461022d578063933463191461024b578063a3f4df7e1461026057600080fd5b8063512a9ebb116100bb578063512a9ebb146101b95780635a4d28bb146101d85780636b05e977146101f8578063715018a61461021857600080fd5b80630b622ab21461013a5780632d7c8108146101775780634a945f8d1461019957600080fd5b36610135576100ee610323565b6005546100fb90346103bf565b60058190556040519081527f08c58e6f53878a1fb6f2e7d50eeb9218d74cb336a524032668f25b637ade19c89060200160405180910390a1005b600080fd5b34801561014657600080fd5b5060035461015a906001600160a01b031681565b6040516001600160a01b0390911681526020015b60405180910390f35b34801561018357600080fd5b50610197610192366004610a48565b6103d4565b005b3480156101a557600080fd5b506101976101b4366004610a7d565b610424565b3480156101c557600080fd5b506006545b60405190815260200161016e565b3480156101e457600080fd5b5060025461015a906001600160a01b031681565b34801561020457600080fd5b50610197610213366004610a48565b610592565b34801561022457600080fd5b506101976105a7565b34801561023957600080fd5b506000546001600160a01b031661015a565b34801561025757600080fd5b506005546101ca565b34801561026c57600080fd5b506102966040518060400160405280600a8152602001691058dd1a5d99541bdbdb60b21b81525081565b60405161016e9190610ad1565b3480156102af57600080fd5b5060045461015a906001600160a01b031681565b3480156102cf57600080fd5b5060015461015a906001600160a01b031681565b3480156102ef57600080fd5b506101976102fe366004610b1f565b6105b9565b34801561030f57600080fd5b5061019761031e366004610b49565b6106f0565b6001546001600160a01b031633148061034657506004546001600160a01b031633145b6103bd5760405162461bcd60e51b815260206004820152603160248201527f416374697665506f6f6c3a2043616c6c6572206973206e65697468657220424f60448201527f206e6f722044656661756c7420506f6f6c00000000000000000000000000000060648201526084015b60405180910390fd5b565b60006103cb8284610b7a565b90505b92915050565b6103dc610769565b6006546103e99082610839565b60068190556040519081527fc1cbcea63f02b851620382ea5d17f629c3eb5925538657d24e9aefee4ae2b5c89060200160405180910390a150565b61042c610845565b6104358461089f565b61043e8361089f565b6104478261089f565b6104508161089f565b600180546001600160a01b0386811673ffffffffffffffffffffffffffffffffffffffff199283168117909355600280548783169084161790556003805486831690841617905560048054918516919092161790556040519081527f3ca631ffcd2a9b5d9ae18543fc82f58eb4ca33af9e6ab01b7a8e95331e6ed9859060200160405180910390a16040516001600160a01b03841681527f143219c9e69b09e07e095fcc889b43d8f46ca892bba65f08dc3a0050869a56789060200160405180910390a16040516001600160a01b03831681527f82966d27eea39b038ee0fa30cd16532bb24f6e65d31cb58fb227aa5766cdcc7f9060200160405180910390a16040516001600160a01b03821681527f5ee0cae2f063ed938bb55046f6a932fb6ae792bf43624806bb90abe68a50be9b9060200160405180910390a150505050565b61059a61094c565b6006546103e990826103bf565b6105af610845565b6103bd60006109eb565b6105c1610769565b6005546105ce9082610839565b60058190556040519081527f08c58e6f53878a1fb6f2e7d50eeb9218d74cb336a524032668f25b637ade19c89060200160405180910390a1604080516001600160a01b0384168152602081018390527f6109e2559dfa766aaec7118351d48a523f0a4157f49c8d68749c8ac41318ad12910160405180910390a16000826001600160a01b03168260405160006040518083038185875af1925050503d8060008114610695576040519150601f19603f3d011682016040523d82523d6000602084013e61069a565b606091505b50509050806106eb5760405162461bcd60e51b815260206004820152601f60248201527f416374697665506f6f6c3a2073656e64696e67204e454f4e206661696c65640060448201526064016103b4565b505050565b6106f8610845565b6001600160a01b03811661075d5760405162461bcd60e51b815260206004820152602660248201527f4f776e61626c653a206e6577206f776e657220697320746865207a65726f206160448201526564647265737360d01b60648201526084016103b4565b610766816109eb565b50565b6001546001600160a01b031633148061078c57506002546001600160a01b031633145b806107a157506003546001600160a01b031633145b6103bd5760405162461bcd60e51b815260206004820152605360248201527f416374697665506f6f6c3a2043616c6c6572206973206e65697468657220426f60448201527f72726f7765724f7065726174696f6e73206e6f722054726f76654d616e61676560648201527f72206e6f722053746162696c697479506f6f6c00000000000000000000000000608482015260a4016103b4565b60006103cb8284610b8d565b6000546001600160a01b031633146103bd5760405162461bcd60e51b815260206004820181905260248201527f4f776e61626c653a2063616c6c6572206973206e6f7420746865206f776e657260448201526064016103b4565b6001600160a01b0381166108f55760405162461bcd60e51b815260206004820152601e60248201527f4163636f756e742063616e6e6f74206265207a65726f2061646472657373000060448201526064016103b4565b6001600160a01b0381163b6107665760405162461bcd60e51b815260206004820181905260248201527f4163636f756e7420636f64652073697a652063616e6e6f74206265207a65726f60448201526064016103b4565b6001546001600160a01b031633148061096f57506002546001600160a01b031633145b6103bd5760405162461bcd60e51b815260206004820152604160248201527f416374697665506f6f6c3a2043616c6c6572206973206e65697468657220426f60448201527f72726f7765724f7065726174696f6e73206e6f722054726f76654d616e6167656064820152603960f91b608482015260a4016103b4565b600080546001600160a01b0383811673ffffffffffffffffffffffffffffffffffffffff19831681178455604051919092169283917f8be0079c531659141344cd1fd0a4f28419497f9722a3daafe3b4186f6b6457e09190a35050565b600060208284031215610a5a57600080fd5b5035919050565b80356001600160a01b0381168114610a7857600080fd5b919050565b60008060008060808587031215610a9357600080fd5b610a9c85610a61565b9350610aaa60208601610a61565b9250610ab860408601610a61565b9150610ac660608601610a61565b905092959194509250565b600060208083528351808285015260005b81811015610afe57858101830151858201604001528201610ae2565b506000604082860101526040601f19601f8301168501019250505092915050565b60008060408385031215610b3257600080fd5b610b3b83610a61565b946020939093013593505050565b600060208284031215610b5b57600080fd5b6103cb82610a61565b634e487b7160e01b600052601160045260246000fd5b808201808211156103ce576103ce610b64565b818103818111156103ce576103ce610b6456fea164736f6c6343000811000a",
  "devdoc": {
    "kind": "dev",
    "methods": {
      "owner()": {
        "details": "Returns the address of the current owner."
      },
      "renounceOwnership()": {
        "details": "Leaves the contract without owner. It will not be possible to call `onlyOwner` functions. Can only be called by the current owner. NOTE: Renouncing ownership will leave the contract without an owner, thereby disabling any functionality that is only available to the owner."
      },
      "transferOwnership(address)": {
        "details": "Transfers ownership of the contract to a new account (`newOwner`). Can only be called by the current owner."
      }
    },
    "version": 1
  },
  "userdoc": {
    "kind": "user",
    "methods": {},
    "version": 1
  },
  "storageLayout": {
    "storage": [
      {
        "astId": 53,
        "contract": "contracts/protocol/ActivePool.sol:ActivePool",
        "label": "_owner",
        "offset": 0,
        "slot": "0",
        "type": "t_address"
      },
      {
        "astId": 8293,
        "contract": "contracts/protocol/ActivePool.sol:ActivePool",
        "label": "borrowerOperationsAddress",
        "offset": 0,
        "slot": "1",
        "type": "t_address"
      },
      {
        "astId": 8295,
        "contract": "contracts/protocol/ActivePool.sol:ActivePool",
        "label": "troveManagerAddress",
        "offset": 0,
        "slot": "2",
        "type": "t_address"
      },
      {
        "astId": 8297,
        "contract": "contracts/protocol/ActivePool.sol:ActivePool",
        "label": "stabilityPoolAddress",
        "offset": 0,
        "slot": "3",
        "type": "t_address"
      },
      {
        "astId": 8299,
        "contract": "contracts/protocol/ActivePool.sol:ActivePool",
        "label": "defaultPoolAddress",
        "offset": 0,
        "slot": "4",
        "type": "t_address"
      },
      {
        "astId": 8301,
        "contract": "contracts/protocol/ActivePool.sol:ActivePool",
        "label": "NEON",
        "offset": 0,
        "slot": "5",
        "type": "t_uint256"
      },
      {
        "astId": 8303,
        "contract": "contracts/protocol/ActivePool.sol:ActivePool",
        "label": "ZKUSDDebt",
        "offset": 0,
        "slot": "6",
        "type": "t_uint256"
      }
    ],
    "types": {
      "t_address": {
        "encoding": "inplace",
        "label": "address",
        "numberOfBytes": "20"
      },
      "t_uint256": {
        "encoding": "inplace",
        "label": "uint256",
        "numberOfBytes": "32"
      }
    }
  }
}