{
  "address": "0xa84E7097FEB261532B91b6f551C9416659D4bfb0",
  "abi": [
    {
      "anonymous": false,
      "inputs": [
        {
          "indexed": false,
          "internalType": "address",
          "name": "_activePoolAddress",
          "type": "address"
        }
      ],
      "name": "ActivePoolAddressChanged",
      "type": "event"
    },
    {
      "anonymous": false,
      "inputs": [
        {
          "indexed": false,
          "internalType": "address",
          "name": "_collSurplusPoolAddress",
          "type": "address"
        }
      ],
      "name": "CollSurplusPoolAddressChanged",
      "type": "event"
    },
    {
      "anonymous": false,
      "inputs": [
        {
          "indexed": false,
          "internalType": "address",
          "name": "_defaultPoolAddress",
          "type": "address"
        }
      ],
      "name": "DefaultPoolAddressChanged",
      "type": "event"
    },
    {
      "anonymous": false,
      "inputs": [
        {
          "indexed": false,
          "internalType": "address",
          "name": "_gasPoolAddress",
          "type": "address"
        }
      ],
      "name": "GasPoolAddressChanged",
      "type": "event"
    },
    {
      "anonymous": false,
      "inputs": [
        {
          "indexed": true,
          "internalType": "address",
          "name": "previousOwner",
          "type": "address"
        },
        {
          "indexed": true,
          "internalType": "address",
          "name": "newOwner",
          "type": "address"
        }
      ],
      "name": "OwnershipTransferred",
      "type": "event"
    },
    {
      "anonymous": false,
      "inputs": [
        {
          "indexed": false,
          "internalType": "address",
          "name": "_newPriceFeedAddress",
          "type": "address"
        }
      ],
      "name": "PriceFeedAddressChanged",
      "type": "event"
    },
    {
      "anonymous": false,
      "inputs": [
        {
          "indexed": false,
          "internalType": "address",
          "name": "_sortedTrovesAddress",
          "type": "address"
        }
      ],
      "name": "SortedTrovesAddressChanged",
      "type": "event"
    },
    {
      "anonymous": false,
      "inputs": [
        {
          "indexed": false,
          "internalType": "address",
          "name": "_stabilityPoolAddress",
          "type": "address"
        }
      ],
      "name": "StabilityPoolAddressChanged",
      "type": "event"
    },
    {
      "anonymous": false,
      "inputs": [
        {
          "indexed": true,
          "internalType": "address",
          "name": "_borrower",
          "type": "address"
        },
        {
          "indexed": false,
          "internalType": "uint256",
          "name": "arrayIndex",
          "type": "uint256"
        }
      ],
      "name": "TroveCreated",
      "type": "event"
    },
    {
      "anonymous": false,
      "inputs": [
        {
          "indexed": false,
          "internalType": "address",
          "name": "_newTroveManagerAddress",
          "type": "address"
        }
      ],
      "name": "TroveManagerAddressChanged",
      "type": "event"
    },
    {
      "anonymous": false,
      "inputs": [
        {
          "indexed": true,
          "internalType": "address",
          "name": "_borrower",
          "type": "address"
        },
        {
          "indexed": false,
          "internalType": "uint256",
          "name": "_debt",
          "type": "uint256"
        },
        {
          "indexed": false,
          "internalType": "uint256",
          "name": "_coll",
          "type": "uint256"
        },
        {
          "indexed": false,
          "internalType": "uint256",
          "name": "stake",
          "type": "uint256"
        },
        {
          "indexed": false,
          "internalType": "enum IBorrowerOperations.Operation",
          "name": "operation",
          "type": "uint8"
        }
      ],
      "name": "TroveUpdated",
      "type": "event"
    },
    {
      "anonymous": false,
      "inputs": [
        {
          "indexed": false,
          "internalType": "address",
          "name": "_zktStakingAddress",
          "type": "address"
        }
      ],
      "name": "ZKTStakingAddressChanged",
      "type": "event"
    },
    {
      "anonymous": false,
      "inputs": [
        {
          "indexed": true,
          "internalType": "address",
          "name": "_borrower",
          "type": "address"
        },
        {
          "indexed": false,
          "internalType": "uint256",
          "name": "_ZKUSDFee",
          "type": "uint256"
        }
      ],
      "name": "ZKUSDBorrowingFeePaid",
      "type": "event"
    },
    {
      "anonymous": false,
      "inputs": [
        {
          "indexed": false,
          "internalType": "address",
          "name": "_zkusdTokenAddress",
          "type": "address"
        }
      ],
      "name": "ZKUSDTokenAddressChanged",
      "type": "event"
    },
    {
      "inputs": [],
      "name": "BORROWING_FEE_FLOOR",
      "outputs": [
        {
          "internalType": "uint256",
          "name": "",
          "type": "uint256"
        }
      ],
      "stateMutability": "view",
      "type": "function"
    },
    {
      "inputs": [],
      "name": "CCR",
      "outputs": [
        {
          "internalType": "uint256",
          "name": "",
          "type": "uint256"
        }
      ],
      "stateMutability": "view",
      "type": "function"
    },
    {
      "inputs": [],
      "name": "DECIMAL_PRECISION",
      "outputs": [
        {
          "internalType": "uint256",
          "name": "",
          "type": "uint256"
        }
      ],
      "stateMutability": "view",
      "type": "function"
    },
    {
      "inputs": [],
      "name": "MCR",
      "outputs": [
        {
          "internalType": "uint256",
          "name": "",
          "type": "uint256"
        }
      ],
      "stateMutability": "view",
      "type": "function"
    },
    {
      "inputs": [],
      "name": "MIN_NET_DEBT",
      "outputs": [
        {
          "internalType": "uint256",
          "name": "",
          "type": "uint256"
        }
      ],
      "stateMutability": "view",
      "type": "function"
    },
    {
      "inputs": [],
      "name": "NAME",
      "outputs": [
        {
          "internalType": "string",
          "name": "",
          "type": "string"
        }
      ],
      "stateMutability": "view",
      "type": "function"
    },
    {
      "inputs": [],
      "name": "PERCENT_DIVISOR",
      "outputs": [
        {
          "internalType": "uint256",
          "name": "",
          "type": "uint256"
        }
      ],
      "stateMutability": "view",
      "type": "function"
    },
    {
      "inputs": [],
      "name": "ZKUSD_GAS_COMPENSATION",
      "outputs": [
        {
          "internalType": "uint256",
          "name": "",
          "type": "uint256"
        }
      ],
      "stateMutability": "view",
      "type": "function"
    },
    {
      "inputs": [],
      "name": "_100pct",
      "outputs": [
        {
          "internalType": "uint256",
          "name": "",
          "type": "uint256"
        }
      ],
      "stateMutability": "view",
      "type": "function"
    },
    {
      "inputs": [],
      "name": "activePool",
      "outputs": [
        {
          "internalType": "contract IActivePool",
          "name": "",
          "type": "address"
        }
      ],
      "stateMutability": "view",
      "type": "function"
    },
    {
      "inputs": [
        {
          "internalType": "address",
          "name": "_upperHint",
          "type": "address"
        },
        {
          "internalType": "address",
          "name": "_lowerHint",
          "type": "address"
        }
      ],
      "name": "addColl",
      "outputs": [],
      "stateMutability": "payable",
      "type": "function"
    },
    {
      "inputs": [
        {
          "internalType": "uint256",
          "name": "_maxFeePercentage",
          "type": "uint256"
        },
        {
          "internalType": "uint256",
          "name": "_collWithdrawal",
          "type": "uint256"
        },
        {
          "internalType": "uint256",
          "name": "_ZKUSDChange",
          "type": "uint256"
        },
        {
          "internalType": "bool",
          "name": "_isDebtIncrease",
          "type": "bool"
        },
        {
          "internalType": "address",
          "name": "_upperHint",
          "type": "address"
        },
        {
          "internalType": "address",
          "name": "_lowerHint",
          "type": "address"
        }
      ],
      "name": "adjustTrove",
      "outputs": [],
      "stateMutability": "payable",
      "type": "function"
    },
    {
      "inputs": [],
      "name": "claimCollateral",
      "outputs": [],
      "stateMutability": "nonpayable",
      "type": "function"
    },
    {
      "inputs": [],
      "name": "closeTrove",
      "outputs": [],
      "stateMutability": "nonpayable",
      "type": "function"
    },
    {
      "inputs": [],
      "name": "defaultPool",
      "outputs": [
        {
          "internalType": "contract IDefaultPool",
          "name": "",
          "type": "address"
        }
      ],
      "stateMutability": "view",
      "type": "function"
    },
    {
      "inputs": [
        {
          "internalType": "uint256",
          "name": "_debt",
          "type": "uint256"
        }
      ],
      "name": "getCompositeDebt",
      "outputs": [
        {
          "internalType": "uint256",
          "name": "",
          "type": "uint256"
        }
      ],
      "stateMutability": "pure",
      "type": "function"
    },
    {
      "inputs": [],
      "name": "getEntireSystemColl",
      "outputs": [
        {
          "internalType": "uint256",
          "name": "entireSystemColl",
          "type": "uint256"
        }
      ],
      "stateMutability": "view",
      "type": "function"
    },
    {
      "inputs": [],
      "name": "getEntireSystemDebt",
      "outputs": [
        {
          "internalType": "uint256",
          "name": "entireSystemDebt",
          "type": "uint256"
        }
      ],
      "stateMutability": "view",
      "type": "function"
    },
    {
      "inputs": [
        {
          "internalType": "address",
          "name": "_borrower",
          "type": "address"
        },
        {
          "internalType": "address",
          "name": "_upperHint",
          "type": "address"
        },
        {
          "internalType": "address",
          "name": "_lowerHint",
          "type": "address"
        }
      ],
      "name": "moveNEONGainToTrove",
      "outputs": [],
      "stateMutability": "payable",
      "type": "function"
    },
    {
      "inputs": [
        {
          "internalType": "uint256",
          "name": "_maxFeePercentage",
          "type": "uint256"
        },
        {
          "internalType": "uint256",
          "name": "_ZKUSDAmount",
          "type": "uint256"
        },
        {
          "internalType": "address",
          "name": "_upperHint",
          "type": "address"
        },
        {
          "internalType": "address",
          "name": "_lowerHint",
          "type": "address"
        }
      ],
      "name": "openTrove",
      "outputs": [],
      "stateMutability": "payable",
      "type": "function"
    },
    {
      "inputs": [],
      "name": "owner",
      "outputs": [
        {
          "internalType": "address",
          "name": "",
          "type": "address"
        }
      ],
      "stateMutability": "view",
      "type": "function"
    },
    {
      "inputs": [],
      "name": "priceFeed",
      "outputs": [
        {
          "internalType": "contract IPriceFeed",
          "name": "",
          "type": "address"
        }
      ],
      "stateMutability": "view",
      "type": "function"
    },
    {
      "inputs": [],
      "name": "renounceOwnership",
      "outputs": [],
      "stateMutability": "nonpayable",
      "type": "function"
    },
    {
      "inputs": [
        {
          "internalType": "uint256",
          "name": "_ZKUSDAmount",
          "type": "uint256"
        },
        {
          "internalType": "address",
          "name": "_upperHint",
          "type": "address"
        },
        {
          "internalType": "address",
          "name": "_lowerHint",
          "type": "address"
        }
      ],
      "name": "repayZKUSD",
      "outputs": [],
      "stateMutability": "nonpayable",
      "type": "function"
    },
    {
      "inputs": [
        {
          "internalType": "address",
          "name": "_troveManagerAddress",
          "type": "address"
        },
        {
          "internalType": "address",
          "name": "_activePoolAddress",
          "type": "address"
        },
        {
          "internalType": "address",
          "name": "_defaultPoolAddress",
          "type": "address"
        },
        {
          "internalType": "address",
          "name": "_stabilityPoolAddress",
          "type": "address"
        },
        {
          "internalType": "address",
          "name": "_gasPoolAddress",
          "type": "address"
        },
        {
          "internalType": "address",
          "name": "_collSurplusPoolAddress",
          "type": "address"
        },
        {
          "internalType": "address",
          "name": "_priceFeedAddress",
          "type": "address"
        },
        {
          "internalType": "address",
          "name": "_sortedTrovesAddress",
          "type": "address"
        },
        {
          "internalType": "address",
          "name": "_zkusdTokenAddress",
          "type": "address"
        },
        {
          "internalType": "address",
          "name": "_zktStakingAddress",
          "type": "address"
        }
      ],
      "name": "setAddresses",
      "outputs": [],
      "stateMutability": "nonpayable",
      "type": "function"
    },
    {
      "inputs": [],
      "name": "sortedTroves",
      "outputs": [
        {
          "internalType": "contract ISortedTroves",
          "name": "",
          "type": "address"
        }
      ],
      "stateMutability": "view",
      "type": "function"
    },
    {
      "inputs": [
        {
          "internalType": "address",
          "name": "newOwner",
          "type": "address"
        }
      ],
      "name": "transferOwnership",
      "outputs": [],
      "stateMutability": "nonpayable",
      "type": "function"
    },
    {
      "inputs": [],
      "name": "troveManager",
      "outputs": [
        {
          "internalType": "contract ITroveManager",
          "name": "",
          "type": "address"
        }
      ],
      "stateMutability": "view",
      "type": "function"
    },
    {
      "inputs": [
        {
          "internalType": "uint256",
          "name": "_collWithdrawal",
          "type": "uint256"
        },
        {
          "internalType": "address",
          "name": "_upperHint",
          "type": "address"
        },
        {
          "internalType": "address",
          "name": "_lowerHint",
          "type": "address"
        }
      ],
      "name": "withdrawColl",
      "outputs": [],
      "stateMutability": "nonpayable",
      "type": "function"
    },
    {
      "inputs": [
        {
          "internalType": "uint256",
          "name": "_maxFeePercentage",
          "type": "uint256"
        },
        {
          "internalType": "uint256",
          "name": "_ZKUSDAmount",
          "type": "uint256"
        },
        {
          "internalType": "address",
          "name": "_upperHint",
          "type": "address"
        },
        {
          "internalType": "address",
          "name": "_lowerHint",
          "type": "address"
        }
      ],
      "name": "withdrawZKUSD",
      "outputs": [],
      "stateMutability": "nonpayable",
      "type": "function"
    },
    {
      "inputs": [],
      "name": "zktStaking",
      "outputs": [
        {
          "internalType": "contract IZKTStaking",
          "name": "",
          "type": "address"
        }
      ],
      "stateMutability": "view",
      "type": "function"
    },
    {
      "inputs": [],
      "name": "zktStakingAddress",
      "outputs": [
        {
          "internalType": "address",
          "name": "",
          "type": "address"
        }
      ],
      "stateMutability": "view",
      "type": "function"
    },
    {
      "inputs": [],
      "name": "zkusdToken",
      "outputs": [
        {
          "internalType": "contract IZKUSDToken",
          "name": "",
          "type": "address"
        }
      ],
      "stateMutability": "view",
      "type": "function"
    }
  ],
  "transactionHash": "0x6282cd419427e41dc64bffe0d9b4a30881898fc3c04bd92acc295dac98a36318",
  "args": [],
  "numDeployments": 1,
  "solcInputHash": "035045f1e037f3a6258fc3cece2987fc",
  "bytecode": "0x60806040523480156200001157600080fd5b506200001d3362000023565b62000075565b600380546001600160a01b038381166001600160a01b0319831681179093556040519116919082907f8be0079c531659141344cd1fd0a4f28419497f9722a3daafe3b4186f6b6457e090600090a35050565b61344a80620000856000396000f3fe6080604052600436106101ee5760003560e01c806372fe25aa1161010d578063a20baee6116100a0578063c192645b1161006f578063c192645b1461053c578063c6a6cf2014610559578063e34341ab1461056c578063f2fde38b1461058c578063f92d3433146105ac57600080fd5b8063a20baee6146103d3578063a3f4df7e146104a6578063ae918754146104fc578063b4bb222d1461051c57600080fd5b80637f7dde4a116100dc5780637f7dde4a14610440578063860665b314610460578063887105d3146104735780638da5cb5b1461048857600080fd5b806372fe25aa146103d3578063741bef1a146103ef578063794e57241461040f578063795d26c31461042b57600080fd5b80634ff814431161018557806368647db11161015457806368647db1146103765780636c37a4af146103895780636f0b0c1c146103a9578063715018a6146103be57600080fd5b80634ff81443146102fa5780635530273c1461031a5780635733d58f1461033a57806364248d081461035657600080fd5b806335a3f707116101c157806335a3f7071461026d5780633cc74225146102a55780633d83908a146102c55780634870dd9a146102e557600080fd5b80630e704d50146101f357806310e7dd391461020a5780631ac9b21c1461022a5780631bf435551461023d575b600080fd5b3480156101ff57600080fd5b506102086105c1565b005b34801561021657600080fd5b506102086102253660046130d2565b610972565b610208610238366004613118565b610989565b34801561024957600080fd5b5061025a6818650127cc3dc8000081565b6040519081526020015b60405180910390f35b34801561027957600080fd5b50600a5461028d906001600160a01b031681565b6040516001600160a01b039091168152602001610264565b3480156102b157600080fd5b5060015461028d906001600160a01b031681565b3480156102d157600080fd5b5060045461028d906001600160a01b031681565b3480156102f157600080fd5b5061025a60c881565b34801561030657600080fd5b5061025a61031536600461315b565b6109a8565b34801561032657600080fd5b50610208610335366004613174565b6109b9565b34801561034657600080fd5b5061025a6714d1120d7b16000081565b34801561036257600080fd5b50610208610371366004613174565b6109ca565b610208610384366004613199565b6109dc565b34801561039557600080fd5b506102086103a43660046131cc565b6109f2565b3480156103b557600080fd5b50610208610d57565b3480156103ca57600080fd5b50610208610db0565b3480156103df57600080fd5b5061025a670de0b6b3a764000081565b3480156103fb57600080fd5b5060025461028d906001600160a01b031681565b34801561041b57600080fd5b5061025a670f43fc2c04ee000081565b34801561043757600080fd5b5061025a610dc4565b34801561044c57600080fd5b5060005461028d906001600160a01b031681565b61020861046e3660046130d2565b610ec0565b34801561047f57600080fd5b5061025a6114b9565b34801561049457600080fd5b506003546001600160a01b031661028d565b3480156104b257600080fd5b506104ef6040518060400160405280601281526020017f426f72726f7765724f7065726174696f6e73000000000000000000000000000081525081565b6040516102649190613286565b34801561050857600080fd5b50600b5461028d906001600160a01b031681565b34801561052857600080fd5b5060095461028d906001600160a01b031681565b34801561054857600080fd5b5061025a6802b5e3af16b188000081565b6102086105673660046132d4565b61157e565b34801561057857600080fd5b5060085461028d906001600160a01b031681565b34801561059857600080fd5b506102086105a736600461333a565b611595565b3480156105b857600080fd5b5061025a611613565b600454600054600a546001600160a01b039283169291821691166105e58333611635565b60025460408051630fdb11cf60e01b815290516000926001600160a01b031691630fdb11cf916004808301926020929190829003018187875af1158015610630573d6000803e3d6000fd5b505050506040513d601f19601f820116820180604052508101906106549190613355565b905061065f8161170a565b604051630b07655760e01b81523360048201526001600160a01b03851690630b07655790602401600060405180830381600087803b1580156106a057600080fd5b505af11580156106b4573d6000803e3d6000fd5b50506040516309019aaf60e31b8152336004820152600092506001600160a01b038716915063480cd57890602401602060405180830381865afa1580156106ff573d6000803e3d6000fd5b505050506040513d601f19601f820116820180604052508101906107239190613355565b60405163d66a255360e01b81523360048201529091506000906001600160a01b0387169063d66a255390602401602060405180830381865afa15801561076d573d6000803e3d6000fd5b505050506040513d601f19601f820116820180604052508101906107919190613355565b90506107b084336107ab846802b5e3af16b1880000611786565b611799565b60006107c18360008460008861187a565b90506107cc816118ef565b604051631fc5750960e31b81523360048201526001600160a01b0388169063fe2ba84890602401600060405180830381600087803b15801561080d57600080fd5b505af1158015610821573d6000803e3d6000fd5b50506040516365e89c5760e11b81523360048201526001600160a01b038a16925063cbd138ae9150602401600060405180830381600087803b15801561086657600080fd5b505af115801561087a573d6000803e3d6000fd5b50505050336001600160a01b03167fc3770d654ed33aeea6bf11ac8ef05d02a6a04ed4686dd2f624d853bbec43cc8b600080600060016040516108c09493929190613390565b60405180910390a26108e68686336108e1866802b5e3af16b1880000611786565b61197d565b60065461090990879087906001600160a01b03166802b5e3af16b188000061197d565b6040516373333ae560e11b8152336004820152602481018490526001600160a01b0387169063e66675ca90604401600060405180830381600087803b15801561095157600080fd5b505af1158015610965573d6000803e3d6000fd5b5050505050505050505050565b61098333600085600186868a611a3f565b50505050565b61099161201c565b6109a383600080600086866000611a3f565b505050565b60006109b382612086565b92915050565b6109a3338460008086866000611a3f565b6109a333600085600086866000611a3f565b6109ee33600080600086866000611a3f565b5050565b6109fa61209b565b610a038a6120f5565b610a0c896120f5565b610a15886120f5565b610a1e876120f5565b610a27866120f5565b610a30856120f5565b610a39846120f5565b610a42836120f5565b610a4b826120f5565b610a54816120f5565b6004805473ffffffffffffffffffffffffffffffffffffffff199081166001600160a01b038d81169182179093556000805483168d85161790556001805483168c85161790556005805483168b85161790556006805483168a8516179055600780548316898516179055600280548316888516179055600b80548316878516179055600a8054831686851617905560098054831693851693841790556008805490921690921790556040519081527f143219c9e69b09e07e095fcc889b43d8f46ca892bba65f08dc3a0050869a56789060200160405180910390a16040516001600160a01b038a1681527f78f058b189175430c48dc02699e3a0031ea4ff781536dc2fab847de4babdd8829060200160405180910390a16040516001600160a01b03891681527f5ee0cae2f063ed938bb55046f6a932fb6ae792bf43624806bb90abe68a50be9b9060200160405180910390a16040516001600160a01b03881681527f82966d27eea39b038ee0fa30cd16532bb24f6e65d31cb58fb227aa5766cdcc7f9060200160405180910390a16040516001600160a01b03871681527fcfb07d791fcafc032b35837b50eb84b74df518cf4cc287e8084f47630fa70fa09060200160405180910390a16040516001600160a01b03861681527fe67f36a6e961157d6eff83b91f3af5a62131ceb6f04954ef74f51c1c05e7f88d9060200160405180910390a16040516001600160a01b03851681527f8c537274438aa850a330284665d81a85dd38267d09e4050d416bfc94142db2649060200160405180910390a16040516001600160a01b03841681527f65f4cf077bc01e4742eb5ad98326f6e95b63548ea24b17f8d5e823111fe788009060200160405180910390a16040516001600160a01b03831681527fbce04ccd812fbb02ec2145498f813470d7b7587b19477428388fe8201a1521319060200160405180910390a16040516001600160a01b03821681527f468634f5d5d4ec87457506a98d964db31fea0d63fc80a14ba75267970253ac149060200160405180910390a150505050505050505050565b60075460405163b32beb5b60e01b81523360048201526001600160a01b039091169063b32beb5b90602401600060405180830381600087803b158015610d9c57600080fd5b505af1158015610983573d6000803e3d6000fd5b610db861209b565b610dc260006121a2565b565b600080546040805163512a9ebb60e01b8152905183926001600160a01b03169163512a9ebb9160048083019260209291908290030181865afa158015610e0e573d6000803e3d6000fd5b505050506040513d601f19601f82011682018060405250810190610e329190613355565b90506000600160009054906101000a90046001600160a01b03166001600160a01b031663512a9ebb6040518163ffffffff1660e01b8152600401602060405180830381865afa158015610e89573d6000803e3d6000fd5b505050506040513d601f19601f82011682018060405250810190610ead9190613355565b9050610eb98282612201565b9250505090565b6040805160608082018352600480546001600160a01b039081168452600080548216602080870191909152600a548316868801528651610100810188528281528082018390528088018390529485018290526080850182905260a0850182905260c0850182905260e085018290526002548751630fdb11cf60e01b8152975196979596931694630fdb11cf948181019492939183900301908290875af1158015610f6e573d6000803e3d6000fd5b505050506040513d601f19601f82011682018060405250810190610f929190613355565b808252600090610fa19061220d565b9050610fad878261222a565b8251610fb99033612356565b6040820186905280610ff457610fd983600001518460400151888a612416565b602083018190526040830151610fee91612201565b60408301525b61100182604001516125b2565b61100e8260400151612086565b60608301819052611021576110216133b2565b6110343483606001518460000151612631565b60808301526060820151611049903490612663565b60a08301528015611066576110618260800151612692565b611099565b6110738260800151612710565b600061108c34600185606001516001876000015161187a565b9050611097816118ef565b505b8251604051635d6b480f60e01b8152336004820152600160248201526001600160a01b0390911690635d6b480f90604401600060405180830381600087803b1580156110e457600080fd5b505af11580156110f8573d6000803e3d6000fd5b505084516040516372423c1760e01b81523360048201523460248201526001600160a01b0390911692506372423c1791506044016020604051808303816000875af115801561114b573d6000803e3d6000fd5b505050506040513d601f19601f8201168201806040525081019061116f9190613355565b5082516060830151604051639976cf4560e01b815233600482015260248101919091526001600160a01b0390911690639976cf45906044016020604051808303816000875af11580156111c6573d6000803e3d6000fd5b505050506040513d601f19601f820116820180604052508101906111ea9190613355565b5082516040516382fe3eb960e01b81523360048201526001600160a01b03909116906382fe3eb990602401600060405180830381600087803b15801561122f57600080fd5b505af1158015611243573d6000803e3d6000fd5b50508451604051630c7940bd60e11b81523360048201526001600160a01b0390911692506318f2817a91506024016020604051808303816000875af1158015611290573d6000803e3d6000fd5b505050506040513d601f19601f820116820180604052508101906112b49190613355565b60c0830152600b5460a08301516040516346f7cf8760e01b815233600482015260248101919091526001600160a01b0387811660448301528681166064830152909116906346f7cf8790608401600060405180830381600087803b15801561131b57600080fd5b505af115801561132f573d6000803e3d6000fd5b505084516040516315d549f160e01b81523360048201526001600160a01b0390911692506315d549f191506024016020604051808303816000875af115801561137c573d6000803e3d6000fd5b505050506040513d601f19601f820116820180604052508101906113a09190613355565b60e0830181905260405190815233907f59cfd0cd754bc5748b6770e94a4ffa5f678d885cb899dcfadc5734edb97c67ab9060200160405180910390a26113ea83602001513461279e565b6114038360200151846040015133898660400151612856565b6020830151604084015160065461142f9291906001600160a01b03166802b5e3af16b188000080612856565b606082015160c083015160405133927fc3770d654ed33aeea6bf11ac8ef05d02a6a04ed4686dd2f624d853bbec43cc8b9261146f92349190600090613390565b60405180910390a260208083015160405190815233917f26990916a37e0f8569b3c9f7472730814e6e924fda9de44752b4fb9972ef333f910160405180910390a250505050505050565b6000805460408051639334631960e01b8152905183926001600160a01b03169163933463199160048083019260209291908290030181865afa158015611503573d6000803e3d6000fd5b505050506040513d601f19601f820116820180604052508101906115279190613355565b90506000600160009054906101000a90046001600160a01b03166001600160a01b031663933463196040518163ffffffff1660e01b8152600401602060405180830381865afa158015610e89573d6000803e3d6000fd5b61158d3386868686868c611a3f565b505050505050565b61159d61209b565b6001600160a01b0381166116075760405162461bcd60e51b815260206004820152602660248201527f4f776e61626c653a206e6577206f776e657220697320746865207a65726f206160448201526564647265737360d01b60648201526084015b60405180910390fd5b611610816121a2565b50565b6116276103e8670de0b6b3a76400006133de565b611632906005613400565b81565b6040516321e3780160e01b81526001600160a01b038281166004830152600091908416906321e3780190602401602060405180830381865afa15801561167f573d6000803e3d6000fd5b505050506040513d601f19601f820116820180604052508101906116a39190613355565b9050806001146109a35760405162461bcd60e51b815260206004820152602c60248201527f4f7065726174696f6e3a2054726f766520646f6573206e6f742065786973742060448201526b1bdc881a5cc818db1bdcd95960a21b60648201526084016115fe565b6117138161220d565b156116105760405162461bcd60e51b815260206004820152603760248201527f4f7065726174696f6e3a204f7065726174696f6e206e6f74207065726d69747460448201527f656420647572696e67205265636f76657279204d6f646500000000000000000060648201526084016115fe565b60006117928284613417565b9392505050565b6040516370a0823160e01b81526001600160a01b0383811660048301528291908516906370a0823190602401602060405180830381865afa1580156117e2573d6000803e3d6000fd5b505050506040513d601f19601f820116820180604052508101906118069190613355565b10156109a35760405162461bcd60e51b815260206004820152603c60248201527f4f7065726174696f6e3a2043616c6c657220646f65736e74206861766520656e60448201527f6f756768205a4b55534420746f206d616b652072657061796d656e740000000060648201526084016115fe565b6000806118856114b9565b90506000611891610dc4565b9050866118a7576118a28289611786565b6118b1565b6118b18289612201565b9150846118c7576118c28187611786565b6118d1565b6118d18187612201565b905060006118e0838387612631565b93505050505b95945050505050565b6714d1120d7b1600008110156116105760405162461bcd60e51b815260206004820152604760248201527f4f7065726174696f6e3a20416e206f7065726174696f6e207468617420776f7560448201527f6c6420726573756c7420696e20544352203c20434352206973206e6f742070656064820152661c9b5a5d1d195960ca1b608482015260a4016115fe565b6040516305af902160e31b8152600481018290526001600160a01b03851690632d7c810890602401600060405180830381600087803b1580156119bf57600080fd5b505af11580156119d3573d6000803e3d6000fd5b5050604051632770a7eb60e21b81526001600160a01b0385811660048301526024820185905286169250639dc29fac9150604401600060405180830381600087803b158015611a2157600080fd5b505af1158015611a35573d6000803e3d6000fd5b5050505050505050565b6040805160608082018352600480546001600160a01b039081168452600080548216602080870191909152600a5483168688015286516101a0810188528281528082018390528088018390529485018290526080850182905260a0850182905260c0850182905260e08501829052610100850182905261012085018290526101408501829052610160850182905261018085018290526002548751630fdb11cf60e01b8152975196979596931694630fdb11cf948181019492939183900301908290875af1158015611b15573d6000803e3d6000fd5b505050506040513d601f19601f82011682018060405250810190611b399190613355565b808252600090611b489061220d565b90508615611b6357611b5a848261222a565b611b6388612919565b611b6c8961298f565b611b768989612a0c565b8251611b82908b611635565b336001600160a01b038b161480611bb857506005546001600160a01b031633148015611bae5750600034115b8015611bb8575087155b611bc457611bc46133b2565b8251604051630b07655760e01b81526001600160a01b038c8116600483015290911690630b07655790602401600060405180830381600087803b158015611c0a57600080fd5b505af1158015611c1e573d6000803e3d6000fd5b50505050611c2c348a612aa3565b15156060840152602083015260408201889052868015611c4a575080155b15611c7f57611c63836000015184604001518a87612416565b61012083018190526040830151611c7991612201565b60408301525b825160405163d66a255360e01b81526001600160a01b038c811660048301529091169063d66a255390602401602060405180830381865afa158015611cc8573d6000803e3d6000fd5b505050506040513d601f19601f82011682018060405250810190611cec9190613355565b608083015282516040516309019aaf60e31b81526001600160a01b038c811660048301529091169063480cd57890602401602060405180830381865afa158015611d3a573d6000803e3d6000fd5b505050506040513d601f19601f82011682018060405250810190611d5e9190613355565b60a0830181905260808301518351611d77929190612631565b8260c0018181525050611da78260a0015183608001518460200151856060015186604001518c8860000151612ac2565b60e083015260a0820151891115611dc057611dc06133b2565b611dcc818a8985612af5565b86158015611dda5750600088115b15611e2757611e02611dfd8360400151611df78560800151612b69565b90611786565b6125b2565b611e1482608001518360400151612b7e565b611e2783604001518b8460400151611799565b611e4583600001518b8460200151856060015186604001518c612c10565b6101408401526101608301528251604051630c7940bd60e11b81526001600160a01b038c81166004830152909116906318f2817a906024016020604051808303816000875af1158015611e9c573d6000803e3d6000fd5b505050506040513d601f19601f82011682018060405250810190611ec09190613355565b826101800181815250506000611eee8360a0015184608001518560200151866060015187604001518d612e0a565b600b5460405163015f109360e51b81526001600160a01b038e81166004830152602482018490528a811660448301528981166064830152929350911690632be2126090608401600060405180830381600087803b158015611f4e57600080fd5b505af1158015611f62573d6000803e3d6000fd5b505050508a6001600160a01b03167fc3770d654ed33aeea6bf11ac8ef05d02a6a04ed4686dd2f624d853bbec43cc8b8461014001518561016001518661018001516002604051611fb59493929190613390565b60405180910390a261012083015160405190815233907f26990916a37e0f8569b3c9f7472730814e6e924fda9de44752b4fb9972ef333f9060200160405180910390a26109658460200151856040015133866020015187606001518e8e8a60400151612e3b565b6005546001600160a01b03163314610dc25760405162461bcd60e51b815260206004820152602760248201527f4f7065726174696f6e3a2043616c6c6572206973206e6f742053746162696c696044820152661d1e48141bdbdb60ca1b60648201526084016115fe565b60006109b3826802b5e3af16b1880000612201565b6003546001600160a01b03163314610dc25760405162461bcd60e51b815260206004820181905260248201527f4f776e61626c653a2063616c6c6572206973206e6f7420746865206f776e657260448201526064016115fe565b6001600160a01b03811661214b5760405162461bcd60e51b815260206004820152601e60248201527f4163636f756e742063616e6e6f74206265207a65726f2061646472657373000060448201526064016115fe565b6001600160a01b0381163b6116105760405162461bcd60e51b815260206004820181905260248201527f4163636f756e7420636f64652073697a652063616e6e6f74206265207a65726f60448201526064016115fe565b600380546001600160a01b0383811673ffffffffffffffffffffffffffffffffffffffff19831681179093556040519116919082907f8be0079c531659141344cd1fd0a4f28419497f9722a3daafe3b4186f6b6457e090600090a35050565b6000611792828461342a565b60008061221983612ee0565b6714d1120d7b160000119392505050565b80156122ae57670de0b6b3a76400008211156109ee5760405162461bcd60e51b815260206004820152603260248201527f4d6178206665652070657263656e74616765206d757374206c6573732074686160448201527f6e206f7220657175616c20746f2031303025000000000000000000000000000060648201526084016115fe565b6122c26103e8670de0b6b3a76400006133de565b6122cd906005613400565b82101580156122e45750670de0b6b3a76400008211155b6109ee5760405162461bcd60e51b815260206004820152603060248201527f4d6178206665652070657263656e74616765206d75737420626520626574776560448201527f656e20302e352520616e6420313030250000000000000000000000000000000060648201526084016115fe565b6040516321e3780160e01b81526001600160a01b038281166004830152600091908416906321e3780190602401602060405180830381865afa1580156123a0573d6000803e3d6000fd5b505050506040513d601f19601f820116820180604052508101906123c49190613355565b9050806001036109a35760405162461bcd60e51b815260206004820152601a60248201527f4f7065726174696f6e3a2054726f76652069732061637469766500000000000060448201526064016115fe565b6000846001600160a01b0316635dba4c4a6040518163ffffffff1660e01b8152600401600060405180830381600087803b15801561245357600080fd5b505af1158015612467573d6000803e3d6000fd5b5050604051630631203b60e41b815260048101869052600092506001600160a01b038816915063631203b090602401602060405180830381865afa1580156124b3573d6000803e3d6000fd5b505050506040513d601f19601f820116820180604052508101906124d79190613355565b90506124e4818585612f0c565b6008546040516318f40bcf60e11b8152600481018390526001600160a01b03909116906331e8179e90602401600060405180830381600087803b15801561252a57600080fd5b505af115801561253e573d6000803e3d6000fd5b50506009546040516340c10f1960e01b81526001600160a01b0391821660048201526024810185905290881692506340c10f199150604401600060405180830381600087803b15801561259057600080fd5b505af11580156125a4573d6000803e3d6000fd5b509298975050505050505050565b6818650127cc3dc800008110156116105760405162461bcd60e51b815260206004820152603860248201527f4f7065726174696f6e3a2054726f76652773206e65742064656274206d75737460448201527f2062652067726561746572207468616e206d696e696d756d000000000000000060648201526084016115fe565b6000821561265857600061264f846126498786612f76565b90612f82565b91506117929050565b506000199392505050565b6000811561268957612682826126498568056bc75e2d63100000612f76565b90506109b3565b506000196109b3565b6714d1120d7b1600008110156116105760405162461bcd60e51b815260206004820152603560248201527f4f7065726174696f6e3a204f7065726174696f6e206d757374206c656176652060448201527f74726f7665207769746820494352203e3d20434352000000000000000000000060648201526084016115fe565b670f43fc2c04ee00008110156116105760405162461bcd60e51b815260206004820152604760248201527f4f7065726174696f6e3a20416e206f7065726174696f6e207468617420776f7560448201527f6c6420726573756c7420696e20494352203c204d4352206973206e6f742070656064820152661c9b5a5d1d195960ca1b608482015260a4016115fe565b6000826001600160a01b03168260405160006040518083038185875af1925050503d80600081146127eb576040519150601f19603f3d011682016040523d82523d6000602084013e6127f0565b606091505b50509050806109a35760405162461bcd60e51b815260206004820152602c60248201527f4f7065726174696f6e3a2053656e64696e67204e454f4e20746f20416374697660448201526b19541bdbdb0819985a5b195960a21b60648201526084016115fe565b604051636b05e97760e01b8152600481018290526001600160a01b03861690636b05e97790602401600060405180830381600087803b15801561289857600080fd5b505af11580156128ac573d6000803e3d6000fd5b50506040516340c10f1960e01b81526001600160a01b03868116600483015260248201869052871692506340c10f199150604401600060405180830381600087803b1580156128fa57600080fd5b505af115801561290e573d6000803e3d6000fd5b505050505050505050565b600081116116105760405162461bcd60e51b815260206004820152603560248201527f4f7065726174696f6e3a204465627420696e637265617365207265717569726560448201527f73206e6f6e2d7a65726f20646562744368616e6765000000000000000000000060648201526084016115fe565b34158061299a575080155b6116105760405162461bcd60e51b815260206004820152603060248201527f426f72726f7765724f7065726174696f6e733a2043616e6e6f7420776974686460448201527f72617720616e642061646420636f6c6c0000000000000000000000000000000060648201526084016115fe565b34151580612a1957508115155b80612a2357508015155b6109ee5760405162461bcd60e51b8152602060048201526044602482018190527f4f7065726174696f6e3a205468657265206d7573742062652065697468657220908201527f6120636f6c6c61746572616c206368616e6765206f7220612064656274206368606482015263616e676560e01b608482015260a4016115fe565b6000808315612ab757508290506001612abb565b8291505b9250929050565b6000806000612ad58a8a8a8a8a8a612f8e565b915091506000612ae6838387612631565b9b9a5050505050505050505050565b8315612b2e57612b0483612fcc565b8115612b2957612b178160e00151612692565b612b298160e001518260c00151613040565b610983565b612b3b8160e00151612710565b612b5881602001518260600151836040015185856000015161187a565b6101008201819052610983906118ef565b60006109b3826802b5e3af16b1880000611786565b612b91826802b5e3af16b1880000611786565b8111156109ee5760405162461bcd60e51b815260206004820152604160248201527f4f7065726174696f6e3a20416d6f756e7420726570616964206d757374206e6f60448201527f74206265206c6172676572207468616e207468652054726f76652773206465626064820152601d60fa1b608482015260a4016115fe565b600080600085612c925760405163d3d6f84360e01b81526001600160a01b038981166004830152602482018990528a169063d3d6f843906044016020604051808303816000875af1158015612c69573d6000803e3d6000fd5b505050506040513d601f19601f82011682018060405250810190612c8d9190613355565b612d05565b6040516372423c1760e01b81526001600160a01b038981166004830152602482018990528a16906372423c17906044016020604051808303816000875af1158015612ce1573d6000803e3d6000fd5b505050506040513d601f19601f82011682018060405250810190612d059190613355565b9050600084612d8657604051630930874960e11b81526001600160a01b038a81166004830152602482018890528b16906312610e92906044016020604051808303816000875af1158015612d5d573d6000803e3d6000fd5b505050506040513d601f19601f82011682018060405250810190612d819190613355565b612df9565b604051639976cf4560e01b81526001600160a01b038a81166004830152602482018890528b1690639976cf45906044016020604051808303816000875af1158015612dd5573d6000803e3d6000fd5b505050506040513d601f19601f82011682018060405250810190612df99190613355565b919a91995090975050505050505050565b6000806000612e1d898989898989612f8e565b915091506000612e2d8383612663565b9a9950505050505050505050565b8115612e5357612e4e8888888685612856565b612e5f565b612e5f8888888661197d565b8315612e7457612e6f888661279e565b611a35565b6040516373333ae560e11b81526001600160a01b0387811660048301526024820187905289169063e66675ca90604401600060405180830381600087803b158015612ebe57600080fd5b505af1158015612ed2573d6000803e3d6000fd5b505050505050505050505050565b600080612eeb6114b9565b90506000612ef7610dc4565b9050612f04828286612631565b949350505050565b6000612f248361264986670de0b6b3a7640000612f76565b9050818111156109835760405162461bcd60e51b815260206004820152601d60248201527f4665652065786365656465642070726f7669646564206d6178696d756d00000060448201526064016115fe565b60006117928284613400565b600061179282846133de565b600080878786612fa757612fa28a89611786565b612fb1565b612fb18a89612201565b915084612fc257612d818987611786565b612df98987612201565b80156116105760405162461bcd60e51b815260206004820152603c60248201527f4f7065726174696f6e3a20436f6c6c61746572616c207769746864726177616c60448201527f206e6f74207065726d6974746564205265636f76657279204d6f64650000000060648201526084016115fe565b808210156109ee5760405162461bcd60e51b815260206004820152603c60248201527f4f7065726174696f6e3a2043616e6e6f7420646563726561736520796f75722060448201527f54726f766527732049435220696e205265636f76657279204d6f64650000000060648201526084016115fe565b80356001600160a01b03811681146130cd57600080fd5b919050565b600080600080608085870312156130e857600080fd5b84359350602085013592506130ff604086016130b6565b915061310d606086016130b6565b905092959194509250565b60008060006060848603121561312d57600080fd5b613136846130b6565b9250613144602085016130b6565b9150613152604085016130b6565b90509250925092565b60006020828403121561316d57600080fd5b5035919050565b60008060006060848603121561318957600080fd5b83359250613144602085016130b6565b600080604083850312156131ac57600080fd5b6131b5836130b6565b91506131c3602084016130b6565b90509250929050565b6000806000806000806000806000806101408b8d0312156131ec57600080fd5b6131f58b6130b6565b995061320360208c016130b6565b985061321160408c016130b6565b975061321f60608c016130b6565b965061322d60808c016130b6565b955061323b60a08c016130b6565b945061324960c08c016130b6565b935061325760e08c016130b6565b92506132666101008c016130b6565b91506132756101208c016130b6565b90509295989b9194979a5092959850565b600060208083528351808285015260005b818110156132b357858101830151858201604001528201613297565b506000604082860101526040601f19601f8301168501019250505092915050565b60008060008060008060c087890312156132ed57600080fd5b8635955060208701359450604087013593506060870135801515811461331257600080fd5b9250613320608088016130b6565b915061332e60a088016130b6565b90509295509295509295565b60006020828403121561334c57600080fd5b611792826130b6565b60006020828403121561336757600080fd5b5051919050565b6003811061338c57634e487b7160e01b600052602160045260246000fd5b9052565b8481526020810184905260408101839052608081016118e6606083018461336e565b634e487b7160e01b600052600160045260246000fd5b634e487b7160e01b600052601160045260246000fd5b6000826133fb57634e487b7160e01b600052601260045260246000fd5b500490565b80820281158282048414176109b3576109b36133c8565b818103818111156109b3576109b36133c8565b808201808211156109b3576109b36133c856fea164736f6c6343000811000a",
  "devdoc": {
    "kind": "dev",
    "methods": {
      "owner()": {
        "details": "Returns the address of the current owner."
      },
      "renounceOwnership()": {
        "details": "Leaves the contract without owner. It will not be possible to call `onlyOwner` functions. Can only be called by the current owner. NOTE: Renouncing ownership will leave the contract without an owner, thereby disabling any functionality that is only available to the owner."
      },
      "transferOwnership(address)": {
        "details": "Transfers ownership of the contract to a new account (`newOwner`). Can only be called by the current owner."
      }
    },
    "version": 1
  },
  "userdoc": {
    "kind": "user",
    "methods": {
      "claimCollateral()": {
        "notice": "Claim remaining collateral from a redemption or from a liquidation with ICR > MCR in Recovery Mode"
      }
    },
    "version": 1
  },
  "storageLayout": {
    "storage": [
      {
        "astId": 4126,
        "contract": "contracts/protocol/BorrowerOperations.sol:BorrowerOperations",
        "label": "activePool",
        "offset": 0,
        "slot": "0",
        "type": "t_contract(IActivePool)4320"
      },
      {
        "astId": 4129,
        "contract": "contracts/protocol/BorrowerOperations.sol:BorrowerOperations",
        "label": "defaultPool",
        "offset": 0,
        "slot": "1",
        "type": "t_contract(IDefaultPool)4673"
      },
      {
        "astId": 4132,
        "contract": "contracts/protocol/BorrowerOperations.sol:BorrowerOperations",
        "label": "priceFeed",
        "offset": 0,
        "slot": "2",
        "type": "t_contract(IPriceFeed)4759"
      },
      {
        "astId": 53,
        "contract": "contracts/protocol/BorrowerOperations.sol:BorrowerOperations",
        "label": "_owner",
        "offset": 0,
        "slot": "3",
        "type": "t_address"
      },
      {
        "astId": 8573,
        "contract": "contracts/protocol/BorrowerOperations.sol:BorrowerOperations",
        "label": "troveManager",
        "offset": 0,
        "slot": "4",
        "type": "t_contract(ITroveManager)5581"
      },
      {
        "astId": 8575,
        "contract": "contracts/protocol/BorrowerOperations.sol:BorrowerOperations",
        "label": "stabilityPoolAddress",
        "offset": 0,
        "slot": "5",
        "type": "t_address"
      },
      {
        "astId": 8577,
        "contract": "contracts/protocol/BorrowerOperations.sol:BorrowerOperations",
        "label": "gasPoolAddress",
        "offset": 0,
        "slot": "6",
        "type": "t_address"
      },
      {
        "astId": 8580,
        "contract": "contracts/protocol/BorrowerOperations.sol:BorrowerOperations",
        "label": "collSurplusPool",
        "offset": 0,
        "slot": "7",
        "type": "t_contract(ICollSurplusPool)4616"
      },
      {
        "astId": 8583,
        "contract": "contracts/protocol/BorrowerOperations.sol:BorrowerOperations",
        "label": "zktStaking",
        "offset": 0,
        "slot": "8",
        "type": "t_contract(IZKTStaking)5726"
      },
      {
        "astId": 8585,
        "contract": "contracts/protocol/BorrowerOperations.sol:BorrowerOperations",
        "label": "zktStakingAddress",
        "offset": 0,
        "slot": "9",
        "type": "t_address"
      },
      {
        "astId": 8588,
        "contract": "contracts/protocol/BorrowerOperations.sol:BorrowerOperations",
        "label": "zkusdToken",
        "offset": 0,
        "slot": "10",
        "type": "t_contract(IZKUSDToken)5817"
      },
      {
        "astId": 8591,
        "contract": "contracts/protocol/BorrowerOperations.sol:BorrowerOperations",
        "label": "sortedTroves",
        "offset": 0,
        "slot": "11",
        "type": "t_contract(ISortedTroves)4907"
      }
    ],
    "types": {
      "t_address": {
        "encoding": "inplace",
        "label": "address",
        "numberOfBytes": "20"
      },
      "t_contract(IActivePool)4320": {
        "encoding": "inplace",
        "label": "contract IActivePool",
        "numberOfBytes": "20"
      },
      "t_contract(ICollSurplusPool)4616": {
        "encoding": "inplace",
        "label": "contract ICollSurplusPool",
        "numberOfBytes": "20"
      },
      "t_contract(IDefaultPool)4673": {
        "encoding": "inplace",
        "label": "contract IDefaultPool",
        "numberOfBytes": "20"
      },
      "t_contract(IPriceFeed)4759": {
        "encoding": "inplace",
        "label": "contract IPriceFeed",
        "numberOfBytes": "20"
      },
      "t_contract(ISortedTroves)4907": {
        "encoding": "inplace",
        "label": "contract ISortedTroves",
        "numberOfBytes": "20"
      },
      "t_contract(ITroveManager)5581": {
        "encoding": "inplace",
        "label": "contract ITroveManager",
        "numberOfBytes": "20"
      },
      "t_contract(IZKTStaking)5726": {
        "encoding": "inplace",
        "label": "contract IZKTStaking",
        "numberOfBytes": "20"
      },
      "t_contract(IZKUSDToken)5817": {
        "encoding": "inplace",
        "label": "contract IZKUSDToken",
        "numberOfBytes": "20"
      }
    }
  }
}