{
  "address": "0x2154eeAC96610c77932DF01C360b803143184Ca8",
  "abi": [
    {
      "anonymous": false,
      "inputs": [
        {
          "indexed": false,
          "internalType": "address",
          "name": "_newActivePoolAddress",
          "type": "address"
        }
      ],
      "name": "ActivePoolAddressChanged",
      "type": "event"
    },
    {
      "anonymous": false,
      "inputs": [
        {
          "indexed": false,
          "internalType": "address",
          "name": "_newBorrowerOperationsAddress",
          "type": "address"
        }
      ],
      "name": "BorrowerOperationsAddressChanged",
      "type": "event"
    },
    {
      "anonymous": false,
      "inputs": [
        {
          "indexed": true,
          "internalType": "address",
          "name": "_account",
          "type": "address"
        },
        {
          "indexed": false,
          "internalType": "uint256",
          "name": "_newBalance",
          "type": "uint256"
        }
      ],
      "name": "CollBalanceUpdated",
      "type": "event"
    },
    {
      "anonymous": false,
      "inputs": [
        {
          "indexed": false,
          "internalType": "address",
          "name": "_to",
          "type": "address"
        },
        {
          "indexed": false,
          "internalType": "uint256",
          "name": "_amount",
          "type": "uint256"
        }
      ],
      "name": "EtherSent",
      "type": "event"
    },
    {
      "anonymous": false,
      "inputs": [
        {
          "indexed": true,
          "internalType": "address",
          "name": "previousOwner",
          "type": "address"
        },
        {
          "indexed": true,
          "internalType": "address",
          "name": "newOwner",
          "type": "address"
        }
      ],
      "name": "OwnershipTransferred",
      "type": "event"
    },
    {
      "anonymous": false,
      "inputs": [
        {
          "indexed": false,
          "internalType": "address",
          "name": "_newTroveManagerAddress",
          "type": "address"
        }
      ],
      "name": "TroveManagerAddressChanged",
      "type": "event"
    },
    {
      "inputs": [],
      "name": "NAME",
      "outputs": [
        {
          "internalType": "string",
          "name": "",
          "type": "string"
        }
      ],
      "stateMutability": "view",
      "type": "function"
    },
    {
      "inputs": [
        {
          "internalType": "address",
          "name": "_account",
          "type": "address"
        },
        {
          "internalType": "uint256",
          "name": "_amount",
          "type": "uint256"
        }
      ],
      "name": "accountSurplus",
      "outputs": [],
      "stateMutability": "nonpayable",
      "type": "function"
    },
    {
      "inputs": [],
      "name": "activePoolAddress",
      "outputs": [
        {
          "internalType": "address",
          "name": "",
          "type": "address"
        }
      ],
      "stateMutability": "view",
      "type": "function"
    },
    {
      "inputs": [],
      "name": "borrowerOperationsAddress",
      "outputs": [
        {
          "internalType": "address",
          "name": "",
          "type": "address"
        }
      ],
      "stateMutability": "view",
      "type": "function"
    },
    {
      "inputs": [
        {
          "internalType": "address",
          "name": "_account",
          "type": "address"
        }
      ],
      "name": "claimColl",
      "outputs": [],
      "stateMutability": "nonpayable",
      "type": "function"
    },
    {
      "inputs": [
        {
          "internalType": "address",
          "name": "_account",
          "type": "address"
        }
      ],
      "name": "getCollateral",
      "outputs": [
        {
          "internalType": "uint256",
          "name": "",
          "type": "uint256"
        }
      ],
      "stateMutability": "view",
      "type": "function"
    },
    {
      "inputs": [],
      "name": "getNEON",
      "outputs": [
        {
          "internalType": "uint256",
          "name": "",
          "type": "uint256"
        }
      ],
      "stateMutability": "view",
      "type": "function"
    },
    {
      "inputs": [],
      "name": "owner",
      "outputs": [
        {
          "internalType": "address",
          "name": "",
          "type": "address"
        }
      ],
      "stateMutability": "view",
      "type": "function"
    },
    {
      "inputs": [],
      "name": "renounceOwnership",
      "outputs": [],
      "stateMutability": "nonpayable",
      "type": "function"
    },
    {
      "inputs": [
        {
          "internalType": "address",
          "name": "_borrowerOperationsAddress",
          "type": "address"
        },
        {
          "internalType": "address",
          "name": "_troveManagerAddress",
          "type": "address"
        },
        {
          "internalType": "address",
          "name": "_activePoolAddress",
          "type": "address"
        }
      ],
      "name": "setAddresses",
      "outputs": [],
      "stateMutability": "nonpayable",
      "type": "function"
    },
    {
      "inputs": [
        {
          "internalType": "address",
          "name": "newOwner",
          "type": "address"
        }
      ],
      "name": "transferOwnership",
      "outputs": [],
      "stateMutability": "nonpayable",
      "type": "function"
    },
    {
      "inputs": [],
      "name": "troveManagerAddress",
      "outputs": [
        {
          "internalType": "address",
          "name": "",
          "type": "address"
        }
      ],
      "stateMutability": "view",
      "type": "function"
    },
    {
      "stateMutability": "payable",
      "type": "receive"
    }
  ],
  "transactionHash": "0xe66a5e5c4ff9ab5561901dcd8695637cd9b6f84e38005c293889aace43416271",
  "args": [],
  "numDeployments": 1,
  "solcInputHash": "cd2ace613c83861a481eb70c110172ac",
  "bytecode": "0x608060405234801561001057600080fd5b5061001a3361001f565b61006f565b600080546001600160a01b038381166001600160a01b0319831681178455604051919092169283917f8be0079c531659141344cd1fd0a4f28419497f9722a3daafe3b4186f6b6457e09190a35050565b610b068061007e6000396000f3fe6080604052600436106100cb5760003560e01c80639b56d6c911610074578063b32beb5b1161004e578063b32beb5b1461026e578063b7f8cf9b1461028e578063f2fde38b146102ae57600080fd5b80639b56d6c9146101c2578063a3f4df7e146101f8578063b08bc7221461024e57600080fd5b8063715018a6116100a5578063715018a6146101705780638da5cb5b1461018557806393346319146101a357600080fd5b8063363bf964146100f15780633f10abab146101135780635a4d28bb1461013357600080fd5b366100ec576100d86102ce565b6004546100e59034610342565b6004819055005b600080fd5b3480156100fd57600080fd5b5061011161010c3660046109e7565b610357565b005b34801561011f57600080fd5b5061011161012e366004610a2a565b610472565b34801561013f57600080fd5b50600254610153906001600160a01b031681565b6040516001600160a01b0390911681526020015b60405180910390f35b34801561017c57600080fd5b506101116104fb565b34801561019157600080fd5b506000546001600160a01b0316610153565b3480156101af57600080fd5b506004545b604051908152602001610167565b3480156101ce57600080fd5b506101b46101dd366004610a54565b6001600160a01b031660009081526005602052604090205490565b34801561020457600080fd5b506102416040518060400160405280600f81526020017f436f6c6c537572706c7573506f6f6c000000000000000000000000000000000081525081565b6040516101679190610a6f565b34801561025a57600080fd5b50600354610153906001600160a01b031681565b34801561027a57600080fd5b50610111610289366004610a54565b61050d565b34801561029a57600080fd5b50600154610153906001600160a01b031681565b3480156102ba57600080fd5b506101116102c9366004610a54565b6106f4565b6003546001600160a01b031633146103405760405162461bcd60e51b815260206004820152602a60248201527f436f6c6c537572706c7573506f6f6c3a2043616c6c6572206973206e6f74204160448201526918dd1a5d9948141bdbdb60b21b60648201526084015b60405180910390fd5b565b600061034e8284610ad3565b90505b92915050565b61035f61076d565b610368836107c7565b610371826107c7565b61037a816107c7565b600180546001600160a01b0385811673ffffffffffffffffffffffffffffffffffffffff1992831681179093556002805486831690841617905560038054918516919092161790556040519081527f3ca631ffcd2a9b5d9ae18543fc82f58eb4ca33af9e6ab01b7a8e95331e6ed9859060200160405180910390a16040516001600160a01b03831681527f143219c9e69b09e07e095fcc889b43d8f46ca892bba65f08dc3a0050869a56789060200160405180910390a16040516001600160a01b03821681527f78f058b189175430c48dc02699e3a0031ea4ff781536dc2fab847de4babdd8829060200160405180910390a1505050565b61047a610874565b6001600160a01b03821660009081526005602052604081205461049d9083610342565b6001600160a01b0384166000818152600560205260409081902083905551919250907ff0393a34d05e6567686ad4e097f9d9d2781565957394f1f0d984e5d8e6378f20906104ee9084815260200190565b60405180910390a2505050565b61050361076d565b61034060006108e2565b61051561093f565b6001600160a01b038116600090815260056020526040902054806105a15760405162461bcd60e51b815260206004820152603160248201527f436f6c6c537572706c7573506f6f6c3a204e6f20636f6c6c61746572616c206160448201527f7661696c61626c6520746f20636c61696d0000000000000000000000000000006064820152608401610337565b6001600160a01b0382166000818152600560209081526040808320839055519182527ff0393a34d05e6567686ad4e097f9d9d2781565957394f1f0d984e5d8e6378f20910160405180910390a26004546105fb90826109bf565b600455604080516001600160a01b0384168152602081018390527f6109e2559dfa766aaec7118351d48a523f0a4157f49c8d68749c8ac41318ad12910160405180910390a16000826001600160a01b03168260405160006040518083038185875af1925050503d806000811461068d576040519150601f19603f3d011682016040523d82523d6000602084013e610692565b606091505b50509050806106ef5760405162461bcd60e51b8152602060048201526024808201527f436f6c6c537572706c7573506f6f6c3a2073656e64696e67204e454f4e2066616044820152631a5b195960e21b6064820152608401610337565b505050565b6106fc61076d565b6001600160a01b0381166107615760405162461bcd60e51b815260206004820152602660248201527f4f776e61626c653a206e6577206f776e657220697320746865207a65726f206160448201526564647265737360d01b6064820152608401610337565b61076a816108e2565b50565b6000546001600160a01b031633146103405760405162461bcd60e51b815260206004820181905260248201527f4f776e61626c653a2063616c6c6572206973206e6f7420746865206f776e65726044820152606401610337565b6001600160a01b03811661081d5760405162461bcd60e51b815260206004820152601e60248201527f4163636f756e742063616e6e6f74206265207a65726f206164647265737300006044820152606401610337565b6001600160a01b0381163b61076a5760405162461bcd60e51b815260206004820181905260248201527f4163636f756e7420636f64652073697a652063616e6e6f74206265207a65726f6044820152606401610337565b6002546001600160a01b031633146103405760405162461bcd60e51b815260206004820152602b60248201527f436f6c6c537572706c7573506f6f6c3a2043616c6c6572206973206e6f74205460448201526a3937bb32a6b0b730b3b2b960a91b6064820152608401610337565b600080546001600160a01b0383811673ffffffffffffffffffffffffffffffffffffffff19831681178455604051919092169283917f8be0079c531659141344cd1fd0a4f28419497f9722a3daafe3b4186f6b6457e09190a35050565b6001546001600160a01b031633146103405760405162461bcd60e51b815260206004820152603260248201527f436f6c6c537572706c7573506f6f6c3a2043616c6c6572206973206e6f74204260448201527f6f72726f776572204f7065726174696f6e7300000000000000000000000000006064820152608401610337565b600061034e8284610ae6565b80356001600160a01b03811681146109e257600080fd5b919050565b6000806000606084860312156109fc57600080fd5b610a05846109cb565b9250610a13602085016109cb565b9150610a21604085016109cb565b90509250925092565b60008060408385031215610a3d57600080fd5b610a46836109cb565b946020939093013593505050565b600060208284031215610a6657600080fd5b61034e826109cb565b600060208083528351808285015260005b81811015610a9c57858101830151858201604001528201610a80565b506000604082860101526040601f19601f8301168501019250505092915050565b634e487b7160e01b600052601160045260246000fd5b8082018082111561035157610351610abd565b8181038181111561035157610351610abd56fea164736f6c6343000811000a",
  "devdoc": {
    "kind": "dev",
    "methods": {
      "owner()": {
        "details": "Returns the address of the current owner."
      },
      "renounceOwnership()": {
        "details": "Leaves the contract without owner. It will not be possible to call `onlyOwner` functions. Can only be called by the current owner. NOTE: Renouncing ownership will leave the contract without an owner, thereby disabling any functionality that is only available to the owner."
      },
      "transferOwnership(address)": {
        "details": "Transfers ownership of the contract to a new account (`newOwner`). Can only be called by the current owner."
      }
    },
    "version": 1
  },
  "userdoc": {
    "kind": "user",
    "methods": {},
    "version": 1
  },
  "storageLayout": {
    "storage": [
      {
        "astId": 53,
        "contract": "contracts/protocol/CollSurplusPool.sol:CollSurplusPool",
        "label": "_owner",
        "offset": 0,
        "slot": "0",
        "type": "t_address"
      },
      {
        "astId": 10583,
        "contract": "contracts/protocol/CollSurplusPool.sol:CollSurplusPool",
        "label": "borrowerOperationsAddress",
        "offset": 0,
        "slot": "1",
        "type": "t_address"
      },
      {
        "astId": 10585,
        "contract": "contracts/protocol/CollSurplusPool.sol:CollSurplusPool",
        "label": "troveManagerAddress",
        "offset": 0,
        "slot": "2",
        "type": "t_address"
      },
      {
        "astId": 10587,
        "contract": "contracts/protocol/CollSurplusPool.sol:CollSurplusPool",
        "label": "activePoolAddress",
        "offset": 0,
        "slot": "3",
        "type": "t_address"
      },
      {
        "astId": 10589,
        "contract": "contracts/protocol/CollSurplusPool.sol:CollSurplusPool",
        "label": "NEON",
        "offset": 0,
        "slot": "4",
        "type": "t_uint256"
      },
      {
        "astId": 10593,
        "contract": "contracts/protocol/CollSurplusPool.sol:CollSurplusPool",
        "label": "balances",
        "offset": 0,
        "slot": "5",
        "type": "t_mapping(t_address,t_uint256)"
      }
    ],
    "types": {
      "t_address": {
        "encoding": "inplace",
        "label": "address",
        "numberOfBytes": "20"
      },
      "t_mapping(t_address,t_uint256)": {
        "encoding": "mapping",
        "key": "t_address",
        "label": "mapping(address => uint256)",
        "numberOfBytes": "32",
        "value": "t_uint256"
      },
      "t_uint256": {
        "encoding": "inplace",
        "label": "uint256",
        "numberOfBytes": "32"
      }
    }
  }
}