{
  "address": "0xa4C1e6aFE145a470CdEB485dec05913c024eC264",
  "abi": [
    {
      "inputs": [],
      "stateMutability": "nonpayable",
      "type": "constructor"
    },
    {
      "anonymous": false,
      "inputs": [
        {
          "indexed": true,
          "internalType": "address",
          "name": "previousOwner",
          "type": "address"
        },
        {
          "indexed": true,
          "internalType": "address",
          "name": "newOwner",
          "type": "address"
        }
      ],
      "name": "OwnershipTransferred",
      "type": "event"
    },
    {
      "anonymous": false,
      "inputs": [
        {
          "indexed": false,
          "internalType": "address",
          "name": "_stabilityPoolAddress",
          "type": "address"
        }
      ],
      "name": "StabilityPoolAddressSet",
      "type": "event"
    },
    {
      "anonymous": false,
      "inputs": [
        {
          "indexed": false,
          "internalType": "uint256",
          "name": "_totalZKTIssued",
          "type": "uint256"
        }
      ],
      "name": "TotalZKTIssuedUpdated",
      "type": "event"
    },
    {
      "anonymous": false,
      "inputs": [
        {
          "indexed": false,
          "internalType": "address",
          "name": "_zkTokenAddress",
          "type": "address"
        }
      ],
      "name": "ZKTokenAddressSet",
      "type": "event"
    },
    {
      "inputs": [],
      "name": "DECIMAL_PRECISION",
      "outputs": [
        {
          "internalType": "uint256",
          "name": "",
          "type": "uint256"
        }
      ],
      "stateMutability": "view",
      "type": "function"
    },
    {
      "inputs": [],
      "name": "ISSUANCE_FACTOR",
      "outputs": [
        {
          "internalType": "uint256",
          "name": "",
          "type": "uint256"
        }
      ],
      "stateMutability": "view",
      "type": "function"
    },
    {
      "inputs": [],
      "name": "NAME",
      "outputs": [
        {
          "internalType": "string",
          "name": "",
          "type": "string"
        }
      ],
      "stateMutability": "view",
      "type": "function"
    },
    {
      "inputs": [],
      "name": "SECONDS_IN_ONE_MINUTE",
      "outputs": [
        {
          "internalType": "uint256",
          "name": "",
          "type": "uint256"
        }
      ],
      "stateMutability": "view",
      "type": "function"
    },
    {
      "inputs": [],
      "name": "ZKTSupplyCap",
      "outputs": [
        {
          "internalType": "uint256",
          "name": "",
          "type": "uint256"
        }
      ],
      "stateMutability": "view",
      "type": "function"
    },
    {
      "inputs": [],
      "name": "deploymentTime",
      "outputs": [
        {
          "internalType": "uint256",
          "name": "",
          "type": "uint256"
        }
      ],
      "stateMutability": "view",
      "type": "function"
    },
    {
      "inputs": [],
      "name": "issueZKT",
      "outputs": [
        {
          "internalType": "uint256",
          "name": "",
          "type": "uint256"
        }
      ],
      "stateMutability": "nonpayable",
      "type": "function"
    },
    {
      "inputs": [],
      "name": "owner",
      "outputs": [
        {
          "internalType": "address",
          "name": "",
          "type": "address"
        }
      ],
      "stateMutability": "view",
      "type": "function"
    },
    {
      "inputs": [],
      "name": "renounceOwnership",
      "outputs": [],
      "stateMutability": "nonpayable",
      "type": "function"
    },
    {
      "inputs": [
        {
          "internalType": "address",
          "name": "_account",
          "type": "address"
        },
        {
          "internalType": "uint256",
          "name": "_ZKTamount",
          "type": "uint256"
        }
      ],
      "name": "sendZKT",
      "outputs": [],
      "stateMutability": "nonpayable",
      "type": "function"
    },
    {
      "inputs": [
        {
          "internalType": "address",
          "name": "_zkTokenAddress",
          "type": "address"
        },
        {
          "internalType": "address",
          "name": "_stabilityPoolAddress",
          "type": "address"
        }
      ],
      "name": "setAddresses",
      "outputs": [],
      "stateMutability": "nonpayable",
      "type": "function"
    },
    {
      "inputs": [],
      "name": "stabilityPoolAddress",
      "outputs": [
        {
          "internalType": "address",
          "name": "",
          "type": "address"
        }
      ],
      "stateMutability": "view",
      "type": "function"
    },
    {
      "inputs": [],
      "name": "totalZKTIssued",
      "outputs": [
        {
          "internalType": "uint256",
          "name": "",
          "type": "uint256"
        }
      ],
      "stateMutability": "view",
      "type": "function"
    },
    {
      "inputs": [
        {
          "internalType": "address",
          "name": "newOwner",
          "type": "address"
        }
      ],
      "name": "transferOwnership",
      "outputs": [],
      "stateMutability": "nonpayable",
      "type": "function"
    },
    {
      "inputs": [],
      "name": "zkToken",
      "outputs": [
        {
          "internalType": "contract IZKToken",
          "name": "",
          "type": "address"
        }
      ],
      "stateMutability": "view",
      "type": "function"
    }
  ],
  "transactionHash": "0x9a9f41a1215739452ac8dd8f17a720a702a66cab9d17df9017c4415cf120d23f",
  "args": [],
  "numDeployments": 1,
  "solcInputHash": "cd2ace613c83861a481eb70c110172ac",
  "bytecode": "0x60a060405234801561001057600080fd5b5061001a33610023565b42608052610073565b600080546001600160a01b038381166001600160a01b0319831681178455604051919092169283917f8be0079c531659141344cd1fd0a4f28419497f9722a3daafe3b4186f6b6457e09190a35050565b608051610a8c61009560003960008181610223015261072b0152610a8c6000f3fe608060405234801561001057600080fd5b50600436106100f55760003560e01c806390107afe11610097578063a9d3948011610066578063a9d394801461020d578063b5f67fa514610215578063ecda10f51461021e578063f2fde38b1461024557600080fd5b806390107afe146101905780639afddf5f146101a3578063a20baee6146101b5578063a3f4df7e146101c457600080fd5b806361ec893d116100d357806361ec893d1461015c578063715018a6146101645780637d8c87aa1461016c5780638da5cb5b1461017f57600080fd5b80630b622ab2146100fa5780630fc83da31461012a5780631c09591e14610147575b600080fd5b60025461010d906001600160a01b031681565b6040516001600160a01b0390911681526020015b60405180910390f35b610139670de0b5809a6f939881565b604051908152602001610121565b61015a6101553660046108d7565b610258565b005b610139603c81565b61015a6102dc565b60015461010d906001600160a01b031681565b6000546001600160a01b031661010d565b61015a61019e366004610901565b6102f0565b6101396a1a784379d99db42000000081565b610139670de0b6b3a764000081565b6102006040518060400160405280601181526020017f436f6d6d756e69747949737375616e636500000000000000000000000000000081525081565b6040516101219190610934565b610139610440565b61013960035481565b6101397f000000000000000000000000000000000000000000000000000000000000000081565b61015a610253366004610982565b6104d5565b610260610553565b60015460405163a9059cbb60e01b81526001600160a01b038481166004830152602482018490529091169063a9059cbb906044016020604051808303816000875af11580156102b3573d6000803e3d6000fd5b505050506040513d601f19601f820116820180604052508101906102d7919061099d565b505050565b6102e46105b9565b6102ee6000610613565b565b6102f86105b9565b61030182610670565b61030a81610670565b600180546001600160a01b0384811673ffffffffffffffffffffffffffffffffffffffff19928316811790935560028054918516919092161790556040516370a0823160e01b8152306004820152600091906370a0823190602401602060405180830381865afa158015610382573d6000803e3d6000fd5b505050506040513d601f19601f820116820180604052508101906103a691906109bf565b90506a1a784379d99db4200000008110156103c3576103c36109d8565b6040516001600160a01b03841681527f4738bd2fa051c658ff5fb2e55ea0ec02521ca2c563327a88ebe9f2a8ab15c3169060200160405180910390a16040516001600160a01b03831681527f45c53611bc8ba9e11f4f8173bda9e3faf89c395ddb83f9a55230b156828db3159060200160405180910390a1505050565b600061044a610553565b600061047b670de0b6b3a764000061047561046361071d565b6a1a784379d99db4200000009061079c565b906107b1565b90506000610494600354836107bd90919063ffffffff16565b60038390556040518381529091507f1709352b7e06ac5218a4285599e225866cf16695c6fa5b9e368bbd24c17a27ef9060200160405180910390a192915050565b6104dd6105b9565b6001600160a01b0381166105475760405162461bcd60e51b815260206004820152602660248201527f4f776e61626c653a206e6577206f776e657220697320746865207a65726f206160448201526564647265737360d01b60648201526084015b60405180910390fd5b61055081610613565b50565b6002546001600160a01b031633146102ee5760405162461bcd60e51b815260206004820152602360248201527f436f6d6d756e69747949737375616e63653a2063616c6c6572206973206e6f7460448201526202053560ec1b606482015260840161053e565b6000546001600160a01b031633146102ee5760405162461bcd60e51b815260206004820181905260248201527f4f776e61626c653a2063616c6c6572206973206e6f7420746865206f776e6572604482015260640161053e565b600080546001600160a01b0383811673ffffffffffffffffffffffffffffffffffffffff19831681178455604051919092169283917f8be0079c531659141344cd1fd0a4f28419497f9722a3daafe3b4186f6b6457e09190a35050565b6001600160a01b0381166106c65760405162461bcd60e51b815260206004820152601e60248201527f4163636f756e742063616e6e6f74206265207a65726f20616464726573730000604482015260640161053e565b6001600160a01b0381163b6105505760405162461bcd60e51b815260206004820181905260248201527f4163636f756e7420636f64652073697a652063616e6e6f74206265207a65726f604482015260640161053e565b60008061074f603c610475427f00000000000000000000000000000000000000000000000000000000000000006107bd565b90506000610765670de0b5809a6f9398836107c9565b9050600061077b670de0b6b3a7640000836107bd565b9050670de0b6b3a7640000811115610795576107956109d8565b9392505050565b60006107a88284610a04565b90505b92915050565b60006107a88284610a31565b60006107a88284610a45565b6000631f5405008211156107df57631f54050091505b816000036107f65750670de0b6b3a76400006107ab565b670de0b6b3a764000083835b600181111561086357610816600282610a58565b60000361083b576108278283610877565b91506108348160026107b1565b9050610802565b6108458284610877565b92506108518283610877565b915061083460026104758360016107bd565b61086d8284610877565b9695505050505050565b600080610884848461079c565b90506108a7670de0b6b3a76400006104756108a0600283610a31565b84906108af565b949350505050565b60006107a88284610a6c565b80356001600160a01b03811681146108d257600080fd5b919050565b600080604083850312156108ea57600080fd5b6108f3836108bb565b946020939093013593505050565b6000806040838503121561091457600080fd5b61091d836108bb565b915061092b602084016108bb565b90509250929050565b600060208083528351808285015260005b8181101561096157858101830151858201604001528201610945565b506000604082860101526040601f19601f8301168501019250505092915050565b60006020828403121561099457600080fd5b6107a8826108bb565b6000602082840312156109af57600080fd5b8151801515811461079557600080fd5b6000602082840312156109d157600080fd5b5051919050565b634e487b7160e01b600052600160045260246000fd5b634e487b7160e01b600052601160045260246000fd5b80820281158282048414176107ab576107ab6109ee565b634e487b7160e01b600052601260045260246000fd5b600082610a4057610a40610a1b565b500490565b818103818111156107ab576107ab6109ee565b600082610a6757610a67610a1b565b500690565b808201808211156107ab576107ab6109ee56fea164736f6c6343000811000a",
  "devdoc": {
    "kind": "dev",
    "methods": {
      "owner()": {
        "details": "Returns the address of the current owner."
      },
      "renounceOwnership()": {
        "details": "Leaves the contract without owner. It will not be possible to call `onlyOwner` functions. Can only be called by the current owner. NOTE: Renouncing ownership will leave the contract without an owner, thereby disabling any functionality that is only available to the owner."
      },
      "transferOwnership(address)": {
        "details": "Transfers ownership of the contract to a new account (`newOwner`). Can only be called by the current owner."
      }
    },
    "version": 1
  },
  "userdoc": {
    "kind": "user",
    "methods": {},
    "version": 1
  },
  "storageLayout": {
    "storage": [
      {
        "astId": 53,
        "contract": "contracts/common/CommunityIssuance.sol:CommunityIssuance",
        "label": "_owner",
        "offset": 0,
        "slot": "0",
        "type": "t_address"
      },
      {
        "astId": 2987,
        "contract": "contracts/common/CommunityIssuance.sol:CommunityIssuance",
        "label": "zkToken",
        "offset": 0,
        "slot": "1",
        "type": "t_contract(IZKToken)5761"
      },
      {
        "astId": 2989,
        "contract": "contracts/common/CommunityIssuance.sol:CommunityIssuance",
        "label": "stabilityPoolAddress",
        "offset": 0,
        "slot": "2",
        "type": "t_address"
      },
      {
        "astId": 2991,
        "contract": "contracts/common/CommunityIssuance.sol:CommunityIssuance",
        "label": "totalZKTIssued",
        "offset": 0,
        "slot": "3",
        "type": "t_uint256"
      }
    ],
    "types": {
      "t_address": {
        "encoding": "inplace",
        "label": "address",
        "numberOfBytes": "20"
      },
      "t_contract(IZKToken)5761": {
        "encoding": "inplace",
        "label": "contract IZKToken",
        "numberOfBytes": "20"
      },
      "t_uint256": {
        "encoding": "inplace",
        "label": "uint256",
        "numberOfBytes": "32"
      }
    }
  }
}