{
  "address": "0x827579037C66191fb8ef345d67Bc65F560254a16",
  "abi": [
    {
      "anonymous": false,
      "inputs": [
        {
          "indexed": false,
          "internalType": "address",
          "name": "_lockupContractAddress",
          "type": "address"
        },
        {
          "indexed": false,
          "internalType": "address",
          "name": "_beneficiary",
          "type": "address"
        },
        {
          "indexed": false,
          "internalType": "uint256",
          "name": "_unlockTime",
          "type": "uint256"
        },
        {
          "indexed": false,
          "internalType": "address",
          "name": "_deployer",
          "type": "address"
        }
      ],
      "name": "LockupContractDeployedThroughFactory",
      "type": "event"
    },
    {
      "anonymous": false,
      "inputs": [
        {
          "indexed": true,
          "internalType": "address",
          "name": "previousOwner",
          "type": "address"
        },
        {
          "indexed": true,
          "internalType": "address",
          "name": "newOwner",
          "type": "address"
        }
      ],
      "name": "OwnershipTransferred",
      "type": "event"
    },
    {
      "anonymous": false,
      "inputs": [
        {
          "indexed": false,
          "internalType": "address",
          "name": "_zkTokenAddress",
          "type": "address"
        }
      ],
      "name": "ZKTokenAddressSet",
      "type": "event"
    },
    {
      "inputs": [],
      "name": "NAME",
      "outputs": [
        {
          "internalType": "string",
          "name": "",
          "type": "string"
        }
      ],
      "stateMutability": "view",
      "type": "function"
    },
    {
      "inputs": [],
      "name": "SECONDS_IN_ONE_YEAR",
      "outputs": [
        {
          "internalType": "uint256",
          "name": "",
          "type": "uint256"
        }
      ],
      "stateMutability": "view",
      "type": "function"
    },
    {
      "inputs": [
        {
          "internalType": "address",
          "name": "_beneficiary",
          "type": "address"
        },
        {
          "internalType": "uint256",
          "name": "_unlockTime",
          "type": "uint256"
        }
      ],
      "name": "deployLockupContract",
      "outputs": [],
      "stateMutability": "nonpayable",
      "type": "function"
    },
    {
      "inputs": [
        {
          "internalType": "address",
          "name": "_contractAddress",
          "type": "address"
        }
      ],
      "name": "isRegisteredLockup",
      "outputs": [
        {
          "internalType": "bool",
          "name": "",
          "type": "bool"
        }
      ],
      "stateMutability": "view",
      "type": "function"
    },
    {
      "inputs": [
        {
          "internalType": "address",
          "name": "",
          "type": "address"
        }
      ],
      "name": "lockupContractToDeployer",
      "outputs": [
        {
          "internalType": "address",
          "name": "",
          "type": "address"
        }
      ],
      "stateMutability": "view",
      "type": "function"
    },
    {
      "inputs": [],
      "name": "owner",
      "outputs": [
        {
          "internalType": "address",
          "name": "",
          "type": "address"
        }
      ],
      "stateMutability": "view",
      "type": "function"
    },
    {
      "inputs": [],
      "name": "renounceOwnership",
      "outputs": [],
      "stateMutability": "nonpayable",
      "type": "function"
    },
    {
      "inputs": [
        {
          "internalType": "address",
          "name": "_zkTokenAddress",
          "type": "address"
        }
      ],
      "name": "setZKTokenAddress",
      "outputs": [],
      "stateMutability": "nonpayable",
      "type": "function"
    },
    {
      "inputs": [
        {
          "internalType": "address",
          "name": "newOwner",
          "type": "address"
        }
      ],
      "name": "transferOwnership",
      "outputs": [],
      "stateMutability": "nonpayable",
      "type": "function"
    },
    {
      "inputs": [],
      "name": "zkTokenAddress",
      "outputs": [
        {
          "internalType": "address",
          "name": "",
          "type": "address"
        }
      ],
      "stateMutability": "view",
      "type": "function"
    }
  ],
  "transactionHash": "0xdfb36526c833bf221f212a1057629e74778755e58d71b6290cc4c2687201953a",
  "args": [],
  "numDeployments": 1,
  "solcInputHash": "f9c74d7f5e28e55cf22d22e90c37188e",
  "bytecode": "0x608060405234801561001057600080fd5b5061001a3361001f565b61006f565b600080546001600160a01b038381166001600160a01b0319831681178455604051919092169283917f8be0079c531659141344cd1fd0a4f28419497f9722a3daafe3b4186f6b6457e09190a35050565b610d558061007e6000396000f3fe608060405234801561001057600080fd5b506004361061009e5760003560e01c8063a3f4df7e11610066578063a3f4df7e1461011a578063bb7603f114610163578063d83c72db146101a1578063e6d2bd49146101ca578063f2fde38b146101dd57600080fd5b806334c44b4d146100a35780635603a530146100b8578063715018a6146100e85780638da5cb5b146100f057806398e5f3c414610101575b600080fd5b6100b66100b136600461059d565b6101f0565b005b6001546100cb906001600160a01b031681565b6040516001600160a01b0390911681526020015b60405180910390f35b6100b66102d0565b6000546001600160a01b03166100cb565b61010c6301e1338081565b6040519081526020016100df565b6101566040518060400160405280601581526020017f4c6f636b7570436f6e7472616374466163746f7279000000000000000000000081525081565b6040516100df91906105c7565b610191610171366004610615565b6001600160a01b0390811660009081526002602052604090205416151590565b60405190151581526020016100df565b6100cb6101af366004610615565b6002602052600090815260409020546001600160a01b031681565b6100b66101d8366004610615565b6102e4565b6100b66101eb366004610615565b610349565b6001546001600160a01b0316610205816103c7565b600081848460405161021690610574565b6001600160a01b0393841681529290911660208301526040820152606001604051809103906000f080158015610250573d6000803e3d6000fd5b506001600160a01b0381811660008181526002602090815260409182902080546001600160a01b03191633908117909155825193845293891690830152810186905260608101919091529091507ff534ff9ac4abb71a4aa2f8715f3a8f41c05155fbf8af61daecc51365e3a5c0089060800160405180910390a150505050565b6102d861041d565b6102e26000610477565b565b6102ec61041d565b6102f5816104c7565b600180546001600160a01b0319166001600160a01b0383169081179091556040519081527f4738bd2fa051c658ff5fb2e55ea0ec02521ca2c563327a88ebe9f2a8ab15c3169060200160405180910390a150565b61035161041d565b6001600160a01b0381166103bb5760405162461bcd60e51b815260206004820152602660248201527f4f776e61626c653a206e6577206f776e657220697320746865207a65726f206160448201526564647265737360d01b60648201526084015b60405180910390fd5b6103c481610477565b50565b6001600160a01b0381166103c45760405162461bcd60e51b815260206004820152601b60248201527f4c43463a205a4b542041646472657373206973206e6f7420736574000000000060448201526064016103b2565b6000546001600160a01b031633146102e25760405162461bcd60e51b815260206004820181905260248201527f4f776e61626c653a2063616c6c6572206973206e6f7420746865206f776e657260448201526064016103b2565b600080546001600160a01b038381166001600160a01b0319831681178455604051919092169283917f8be0079c531659141344cd1fd0a4f28419497f9722a3daafe3b4186f6b6457e09190a35050565b6001600160a01b03811661051d5760405162461bcd60e51b815260206004820152601e60248201527f4163636f756e742063616e6e6f74206265207a65726f2061646472657373000060448201526064016103b2565b6001600160a01b0381163b6103c45760405162461bcd60e51b815260206004820181905260248201527f4163636f756e7420636f64652073697a652063616e6e6f74206265207a65726f60448201526064016103b2565b6107118061063883390190565b80356001600160a01b038116811461059857600080fd5b919050565b600080604083850312156105b057600080fd5b6105b983610581565b946020939093013593505050565b600060208083528351808285015260005b818110156105f4578581018301518582016040015282016105d8565b506000604082860101526040601f19601f8301168501019250505092915050565b60006020828403121561062757600080fd5b61063082610581565b939250505056fe60a060405234801561001057600080fd5b5060405161071138038061071183398101604081905261002f91610201565b600080546001600160a01b0319166001600160a01b038516179055610053816100a8565b60018190556001600160a01b038216608081905260408051918252602082018390527f5faee922186516bf77266643c1fda130acefc439d571400e8697106c6aed9b54910160405180910390a1505050610277565b60008060009054906101000a90046001600160a01b03166001600160a01b0316633c84b7c26040518163ffffffff1660e01b8152600401602060405180830381865afa1580156100fc573d6000803e3d6000fd5b505050506040513d601f19601f82011682018060405250810190610120919061023d565b905061013d6301e13380826101d060201b6102921790919060201c565b8210156101cc5760405162461bcd60e51b815260206004820152604d60248201527f4c6f636b7570436f6e74726163743a20756e6c6f636b2074696d65206d75737460448201527f206265206174206c65617374206f6e652079656172206166746572207379737460648201526c195b4819195c1b1bde5b595b9d609a1b608482015260a40160405180910390fd5b5050565b60006101dc8284610256565b90505b92915050565b80516001600160a01b03811681146101fc57600080fd5b919050565b60008060006060848603121561021657600080fd5b61021f846101e5565b925061022d602085016101e5565b9150604084015190509250925092565b60006020828403121561024f57600080fd5b5051919050565b808201808211156101df57634e487b7160e01b600052601160045260246000fd5b60805161047261029f600039600081816098015281816101da01526102b201526104726000f3fe608060405234801561001057600080fd5b50600436106100725760003560e01c806398e5f3c41161005057806398e5f3c4146100e5578063a3f4df7e146100f0578063c0735e2b1461013957600080fd5b8063251c1aa31461007757806338af3eed146100935780637d8c87aa146100d2575b600080fd5b61008060015481565b6040519081526020015b60405180910390f35b6100ba7f000000000000000000000000000000000000000000000000000000000000000081565b6040516001600160a01b03909116815260200161008a565b6000546100ba906001600160a01b031681565b6100806301e1338081565b61012c6040518060400160405280600e81526020017f4c6f636b7570436f6e747261637400000000000000000000000000000000000081525081565b60405161008a91906103b4565b610141610143565b005b61014b6102a7565b61015361033c565b600080546040516370a0823160e01b81523060048201526001600160a01b03909116919082906370a0823190602401602060405180830381865afa15801561019f573d6000803e3d6000fd5b505050506040513d601f19601f820116820180604052508101906101c39190610402565b60405163a9059cbb60e01b81526001600160a01b037f000000000000000000000000000000000000000000000000000000000000000081166004830152602482018390529192509083169063a9059cbb906044016020604051808303816000875af1158015610236573d6000803e3d6000fd5b505050506040513d601f19601f8201168201806040525081019061025a919061041b565b506040518181527f7d17cbc0f78ccfed33842dd29dab2872e8347bf3981293ab2cfe35ca16371a2f9060200160405180910390a15050565b600061029e8284610444565b90505b92915050565b336001600160a01b037f0000000000000000000000000000000000000000000000000000000000000000161461033a5760405162461bcd60e51b815260206004820152602d60248201527f4c6f636b7570436f6e74726163743a2063616c6c6572206973206e6f7420746860448201526c652062656e656669636961727960981b60648201526084015b60405180910390fd5b565b60015442101561033a5760405162461bcd60e51b815260206004820152603460248201527f4c6f636b7570436f6e74726163743a20546865206c6f636b757020647572617460448201527f696f6e206d7573742068617665207061737365640000000000000000000000006064820152608401610331565b600060208083528351808285015260005b818110156103e1578581018301518582016040015282016103c5565b506000604082860101526040601f19601f8301168501019250505092915050565b60006020828403121561041457600080fd5b5051919050565b60006020828403121561042d57600080fd5b8151801515811461043d57600080fd5b9392505050565b808201808211156102a157634e487b7160e01b600052601160045260246000fdfea164736f6c6343000811000aa164736f6c6343000811000a",
  "devdoc": {
    "kind": "dev",
    "methods": {
      "owner()": {
        "details": "Returns the address of the current owner."
      },
      "renounceOwnership()": {
        "details": "Leaves the contract without owner. It will not be possible to call `onlyOwner` functions. Can only be called by the current owner. NOTE: Renouncing ownership will leave the contract without an owner, thereby disabling any functionality that is only available to the owner."
      },
      "transferOwnership(address)": {
        "details": "Transfers ownership of the contract to a new account (`newOwner`). Can only be called by the current owner."
      }
    },
    "version": 1
  },
  "userdoc": {
    "kind": "user",
    "methods": {},
    "version": 1
  },
  "storageLayout": {
    "storage": [
      {
        "astId": 53,
        "contract": "contracts/common/LockupContractFactory.sol:LockupContractFactory",
        "label": "_owner",
        "offset": 0,
        "slot": "0",
        "type": "t_address"
      },
      {
        "astId": 3367,
        "contract": "contracts/common/LockupContractFactory.sol:LockupContractFactory",
        "label": "zkTokenAddress",
        "offset": 0,
        "slot": "1",
        "type": "t_address"
      },
      {
        "astId": 3371,
        "contract": "contracts/common/LockupContractFactory.sol:LockupContractFactory",
        "label": "lockupContractToDeployer",
        "offset": 0,
        "slot": "2",
        "type": "t_mapping(t_address,t_address)"
      }
    ],
    "types": {
      "t_address": {
        "encoding": "inplace",
        "label": "address",
        "numberOfBytes": "20"
      },
      "t_mapping(t_address,t_address)": {
        "encoding": "mapping",
        "key": "t_address",
        "label": "mapping(address => address)",
        "numberOfBytes": "32",
        "value": "t_address"
      }
    }
  }
}