{
  "address": "0x0068D12cC2869919209c7AE6528795cdbFF640aB",
  "abi": [
    {
      "anonymous": false,
      "inputs": [
        {
          "indexed": false,
          "internalType": "uint256",
          "name": "_lastGoodPrice",
          "type": "uint256"
        }
      ],
      "name": "LastGoodPriceUpdated",
      "type": "event"
    },
    {
      "inputs": [],
      "name": "fetchPrice",
      "outputs": [
        {
          "internalType": "uint256",
          "name": "",
          "type": "uint256"
        }
      ],
      "stateMutability": "nonpayable",
      "type": "function"
    },
    {
      "inputs": [],
      "name": "getPrice",
      "outputs": [
        {
          "internalType": "uint256",
          "name": "",
          "type": "uint256"
        }
      ],
      "stateMutability": "view",
      "type": "function"
    },
    {
      "inputs": [],
      "name": "lastGoodPrice",
      "outputs": [
        {
          "internalType": "uint256",
          "name": "",
          "type": "uint256"
        }
      ],
      "stateMutability": "view",
      "type": "function"
    },
    {
      "inputs": [
        {
          "internalType": "bytes4",
          "name": "",
          "type": "bytes4"
        },
        {
          "internalType": "address",
          "name": "",
          "type": "address"
        }
      ],
      "name": "setAddresses",
      "outputs": [],
      "stateMutability": "nonpayable",
      "type": "function"
    },
    {
      "inputs": [
        {
          "internalType": "uint256",
          "name": "price",
          "type": "uint256"
        }
      ],
      "name": "setPrice",
      "outputs": [
        {
          "internalType": "bool",
          "name": "",
          "type": "bool"
        }
      ],
      "stateMutability": "nonpayable",
      "type": "function"
    }
  ],
  "transactionHash": "0x91e5e4ab1097cc513d5bcb355c3c11630dc97423527e668bbd7b724710ccd367",
  "args": [],
  "numDeployments": 1,
  "solcInputHash": "96f454816b798e56a51de62eb7551c01",
  "bytecode": "0x6080604052680ad78ebc5ac620000060005534801561001d57600080fd5b506101ad8061002d6000396000f3fe608060405234801561001057600080fd5b50600436106100575760003560e01c80630490be831461005c5780630fdb11cf146100785780631c0eb2ba1461008057806391b7f5ed1461009457806398d5fdca146100bf575b600080fd5b61006560015481565b6040519081526020015b60405180910390f35b6100656100c7565b61009261008e366004610110565b5050565b005b6100af6100a2366004610187565b6000819055600190815590565b604051901515815260200161006f565b600054610065565b60007f4d29de21de555af78a62fc82dd4bc05e9ae5b0660a37f04729527e0f22780cd36000546040516100fc91815260200190565b60405180910390a150600054600181905590565b6000806040838503121561012357600080fd5b82357fffffffff000000000000000000000000000000000000000000000000000000008116811461015357600080fd5b9150602083013573ffffffffffffffffffffffffffffffffffffffff8116811461017c57600080fd5b809150509250929050565b60006020828403121561019957600080fd5b503591905056fea164736f6c6343000811000a",
  "devdoc": {
    "kind": "dev",
    "methods": {},
    "version": 1
  },
  "userdoc": {
    "kind": "user",
    "methods": {},
    "version": 1
  },
  "storageLayout": {
    "storage": [
      {
        "astId": 21,
        "contract": "contracts/mocks/PriceFeedTestnet.sol:PriceFeedTestnet",
        "label": "_price",
        "offset": 0,
        "slot": "0",
        "type": "t_uint256"
      },
      {
        "astId": 23,
        "contract": "contracts/mocks/PriceFeedTestnet.sol:PriceFeedTestnet",
        "label": "lastGoodPrice",
        "offset": 0,
        "slot": "1",
        "type": "t_uint256"
      }
    ],
    "types": {
      "t_uint256": {
        "encoding": "inplace",
        "label": "uint256",
        "numberOfBytes": "32"
      }
    }
  }
}