{
  "address": "0x4A718536cb1e82C6cd7E568d3faF1fa0cEb41C7e",
  "abi": [
    {
      "anonymous": false,
      "inputs": [
        {
          "indexed": false,
          "internalType": "address",
          "name": "_newActivePoolAddress",
          "type": "address"
        }
      ],
      "name": "ActivePoolAddressChanged",
      "type": "event"
    },
    {
      "anonymous": false,
      "inputs": [
        {
          "indexed": false,
          "internalType": "address",
          "name": "_newBorrowerOperationsAddress",
          "type": "address"
        }
      ],
      "name": "BorrowerOperationsAddressChanged",
      "type": "event"
    },
    {
      "anonymous": false,
      "inputs": [
        {
          "indexed": false,
          "internalType": "address",
          "name": "_newCommunityIssuanceAddress",
          "type": "address"
        }
      ],
      "name": "CommunityIssuanceAddressChanged",
      "type": "event"
    },
    {
      "anonymous": false,
      "inputs": [
        {
          "indexed": false,
          "internalType": "address",
          "name": "_newDefaultPoolAddress",
          "type": "address"
        }
      ],
      "name": "DefaultPoolAddressChanged",
      "type": "event"
    },
    {
      "anonymous": false,
      "inputs": [
        {
          "indexed": true,
          "internalType": "address",
          "name": "_depositor",
          "type": "address"
        },
        {
          "indexed": false,
          "internalType": "uint256",
          "name": "_P",
          "type": "uint256"
        },
        {
          "indexed": false,
          "internalType": "uint256",
          "name": "_S",
          "type": "uint256"
        },
        {
          "indexed": false,
          "internalType": "uint256",
          "name": "_G",
          "type": "uint256"
        }
      ],
      "name": "DepositSnapshotUpdated",
      "type": "event"
    },
    {
      "anonymous": false,
      "inputs": [
        {
          "indexed": false,
          "internalType": "uint256",
          "name": "_currentEpoch",
          "type": "uint256"
        }
      ],
      "name": "EpochUpdated",
      "type": "event"
    },
    {
      "anonymous": false,
      "inputs": [
        {
          "indexed": false,
          "internalType": "address",
          "name": "_to",
          "type": "address"
        },
        {
          "indexed": false,
          "internalType": "uint256",
          "name": "_amount",
          "type": "uint256"
        }
      ],
      "name": "EtherSent",
      "type": "event"
    },
    {
      "anonymous": false,
      "inputs": [
        {
          "indexed": true,
          "internalType": "address",
          "name": "_frontEnd",
          "type": "address"
        },
        {
          "indexed": false,
          "internalType": "uint256",
          "name": "_kickbackRate",
          "type": "uint256"
        }
      ],
      "name": "FrontEndRegistered",
      "type": "event"
    },
    {
      "anonymous": false,
      "inputs": [
        {
          "indexed": true,
          "internalType": "address",
          "name": "_frontEnd",
          "type": "address"
        },
        {
          "indexed": false,
          "internalType": "uint256",
          "name": "_P",
          "type": "uint256"
        },
        {
          "indexed": false,
          "internalType": "uint256",
          "name": "_G",
          "type": "uint256"
        }
      ],
      "name": "FrontEndSnapshotUpdated",
      "type": "event"
    },
    {
      "anonymous": false,
      "inputs": [
        {
          "indexed": true,
          "internalType": "address",
          "name": "_frontEnd",
          "type": "address"
        },
        {
          "indexed": false,
          "internalType": "uint256",
          "name": "_newFrontEndStake",
          "type": "uint256"
        },
        {
          "indexed": false,
          "internalType": "address",
          "name": "_depositor",
          "type": "address"
        }
      ],
      "name": "FrontEndStakeChanged",
      "type": "event"
    },
    {
      "anonymous": false,
      "inputs": [
        {
          "indexed": true,
          "internalType": "address",
          "name": "_depositor",
          "type": "address"
        },
        {
          "indexed": true,
          "internalType": "address",
          "name": "_frontEnd",
          "type": "address"
        }
      ],
      "name": "FrontEndTagSet",
      "type": "event"
    },
    {
      "anonymous": false,
      "inputs": [
        {
          "indexed": false,
          "internalType": "uint256",
          "name": "_G",
          "type": "uint256"
        },
        {
          "indexed": false,
          "internalType": "uint256",
          "name": "_epoch",
          "type": "uint256"
        },
        {
          "indexed": false,
          "internalType": "uint256",
          "name": "_scale",
          "type": "uint256"
        }
      ],
      "name": "G_Updated",
      "type": "event"
    },
    {
      "anonymous": false,
      "inputs": [
        {
          "indexed": true,
          "internalType": "address",
          "name": "_depositor",
          "type": "address"
        },
        {
          "indexed": false,
          "internalType": "uint256",
          "name": "_NEON",
          "type": "uint256"
        },
        {
          "indexed": false,
          "internalType": "uint256",
          "name": "_ZKUSDLoss",
          "type": "uint256"
        }
      ],
      "name": "NEONGainWithdrawn",
      "type": "event"
    },
    {
      "anonymous": false,
      "inputs": [
        {
          "indexed": true,
          "internalType": "address",
          "name": "previousOwner",
          "type": "address"
        },
        {
          "indexed": true,
          "internalType": "address",
          "name": "newOwner",
          "type": "address"
        }
      ],
      "name": "OwnershipTransferred",
      "type": "event"
    },
    {
      "anonymous": false,
      "inputs": [
        {
          "indexed": false,
          "internalType": "uint256",
          "name": "_P",
          "type": "uint256"
        }
      ],
      "name": "P_Updated",
      "type": "event"
    },
    {
      "anonymous": false,
      "inputs": [
        {
          "indexed": false,
          "internalType": "address",
          "name": "_newPriceFeedAddress",
          "type": "address"
        }
      ],
      "name": "PriceFeedAddressChanged",
      "type": "event"
    },
    {
      "anonymous": false,
      "inputs": [
        {
          "indexed": false,
          "internalType": "uint256",
          "name": "_S",
          "type": "uint256"
        },
        {
          "indexed": false,
          "internalType": "uint256",
          "name": "_epoch",
          "type": "uint256"
        },
        {
          "indexed": false,
          "internalType": "uint256",
          "name": "_scale",
          "type": "uint256"
        }
      ],
      "name": "S_Updated",
      "type": "event"
    },
    {
      "anonymous": false,
      "inputs": [
        {
          "indexed": false,
          "internalType": "uint256",
          "name": "_currentScale",
          "type": "uint256"
        }
      ],
      "name": "ScaleUpdated",
      "type": "event"
    },
    {
      "anonymous": false,
      "inputs": [
        {
          "indexed": false,
          "internalType": "address",
          "name": "_newSortedTrovesAddress",
          "type": "address"
        }
      ],
      "name": "SortedTrovesAddressChanged",
      "type": "event"
    },
    {
      "anonymous": false,
      "inputs": [
        {
          "indexed": false,
          "internalType": "uint256",
          "name": "_newBalance",
          "type": "uint256"
        }
      ],
      "name": "StabilityPoolNEONBalanceUpdated",
      "type": "event"
    },
    {
      "anonymous": false,
      "inputs": [
        {
          "indexed": false,
          "internalType": "uint256",
          "name": "_newBalance",
          "type": "uint256"
        }
      ],
      "name": "StabilityPoolZKUSDBalanceUpdated",
      "type": "event"
    },
    {
      "anonymous": false,
      "inputs": [
        {
          "indexed": false,
          "internalType": "address",
          "name": "_newTroveManagerAddress",
          "type": "address"
        }
      ],
      "name": "TroveManagerAddressChanged",
      "type": "event"
    },
    {
      "anonymous": false,
      "inputs": [
        {
          "indexed": true,
          "internalType": "address",
          "name": "_depositor",
          "type": "address"
        },
        {
          "indexed": false,
          "internalType": "uint256",
          "name": "_newDeposit",
          "type": "uint256"
        }
      ],
      "name": "UserDepositChanged",
      "type": "event"
    },
    {
      "anonymous": false,
      "inputs": [
        {
          "indexed": true,
          "internalType": "address",
          "name": "_depositor",
          "type": "address"
        },
        {
          "indexed": false,
          "internalType": "uint256",
          "name": "_ZKT",
          "type": "uint256"
        }
      ],
      "name": "ZKTPaidToDepositor",
      "type": "event"
    },
    {
      "anonymous": false,
      "inputs": [
        {
          "indexed": true,
          "internalType": "address",
          "name": "_frontEnd",
          "type": "address"
        },
        {
          "indexed": false,
          "internalType": "uint256",
          "name": "_ZKT",
          "type": "uint256"
        }
      ],
      "name": "ZKTPaidToFrontEnd",
      "type": "event"
    },
    {
      "anonymous": false,
      "inputs": [
        {
          "indexed": false,
          "internalType": "address",
          "name": "_newZKUSDTokenAddress",
          "type": "address"
        }
      ],
      "name": "ZKUSDTokenAddressChanged",
      "type": "event"
    },
    {
      "inputs": [],
      "name": "BORROWING_FEE_FLOOR",
      "outputs": [
        {
          "internalType": "uint256",
          "name": "",
          "type": "uint256"
        }
      ],
      "stateMutability": "view",
      "type": "function"
    },
    {
      "inputs": [],
      "name": "CCR",
      "outputs": [
        {
          "internalType": "uint256",
          "name": "",
          "type": "uint256"
        }
      ],
      "stateMutability": "view",
      "type": "function"
    },
    {
      "inputs": [],
      "name": "DECIMAL_PRECISION",
      "outputs": [
        {
          "internalType": "uint256",
          "name": "",
          "type": "uint256"
        }
      ],
      "stateMutability": "view",
      "type": "function"
    },
    {
      "inputs": [],
      "name": "DefaultKickbackRate",
      "outputs": [
        {
          "internalType": "uint256",
          "name": "",
          "type": "uint256"
        }
      ],
      "stateMutability": "view",
      "type": "function"
    },
    {
      "inputs": [],
      "name": "MCR",
      "outputs": [
        {
          "internalType": "uint256",
          "name": "",
          "type": "uint256"
        }
      ],
      "stateMutability": "view",
      "type": "function"
    },
    {
      "inputs": [],
      "name": "MIN_NET_DEBT",
      "outputs": [
        {
          "internalType": "uint256",
          "name": "",
          "type": "uint256"
        }
      ],
      "stateMutability": "view",
      "type": "function"
    },
    {
      "inputs": [],
      "name": "NAME",
      "outputs": [
        {
          "internalType": "string",
          "name": "",
          "type": "string"
        }
      ],
      "stateMutability": "view",
      "type": "function"
    },
    {
      "inputs": [],
      "name": "P",
      "outputs": [
        {
          "internalType": "uint256",
          "name": "",
          "type": "uint256"
        }
      ],
      "stateMutability": "view",
      "type": "function"
    },
    {
      "inputs": [],
      "name": "PERCENT_DIVISOR",
      "outputs": [
        {
          "internalType": "uint256",
          "name": "",
          "type": "uint256"
        }
      ],
      "stateMutability": "view",
      "type": "function"
    },
    {
      "inputs": [],
      "name": "SCALE_FACTOR",
      "outputs": [
        {
          "internalType": "uint256",
          "name": "",
          "type": "uint256"
        }
      ],
      "stateMutability": "view",
      "type": "function"
    },
    {
      "inputs": [],
      "name": "ZKUSD_GAS_COMPENSATION",
      "outputs": [
        {
          "internalType": "uint256",
          "name": "",
          "type": "uint256"
        }
      ],
      "stateMutability": "view",
      "type": "function"
    },
    {
      "inputs": [],
      "name": "_100pct",
      "outputs": [
        {
          "internalType": "uint256",
          "name": "",
          "type": "uint256"
        }
      ],
      "stateMutability": "view",
      "type": "function"
    },
    {
      "inputs": [],
      "name": "activePool",
      "outputs": [
        {
          "internalType": "contract IActivePool",
          "name": "",
          "type": "address"
        }
      ],
      "stateMutability": "view",
      "type": "function"
    },
    {
      "inputs": [],
      "name": "borrowerOperations",
      "outputs": [
        {
          "internalType": "contract IBorrowerOperations",
          "name": "",
          "type": "address"
        }
      ],
      "stateMutability": "view",
      "type": "function"
    },
    {
      "inputs": [],
      "name": "communityIssuance",
      "outputs": [
        {
          "internalType": "contract ICommunityIssuance",
          "name": "",
          "type": "address"
        }
      ],
      "stateMutability": "view",
      "type": "function"
    },
    {
      "inputs": [],
      "name": "currentEpoch",
      "outputs": [
        {
          "internalType": "uint256",
          "name": "",
          "type": "uint256"
        }
      ],
      "stateMutability": "view",
      "type": "function"
    },
    {
      "inputs": [],
      "name": "currentScale",
      "outputs": [
        {
          "internalType": "uint256",
          "name": "",
          "type": "uint256"
        }
      ],
      "stateMutability": "view",
      "type": "function"
    },
    {
      "inputs": [],
      "name": "defaultPool",
      "outputs": [
        {
          "internalType": "contract IDefaultPool",
          "name": "",
          "type": "address"
        }
      ],
      "stateMutability": "view",
      "type": "function"
    },
    {
      "inputs": [
        {
          "internalType": "address",
          "name": "",
          "type": "address"
        }
      ],
      "name": "depositSnapshots",
      "outputs": [
        {
          "internalType": "uint256",
          "name": "S",
          "type": "uint256"
        },
        {
          "internalType": "uint256",
          "name": "P",
          "type": "uint256"
        },
        {
          "internalType": "uint256",
          "name": "G",
          "type": "uint256"
        },
        {
          "internalType": "uint256",
          "name": "scale",
          "type": "uint256"
        },
        {
          "internalType": "uint256",
          "name": "epoch",
          "type": "uint256"
        }
      ],
      "stateMutability": "view",
      "type": "function"
    },
    {
      "inputs": [
        {
          "internalType": "address",
          "name": "",
          "type": "address"
        }
      ],
      "name": "deposits",
      "outputs": [
        {
          "internalType": "uint256",
          "name": "",
          "type": "uint256"
        }
      ],
      "stateMutability": "view",
      "type": "function"
    },
    {
      "inputs": [
        {
          "internalType": "uint256",
          "name": "",
          "type": "uint256"
        },
        {
          "internalType": "uint256",
          "name": "",
          "type": "uint256"
        }
      ],
      "name": "epochToScaleToG",
      "outputs": [
        {
          "internalType": "uint256",
          "name": "",
          "type": "uint256"
        }
      ],
      "stateMutability": "view",
      "type": "function"
    },
    {
      "inputs": [
        {
          "internalType": "uint256",
          "name": "",
          "type": "uint256"
        },
        {
          "internalType": "uint256",
          "name": "",
          "type": "uint256"
        }
      ],
      "name": "epochToScaleToSum",
      "outputs": [
        {
          "internalType": "uint256",
          "name": "",
          "type": "uint256"
        }
      ],
      "stateMutability": "view",
      "type": "function"
    },
    {
      "inputs": [
        {
          "internalType": "address",
          "name": "",
          "type": "address"
        }
      ],
      "name": "frontEndSnapshots",
      "outputs": [
        {
          "internalType": "uint256",
          "name": "S",
          "type": "uint256"
        },
        {
          "internalType": "uint256",
          "name": "P",
          "type": "uint256"
        },
        {
          "internalType": "uint256",
          "name": "G",
          "type": "uint256"
        },
        {
          "internalType": "uint256",
          "name": "scale",
          "type": "uint256"
        },
        {
          "internalType": "uint256",
          "name": "epoch",
          "type": "uint256"
        }
      ],
      "stateMutability": "view",
      "type": "function"
    },
    {
      "inputs": [
        {
          "internalType": "address",
          "name": "",
          "type": "address"
        }
      ],
      "name": "frontEndStakes",
      "outputs": [
        {
          "internalType": "uint256",
          "name": "",
          "type": "uint256"
        }
      ],
      "stateMutability": "view",
      "type": "function"
    },
    {
      "inputs": [
        {
          "internalType": "address",
          "name": "_frontEnd",
          "type": "address"
        }
      ],
      "name": "getCompoundedFrontEndStake",
      "outputs": [
        {
          "internalType": "uint256",
          "name": "",
          "type": "uint256"
        }
      ],
      "stateMutability": "view",
      "type": "function"
    },
    {
      "inputs": [
        {
          "internalType": "address",
          "name": "_depositor",
          "type": "address"
        }
      ],
      "name": "getCompoundedZKUSDDeposit",
      "outputs": [
        {
          "internalType": "uint256",
          "name": "",
          "type": "uint256"
        }
      ],
      "stateMutability": "view",
      "type": "function"
    },
    {
      "inputs": [
        {
          "internalType": "address",
          "name": "_depositor",
          "type": "address"
        }
      ],
      "name": "getDepositorNEONGain",
      "outputs": [
        {
          "internalType": "uint256",
          "name": "",
          "type": "uint256"
        }
      ],
      "stateMutability": "view",
      "type": "function"
    },
    {
      "inputs": [
        {
          "internalType": "address",
          "name": "_depositor",
          "type": "address"
        }
      ],
      "name": "getDepositorZKTGain",
      "outputs": [
        {
          "internalType": "uint256",
          "name": "",
          "type": "uint256"
        }
      ],
      "stateMutability": "view",
      "type": "function"
    },
    {
      "inputs": [],
      "name": "getEntireSystemColl",
      "outputs": [
        {
          "internalType": "uint256",
          "name": "entireSystemColl",
          "type": "uint256"
        }
      ],
      "stateMutability": "view",
      "type": "function"
    },
    {
      "inputs": [],
      "name": "getEntireSystemDebt",
      "outputs": [
        {
          "internalType": "uint256",
          "name": "entireSystemDebt",
          "type": "uint256"
        }
      ],
      "stateMutability": "view",
      "type": "function"
    },
    {
      "inputs": [
        {
          "internalType": "address",
          "name": "_frontEnd",
          "type": "address"
        }
      ],
      "name": "getFrontEndZKTGain",
      "outputs": [
        {
          "internalType": "uint256",
          "name": "",
          "type": "uint256"
        }
      ],
      "stateMutability": "view",
      "type": "function"
    },
    {
      "inputs": [],
      "name": "getNEON",
      "outputs": [
        {
          "internalType": "uint256",
          "name": "",
          "type": "uint256"
        }
      ],
      "stateMutability": "view",
      "type": "function"
    },
    {
      "inputs": [],
      "name": "getTotalZKUSDDeposits",
      "outputs": [
        {
          "internalType": "uint256",
          "name": "",
          "type": "uint256"
        }
      ],
      "stateMutability": "view",
      "type": "function"
    },
    {
      "inputs": [],
      "name": "lastNEONError_Offset",
      "outputs": [
        {
          "internalType": "uint256",
          "name": "",
          "type": "uint256"
        }
      ],
      "stateMutability": "view",
      "type": "function"
    },
    {
      "inputs": [],
      "name": "lastZKTError",
      "outputs": [
        {
          "internalType": "uint256",
          "name": "",
          "type": "uint256"
        }
      ],
      "stateMutability": "view",
      "type": "function"
    },
    {
      "inputs": [],
      "name": "lastZKUSDLossError_Offset",
      "outputs": [
        {
          "internalType": "uint256",
          "name": "",
          "type": "uint256"
        }
      ],
      "stateMutability": "view",
      "type": "function"
    },
    {
      "inputs": [
        {
          "internalType": "uint256",
          "name": "_debtToOffset",
          "type": "uint256"
        },
        {
          "internalType": "uint256",
          "name": "_collToAdd",
          "type": "uint256"
        }
      ],
      "name": "offset",
      "outputs": [],
      "stateMutability": "nonpayable",
      "type": "function"
    },
    {
      "inputs": [],
      "name": "owner",
      "outputs": [
        {
          "internalType": "address",
          "name": "",
          "type": "address"
        }
      ],
      "stateMutability": "view",
      "type": "function"
    },
    {
      "inputs": [],
      "name": "priceFeed",
      "outputs": [
        {
          "internalType": "contract IPriceFeed",
          "name": "",
          "type": "address"
        }
      ],
      "stateMutability": "view",
      "type": "function"
    },
    {
      "inputs": [
        {
          "internalType": "uint256",
          "name": "_amount",
          "type": "uint256"
        }
      ],
      "name": "provideToSP",
      "outputs": [],
      "stateMutability": "nonpayable",
      "type": "function"
    },
    {
      "inputs": [],
      "name": "renounceOwnership",
      "outputs": [],
      "stateMutability": "nonpayable",
      "type": "function"
    },
    {
      "inputs": [
        {
          "internalType": "address",
          "name": "_borrowerOperationsAddress",
          "type": "address"
        },
        {
          "internalType": "address",
          "name": "_troveManagerAddress",
          "type": "address"
        },
        {
          "internalType": "address",
          "name": "_activePoolAddress",
          "type": "address"
        },
        {
          "internalType": "address",
          "name": "_zkusdTokenAddress",
          "type": "address"
        },
        {
          "internalType": "address",
          "name": "_sortedTrovesAddress",
          "type": "address"
        },
        {
          "internalType": "address",
          "name": "_priceFeedAddress",
          "type": "address"
        },
        {
          "internalType": "address",
          "name": "_communityIssuanceAddress",
          "type": "address"
        },
        {
          "internalType": "address",
          "name": "_treasuryAddress",
          "type": "address"
        }
      ],
      "name": "setAddresses",
      "outputs": [],
      "stateMutability": "nonpayable",
      "type": "function"
    },
    {
      "inputs": [
        {
          "internalType": "uint256",
          "name": "_defaultKickBackRate",
          "type": "uint256"
        }
      ],
      "name": "setDefaultKickbackRate",
      "outputs": [],
      "stateMutability": "nonpayable",
      "type": "function"
    },
    {
      "inputs": [],
      "name": "sortedTroves",
      "outputs": [
        {
          "internalType": "contract ISortedTroves",
          "name": "",
          "type": "address"
        }
      ],
      "stateMutability": "view",
      "type": "function"
    },
    {
      "inputs": [
        {
          "internalType": "address",
          "name": "newOwner",
          "type": "address"
        }
      ],
      "name": "transferOwnership",
      "outputs": [],
      "stateMutability": "nonpayable",
      "type": "function"
    },
    {
      "inputs": [],
      "name": "treasury",
      "outputs": [
        {
          "internalType": "address",
          "name": "",
          "type": "address"
        }
      ],
      "stateMutability": "view",
      "type": "function"
    },
    {
      "inputs": [],
      "name": "troveManager",
      "outputs": [
        {
          "internalType": "contract ITroveManager",
          "name": "",
          "type": "address"
        }
      ],
      "stateMutability": "view",
      "type": "function"
    },
    {
      "inputs": [
        {
          "internalType": "uint256",
          "name": "_amount",
          "type": "uint256"
        }
      ],
      "name": "withdrawFromSP",
      "outputs": [],
      "stateMutability": "nonpayable",
      "type": "function"
    },
    {
      "inputs": [
        {
          "internalType": "address",
          "name": "_upperHint",
          "type": "address"
        },
        {
          "internalType": "address",
          "name": "_lowerHint",
          "type": "address"
        }
      ],
      "name": "withdrawNEONGainToTrove",
      "outputs": [],
      "stateMutability": "nonpayable",
      "type": "function"
    },
    {
      "inputs": [],
      "name": "zkusdToken",
      "outputs": [
        {
          "internalType": "contract IZKUSDToken",
          "name": "",
          "type": "address"
        }
      ],
      "stateMutability": "view",
      "type": "function"
    },
    {
      "stateMutability": "payable",
      "type": "receive"
    }
  ],
  "transactionHash": "0x4506320cac34f0fa4e245a456fb915fd62e511ee5f67fb66932a9efa166cca51",
  "args": [],
  "numDeployments": 1,
  "solcInputHash": "035045f1e037f3a6258fc3cece2987fc",
  "bytecode": "0x60806040526103e86200001c670de0b6b3a7640000600a620000d2565b620000289190620000f2565b6200003c90670de0b6b3a764000062000115565b600e55670de0b6b3a76400006011553480156200005857600080fd5b5062000064336200006a565b6200012b565b600380546001600160a01b038381166001600160a01b0319831681179093556040519116919082907f8be0079c531659141344cd1fd0a4f28419497f9722a3daafe3b4186f6b6457e090600090a35050565b634e487b7160e01b600052601160045260246000fd5b8082028115828204841417620000ec57620000ec620000bc565b92915050565b6000826200011057634e487b7160e01b600052601260045260246000fd5b500490565b81810381811115620000ec57620000ec620000bc565b612fb9806200013b6000396000f3fe60806040526004361061032d5760003560e01c806385554c42116101a5578063aeafa414116100ec578063df9cd84f11610095578063f2fde38b1161006f578063f2fde38b14610998578063f92d3433146109b8578063fbf92d91146109cd578063fc7e286d146109e357600080fd5b8063df9cd84f14610920578063e681526314610940578063eb6b2fa61461096057600080fd5b8063d733cfd0116100c6578063d733cfd0146108cb578063daec271e146108eb578063dbd1e2661461090b57600080fd5b8063aeafa41414610876578063c192645b14610896578063ce4b5bbe146108b357600080fd5b806395fb16bb1161014e578063a4e59ac811610128578063a4e59ac814610820578063a7d7434f14610836578063ae9187541461085657600080fd5b806395fb16bb146107ba578063a20baee61461060f578063a3f4df7e146107da57600080fd5b80638b8fbd921161017f5780638b8fbd92146107715780638da5cb5b1461078757806393346319146107a557600080fd5b806385554c42146106f257806386da082414610712578063887105d31461075c57600080fd5b80635733d58f11610274578063741bef1a1161021d57806378c77a24116101f757806378c77a2414610681578063794e5724146106a1578063795d26c3146106bd5780637f7dde4a146106d257600080fd5b8063741bef1a1461062b578063766718081461064b57806377553ad41461066157600080fd5b806361d027b31161024e57806361d027b3146105da578063715018a6146105fa57806372fe25aa1461060f57600080fd5b80635733d58f146105595780635a0edf77146105755780635d2de642146105ad57600080fd5b806334178d36116102d65780633cc74225116102b05780633cc74225146105045780633d83908a146105245780634870dd9a1461054457600080fd5b806334178d361461049657806335a3f707146104ac57806336f08852146104e457600080fd5b80632e54bf95116103075780632e54bf951461043e5780632ee435bb14610460578063335525ad1461047657600080fd5b806315ec8d791461038657806316b9d3c5146103af5780631bf435551461042157600080fd5b366103815761033a610a10565b6009546103479034610a81565b60098190556040519081527f811b7ed7711f0ba505cb26488475859e4ad0abac3249fd69ed3345e854dd07089060200160405180910390a1005b600080fd5b34801561039257600080fd5b5061039c60175481565b6040519081526020015b60405180910390f35b3480156103bb57600080fd5b506103f96103ca366004612d5c565b601060205260009081526040902080546001820154600283015460038401546004909401549293919290919085565b604080519586526020860194909452928401919091526060830152608082015260a0016103a6565b34801561042d57600080fd5b5061039c6818650127cc3dc8000081565b34801561044a57600080fd5b5061045e610459366004612d80565b610a96565b005b34801561046c57600080fd5b5061039c60185481565b34801561048257600080fd5b5061045e610491366004612d99565b610c19565b3480156104a257600080fd5b5061039c600e5481565b3480156104b857600080fd5b506006546104cc906001600160a01b031681565b6040516001600160a01b0390911681526020016103a6565b3480156104f057600080fd5b5061045e6104ff366004612dbb565b610c7b565b34801561051057600080fd5b506001546104cc906001600160a01b031681565b34801561053057600080fd5b506005546104cc906001600160a01b031681565b34801561055057600080fd5b5061039c60c881565b34801561056557600080fd5b5061039c6714d1120d7b16000081565b34801561058157600080fd5b5061039c610590366004612d99565b601560209081526000928352604080842090915290825290205481565b3480156105b957600080fd5b5061039c6105c8366004612d5c565b600f6020526000908152604090205481565b3480156105e657600080fd5b50600d546104cc906001600160a01b031681565b34801561060657600080fd5b5061045e610eb3565b34801561061b57600080fd5b5061039c670de0b6b3a764000081565b34801561063757600080fd5b506002546104cc906001600160a01b031681565b34801561065757600080fd5b5061039c60135481565b34801561066d57600080fd5b506004546104cc906001600160a01b031681565b34801561068d57600080fd5b5061045e61069c366004612d80565b610ec5565b3480156106ad57600080fd5b5061039c670f43fc2c04ee000081565b3480156106c957600080fd5b5061039c61102b565b3480156106de57600080fd5b506000546104cc906001600160a01b031681565b3480156106fe57600080fd5b5061045e61070d366004612d80565b611127565b34801561071e57600080fd5b506103f961072d366004612d5c565b600c60205260009081526040902080546001820154600283015460038401546004909401549293919290919085565b34801561076857600080fd5b5061039c61118c565b34801561077d57600080fd5b5061039c60115481565b34801561079357600080fd5b506003546001600160a01b03166104cc565b3480156107b157600080fd5b5060095461039c565b3480156107c657600080fd5b506008546104cc906001600160a01b031681565b3480156107e657600080fd5b506108136040518060400160405280600d81526020016c14dd18589a5b1a5d1e541bdbdb609a1b81525081565b6040516103a69190612df4565b34801561082c57600080fd5b5061039c60125481565b34801561084257600080fd5b5061039c610851366004612d5c565b611251565b34801561086257600080fd5b506007546104cc906001600160a01b031681565b34801561088257600080fd5b5061039c610891366004612d5c565b6112e0565b3480156108a257600080fd5b5061039c6802b5e3af16b188000081565b3480156108bf57600080fd5b5061039c633b9aca0081565b3480156108d757600080fd5b5061045e6108e6366004612e42565b611384565b3480156108f757600080fd5b5061039c610906366004612d5c565b6115f6565b34801561091757600080fd5b50600a5461039c565b34801561092c57600080fd5b5061039c61093b366004612d5c565b61167c565b34801561094c57600080fd5b5061039c61095b366004612d5c565b611702565b34801561096c57600080fd5b5061039c61097b366004612d99565b601460209081526000928352604080842090915290825290205481565b3480156109a457600080fd5b5061045e6109b3366004612d5c565b6117c9565b3480156109c457600080fd5b5061039c611842565b3480156109d957600080fd5b5061039c60165481565b3480156109ef57600080fd5b5061039c6109fe366004612d5c565b600b6020526000908152604090205481565b6000546001600160a01b03163314610a7f5760405162461bcd60e51b815260206004820152602760248201527f53746162696c697479506f6f6c3a2043616c6c6572206973206e6f74204163746044820152661a5d99541bdbdb60ca1b60648201526084015b60405180910390fd5b565b6000610a8d8284612f01565b90505b92915050565b8015610aa457610aa4611864565b336000908152600b6020526040902054610abd81611a5c565b6008546001600160a01b0316610ad281611ad2565b6000610add336115f6565b90506000610aea33611251565b90506000610af88683611b47565b90506000610b068684611b5d565b9050610b128533611b69565b6000610b1d3361167c565b90506000610b2b8285611b5d565b9050610b373382611cd8565b604080518281523360208201819052917f99920012339b5a3368d3a04b8606ce412c46ed92b7dcd8602d41fc8862cb8f25910160405180910390a2610b7c3385611e07565b6000610b888686611b5d565b9050610b943382611e88565b60405181815233907fbce78369dccab09eec1986f4d409ab09ffbb47d65423e5148fcf98411c5111c99060200160405180910390a2604080518881526020810186905233917fa184c2a23328c4d34e34c78db11f79e4637ea59c07338e5a8dcb5e292b1580f8910160405180910390a2610c0d87611fd1565b50505050505050505050565b610c21612103565b600a54801580610c2f575082155b15610c3957505050565b600854610c4e906001600160a01b0316611ad2565b600080610c5c84868561216f565b91509150610c6a828261223d565b610c74848661249c565b5050505050565b336000908152600b6020526040902054610c9481611a5c565b610c9d336125ce565b610ca6336126c1565b6008546001600160a01b0316610cbb81611ad2565b6000610cc6336115f6565b90506000610cd333611251565b90506000610ce18583611b5d565b9050610ced8433611b69565b6000610cf83361167c565b905080610d053382611cd8565b604080518281523360208201819052917f99920012339b5a3368d3a04b8606ce412c46ed92b7dcd8602d41fc8862cb8f25910160405180910390a2610d4a3385611e88565b604080518681526020810185905233917fa184c2a23328c4d34e34c78db11f79e4637ea59c07338e5a8dcb5e292b1580f8910160405180910390a260405184815233907fbce78369dccab09eec1986f4d409ab09ffbb47d65423e5148fcf98411c5111c99060200160405180910390a2600954610dc79086611b5d565b60098190556040519081527f811b7ed7711f0ba505cb26488475859e4ad0abac3249fd69ed3345e854dd07089060200160405180910390a160408051338152602081018790527f6109e2559dfa766aaec7118351d48a523f0a4157f49c8d68749c8ac41318ad12910160405180910390a1600480546040516306b26c8760e21b815233928101929092526001600160a01b038b811660248401528a811660448401521690631ac9b21c9087906064016000604051808303818588803b158015610e8f57600080fd5b505af1158015610ea3573d6000803e3d6000fd5b5050505050505050505050505050565b610ebb612744565b610a7f600061279e565b610ece816127fd565b336000908152600b60205260409020546008546001600160a01b0316610ef381611ad2565b6000610efe336115f6565b90506000610f0b33611251565b90506000610f198583611b5d565b9050610f258433611b69565b6000610f303361167c565b90506000610f3e8289610a81565b9050610f4a3382611cd8565b604080518281523360208201819052917f99920012339b5a3368d3a04b8606ce412c46ed92b7dcd8602d41fc8862cb8f25910160405180910390a2610f8f338961285c565b6000610f9b858a610a81565b9050610fa73382611e88565b60405181815233907fbce78369dccab09eec1986f4d409ab09ffbb47d65423e5148fcf98411c5111c99060200160405180910390a2604080518781526020810186905233917fa184c2a23328c4d34e34c78db11f79e4637ea59c07338e5a8dcb5e292b1580f8910160405180910390a261102086611fd1565b505050505050505050565b600080546040805163512a9ebb60e01b8152905183926001600160a01b03169163512a9ebb9160048083019260209291908290030181865afa158015611075573d6000803e3d6000fd5b505050506040513d601f19601f820116820180604052508101906110999190612f14565b90506000600160009054906101000a90046001600160a01b03166001600160a01b031663512a9ebb6040518163ffffffff1660e01b8152600401602060405180830381865afa1580156110f0573d6000803e3d6000fd5b505050506040513d601f19601f820116820180604052508101906111149190612f14565b90506111208282610a81565b9250505090565b61112f612744565b670de0b6b3a76400008111156111875760405162461bcd60e51b815260206004820152601160248201527f444543494d414c5f505245434953494f4e0000000000000000000000000000006044820152606401610a76565b600e55565b6000805460408051639334631960e01b8152905183926001600160a01b03169163933463199160048083019260209291908290030181865afa1580156111d6573d6000803e3d6000fd5b505050506040513d601f19601f820116820180604052508101906111fa9190612f14565b90506000600160009054906101000a90046001600160a01b03166001600160a01b031663933463196040518163ffffffff1660e01b8152600401602060405180830381865afa1580156110f0573d6000803e3d6000fd5b6001600160a01b0381166000908152600b602052604081205480820361127a5750600092915050565b6001600160a01b0383166000908152600c60209081526040808320815160a0810183528154815260018201549381019390935260028101549183019190915260038101546060830152600401546080820152906112d78383612918565b95945050505050565b6001600160a01b0381166000908152600b60205260408120548082036113095750600092915050565b6001600160a01b0383166000908152600c60209081526040808320815160a0810183528154815260018201549381019390935260028101549183019190915260038101546060830152600401546080820152906112d7670de0b6b3a764000061137e61137586866129e1565b600e5490612a97565b90612aa3565b61138c612744565b61139588612aaf565b61139e87612aaf565b6113a786612aaf565b6113b085612aaf565b6113b984612aaf565b6113c283612aaf565b6113cb82612aaf565b6004805473ffffffffffffffffffffffffffffffffffffffff199081166001600160a01b038b81169182179093556005805483168b85161790556000805483168a8516179055600680548316898516179055600780548316888516179055600280548316878516179055600880548316868516179055600d80549092169284169290921790556040519081527f3ca631ffcd2a9b5d9ae18543fc82f58eb4ca33af9e6ab01b7a8e95331e6ed9859060200160405180910390a16040516001600160a01b03881681527f143219c9e69b09e07e095fcc889b43d8f46ca892bba65f08dc3a0050869a56789060200160405180910390a16040516001600160a01b03871681527f78f058b189175430c48dc02699e3a0031ea4ff781536dc2fab847de4babdd8829060200160405180910390a16040516001600160a01b03861681527fbce04ccd812fbb02ec2145498f813470d7b7587b19477428388fe8201a1521319060200160405180910390a16040516001600160a01b03851681527f65f4cf077bc01e4742eb5ad98326f6e95b63548ea24b17f8d5e823111fe788009060200160405180910390a16040516001600160a01b03841681527f8c537274438aa850a330284665d81a85dd38267d09e4050d416bfc94142db2649060200160405180910390a16040516001600160a01b03831681527f3055265812fb8447b9ada4a5d804ec43bd528ec40e89c952bbc7b85dc5ac68119060200160405180910390a15050505050505050565b6001600160a01b0381166000908152600b602052604081205480820361161f5750600092915050565b6001600160a01b0383166000908152600c60209081526040808320815160a0810183528154815260018201549381019390935260028101549183019190915260038101546060830152600401546080820152906112d78383612b5c565b6001600160a01b0381166000908152600f60205260408120548082036116a55750600092915050565b6001600160a01b0383166000908152601060209081526040808320815160a0810183528154815260018201549381019390935260028101549183019190915260038101546060830152600401546080820152906112d78383612918565b6001600160a01b0381166000908152600f602052604081205480820361172b5750600092915050565b600061174a600e54670de0b6b3a7640000611b5d90919063ffffffff16565b6001600160a01b0385166000908152601060209081526040808320815160a08101835281548152600182015493810193909352600281015491830191909152600381015460608301526004015460808201529192506117bf670de0b6b3a764000061137e6117b887866129e1565b8690612a97565b9695505050505050565b6117d1612744565b6001600160a01b0381166118365760405162461bcd60e51b815260206004820152602660248201527f4f776e61626c653a206e6577206f776e657220697320746865207a65726f206160448201526564647265737360d01b6064820152608401610a76565b61183f8161279e565b50565b6118566103e8670de0b6b3a7640000612f2d565b611861906005612f4f565b81565b60025460408051630fdb11cf60e01b815290516000926001600160a01b031691630fdb11cf916004808301926020929190829003018187875af11580156118af573d6000803e3d6000fd5b505050506040513d601f19601f820116820180604052508101906118d39190612f14565b90506000600760009054906101000a90046001600160a01b03166001600160a01b0316634d6228316040518163ffffffff1660e01b8152600401602060405180830381865afa15801561192a573d6000803e3d6000fd5b505050506040513d601f19601f8201168201806040525081019061194e9190612f66565b600554604051630d293c7160e41b81526001600160a01b038084166004830152602482018690529293506000929091169063d293c71090604401602060405180830381865afa1580156119a5573d6000803e3d6000fd5b505050506040513d601f19601f820116820180604052508101906119c99190612f14565b9050670f43fc2c04ee0000811015611a575760405162461bcd60e51b8152602060048201526044602482018190527f53746162696c697479506f6f6c3a2043616e6e6f742077697468647261772077908201527f68696c65207468657265206172652074726f766573207769746820494352203c6064820152631026a1a960e11b608482015260a401610a76565b505050565b6000811161183f5760405162461bcd60e51b815260206004820152603060248201527f53746162696c697479506f6f6c3a2055736572206d757374206861766520612060448201527f6e6f6e2d7a65726f206465706f736974000000000000000000000000000000006064820152608401610a76565b6000816001600160a01b031663a9d394806040518163ffffffff1660e01b81526004016020604051808303816000875af1158015611b14573d6000803e3d6000fd5b505050506040513d601f19601f82011682018060405250810190611b389190612f14565b9050611b4381612bbf565b5050565b6000818310611b565781610a8d565b5090919050565b6000610a8d8284612f83565b6000611b7482611702565b600d54604051630e04ac8f60e11b81526001600160a01b03918216600482015260248101839052919250841690631c09591e90604401600060405180830381600087803b158015611bc457600080fd5b505af1158015611bd8573d6000803e3d6000fd5b5050600d546040518481526001600160a01b0390911692507f1b5a24a60494bc3156f87c622d15f9e3fe9afe48f3bad341f020203480721844915060200160405180910390a26000611c29836112e0565b604051630e04ac8f60e11b81526001600160a01b0385811660048301526024820183905291925090851690631c09591e90604401600060405180830381600087803b158015611c7757600080fd5b505af1158015611c8b573d6000803e3d6000fd5b50505050826001600160a01b03167f2100cd07c3a49fa04dd1d90e15284b0b70b3b84a05d9486b474a2a51e631bf0682604051611cca91815260200190565b60405180910390a250505050565b6001600160a01b0382166000908152600f60205260408120829055819003611d74576001600160a01b038216600081815260106020526040808220828155600181018390556002810183905560038101839055600401829055517fbb1322f85cc7cc8bac4e172a5bc5dcc0c1959007f9a030032abf9258205f0e4591611d68918190918252602082015260400190565b60405180910390a25050565b60125460135460115460008281526015602090815260408083208684528252808320546001600160a01b0389168085526010845293829020600181018690556002810182905560038101889055600401869055815185815292830181905292917fbb1322f85cc7cc8bac4e172a5bc5dcc0c1959007f9a030032abf9258205f0e45910160405180910390a2505050505050565b80600003611e13575050565b600654604051631062c15f60e11b81523060048201526001600160a01b03848116602483015260448201849052909116906320c582be90606401600060405180830381600087803b158015611e6757600080fd5b505af1158015611e7b573d6000803e3d6000fd5b50505050611b4381612ca5565b6001600160a01b0382166000908152600b60205260408120829055819003611f1e576001600160a01b0382166000818152600c6020908152604080832083815560018101849055600281018490556003810184905560040183905580518381529182018390528101919091527f2d6cc0bcdf72c9486f6451bde6b80f44066f4558f77f44dbfedbe7d8b295225a90606001611d68565b6012546013546011546000828152601460209081526040808320868452825280832054858452601583528184208785528352818420546001600160a01b038a16808652600c85529483902060018101879055828155600281018290556003810189905560040187905582518681529384018290529183018290529290917f2d6cc0bcdf72c9486f6451bde6b80f44066f4558f77f44dbfedbe7d8b295225a9060600160405180910390a250505050505050565b80600003611fdc5750565b600954600090611fec9083611b5d565b60098190556040518181529091507f811b7ed7711f0ba505cb26488475859e4ad0abac3249fd69ed3345e854dd07089060200160405180910390a160408051338152602081018490527f6109e2559dfa766aaec7118351d48a523f0a4157f49c8d68749c8ac41318ad12910160405180910390a1604051600090339084908381818185875af1925050503d80600081146120a2576040519150601f19603f3d011682016040523d82523d6000602084013e6120a7565b606091505b5050905080611a575760405162461bcd60e51b815260206004820152602260248201527f53746162696c697479506f6f6c3a2073656e64696e67204e454f4e206661696c604482015261195960f21b6064820152608401610a76565b6005546001600160a01b03163314610a7f5760405162461bcd60e51b815260206004820152602960248201527f53746162696c697479506f6f6c3a2043616c6c6572206973206e6f742054726f6044820152683b32a6b0b730b3b2b960b91b6064820152608401610a76565b600080600061219b601754612195670de0b6b3a764000089612a9790919063ffffffff16565b90610a81565b9050838511156121ad576121ad612f96565b8385036121c9576000601855670de0b6b3a76400009150612211565b6018546000906121eb906121e588670de0b6b3a7640000612a97565b90611b5d565b90506121fc60016121958388612aa3565b925061220c816121e58588612a97565b601855505b61221b8185612aa3565b925061223161222a8486612a97565b8290611b5d565b60175550935093915050565b6011546000670de0b6b3a764000083111561225a5761225a612f96565b600061226e670de0b6b3a764000085611b5d565b60125460135460008181526014602090815260408083208584529091528120549394509192909161229f8988612a97565b905060006122ad8383610a81565b600085815260146020908152604080832089845282529182902083905581518381529081018790529081018790529091507ff258cb8cfa272c0e6630207ad61a9e61acc2a2c4e24ab2500f9d47028f877d109060600160405180910390a1856000036123a05761231e846001610a81565b60138190556040519081527fb33a1f54dde4e0082c45281b338d78b2c4b5be163b6ffffa5d0d6d1050ba5a589060200160405180910390a1600060128190556040519081527f3bed654efb708b58f2d77966f880bd1798be286fdd36983d20cbf0897e186c6e9060200160405180910390a1670de0b6b3a76400009650612448565b633b9aca006123bb670de0b6b3a764000061137e8b8a612a97565b101561242f576123e5670de0b6b3a764000061137e633b9aca006123df8c8b612a97565b90612a97565b96506123f2856001610a81565b60128190556040519081527f3bed654efb708b58f2d77966f880bd1798be286fdd36983d20cbf0897e186c6e9060200160405180910390a1612448565b612445670de0b6b3a764000061137e8a89612a97565b96505b6000871161245857612458612f96565b60118790556040518781527fc1a9618cb59ebca77cbdbc2949f126823c407ff13edb285fd0262519a9c18e8c9060200160405180910390a150505050505050505050565b6000546040516305af902160e31b8152600481018390526001600160a01b03909116908190632d7c810890602401600060405180830381600087803b1580156124e457600080fd5b505af11580156124f8573d6000803e3d6000fd5b5050505061250582612ca5565b600654604051632770a7eb60e21b8152306004820152602481018490526001600160a01b0390911690639dc29fac90604401600060405180830381600087803b15801561255157600080fd5b505af1158015612565573d6000803e3d6000fd5b50506040516373333ae560e11b8152306004820152602481018690526001600160a01b038416925063e66675ca9150604401600060405180830381600087803b1580156125b157600080fd5b505af11580156125c5573d6000803e3d6000fd5b50505050505050565b6005546040516321e3780160e01b81526001600160a01b038381166004830152909116906321e3780190602401602060405180830381865afa158015612618573d6000803e3d6000fd5b505050506040513d601f19601f8201168201806040525081019061263c9190612f14565b60011461183f5760405162461bcd60e51b815260206004820152604760248201527f53746162696c697479506f6f6c3a2063616c6c6572206d75737420686176652060448201527f616e206163746976652074726f766520746f207769746864726177204e454f4e6064820152664761696e20746f60c81b608482015260a401610a76565b60006126cc826115f6565b905060008111611b435760405162461bcd60e51b815260206004820152603260248201527f53746162696c697479506f6f6c3a2063616c6c6572206d75737420686176652060448201527f6e6f6e2d7a65726f204e454f4e204761696e00000000000000000000000000006064820152608401610a76565b6003546001600160a01b03163314610a7f5760405162461bcd60e51b815260206004820181905260248201527f4f776e61626c653a2063616c6c6572206973206e6f7420746865206f776e65726044820152606401610a76565b600380546001600160a01b0383811673ffffffffffffffffffffffffffffffffffffffff19831681179093556040519116919082907f8be0079c531659141344cd1fd0a4f28419497f9722a3daafe3b4186f6b6457e090600090a35050565b6000811161183f5760405162461bcd60e51b815260206004820152602660248201527f53746162696c697479506f6f6c3a20416d6f756e74206d757374206265206e6f6044820152656e2d7a65726f60d01b6064820152608401610a76565b600654604051632ee65eeb60e21b81526001600160a01b038481166004830152306024830152604482018490529091169063bb997bac90606401600060405180830381600087803b1580156128b057600080fd5b505af11580156128c4573d6000803e3d6000fd5b5050600a54600092506128d8915083610a81565b600a8190556040518181529091507fc5ee6fb858a22859c568a103df828f481b378a432ae4e0a5cbc076430130bdb29060200160405180910390a1505050565b6020810151606082015160808301516013546000939291908110156129435760009350505050610a90565b60008061295b84601254611b5d90919063ffffffff16565b9050806000036129855761297e8561137e6011548b612a9790919063ffffffff16565b91506129b3565b806001036129ae5761297e633b9aca0061137e8761137e6011548d612a9790919063ffffffff16565b600091505b6129c188633b9aca00612aa3565b8210156129d657600095505050505050610a90565b509695505050505050565b608081015160608201516040808401516020808601516000868152601583528481208682529092529281205490949392908590612a1e9084611b5d565b600086815260156020526040812091925090612a6390633b9aca009083612a46896001610a81565b815260200190815260200160002054612aa390919063ffffffff16565b90506000612a89670de0b6b3a764000061137e8681612a828888610a81565b8f90612a97565b9a9950505050505050505050565b6000610a8d8284612f4f565b6000610a8d8284612f2d565b6001600160a01b038116612b055760405162461bcd60e51b815260206004820152601e60248201527f4163636f756e742063616e6e6f74206265207a65726f206164647265737300006044820152606401610a76565b6001600160a01b0381163b61183f5760405162461bcd60e51b815260206004820181905260248201527f4163636f756e7420636f64652073697a652063616e6e6f74206265207a65726f6044820152606401610a76565b60808101516060820151825160208085015160008581526014835260408082208683529093529182205491949392918590612b979084611b5d565b600086815260146020526040812091925090612a6390633b9aca009083612a46896001610a81565b600a54801580612bcd575081155b15612bd6575050565b6000612be28383612cf4565b90506000612bfb60115483612a9790919063ffffffff16565b60135460009081526015602090815260408083206012548452909152902054909150612c279082610a81565b6013805460009081526015602081815260408084206012805486529083528185209690965593548084529181528383209454808452948152918390205483519081529182015280820192909252517ff183c509dedcdb1c9bd9cdcbf39fa395eedecb48f9666dcef9da50f7f2084e529181900360600190a150505050565b600a54600090612cb59083611b5d565b600a8190556040518181529091507fc5ee6fb858a22859c568a103df828f481b378a432ae4e0a5cbc076430130bdb29060200160405180910390a15050565b600080612d18601654612195670de0b6b3a764000087612a9790919063ffffffff16565b90506000612d268285612aa3565b9050612d3c612d358286612a97565b8390611b5d565b601655949350505050565b6001600160a01b038116811461183f57600080fd5b600060208284031215612d6e57600080fd5b8135612d7981612d47565b9392505050565b600060208284031215612d9257600080fd5b5035919050565b60008060408385031215612dac57600080fd5b50508035926020909101359150565b60008060408385031215612dce57600080fd5b8235612dd981612d47565b91506020830135612de981612d47565b809150509250929050565b600060208083528351808285015260005b81811015612e2157858101830151858201604001528201612e05565b506000604082860101526040601f19601f8301168501019250505092915050565b600080600080600080600080610100898b031215612e5f57600080fd5b8835612e6a81612d47565b97506020890135612e7a81612d47565b96506040890135612e8a81612d47565b95506060890135612e9a81612d47565b94506080890135612eaa81612d47565b935060a0890135612eba81612d47565b925060c0890135612eca81612d47565b915060e0890135612eda81612d47565b809150509295985092959890939650565b634e487b7160e01b600052601160045260246000fd5b80820180821115610a9057610a90612eeb565b600060208284031215612f2657600080fd5b5051919050565b600082612f4a57634e487b7160e01b600052601260045260246000fd5b500490565b8082028115828204841417610a9057610a90612eeb565b600060208284031215612f7857600080fd5b8151612d7981612d47565b81810381811115610a9057610a90612eeb565b634e487b7160e01b600052600160045260246000fdfea164736f6c6343000811000a",
  "devdoc": {
    "kind": "dev",
    "methods": {
      "owner()": {
        "details": "Returns the address of the current owner."
      },
      "renounceOwnership()": {
        "details": "Leaves the contract without owner. It will not be possible to call `onlyOwner` functions. Can only be called by the current owner. NOTE: Renouncing ownership will leave the contract without an owner, thereby disabling any functionality that is only available to the owner."
      },
      "transferOwnership(address)": {
        "details": "Transfers ownership of the contract to a new account (`newOwner`). Can only be called by the current owner."
      }
    },
    "version": 1
  },
  "userdoc": {
    "kind": "user",
    "methods": {},
    "version": 1
  },
  "storageLayout": {
    "storage": [
      {
        "astId": 4126,
        "contract": "contracts/protocol/StabilityPool.sol:StabilityPool",
        "label": "activePool",
        "offset": 0,
        "slot": "0",
        "type": "t_contract(IActivePool)4320"
      },
      {
        "astId": 4129,
        "contract": "contracts/protocol/StabilityPool.sol:StabilityPool",
        "label": "defaultPool",
        "offset": 0,
        "slot": "1",
        "type": "t_contract(IDefaultPool)4673"
      },
      {
        "astId": 4132,
        "contract": "contracts/protocol/StabilityPool.sol:StabilityPool",
        "label": "priceFeed",
        "offset": 0,
        "slot": "2",
        "type": "t_contract(IPriceFeed)4759"
      },
      {
        "astId": 53,
        "contract": "contracts/protocol/StabilityPool.sol:StabilityPool",
        "label": "_owner",
        "offset": 0,
        "slot": "3",
        "type": "t_address"
      },
      {
        "astId": 13024,
        "contract": "contracts/protocol/StabilityPool.sol:StabilityPool",
        "label": "borrowerOperations",
        "offset": 0,
        "slot": "4",
        "type": "t_contract(IBorrowerOperations)4556"
      },
      {
        "astId": 13027,
        "contract": "contracts/protocol/StabilityPool.sol:StabilityPool",
        "label": "troveManager",
        "offset": 0,
        "slot": "5",
        "type": "t_contract(ITroveManager)5581"
      },
      {
        "astId": 13030,
        "contract": "contracts/protocol/StabilityPool.sol:StabilityPool",
        "label": "zkusdToken",
        "offset": 0,
        "slot": "6",
        "type": "t_contract(IZKUSDToken)5817"
      },
      {
        "astId": 13033,
        "contract": "contracts/protocol/StabilityPool.sol:StabilityPool",
        "label": "sortedTroves",
        "offset": 0,
        "slot": "7",
        "type": "t_contract(ISortedTroves)4907"
      },
      {
        "astId": 13036,
        "contract": "contracts/protocol/StabilityPool.sol:StabilityPool",
        "label": "communityIssuance",
        "offset": 0,
        "slot": "8",
        "type": "t_contract(ICommunityIssuance)4650"
      },
      {
        "astId": 13038,
        "contract": "contracts/protocol/StabilityPool.sol:StabilityPool",
        "label": "NEON",
        "offset": 0,
        "slot": "9",
        "type": "t_uint256"
      },
      {
        "astId": 13040,
        "contract": "contracts/protocol/StabilityPool.sol:StabilityPool",
        "label": "totalZKUSDDeposits",
        "offset": 0,
        "slot": "10",
        "type": "t_uint256"
      },
      {
        "astId": 13055,
        "contract": "contracts/protocol/StabilityPool.sol:StabilityPool",
        "label": "deposits",
        "offset": 0,
        "slot": "11",
        "type": "t_mapping(t_address,t_uint256)"
      },
      {
        "astId": 13060,
        "contract": "contracts/protocol/StabilityPool.sol:StabilityPool",
        "label": "depositSnapshots",
        "offset": 0,
        "slot": "12",
        "type": "t_mapping(t_address,t_struct(Snapshots)13051_storage)"
      },
      {
        "astId": 13062,
        "contract": "contracts/protocol/StabilityPool.sol:StabilityPool",
        "label": "treasury",
        "offset": 0,
        "slot": "13",
        "type": "t_address"
      },
      {
        "astId": 13072,
        "contract": "contracts/protocol/StabilityPool.sol:StabilityPool",
        "label": "DefaultKickbackRate",
        "offset": 0,
        "slot": "14",
        "type": "t_uint256"
      },
      {
        "astId": 13076,
        "contract": "contracts/protocol/StabilityPool.sol:StabilityPool",
        "label": "frontEndStakes",
        "offset": 0,
        "slot": "15",
        "type": "t_mapping(t_address,t_uint256)"
      },
      {
        "astId": 13081,
        "contract": "contracts/protocol/StabilityPool.sol:StabilityPool",
        "label": "frontEndSnapshots",
        "offset": 0,
        "slot": "16",
        "type": "t_mapping(t_address,t_struct(Snapshots)13051_storage)"
      },
      {
        "astId": 13084,
        "contract": "contracts/protocol/StabilityPool.sol:StabilityPool",
        "label": "P",
        "offset": 0,
        "slot": "17",
        "type": "t_uint256"
      },
      {
        "astId": 13089,
        "contract": "contracts/protocol/StabilityPool.sol:StabilityPool",
        "label": "currentScale",
        "offset": 0,
        "slot": "18",
        "type": "t_uint256"
      },
      {
        "astId": 13091,
        "contract": "contracts/protocol/StabilityPool.sol:StabilityPool",
        "label": "currentEpoch",
        "offset": 0,
        "slot": "19",
        "type": "t_uint256"
      },
      {
        "astId": 13097,
        "contract": "contracts/protocol/StabilityPool.sol:StabilityPool",
        "label": "epochToScaleToSum",
        "offset": 0,
        "slot": "20",
        "type": "t_mapping(t_uint256,t_mapping(t_uint256,t_uint256))"
      },
      {
        "astId": 13103,
        "contract": "contracts/protocol/StabilityPool.sol:StabilityPool",
        "label": "epochToScaleToG",
        "offset": 0,
        "slot": "21",
        "type": "t_mapping(t_uint256,t_mapping(t_uint256,t_uint256))"
      },
      {
        "astId": 13105,
        "contract": "contracts/protocol/StabilityPool.sol:StabilityPool",
        "label": "lastZKTError",
        "offset": 0,
        "slot": "22",
        "type": "t_uint256"
      },
      {
        "astId": 13107,
        "contract": "contracts/protocol/StabilityPool.sol:StabilityPool",
        "label": "lastNEONError_Offset",
        "offset": 0,
        "slot": "23",
        "type": "t_uint256"
      },
      {
        "astId": 13109,
        "contract": "contracts/protocol/StabilityPool.sol:StabilityPool",
        "label": "lastZKUSDLossError_Offset",
        "offset": 0,
        "slot": "24",
        "type": "t_uint256"
      }
    ],
    "types": {
      "t_address": {
        "encoding": "inplace",
        "label": "address",
        "numberOfBytes": "20"
      },
      "t_contract(IActivePool)4320": {
        "encoding": "inplace",
        "label": "contract IActivePool",
        "numberOfBytes": "20"
      },
      "t_contract(IBorrowerOperations)4556": {
        "encoding": "inplace",
        "label": "contract IBorrowerOperations",
        "numberOfBytes": "20"
      },
      "t_contract(ICommunityIssuance)4650": {
        "encoding": "inplace",
        "label": "contract ICommunityIssuance",
        "numberOfBytes": "20"
      },
      "t_contract(IDefaultPool)4673": {
        "encoding": "inplace",
        "label": "contract IDefaultPool",
        "numberOfBytes": "20"
      },
      "t_contract(IPriceFeed)4759": {
        "encoding": "inplace",
        "label": "contract IPriceFeed",
        "numberOfBytes": "20"
      },
      "t_contract(ISortedTroves)4907": {
        "encoding": "inplace",
        "label": "contract ISortedTroves",
        "numberOfBytes": "20"
      },
      "t_contract(ITroveManager)5581": {
        "encoding": "inplace",
        "label": "contract ITroveManager",
        "numberOfBytes": "20"
      },
      "t_contract(IZKUSDToken)5817": {
        "encoding": "inplace",
        "label": "contract IZKUSDToken",
        "numberOfBytes": "20"
      },
      "t_mapping(t_address,t_struct(Snapshots)13051_storage)": {
        "encoding": "mapping",
        "key": "t_address",
        "label": "mapping(address => struct StabilityPool.Snapshots)",
        "numberOfBytes": "32",
        "value": "t_struct(Snapshots)13051_storage"
      },
      "t_mapping(t_address,t_uint256)": {
        "encoding": "mapping",
        "key": "t_address",
        "label": "mapping(address => uint256)",
        "numberOfBytes": "32",
        "value": "t_uint256"
      },
      "t_mapping(t_uint256,t_mapping(t_uint256,t_uint256))": {
        "encoding": "mapping",
        "key": "t_uint256",
        "label": "mapping(uint256 => mapping(uint256 => uint256))",
        "numberOfBytes": "32",
        "value": "t_mapping(t_uint256,t_uint256)"
      },
      "t_mapping(t_uint256,t_uint256)": {
        "encoding": "mapping",
        "key": "t_uint256",
        "label": "mapping(uint256 => uint256)",
        "numberOfBytes": "32",
        "value": "t_uint256"
      },
      "t_struct(Snapshots)13051_storage": {
        "encoding": "inplace",
        "label": "struct StabilityPool.Snapshots",
        "members": [
          {
            "astId": 13042,
            "contract": "contracts/protocol/StabilityPool.sol:StabilityPool",
            "label": "S",
            "offset": 0,
            "slot": "0",
            "type": "t_uint256"
          },
          {
            "astId": 13044,
            "contract": "contracts/protocol/StabilityPool.sol:StabilityPool",
            "label": "P",
            "offset": 0,
            "slot": "1",
            "type": "t_uint256"
          },
          {
            "astId": 13046,
            "contract": "contracts/protocol/StabilityPool.sol:StabilityPool",
            "label": "G",
            "offset": 0,
            "slot": "2",
            "type": "t_uint256"
          },
          {
            "astId": 13048,
            "contract": "contracts/protocol/StabilityPool.sol:StabilityPool",
            "label": "scale",
            "offset": 0,
            "slot": "3",
            "type": "t_uint256"
          },
          {
            "astId": 13050,
            "contract": "contracts/protocol/StabilityPool.sol:StabilityPool",
            "label": "epoch",
            "offset": 0,
            "slot": "4",
            "type": "t_uint256"
          }
        ],
        "numberOfBytes": "160"
      },
      "t_uint256": {
        "encoding": "inplace",
        "label": "uint256",
        "numberOfBytes": "32"
      }
    }
  }
}