{
  "address": "0x48965fa744281d70F99d5d2Be675bF6acD218b3d",
  "abi": [
    {
      "anonymous": false,
      "inputs": [
        {
          "indexed": false,
          "internalType": "address",
          "name": "_activePoolAddress",
          "type": "address"
        }
      ],
      "name": "ActivePoolAddressChanged",
      "type": "event"
    },
    {
      "anonymous": false,
      "inputs": [
        {
          "indexed": false,
          "internalType": "uint256",
          "name": "_baseRate",
          "type": "uint256"
        }
      ],
      "name": "BaseRateUpdated",
      "type": "event"
    },
    {
      "anonymous": false,
      "inputs": [
        {
          "indexed": false,
          "internalType": "address",
          "name": "_newBorrowerOperationsAddress",
          "type": "address"
        }
      ],
      "name": "BorrowerOperationsAddressChanged",
      "type": "event"
    },
    {
      "anonymous": false,
      "inputs": [
        {
          "indexed": false,
          "internalType": "address",
          "name": "_collSurplusPoolAddress",
          "type": "address"
        }
      ],
      "name": "CollSurplusPoolAddressChanged",
      "type": "event"
    },
    {
      "anonymous": false,
      "inputs": [
        {
          "indexed": false,
          "internalType": "address",
          "name": "_defaultPoolAddress",
          "type": "address"
        }
      ],
      "name": "DefaultPoolAddressChanged",
      "type": "event"
    },
    {
      "anonymous": false,
      "inputs": [
        {
          "indexed": false,
          "internalType": "address",
          "name": "_gasPoolAddress",
          "type": "address"
        }
      ],
      "name": "GasPoolAddressChanged",
      "type": "event"
    },
    {
      "anonymous": false,
      "inputs": [
        {
          "indexed": false,
          "internalType": "uint256",
          "name": "_L_Native",
          "type": "uint256"
        },
        {
          "indexed": false,
          "internalType": "uint256",
          "name": "_L_Debt",
          "type": "uint256"
        }
      ],
      "name": "LTermsUpdated",
      "type": "event"
    },
    {
      "anonymous": false,
      "inputs": [
        {
          "indexed": false,
          "internalType": "uint256",
          "name": "_lastFeeOpTime",
          "type": "uint256"
        }
      ],
      "name": "LastFeeOpTimeUpdated",
      "type": "event"
    },
    {
      "anonymous": false,
      "inputs": [
        {
          "indexed": false,
          "internalType": "uint256",
          "name": "_liquidatedDebt",
          "type": "uint256"
        },
        {
          "indexed": false,
          "internalType": "uint256",
          "name": "_liquidatedColl",
          "type": "uint256"
        },
        {
          "indexed": false,
          "internalType": "uint256",
          "name": "_collGasCompensation",
          "type": "uint256"
        },
        {
          "indexed": false,
          "internalType": "uint256",
          "name": "_ZKUSDGasCompensation",
          "type": "uint256"
        }
      ],
      "name": "Liquidation",
      "type": "event"
    },
    {
      "anonymous": false,
      "inputs": [
        {
          "indexed": true,
          "internalType": "address",
          "name": "previousOwner",
          "type": "address"
        },
        {
          "indexed": true,
          "internalType": "address",
          "name": "newOwner",
          "type": "address"
        }
      ],
      "name": "OwnershipTransferred",
      "type": "event"
    },
    {
      "anonymous": false,
      "inputs": [
        {
          "indexed": false,
          "internalType": "address",
          "name": "_newPriceFeedAddress",
          "type": "address"
        }
      ],
      "name": "PriceFeedAddressChanged",
      "type": "event"
    },
    {
      "anonymous": false,
      "inputs": [
        {
          "indexed": false,
          "internalType": "uint256",
          "name": "_attemptedZKUSDAmount",
          "type": "uint256"
        },
        {
          "indexed": false,
          "internalType": "uint256",
          "name": "_actualZKUSDAmount",
          "type": "uint256"
        },
        {
          "indexed": false,
          "internalType": "uint256",
          "name": "_NEONSent",
          "type": "uint256"
        },
        {
          "indexed": false,
          "internalType": "uint256",
          "name": "_NEONFee",
          "type": "uint256"
        }
      ],
      "name": "Redemption",
      "type": "event"
    },
    {
      "anonymous": false,
      "inputs": [
        {
          "indexed": false,
          "internalType": "address",
          "name": "_sortedTrovesAddress",
          "type": "address"
        }
      ],
      "name": "SortedTrovesAddressChanged",
      "type": "event"
    },
    {
      "anonymous": false,
      "inputs": [
        {
          "indexed": false,
          "internalType": "address",
          "name": "_stabilityPoolAddress",
          "type": "address"
        }
      ],
      "name": "StabilityPoolAddressChanged",
      "type": "event"
    },
    {
      "anonymous": false,
      "inputs": [
        {
          "indexed": false,
          "internalType": "uint256",
          "name": "_totalStakesSnapshot",
          "type": "uint256"
        },
        {
          "indexed": false,
          "internalType": "uint256",
          "name": "_totalCollateralSnapshot",
          "type": "uint256"
        }
      ],
      "name": "SystemSnapshotsUpdated",
      "type": "event"
    },
    {
      "anonymous": false,
      "inputs": [
        {
          "indexed": false,
          "internalType": "uint256",
          "name": "_newTotalStakes",
          "type": "uint256"
        }
      ],
      "name": "TotalStakesUpdated",
      "type": "event"
    },
    {
      "anonymous": false,
      "inputs": [
        {
          "indexed": false,
          "internalType": "address",
          "name": "_borrower",
          "type": "address"
        },
        {
          "indexed": false,
          "internalType": "uint256",
          "name": "_newIndex",
          "type": "uint256"
        }
      ],
      "name": "TroveIndexUpdated",
      "type": "event"
    },
    {
      "anonymous": false,
      "inputs": [
        {
          "indexed": true,
          "internalType": "address",
          "name": "_borrower",
          "type": "address"
        },
        {
          "indexed": false,
          "internalType": "uint256",
          "name": "_debt",
          "type": "uint256"
        },
        {
          "indexed": false,
          "internalType": "uint256",
          "name": "_coll",
          "type": "uint256"
        },
        {
          "indexed": false,
          "internalType": "enum ITroveManager.Operation",
          "name": "operation",
          "type": "uint8"
        }
      ],
      "name": "TroveLiquidated",
      "type": "event"
    },
    {
      "anonymous": false,
      "inputs": [
        {
          "indexed": false,
          "internalType": "address",
          "name": "_borrower",
          "type": "address"
        },
        {
          "indexed": false,
          "internalType": "uint256",
          "name": "_L_Native",
          "type": "uint256"
        },
        {
          "indexed": false,
          "internalType": "uint256",
          "name": "_L_Debt",
          "type": "uint256"
        }
      ],
      "name": "TroveSnapshotsUpdated",
      "type": "event"
    },
    {
      "anonymous": false,
      "inputs": [
        {
          "indexed": true,
          "internalType": "address",
          "name": "_borrower",
          "type": "address"
        },
        {
          "indexed": false,
          "internalType": "uint256",
          "name": "_debt",
          "type": "uint256"
        },
        {
          "indexed": false,
          "internalType": "uint256",
          "name": "_coll",
          "type": "uint256"
        },
        {
          "indexed": false,
          "internalType": "uint256",
          "name": "stake",
          "type": "uint256"
        },
        {
          "indexed": false,
          "internalType": "enum ITroveManager.Operation",
          "name": "operation",
          "type": "uint8"
        }
      ],
      "name": "TroveUpdated",
      "type": "event"
    },
    {
      "anonymous": false,
      "inputs": [
        {
          "indexed": false,
          "internalType": "address",
          "name": "_zktStakingAddress",
          "type": "address"
        }
      ],
      "name": "ZKTStakingAddressChanged",
      "type": "event"
    },
    {
      "anonymous": false,
      "inputs": [
        {
          "indexed": false,
          "internalType": "address",
          "name": "_zkTokenAddress",
          "type": "address"
        }
      ],
      "name": "ZKTokenAddressChanged",
      "type": "event"
    },
    {
      "anonymous": false,
      "inputs": [
        {
          "indexed": false,
          "internalType": "address",
          "name": "_newZKUSDTokenAddress",
          "type": "address"
        }
      ],
      "name": "ZKUSDTokenAddressChanged",
      "type": "event"
    },
    {
      "inputs": [],
      "name": "BETA",
      "outputs": [
        {
          "internalType": "uint256",
          "name": "",
          "type": "uint256"
        }
      ],
      "stateMutability": "view",
      "type": "function"
    },
    {
      "inputs": [],
      "name": "BOOTSTRAP_PERIOD",
      "outputs": [
        {
          "internalType": "uint256",
          "name": "",
          "type": "uint256"
        }
      ],
      "stateMutability": "view",
      "type": "function"
    },
    {
      "inputs": [],
      "name": "BORROWING_FEE_FLOOR",
      "outputs": [
        {
          "internalType": "uint256",
          "name": "",
          "type": "uint256"
        }
      ],
      "stateMutability": "view",
      "type": "function"
    },
    {
      "inputs": [],
      "name": "CCR",
      "outputs": [
        {
          "internalType": "uint256",
          "name": "",
          "type": "uint256"
        }
      ],
      "stateMutability": "view",
      "type": "function"
    },
    {
      "inputs": [],
      "name": "DECIMAL_PRECISION",
      "outputs": [
        {
          "internalType": "uint256",
          "name": "",
          "type": "uint256"
        }
      ],
      "stateMutability": "view",
      "type": "function"
    },
    {
      "inputs": [],
      "name": "L_NEON",
      "outputs": [
        {
          "internalType": "uint256",
          "name": "",
          "type": "uint256"
        }
      ],
      "stateMutability": "view",
      "type": "function"
    },
    {
      "inputs": [],
      "name": "L_ZKUSDDebt",
      "outputs": [
        {
          "internalType": "uint256",
          "name": "",
          "type": "uint256"
        }
      ],
      "stateMutability": "view",
      "type": "function"
    },
    {
      "inputs": [],
      "name": "MAX_BORROWING_FEE",
      "outputs": [
        {
          "internalType": "uint256",
          "name": "",
          "type": "uint256"
        }
      ],
      "stateMutability": "view",
      "type": "function"
    },
    {
      "inputs": [],
      "name": "MCR",
      "outputs": [
        {
          "internalType": "uint256",
          "name": "",
          "type": "uint256"
        }
      ],
      "stateMutability": "view",
      "type": "function"
    },
    {
      "inputs": [],
      "name": "MINUTE_DECAY_FACTOR",
      "outputs": [
        {
          "internalType": "uint256",
          "name": "",
          "type": "uint256"
        }
      ],
      "stateMutability": "view",
      "type": "function"
    },
    {
      "inputs": [],
      "name": "MIN_NET_DEBT",
      "outputs": [
        {
          "internalType": "uint256",
          "name": "",
          "type": "uint256"
        }
      ],
      "stateMutability": "view",
      "type": "function"
    },
    {
      "inputs": [],
      "name": "PERCENT_DIVISOR",
      "outputs": [
        {
          "internalType": "uint256",
          "name": "",
          "type": "uint256"
        }
      ],
      "stateMutability": "view",
      "type": "function"
    },
    {
      "inputs": [],
      "name": "REDEMPTION_FEE_FLOOR",
      "outputs": [
        {
          "internalType": "uint256",
          "name": "",
          "type": "uint256"
        }
      ],
      "stateMutability": "view",
      "type": "function"
    },
    {
      "inputs": [],
      "name": "SECONDS_IN_ONE_MINUTE",
      "outputs": [
        {
          "internalType": "uint256",
          "name": "",
          "type": "uint256"
        }
      ],
      "stateMutability": "view",
      "type": "function"
    },
    {
      "inputs": [
        {
          "internalType": "uint256",
          "name": "",
          "type": "uint256"
        }
      ],
      "name": "TroveOwners",
      "outputs": [
        {
          "internalType": "address",
          "name": "",
          "type": "address"
        }
      ],
      "stateMutability": "view",
      "type": "function"
    },
    {
      "inputs": [
        {
          "internalType": "address",
          "name": "",
          "type": "address"
        }
      ],
      "name": "Troves",
      "outputs": [
        {
          "internalType": "uint256",
          "name": "debt",
          "type": "uint256"
        },
        {
          "internalType": "uint256",
          "name": "coll",
          "type": "uint256"
        },
        {
          "internalType": "uint256",
          "name": "stake",
          "type": "uint256"
        },
        {
          "internalType": "enum TroveManager.Status",
          "name": "status",
          "type": "uint8"
        },
        {
          "internalType": "uint256",
          "name": "arrayIndex",
          "type": "uint256"
        }
      ],
      "stateMutability": "view",
      "type": "function"
    },
    {
      "inputs": [],
      "name": "ZKUSD_GAS_COMPENSATION",
      "outputs": [
        {
          "internalType": "uint256",
          "name": "",
          "type": "uint256"
        }
      ],
      "stateMutability": "view",
      "type": "function"
    },
    {
      "inputs": [],
      "name": "_100pct",
      "outputs": [
        {
          "internalType": "uint256",
          "name": "",
          "type": "uint256"
        }
      ],
      "stateMutability": "view",
      "type": "function"
    },
    {
      "inputs": [],
      "name": "activePool",
      "outputs": [
        {
          "internalType": "contract IActivePool",
          "name": "",
          "type": "address"
        }
      ],
      "stateMutability": "view",
      "type": "function"
    },
    {
      "inputs": [
        {
          "internalType": "address",
          "name": "_borrower",
          "type": "address"
        }
      ],
      "name": "addTroveOwnerToArray",
      "outputs": [
        {
          "internalType": "uint256",
          "name": "index",
          "type": "uint256"
        }
      ],
      "stateMutability": "nonpayable",
      "type": "function"
    },
    {
      "inputs": [
        {
          "internalType": "address",
          "name": "_borrower",
          "type": "address"
        }
      ],
      "name": "applyPendingRewards",
      "outputs": [],
      "stateMutability": "nonpayable",
      "type": "function"
    },
    {
      "inputs": [],
      "name": "baseRate",
      "outputs": [
        {
          "internalType": "uint256",
          "name": "",
          "type": "uint256"
        }
      ],
      "stateMutability": "view",
      "type": "function"
    },
    {
      "inputs": [
        {
          "internalType": "address[]",
          "name": "_troveArray",
          "type": "address[]"
        }
      ],
      "name": "batchLiquidateTroves",
      "outputs": [],
      "stateMutability": "nonpayable",
      "type": "function"
    },
    {
      "inputs": [],
      "name": "borrowerOperationsAddress",
      "outputs": [
        {
          "internalType": "address",
          "name": "",
          "type": "address"
        }
      ],
      "stateMutability": "view",
      "type": "function"
    },
    {
      "inputs": [
        {
          "internalType": "uint256",
          "name": "_price",
          "type": "uint256"
        }
      ],
      "name": "checkRecoveryMode",
      "outputs": [
        {
          "internalType": "bool",
          "name": "",
          "type": "bool"
        }
      ],
      "stateMutability": "view",
      "type": "function"
    },
    {
      "inputs": [
        {
          "internalType": "address",
          "name": "_borrower",
          "type": "address"
        }
      ],
      "name": "closeTrove",
      "outputs": [],
      "stateMutability": "nonpayable",
      "type": "function"
    },
    {
      "inputs": [],
      "name": "decayBaseRateFromBorrowing",
      "outputs": [],
      "stateMutability": "nonpayable",
      "type": "function"
    },
    {
      "inputs": [
        {
          "internalType": "address",
          "name": "_borrower",
          "type": "address"
        },
        {
          "internalType": "uint256",
          "name": "_collDecrease",
          "type": "uint256"
        }
      ],
      "name": "decreaseTroveColl",
      "outputs": [
        {
          "internalType": "uint256",
          "name": "",
          "type": "uint256"
        }
      ],
      "stateMutability": "nonpayable",
      "type": "function"
    },
    {
      "inputs": [
        {
          "internalType": "address",
          "name": "_borrower",
          "type": "address"
        },
        {
          "internalType": "uint256",
          "name": "_debtDecrease",
          "type": "uint256"
        }
      ],
      "name": "decreaseTroveDebt",
      "outputs": [
        {
          "internalType": "uint256",
          "name": "",
          "type": "uint256"
        }
      ],
      "stateMutability": "nonpayable",
      "type": "function"
    },
    {
      "inputs": [],
      "name": "defaultPool",
      "outputs": [
        {
          "internalType": "contract IDefaultPool",
          "name": "",
          "type": "address"
        }
      ],
      "stateMutability": "view",
      "type": "function"
    },
    {
      "inputs": [
        {
          "internalType": "uint256",
          "name": "_ZKUSDDebt",
          "type": "uint256"
        }
      ],
      "name": "getBorrowingFee",
      "outputs": [
        {
          "internalType": "uint256",
          "name": "",
          "type": "uint256"
        }
      ],
      "stateMutability": "view",
      "type": "function"
    },
    {
      "inputs": [
        {
          "internalType": "uint256",
          "name": "_ZKUSDDebt",
          "type": "uint256"
        }
      ],
      "name": "getBorrowingFeeWithDecay",
      "outputs": [
        {
          "internalType": "uint256",
          "name": "",
          "type": "uint256"
        }
      ],
      "stateMutability": "view",
      "type": "function"
    },
    {
      "inputs": [],
      "name": "getBorrowingRate",
      "outputs": [
        {
          "internalType": "uint256",
          "name": "",
          "type": "uint256"
        }
      ],
      "stateMutability": "view",
      "type": "function"
    },
    {
      "inputs": [],
      "name": "getBorrowingRateWithDecay",
      "outputs": [
        {
          "internalType": "uint256",
          "name": "",
          "type": "uint256"
        }
      ],
      "stateMutability": "view",
      "type": "function"
    },
    {
      "inputs": [
        {
          "internalType": "address",
          "name": "_borrower",
          "type": "address"
        },
        {
          "internalType": "uint256",
          "name": "_price",
          "type": "uint256"
        }
      ],
      "name": "getCurrentICR",
      "outputs": [
        {
          "internalType": "uint256",
          "name": "",
          "type": "uint256"
        }
      ],
      "stateMutability": "view",
      "type": "function"
    },
    {
      "inputs": [
        {
          "internalType": "address",
          "name": "_borrower",
          "type": "address"
        }
      ],
      "name": "getEntireDebtAndColl",
      "outputs": [
        {
          "internalType": "uint256",
          "name": "debt",
          "type": "uint256"
        },
        {
          "internalType": "uint256",
          "name": "coll",
          "type": "uint256"
        },
        {
          "internalType": "uint256",
          "name": "pendingZKUSDDebtReward",
          "type": "uint256"
        },
        {
          "internalType": "uint256",
          "name": "pendingNEONReward",
          "type": "uint256"
        }
      ],
      "stateMutability": "view",
      "type": "function"
    },
    {
      "inputs": [],
      "name": "getEntireSystemColl",
      "outputs": [
        {
          "internalType": "uint256",
          "name": "entireSystemColl",
          "type": "uint256"
        }
      ],
      "stateMutability": "view",
      "type": "function"
    },
    {
      "inputs": [],
      "name": "getEntireSystemDebt",
      "outputs": [
        {
          "internalType": "uint256",
          "name": "entireSystemDebt",
          "type": "uint256"
        }
      ],
      "stateMutability": "view",
      "type": "function"
    },
    {
      "inputs": [
        {
          "internalType": "address",
          "name": "_borrower",
          "type": "address"
        }
      ],
      "name": "getNominalICR",
      "outputs": [
        {
          "internalType": "uint256",
          "name": "",
          "type": "uint256"
        }
      ],
      "stateMutability": "view",
      "type": "function"
    },
    {
      "inputs": [
        {
          "internalType": "address",
          "name": "_borrower",
          "type": "address"
        }
      ],
      "name": "getPendingNEONReward",
      "outputs": [
        {
          "internalType": "uint256",
          "name": "",
          "type": "uint256"
        }
      ],
      "stateMutability": "view",
      "type": "function"
    },
    {
      "inputs": [
        {
          "internalType": "address",
          "name": "_borrower",
          "type": "address"
        }
      ],
      "name": "getPendingZKUSDDebtReward",
      "outputs": [
        {
          "internalType": "uint256",
          "name": "",
          "type": "uint256"
        }
      ],
      "stateMutability": "view",
      "type": "function"
    },
    {
      "inputs": [
        {
          "internalType": "uint256",
          "name": "_NEONDrawn",
          "type": "uint256"
        }
      ],
      "name": "getRedemptionFeeWithDecay",
      "outputs": [
        {
          "internalType": "uint256",
          "name": "",
          "type": "uint256"
        }
      ],
      "stateMutability": "view",
      "type": "function"
    },
    {
      "inputs": [],
      "name": "getRedemptionRate",
      "outputs": [
        {
          "internalType": "uint256",
          "name": "",
          "type": "uint256"
        }
      ],
      "stateMutability": "view",
      "type": "function"
    },
    {
      "inputs": [],
      "name": "getRedemptionRateWithDecay",
      "outputs": [
        {
          "internalType": "uint256",
          "name": "",
          "type": "uint256"
        }
      ],
      "stateMutability": "view",
      "type": "function"
    },
    {
      "inputs": [
        {
          "internalType": "uint256",
          "name": "_price",
          "type": "uint256"
        }
      ],
      "name": "getTCR",
      "outputs": [
        {
          "internalType": "uint256",
          "name": "",
          "type": "uint256"
        }
      ],
      "stateMutability": "view",
      "type": "function"
    },
    {
      "inputs": [
        {
          "internalType": "address",
          "name": "_borrower",
          "type": "address"
        }
      ],
      "name": "getTroveColl",
      "outputs": [
        {
          "internalType": "uint256",
          "name": "",
          "type": "uint256"
        }
      ],
      "stateMutability": "view",
      "type": "function"
    },
    {
      "inputs": [
        {
          "internalType": "address",
          "name": "_borrower",
          "type": "address"
        }
      ],
      "name": "getTroveDebt",
      "outputs": [
        {
          "internalType": "uint256",
          "name": "",
          "type": "uint256"
        }
      ],
      "stateMutability": "view",
      "type": "function"
    },
    {
      "inputs": [
        {
          "internalType": "uint256",
          "name": "_index",
          "type": "uint256"
        }
      ],
      "name": "getTroveFromTroveOwnersArray",
      "outputs": [
        {
          "internalType": "address",
          "name": "",
          "type": "address"
        }
      ],
      "stateMutability": "view",
      "type": "function"
    },
    {
      "inputs": [],
      "name": "getTroveOwnersCount",
      "outputs": [
        {
          "internalType": "uint256",
          "name": "",
          "type": "uint256"
        }
      ],
      "stateMutability": "view",
      "type": "function"
    },
    {
      "inputs": [
        {
          "internalType": "address",
          "name": "_borrower",
          "type": "address"
        }
      ],
      "name": "getTroveStake",
      "outputs": [
        {
          "internalType": "uint256",
          "name": "",
          "type": "uint256"
        }
      ],
      "stateMutability": "view",
      "type": "function"
    },
    {
      "inputs": [
        {
          "internalType": "address",
          "name": "_borrower",
          "type": "address"
        }
      ],
      "name": "getTroveStatus",
      "outputs": [
        {
          "internalType": "uint256",
          "name": "",
          "type": "uint256"
        }
      ],
      "stateMutability": "view",
      "type": "function"
    },
    {
      "inputs": [
        {
          "internalType": "address",
          "name": "_borrower",
          "type": "address"
        }
      ],
      "name": "hasPendingRewards",
      "outputs": [
        {
          "internalType": "bool",
          "name": "",
          "type": "bool"
        }
      ],
      "stateMutability": "view",
      "type": "function"
    },
    {
      "inputs": [
        {
          "internalType": "address",
          "name": "_borrower",
          "type": "address"
        },
        {
          "internalType": "uint256",
          "name": "_collIncrease",
          "type": "uint256"
        }
      ],
      "name": "increaseTroveColl",
      "outputs": [
        {
          "internalType": "uint256",
          "name": "",
          "type": "uint256"
        }
      ],
      "stateMutability": "nonpayable",
      "type": "function"
    },
    {
      "inputs": [
        {
          "internalType": "address",
          "name": "_borrower",
          "type": "address"
        },
        {
          "internalType": "uint256",
          "name": "_debtIncrease",
          "type": "uint256"
        }
      ],
      "name": "increaseTroveDebt",
      "outputs": [
        {
          "internalType": "uint256",
          "name": "",
          "type": "uint256"
        }
      ],
      "stateMutability": "nonpayable",
      "type": "function"
    },
    {
      "inputs": [],
      "name": "lastFeeOperationTime",
      "outputs": [
        {
          "internalType": "uint256",
          "name": "",
          "type": "uint256"
        }
      ],
      "stateMutability": "view",
      "type": "function"
    },
    {
      "inputs": [],
      "name": "lastNEONError_Redistribution",
      "outputs": [
        {
          "internalType": "uint256",
          "name": "",
          "type": "uint256"
        }
      ],
      "stateMutability": "view",
      "type": "function"
    },
    {
      "inputs": [],
      "name": "lastZKUSDDebtError_Redistribution",
      "outputs": [
        {
          "internalType": "uint256",
          "name": "",
          "type": "uint256"
        }
      ],
      "stateMutability": "view",
      "type": "function"
    },
    {
      "inputs": [
        {
          "internalType": "address",
          "name": "_borrower",
          "type": "address"
        }
      ],
      "name": "liquidate",
      "outputs": [],
      "stateMutability": "nonpayable",
      "type": "function"
    },
    {
      "inputs": [
        {
          "internalType": "uint256",
          "name": "_n",
          "type": "uint256"
        }
      ],
      "name": "liquidateTroves",
      "outputs": [],
      "stateMutability": "nonpayable",
      "type": "function"
    },
    {
      "inputs": [],
      "name": "owner",
      "outputs": [
        {
          "internalType": "address",
          "name": "",
          "type": "address"
        }
      ],
      "stateMutability": "view",
      "type": "function"
    },
    {
      "inputs": [],
      "name": "priceFeed",
      "outputs": [
        {
          "internalType": "contract IPriceFeed",
          "name": "",
          "type": "address"
        }
      ],
      "stateMutability": "view",
      "type": "function"
    },
    {
      "inputs": [
        {
          "internalType": "uint256",
          "name": "_ZKUSDamount",
          "type": "uint256"
        },
        {
          "internalType": "address",
          "name": "_firstRedemptionHint",
          "type": "address"
        },
        {
          "internalType": "address",
          "name": "_upperPartialRedemptionHint",
          "type": "address"
        },
        {
          "internalType": "address",
          "name": "_lowerPartialRedemptionHint",
          "type": "address"
        },
        {
          "internalType": "uint256",
          "name": "_partialRedemptionHintNICR",
          "type": "uint256"
        },
        {
          "internalType": "uint256",
          "name": "_maxIterations",
          "type": "uint256"
        },
        {
          "internalType": "uint256",
          "name": "_maxFeePercentage",
          "type": "uint256"
        }
      ],
      "name": "redeemCollateral",
      "outputs": [],
      "stateMutability": "nonpayable",
      "type": "function"
    },
    {
      "inputs": [
        {
          "internalType": "address",
          "name": "_borrower",
          "type": "address"
        }
      ],
      "name": "removeStake",
      "outputs": [],
      "stateMutability": "nonpayable",
      "type": "function"
    },
    {
      "inputs": [],
      "name": "renounceOwnership",
      "outputs": [],
      "stateMutability": "nonpayable",
      "type": "function"
    },
    {
      "inputs": [
        {
          "internalType": "address",
          "name": "",
          "type": "address"
        }
      ],
      "name": "rewardSnapshots",
      "outputs": [
        {
          "internalType": "uint256",
          "name": "NEON",
          "type": "uint256"
        },
        {
          "internalType": "uint256",
          "name": "ZKUSDDebt",
          "type": "uint256"
        }
      ],
      "stateMutability": "view",
      "type": "function"
    },
    {
      "inputs": [
        {
          "internalType": "address",
          "name": "_borrowerOperationsAddress",
          "type": "address"
        },
        {
          "internalType": "address",
          "name": "_activePoolAddress",
          "type": "address"
        },
        {
          "internalType": "address",
          "name": "_defaultPoolAddress",
          "type": "address"
        },
        {
          "internalType": "address",
          "name": "_stabilityPoolAddress",
          "type": "address"
        },
        {
          "internalType": "address",
          "name": "_gasPoolAddress",
          "type": "address"
        },
        {
          "internalType": "address",
          "name": "_collSurplusPoolAddress",
          "type": "address"
        },
        {
          "internalType": "address",
          "name": "_priceFeedAddress",
          "type": "address"
        },
        {
          "internalType": "address",
          "name": "_zkusdTokenAddress",
          "type": "address"
        },
        {
          "internalType": "address",
          "name": "_sortedTrovesAddress",
          "type": "address"
        },
        {
          "internalType": "address",
          "name": "_zkTokenAddress",
          "type": "address"
        },
        {
          "internalType": "address",
          "name": "_zktStakingAddress",
          "type": "address"
        }
      ],
      "name": "setAddresses",
      "outputs": [],
      "stateMutability": "nonpayable",
      "type": "function"
    },
    {
      "inputs": [
        {
          "internalType": "address",
          "name": "_borrower",
          "type": "address"
        },
        {
          "internalType": "uint256",
          "name": "_num",
          "type": "uint256"
        }
      ],
      "name": "setTroveStatus",
      "outputs": [],
      "stateMutability": "nonpayable",
      "type": "function"
    },
    {
      "inputs": [],
      "name": "sortedTroves",
      "outputs": [
        {
          "internalType": "contract ISortedTroves",
          "name": "",
          "type": "address"
        }
      ],
      "stateMutability": "view",
      "type": "function"
    },
    {
      "inputs": [],
      "name": "stabilityPool",
      "outputs": [
        {
          "internalType": "contract IStabilityPool",
          "name": "",
          "type": "address"
        }
      ],
      "stateMutability": "view",
      "type": "function"
    },
    {
      "inputs": [],
      "name": "totalCollateralSnapshot",
      "outputs": [
        {
          "internalType": "uint256",
          "name": "",
          "type": "uint256"
        }
      ],
      "stateMutability": "view",
      "type": "function"
    },
    {
      "inputs": [],
      "name": "totalStakes",
      "outputs": [
        {
          "internalType": "uint256",
          "name": "",
          "type": "uint256"
        }
      ],
      "stateMutability": "view",
      "type": "function"
    },
    {
      "inputs": [],
      "name": "totalStakesSnapshot",
      "outputs": [
        {
          "internalType": "uint256",
          "name": "",
          "type": "uint256"
        }
      ],
      "stateMutability": "view",
      "type": "function"
    },
    {
      "inputs": [
        {
          "internalType": "address",
          "name": "newOwner",
          "type": "address"
        }
      ],
      "name": "transferOwnership",
      "outputs": [],
      "stateMutability": "nonpayable",
      "type": "function"
    },
    {
      "inputs": [
        {
          "internalType": "address",
          "name": "_borrower",
          "type": "address"
        }
      ],
      "name": "updateStakeAndTotalStakes",
      "outputs": [
        {
          "internalType": "uint256",
          "name": "",
          "type": "uint256"
        }
      ],
      "stateMutability": "nonpayable",
      "type": "function"
    },
    {
      "inputs": [
        {
          "internalType": "address",
          "name": "_borrower",
          "type": "address"
        }
      ],
      "name": "updateTroveRewardSnapshots",
      "outputs": [],
      "stateMutability": "nonpayable",
      "type": "function"
    },
    {
      "inputs": [],
      "name": "zkToken",
      "outputs": [
        {
          "internalType": "contract IZKToken",
          "name": "",
          "type": "address"
        }
      ],
      "stateMutability": "view",
      "type": "function"
    },
    {
      "inputs": [],
      "name": "zktStaking",
      "outputs": [
        {
          "internalType": "contract IZKTStaking",
          "name": "",
          "type": "address"
        }
      ],
      "stateMutability": "view",
      "type": "function"
    },
    {
      "inputs": [],
      "name": "zkusdToken",
      "outputs": [
        {
          "internalType": "contract IZKUSDToken",
          "name": "",
          "type": "address"
        }
      ],
      "stateMutability": "view",
      "type": "function"
    }
  ],
  "transactionHash": "0x7be21ed107c609ba0fd992596489d61fc290466aed2c5bd1141b16d979650f4a",
  "args": [],
  "numDeployments": 1,
  "solcInputHash": "035045f1e037f3a6258fc3cece2987fc",
  "bytecode": "0x60806040523480156200001157600080fd5b506200001d3362000023565b62000075565b600380546001600160a01b038381166001600160a01b0319831681179093556040519116919082907f8be0079c531659141344cd1fd0a4f28419497f9722a3daafe3b4186f6b6457e090600090a35050565b615d4280620000856000396000f3fe608060405234801561001057600080fd5b506004361061046a5760003560e01c8063741bef1a1161024c578063b91af97c11610146578063d3d6f843116100c3578063e34341ab11610087578063e34341ab146109c8578063f2fde38b146109db578063f36b2425146109ee578063f92d343314610586578063fe2ba848146109f657600080fd5b8063d3d6f84314610953578063d5b3563514610966578063d66a255314610979578063d9a72444146109a2578063e2ac77b0146109b557600080fd5b8063c52861f21161010a578063c52861f21461090d578063c7b5548114610915578063cbd138ae14610924578063d293c71014610937578063d380a37c1461094a57600080fd5b8063b91af97c146108a5578063bcd37526146108d8578063bf9befb1146108eb578063c192645b146108f4578063c35bc5501461090457600080fd5b8063887105d3116101d4578063a78cc48811610198578063a78cc48814610846578063ae91875414610859578063b0d8e1811461086c578063b7f8cf9b1461087f578063b82f263d1461089257600080fd5b8063887105d3146108115780638da5cb5b1461081957806396d711ff1461082a5780639976cf4514610833578063a20baee61461077057600080fd5b80637985c5e41161021b5780637985c5e4146107bc5780637d8c87aa146107cf5780637f7dde4a146107e2578063807d138d146107f557806382fe3eb9146107fe57600080fd5b8063741bef1a1461077f578063756b253e14610792578063794e5724146107a5578063795d26c3146107b457600080fd5b806343833a7f116103685780635e2084d0116102e557806366ca4a21116102a957806366ca4a21146106fc5780636ef6433814610704578063715018a61461075557806372423c171461075d57806372fe25aa1461077057600080fd5b80635e2084d01461069957806361ec893d146106a2578063631203b0146106aa57806364cee260146106bd578063653d46e7146106e957600080fd5b80634e443d9e1161032c5780634e443d9e146106435780635733d58f146106665780635b1b4c13146106755780635d6b480f1461067e5780635dba4c4a1461069157600080fd5b806343833a7f146105e1578063477d66cf146105f4578063480cd578146106075780634870dd9a1461063357806349eefeee1461063b57600080fd5b80631f68f20a116103f65780632b11551a116103ba5780632b11551a146105975780632f8655681461059f57806335a3f707146105b25780633cc74225146105c557806343712f5a146105d857600080fd5b80631f68f20a1461056257806321e378011461056b578063240926691461057e57806328d28b5b14610586578063294769c21461058e57600080fd5b806315d549f11161043d57806315d549f1146104dd5780631673c79a146104f057806318f2817a1461052c5780631bf435551461053f5780631e8b1c2b1461054f57600080fd5b8063048c661d1461046f578063071a75411461049f5780630b076557146104b557806312610e92146104ca575b600080fd5b600554610482906001600160a01b031681565b6040516001600160a01b0390911681526020015b60405180910390f35b6104a7600281565b604051908152602001610496565b6104c86104c336600461581f565b610a09565b005b6104a76104d836600461583c565b610a31565b6104a76104eb36600461581f565b610a83565b6105176104fe36600461581f565b6014602052600090815260409020805460019091015482565b60408051928352602083019190915201610496565b6104a761053a36600461581f565b610a96565b6104a76818650127cc3dc8000081565b6104c861055d36600461587e565b610aa9565b6104a7600c5481565b6104a761057936600461581f565b610ef9565b6104a7610f29565b6104a7610f4a565b6104a760165481565b6104a7610f5e565b6104c86105ad36600461581f565b610f70565b600854610482906001600160a01b031681565b600154610482906001600160a01b031681565b6104a760135481565b6104a76105ef36600461581f565b610fdc565b6104a7610602366004615943565b611098565b6104a761061536600461581f565b6001600160a01b03166000908152600e602052604090206001015490565b6104a760c881565b6015546104a7565b610656610651366004615943565b6110ab565b6040519015158152602001610496565b6104a76714d1120d7b16000081565b6104a760125481565b6104c861068c36600461583c565b6110b6565b6104c861110e565b6104a760175481565b6104a7603c81565b6104a76106b8366004615943565b61117a565b6104a76106cb36600461581f565b6001600160a01b03166000908152600e602052604090206002015490565b6104c86106f7366004615943565b611187565b6104a76115a5565b61074461071236600461581f565b600e602052600090815260409020805460018201546002830154600384015460049094015492939192909160ff169085565b604051610496959493929190615972565b6104c86115b7565b6104a761076b36600461583c565b6115cb565b6104a7670de0b6b3a764000081565b600254610482906001600160a01b031681565b6104826107a0366004615943565b611622565b6104a7670f43fc2c04ee000081565b6104a761164c565b6104c86107ca3660046159aa565b611748565b600954610482906001600160a01b031681565b600054610482906001600160a01b031681565b6104a760105481565b6104c861080c36600461581f565b611ae8565b6104a7611af9565b6003546001600160a01b0316610482565b6104a760115481565b6104a761084136600461583c565b611bbe565b6104a761085436600461581f565b611beb565b600b54610482906001600160a01b031681565b6104a761087a36600461581f565b611c13565b600454610482906001600160a01b031681565b6104a76108a0366004615943565b611c3a565b6108b86108b336600461581f565b611c45565b604080519485526020850193909352918301526060820152608001610496565b6104c86108e6366004615a88565b611c9d565b6104a7600f5481565b6104a76802b5e3af16b188000081565b6104a761025881565b6104a761251d565b6104a7670ddd4b8c6c7d70d881565b6104c861093236600461581f565b61252f565b6104a761094536600461583c565b612542565b6104a7600d5481565b6104a761096136600461583c565b612561565b6104a7610974366004615943565b612591565b6104a761098736600461581f565b6001600160a01b03166000908152600e602052604090205490565b6104826109b0366004615943565b6125a4565b6106566109c336600461581f565b6125d4565b600a54610482906001600160a01b031681565b6104c86109e936600461581f565b612637565b6104a76126ad565b6104c8610a0436600461581f565b6126ba565b610a116126cb565b600054600154610a2e916001600160a01b0390811691168361274b565b50565b6000610a3b6126cb565b6001600160a01b0383166000908152600e6020526040812054610a5e9084612863565b6001600160a01b0385166000908152600e602052604090208190559150505b92915050565b6000610a8d6126cb565b610a7d82612876565b6000610aa06126cb565b610a7d826128f4565b8051600003610b255760405162461bcd60e51b815260206004820152603660248201527f54726f76654d616e616765723a2043616c6c646174612061646472657373206160448201527f72726179206d757374206e6f7420626520656d7074790000000000000000000060648201526084015b60405180910390fd5b600080546001546005546040805160a081018252858152602081018690529081018590526060810185905260808101949094526001600160a01b0392831693918316921690610bb96040518061012001604052806000815260200160008152602001600081526020016000815260200160008152602001600081526020016000815260200160008152602001600081525090565b600260009054906101000a90046001600160a01b03166001600160a01b0316630fdb11cf6040518163ffffffff1660e01b81526004016020604051808303816000875af1158015610c0e573d6000803e3d6000fd5b505050506040513d601f19601f82011682018060405250810190610c329190615af6565b826000018181525050826001600160a01b031663dbd1e2666040518163ffffffff1660e01b8152600401602060405180830381865afa158015610c79573d6000803e3d6000fd5b505050506040513d601f19601f82011682018060405250810190610c9d9190615af6565b60208301528151610cad90612998565b1580156040840152610cd557610cce8585846000015185602001518a6129b5565b9050610ced565b610cea8585846000015185602001518a612cad565b90505b6000816020015111610d4c5760405162461bcd60e51b815260206004820152602260248201527f54726f76654d616e616765723a206e6f7468696e6720746f206c697175696461604482015261746560f01b6064820152608401610b1c565b608081015160a082015160405163335525ad60e01b81526001600160a01b0386169263335525ad92610d8992600401918252602082015260400190565b600060405180830381600087803b158015610da357600080fd5b505af1158015610db7573d6000803e3d6000fd5b50505050610dcf85858360c001518460e00151612e4e565b61010081015115610e48576007546101008201516040516373333ae560e11b81526001600160a01b03928316600482015260248101919091529086169063e66675ca90604401600060405180830381600087803b158015610e2f57600080fd5b505af1158015610e43573d6000803e3d6000fd5b505050505b610e5685826040015161308b565b6020810151606083015261010081015160408201518251610e829291610e7c9190612863565b90612863565b6080838101829052606080850151604085810151868401518251938452602084019690965290820152908101929092527f4152c73dd2614c4f9fc35e8c9cf16013cd588c75b49a4c1673ecffdcbcda9403910160405180910390a1610ef18533836060015184604001516131cf565b505050505050565b6001600160a01b0381166000908152600e602052604081206003015460ff166004811115610a7d57610a7d61595c565b610f3c6064670de0b6b3a7640000615b3b565b610f47906005615b4f565b81565b610f3c6103e8670de0b6b3a7640000615b3b565b6000610f6b600c546132b5565b905090565b610f79816132eb565b604080516001808252818301909252600091602080830190803683370190505090508181600081518110610faf57610faf615b66565b60200260200101906001600160a01b031690816001600160a01b031681525050610fd881610aa9565b5050565b6001600160a01b03811660009081526014602052604081206001015460135482906110079083612863565b9050801580611046575060016001600160a01b0385166000908152600e602052604090206003015460ff1660048111156110435761104361595c565b14155b15611055575060009392505050565b6001600160a01b0384166000908152600e60205260408120600201549061108e670de0b6b3a76400006110888486613390565b9061339c565b9695505050505050565b6000610a7d6110a56115a5565b836133a8565b6000610a7d82612998565b6110be6126cb565b8060048111156110d0576110d061595c565b6001600160a01b0383166000908152600e60205260409020600301805460ff191660018360048111156111055761110561595c565b02179055505050565b6111166126cb565b60006111206133c0565b9050670de0b6b3a764000081111561113a5761113a615b7c565b600c8190556040518181527fc454ee9b76c52f782a256af821b857ca6e125d1e3333bcede402fec2bed9600c9060200160405180910390a1610a2e613404565b6000610a7d6110a56126ad565b6040805160e081018252600080546001600160a01b03908116835260015481166020808501919091528385018390526060808501849052600b54831660808087019190915260a080870186905260c087018690526005548851918201895286825293810186905296870185905290860184905285019290925291929116906112546040518061012001604052806000815260200160008152602001600081526020016000815260200160008152602001600081526020016000815260200160008152602001600081525090565b600260009054906101000a90046001600160a01b03166001600160a01b0316630fdb11cf6040518163ffffffff1660e01b81526004016020604051808303816000875af11580156112a9573d6000803e3d6000fd5b505050506040513d601f19601f820116820180604052508101906112cd9190615af6565b826000018181525050826001600160a01b031663dbd1e2666040518163ffffffff1660e01b8152600401602060405180830381865afa158015611314573d6000803e3d6000fd5b505050506040513d601f19601f820116820180604052508101906113389190615af6565b6020830152815161134890612998565b158015604084015261136f57611368848360000151846020015188613462565b905061138f565b61138c8460000151856020015184600001518560200151896138b2565b90505b60008160200151116113ee5760405162461bcd60e51b815260206004820152602260248201527f54726f76654d616e616765723a206e6f7468696e6720746f206c697175696461604482015261746560f01b6064820152608401610b1c565b608081015160a082015160405163335525ad60e01b81526001600160a01b0386169263335525ad9261142b92600401918252602082015260400190565b600060405180830381600087803b15801561144557600080fd5b505af1158015611459573d6000803e3d6000fd5b50505050611479846000015185602001518360c001518460e00151612e4e565b610100810151156114f35783516007546101008301516040516373333ae560e11b81526001600160a01b039283166004820152602481019190915291169063e66675ca90604401600060405180830381600087803b1580156114da57600080fd5b505af11580156114ee573d6000803e3d6000fd5b505050505b6115058460000151826040015161308b565b602081015160608301526101008101516040820151825161152b9291610e7c9190612863565b6080838101829052606080850151604085810151868401518251938452602084019690965290820152908101929092527f4152c73dd2614c4f9fc35e8c9cf16013cd588c75b49a4c1673ecffdcbcda9403910160405180910390a161159e846000015133836060015184604001516131cf565b5050505050565b6000610f6b6115b26133c0565b613ab4565b6115bf613af4565b6115c96000613b4e565b565b60006115d56126cb565b6001600160a01b0383166000908152600e60205260408120600101546115fb9084613ba0565b6001600160a01b0385166000908152600e6020526040902060010181905591505092915050565b6015818154811061163257600080fd5b6000918252602090912001546001600160a01b0316905081565b600080546040805163512a9ebb60e01b8152905183926001600160a01b03169163512a9ebb9160048083019260209291908290030181865afa158015611696573d6000803e3d6000fd5b505050506040513d601f19601f820116820180604052508101906116ba9190615af6565b90506000600160009054906101000a90046001600160a01b03166001600160a01b031663512a9ebb6040518163ffffffff1660e01b8152600401602060405180830381865afa158015611711573d6000803e3d6000fd5b505050506040513d601f19601f820116820180604052508101906117359190615af6565b90506117418282613ba0565b9250505090565b611750613af4565b6117598b613bac565b6117628a613bac565b61176b89613bac565b61177488613bac565b61177d87613bac565b61178686613bac565b61178f85613bac565b61179884613bac565b6117a183613bac565b6117aa82613bac565b6117b381613bac565b600480546001600160a01b03199081166001600160a01b038e81169182179093556000805483168e85161790556001805483168d85161790556005805483168c85161790556006805483168b85161790556007805483168a8516179055600280548316898516179055600880548316888516179055600b80548316878516179055600980548316868516179055600a80549092169284169290921790556040519081527f3ca631ffcd2a9b5d9ae18543fc82f58eb4ca33af9e6ab01b7a8e95331e6ed9859060200160405180910390a16040516001600160a01b038b1681527f78f058b189175430c48dc02699e3a0031ea4ff781536dc2fab847de4babdd8829060200160405180910390a16040516001600160a01b038a1681527f5ee0cae2f063ed938bb55046f6a932fb6ae792bf43624806bb90abe68a50be9b9060200160405180910390a16040516001600160a01b03891681527f82966d27eea39b038ee0fa30cd16532bb24f6e65d31cb58fb227aa5766cdcc7f9060200160405180910390a16040516001600160a01b03881681527fcfb07d791fcafc032b35837b50eb84b74df518cf4cc287e8084f47630fa70fa09060200160405180910390a16040516001600160a01b03871681527fe67f36a6e961157d6eff83b91f3af5a62131ceb6f04954ef74f51c1c05e7f88d9060200160405180910390a16040516001600160a01b03861681527f8c537274438aa850a330284665d81a85dd38267d09e4050d416bfc94142db2649060200160405180910390a16040516001600160a01b03851681527fbce04ccd812fbb02ec2145498f813470d7b7587b19477428388fe8201a1521319060200160405180910390a16040516001600160a01b03841681527f65f4cf077bc01e4742eb5ad98326f6e95b63548ea24b17f8d5e823111fe788009060200160405180910390a16040516001600160a01b03831681527ff55325269d355f8306353e57757c17459a2218cc11a6e53d0f6ee0c8c16a5e249060200160405180910390a16040516001600160a01b03821681527f468634f5d5d4ec87457506a98d964db31fea0d63fc80a14ba75267970253ac149060200160405180910390a15050505050505050505050565b611af06126cb565b610a2e81613c59565b6000805460408051639334631960e01b8152905183926001600160a01b03169163933463199160048083019260209291908290030181865afa158015611b43573d6000803e3d6000fd5b505050506040513d601f19601f82011682018060405250810190611b679190615af6565b90506000600160009054906101000a90046001600160a01b03166001600160a01b031663933463196040518163ffffffff1660e01b8152600401602060405180830381865afa158015611711573d6000803e3d6000fd5b6000611bc86126cb565b6001600160a01b0383166000908152600e6020526040812054610a5e9084613ba0565b6001600160a01b03811660009081526014602052604081205460125482906110079083612863565b6000806000611c2184613cc3565b915091506000611c318383613d3d565b95945050505050565b6000610a7d82613d6c565b6001600160a01b0381166000908152600e602052604081208054600190910154909180611c7185610fdc565b9150611c7c85611beb565b9050611c888483613ba0565b9350611c948382613ba0565b92509193509193565b6040805160e08082018352600080546001600160a01b0390811684526001548116602080860191909152600854821685870152600a548216606080870191909152600b548316608080880191909152600754841660a08089019190915260065490941660c080890191909152885161010081018a5286815293840186905297830185905290820184905281018390529081018290529384018190529083015290611d4683613d98565b611d4e613e40565b600260009054906101000a90046001600160a01b03166001600160a01b0316630fdb11cf6040518163ffffffff1660e01b81526004016020604051808303816000875af1158015611da3573d6000803e3d6000fd5b505050506040513d601f19601f82011682018060405250810190611dc79190615af6565b60c08201819052611dd790613f33565b611de089613fa6565b611def8260400151338b61401c565b611df761164c565b60e0820181905260408381015190516370a0823160e01b81523360048201526001600160a01b03909116906370a0823190602401602060405180830381865afa158015611e48573d6000803e3d6000fd5b505050506040513d601f19601f82011682018060405250810190611e6c9190615af6565b1115611e7a57611e7a615b7c565b888152608082015160c0820151600091611e95918b90614123565b15611ea1575087611fb2565b82608001516001600160a01b0316634d6228316040518163ffffffff1660e01b8152600401602060405180830381865afa158015611ee3573d6000803e3d6000fd5b505050506040513d601f19601f82011682018060405250810190611f079190615b92565b90505b6001600160a01b03811615801590611f365750670f43fc2c04ee0000611f34828460c00151612542565b105b15611fb2576080830151604051632dc9c0eb60e21b81526001600160a01b0383811660048301529091169063b72703ac90602401602060405180830381865afa158015611f87573d6000803e3d6000fd5b505050506040513d601f19601f82011682018060405250810190611fab9190615b92565b9050611f0a565b611ff56040518060400160405280600e81526020017f72656d61696e696e675a4b5553440000000000000000000000000000000000008152508360000151614268565b6120346040518060400160405280601181526020017f63757272656e74426f72726f7765723a20000000000000000000000000000000815250826142ad565b846000036120425760001994505b6001600160a01b0381161580159061205a5750815115155b80156120665750600085115b156121e6578461207581615baf565b6080850151604051632dc9c0eb60e21b81526001600160a01b0385811660048301529298506000935091169063b72703ac90602401602060405180830381865afa1580156120c7573d6000803e3d6000fd5b505050506040513d601f19601f820116820180604052508101906120eb9190615b92565b9050612100846000015185602001518461274b565b6000612119858486600001518760c001518e8e8e6142f2565b905080604001511561212c5750506121e6565b8051602085015161213c91613ba0565b602080860191909152810151604085015161215691613ba0565b60408501528051845161216891612863565b8452604080518082018252601081527f746f74616c4e454f4e447261776e3a200000000000000000000000000000000060208201529085015192935083926121b09190614268565b6121df6040518060400160405280600981526020016802722a7a72637ba1d160bd1b8152508260200151614268565b5050612042565b600082604001511161224c5760405162461bcd60e51b815260206004820152602960248201527f54726f76654d616e616765723a20556e61626c6520746f2072656465656d20616044820152681b9e48185b5bdd5b9d60ba1b6064820152608401610b1c565b61226382604001518360c001518460e00151614693565b50612271826040015161472f565b60608301819052604083015161228891908661473c565b8251606080850151908401516040516373333ae560e11b81526001600160a01b039283166004820152602481019190915291169063e66675ca90604401600060405180830381600087803b1580156122df57600080fd5b505af11580156122f3573d6000803e3d6000fd5b5050505082606001516001600160a01b031663a3d701b783606001516040518263ffffffff1660e01b815260040161232d91815260200190565b600060405180830381600087803b15801561234757600080fd5b505af115801561235b573d6000803e3d6000fd5b505050506060820151604083015161237291612863565b60808301526020820151604080840151606085015191517f43a3f4082a4dbc33d78e317d2497d3a730bc7fc3574159dcea1056e62e5d9ad8936123ce938f93919293845260208401929092526040830152606082015260800190565b60405180910390a160408084015160208401519151632770a7eb60e21b815233600482015260248101929092526001600160a01b031690639dc29fac90604401600060405180830381600087803b15801561242857600080fd5b505af115801561243c573d6000803e3d6000fd5b5050845160208501516040516305af902160e31b81526001600160a01b039092169350632d7c810892506124769160040190815260200190565b600060405180830381600087803b15801561249057600080fd5b505af11580156124a4573d6000803e3d6000fd5b5050845160808501516040516373333ae560e11b815233600482015260248101919091526001600160a01b03909116925063e66675ca9150604401600060405180830381600087803b1580156124f957600080fd5b505af115801561250d573d6000803e3d6000fd5b5050505050505050505050505050565b6000610f6b61252a6133c0565b6132b5565b6125376126cb565b610a2e8160026147a6565b600080600061255085613cc3565b91509150600061108e8383876148d0565b600061256b6126cb565b6001600160a01b0383166000908152600e60205260408120600101546115fb9084612863565b6000610a7d61259e61251d565b836148fa565b6000601582815481106125b9576125b9615b66565b6000918252602090912001546001600160a01b031692915050565b600060016001600160a01b0383166000908152600e602052604090206003015460ff1660048111156126085761260861595c565b1461261557506000919050565b506012546001600160a01b039091166000908152601460205260409020541090565b61263f613af4565b6001600160a01b0381166126a45760405162461bcd60e51b815260206004820152602660248201527f4f776e61626c653a206e6577206f776e657220697320746865207a65726f206160448201526564647265737360d01b6064820152608401610b1c565b610a2e81613b4e565b6000610f6b600c54613ab4565b6126c26126cb565b610a2e8161498a565b6004546001600160a01b031633146115c95760405162461bcd60e51b815260206004820152603b60248201527f54726f76654d616e616765723a2043616c6c6572206973206e6f74207468652060448201527f426f72726f7765724f7065726174696f6e7320636f6e747261637400000000006064820152608401610b1c565b612754816125d4565b1561285e57612762816132eb565b600061276d82611beb565b9050600061277a83610fdc565b6001600160a01b0384166000908152600e60205260409020600101549091506127a39083613ba0565b6001600160a01b0384166000908152600e602052604090206001810191909155546127ce9082613ba0565b6001600160a01b0384166000908152600e60205260409020556127f083613c59565b6127fc858583856149d4565b6001600160a01b0383166000818152600e60205260408082208054600182015460029092015492517fc3770d654ed33aeea6bf11ac8ef05d02a6a04ed4686dd2f624d853bbec43cc8b946128539492939291615bda565b60405180910390a250505b505050565b600061286f8284615bfc565b9392505050565b601580546001808201835560008381527f55f448fdea98c4d29eb340757ef0a66cd03dbb9538908a6a81d96026b71ec47590920180546001600160a01b0319166001600160a01b038616179055915490916128d19190612863565b6001600160a01b039092166000908152600e602052604090206004018290555090565b6001600160a01b0381166000908152600e6020526040812060010154819061291b90614ab5565b6001600160a01b0384166000908152600e60205260409020600201805490829055600f54919250906129599083906129539084612863565b90613ba0565b600f8190556040519081527f6bac5e0eb3c44eb03a60ab11ec3a2c051771616aecadbcfff2630aabae5203829060200160405180910390a15092915050565b6000806129a483613d6c565b6714d1120d7b160000119392505050565b612a046040518061012001604052806000815260200160008152602001600081526020016000815260200160008152602001600081526020016000815260200160008152602001600081525090565b612a4f6040518060e0016040528060008152602001600081526020016000815260200160006001600160a01b0316815260200160001515815260200160008152602001600081525090565b612a9e6040518061012001604052806000815260200160008152602001600081526020016000815260200160008152602001600081526020016000815260200160008152602001600081525090565b84825260006080830152612ab061164c565b60a0830152612abd611af9565b60c0830152600060208301525b835182602001511015612ca25783826020015181518110612aed57612aed615b66565b6020908102919091018101516001600160a01b0316606084018190526000908152600e909152604090206003015460019060ff166004811115612b3257612b3261595c565b03612c8a57612b45826060015187612542565b60408301526080820151612c3257670f43fc2c04ee0000826040015110158015612b6e57508151155b612c8a576000612b878360c001518460a00151896148d0565b9050612ba48989856060015186604001518760000151868d614af6565b60808101518451919350612bb89190612863565b8352608082015160a0840151612bcd91612863565b8360a0018181525050612c02826101000151610e7c8460400151610e7c8660a001518860c0015161286390919063ffffffff16565b60c0840152612c118483614eb7565b9350612c268360c001518460a0015189614fdf565b15608084015250612c8a565b81608001518015612c4e5750670f43fc2c04ee00008260400151105b15612c8a57612c67888884606001518560000151615000565b60808101518351919250612c7b9190612863565b8252612c878382614eb7565b92505b60208201805190612c9a82615c0f565b905250612aca565b505095945050505050565b612cfc6040518061012001604052806000815260200160008152602001600081526020016000815260200160008152602001600081526020016000815260200160008152602001600081525090565b612d476040518060e0016040528060008152602001600081526020016000815260200160006001600160a01b0316815260200160001515815260200160008152602001600081525090565b612d966040518061012001604052806000815260200160008152602001600081526020016000815260200160008152602001600081526020016000815260200160008152602001600081525090565b848252600060208301525b835182602001511015612ca25783826020015181518110612dc457612dc4615b66565b60209081029190910101516001600160a01b031660608301819052612de99087612542565b60408301819052670f43fc2c04ee00001115612e3657612e13888884606001518560000151615000565b60808101518351919250612e279190612863565b8252612e338382614eb7565b92505b60208201805190612e4682615c0f565b905250612da1565b811561308557601654600090612e709061295384670de0b6b3a7640000613390565b90506000612e95601754612953670de0b6b3a76400008761339090919063ffffffff16565b90506000612eae600f548461339c90919063ffffffff16565b90506000612ec7600f548461339c90919063ffffffff16565b9050612ee8612ee1600f548461339090919063ffffffff16565b8590612863565b601655600f54612f0490612efd908390613390565b8490612863565b601755601254612f149083613ba0565b601255601354612f249082613ba0565b60138190556012546040517f9f8bc8ab0daf5bceef75ecfd2085d1fcc6548c657ea970d9a23a60610d0737e392612f62928252602082015260400190565b60405180910390a16040516305af902160e31b8152600481018790526001600160a01b03891690632d7c810890602401600060405180830381600087803b158015612fac57600080fd5b505af1158015612fc0573d6000803e3d6000fd5b5050604051636b05e97760e01b8152600481018990526001600160a01b038a169250636b05e9779150602401600060405180830381600087803b15801561300657600080fd5b505af115801561301a573d6000803e3d6000fd5b50506040516373333ae560e11b81526001600160a01b038a81166004830152602482018990528b16925063e66675ca9150604401600060405180830381600087803b15801561306857600080fd5b505af115801561307c573d6000803e3d6000fd5b50505050505050505b50505050565b600f546010819055506000826001600160a01b031663933463196040518163ffffffff1660e01b8152600401602060405180830381865afa1580156130d4573d6000803e3d6000fd5b505050506040513d601f19601f820116820180604052508101906130f89190615af6565b90506000600160009054906101000a90046001600160a01b03166001600160a01b031663933463196040518163ffffffff1660e01b8152600401602060405180830381865afa15801561314f573d6000803e3d6000fd5b505050506040513d601f19601f820116820180604052508101906131739190615af6565b9050613183816129538486612863565b60118190556010546040517f51bf4c63ec3cba9d03d43238abbdd979dd91bd16d9895c74ceea9118c7baaf60926131c1928252602082015260400190565b60405180910390a150505050565b811561324657600854600654604051631062c15f60e11b81526001600160a01b0391821660048201528582166024820152604481018590529116906320c582be90606401600060405180830381600087803b15801561322d57600080fd5b505af1158015613241573d6000803e3d6000fd5b505050505b8015613085576040516373333ae560e11b81526001600160a01b0384811660048301526024820183905285169063e66675ca906044015b600060405180830381600087803b15801561329757600080fd5b505af11580156132ab573d6000803e3d6000fd5b5050505050505050565b6000610a7d6132dd836132d26103e8670de0b6b3a7640000615b3b565b612953906005615b4f565b670de0b6b3a76400006151b3565b60016001600160a01b0382166000908152600e602052604090206003015460ff16600481111561331d5761331d61595c565b14610a2e5760405162461bcd60e51b815260206004820152602f60248201527f54726f76654d616e616765723a2054726f766520646f6573206e6f742065786960448201527f7374206f7220697320636c6f73656400000000000000000000000000000000006064820152608401610b1c565b600061286f8284615b4f565b600061286f8284615b3b565b600061286f670de0b6b3a76400006110888585613390565b6000806133cb6151c9565b905060006133e1670ddd4b8c6c7d70d8836151e5565b9050611741670de0b6b3a764000061108883600c5461339090919063ffffffff16565b600061341b600d544261286390919063ffffffff16565b9050603c8110610a2e5742600d8190556040519081527f860f8d2f0c74dd487e89e2883e3b25b8159ce1e1b3433a291cba7b82c508f3bc906020015b60405180910390a150565b6134b16040518061012001604052806000815260200160008152602001600081526020016000815260200160008152602001600081526020016000815260200160008152602001600081525090565b6134fc6040518060e0016040528060008152602001600081526020016000815260200160006001600160a01b0316815260200160001515815260200160008152602001600081525090565b61354b6040518061012001604052806000815260200160008152602001600081526020016000815260200160008152602001600081526020016000815260200160008152602001600081525090565b8482526000608083015261355d61164c565b60a083015261356a611af9565b8260c001818152505086608001516001600160a01b0316634d6228316040518163ffffffff1660e01b8152600401602060405180830381865afa1580156135b5573d6000803e3d6000fd5b505050506040513d601f19601f820116820180604052508101906135d99190615b92565b82606001906001600160a01b031690816001600160a01b031681525050600087608001516001600160a01b0316631e2231436040518163ffffffff1660e01b8152600401602060405180830381865afa15801561363a573d6000803e3d6000fd5b505050506040513d601f19601f8201168201806040525081019061365e9190615b92565b6000602085015290505b8483602001511080156136915750806001600160a01b031683606001516001600160a01b031614155b156138a75760808801516060840151604051632dc9c0eb60e21b81526001600160a01b039182166004820152600092919091169063b72703ac90602401602060405180830381865afa1580156136eb573d6000803e3d6000fd5b505050506040513d601f19601f8201168201806040525081019061370f9190615b92565b905061371f846060015189612542565b6040850152608084015161381757670f43fc2c04ee000084604001511015801561374857508351155b1561375357506138a7565b60006137688560c001518660a001518b6148d0565b8a5160208c015160608801516040890151895194955061378994868f614af6565b6080810151865191955061379d9190612863565b8552608084015160a08601516137b291612863565b8560a00181815250506137e7846101000151610e7c8660400151610e7c8860a001518a60c0015161286390919063ffffffff16565b60c08601526137f68685614eb7565b955061380b8560c001518660a001518b614fdf565b15608086015250613881565b836080015180156138335750670f43fc2c04ee00008460400151105b1561387b5761385489600001518a6020015186606001518760000151615000565b608081015185519194506138689190612863565b84526138748584614eb7565b9450613881565b506138a7565b6001600160a01b031660608401526020830180519061389f82615c0f565b905250613668565b505050949350505050565b6139016040518061012001604052806000815260200160008152602001600081526020016000815260200160008152602001600081526020016000815260200160008152602001600081525090565b61394c6040518060e0016040528060008152602001600081526020016000815260200160006001600160a01b0316815260200160001515815260200160008152602001600081525090565b61399b6040518061012001604052806000815260200160008152602001600081526020016000815260200160008152602001600081526020016000815260200160008152602001600081525090565b600b54858352600060208401526001600160a01b03165b8483602001511015613aa857806001600160a01b0316634d6228316040518163ffffffff1660e01b8152600401602060405180830381865afa1580156139fc573d6000803e3d6000fd5b505050506040513d601f19601f82011682018060405250810190613a209190615b92565b6001600160a01b031660608401819052613a3a9088612542565b60408401819052670f43fc2c04ee00001115613a8b57613a64898985606001518660000151615000565b60808101518451919350613a789190612863565b8352613a848483614eb7565b9350613a90565b613aa8565b60208301805190613aa082615c0f565b9052506139b2565b50505095945050505050565b6000610a7d613ad1836132d26103e8670de0b6b3a7640000615b3b565b613ae46064670de0b6b3a7640000615b3b565b613aef906005615b4f565b6151b3565b6003546001600160a01b031633146115c95760405162461bcd60e51b815260206004820181905260248201527f4f776e61626c653a2063616c6c6572206973206e6f7420746865206f776e65726044820152606401610b1c565b600380546001600160a01b038381166001600160a01b0319831681179093556040519116919082907f8be0079c531659141344cd1fd0a4f28419497f9722a3daafe3b4186f6b6457e090600090a35050565b600061286f8284615c28565b6001600160a01b038116613c025760405162461bcd60e51b815260206004820152601e60248201527f4163636f756e742063616e6e6f74206265207a65726f206164647265737300006044820152606401610b1c565b6001600160a01b0381163b610a2e5760405162461bcd60e51b815260206004820181905260248201527f4163636f756e7420636f64652073697a652063616e6e6f74206265207a65726f6044820152606401610b1c565b601280546001600160a01b03831660008181526014602090815260409182902093845560135460019094018490559354815192835293820193909352918201527fc3d426bcfc672bd74f6fae61c225e06f556f80dad48af8a4631b295030a7ad3d90606001613457565b6000806000613cd184611beb565b90506000613cde85610fdc565b6001600160a01b0386166000908152600e602052604081206001015491925090613d089084613ba0565b6001600160a01b0387166000908152600e602052604081205491925090613d2f9084613ba0565b919791965090945050505050565b60008115613d6357613d5c826110888568056bc75e2d63100000613390565b9050610a7d565b50600019610a7d565b600080613d77611af9565b90506000613d8361164c565b9050613d908282866148d0565b949350505050565b613dac6103e8670de0b6b3a7640000615b3b565b613db7906005615b4f565b8110158015613dce5750670de0b6b3a76400008111155b610a2e5760405162461bcd60e51b815260206004820152603060248201527f4d6178206665652070657263656e74616765206d75737420626520626574776560448201527f656e20302e352520616e642031303025000000000000000000000000000000006064820152608401610b1c565b60095460408051631e425be160e11b815290516000926001600160a01b031691633c84b7c29160048083019260209291908290030181865afa158015613e8a573d6000803e3d6000fd5b505050506040513d601f19601f82011682018060405250810190613eae9190615af6565b9050613ebc81610258613ba0565b421015610a2e576040805162461bcd60e51b81526020600482015260248101919091527f54726f76654d616e616765723a20526564656d7074696f6e7320617265206e6f60448201527f7420616c6c6f77656420647572696e6720626f6f7473747261702070686173656064820152608401610b1c565b670f43fc2c04ee0000613f4582613d6c565b1015610a2e5760405162461bcd60e51b815260206004820152602a60248201527f54726f76654d616e616765723a2043616e6e6f742072656465656d207768656e604482015269102a21a9101e1026a1a960b11b6064820152608401610b1c565b60008111610a2e5760405162461bcd60e51b815260206004820152602e60248201527f54726f76654d616e616765723a20416d6f756e74206d7573742062652067726560448201527f61746572207468616e207a65726f0000000000000000000000000000000000006064820152608401610b1c565b6040516370a0823160e01b81526001600160a01b0383811660048301528291908516906370a0823190602401602060405180830381865afa158015614065573d6000803e3d6000fd5b505050506040513d601f19601f820116820180604052508101906140899190615af6565b101561285e5760405162461bcd60e51b815260206004820152604f60248201527f54726f76654d616e616765723a2052657175657374656420726564656d70746960448201527f6f6e20616d6f756e74206d757374206265203c3d20757365722773205a4b555360648201527f4420746f6b656e2062616c616e63650000000000000000000000000000000000608482015260a401610b1c565b60006001600160a01b03831615806141a25750604051630bb7c8fd60e31b81526001600160a01b038481166004830152851690635dbe47e890602401602060405180830381865afa15801561417c573d6000803e3d6000fd5b505050506040513d601f19601f820116820180604052508101906141a09190615c3b565b155b806141bd5750670f43fc2c04ee00006141bb8484612542565b105b156141ca5750600061286f565b60405163765e015960e01b81526001600160a01b0384811660048301526000919086169063765e015990602401602060405180830381865afa158015614214573d6000803e3d6000fd5b505050506040513d601f19601f820116820180604052508101906142389190615b92565b90506001600160a01b0381161580611c315750670f43fc2c04ee000061425e8285612542565b1095945050505050565b610fd8828260405160240161427e929190615ca3565b60408051601f198184030181529190526020810180516001600160e01b0316632d839cb360e21b179052615289565b610fd882826040516024016142c3929190615cc5565b60408051601f198184030181529190526020810180516001600160e01b031663319af33360e01b179052615289565b614318604051806060016040528060008152602001600081526020016000151581525090565b6001600160a01b0387166000908152600e602052604090205461434a908790613aef906802b5e3af16b1880000612863565b80825261436590869061108890670de0b6b3a7640000613390565b60208083019190915281516001600160a01b0389166000908152600e909252604082205461439291612863565b6020808401516001600160a01b038b166000908152600e909252604082206001015492935090916143c291612863565b90506802b5e3af16b1880000820361444c576143dd8961498a565b6143e88960046147a6565b6143fd8a8a6802b5e3af16b188000084615292565b886001600160a01b03167fc3770d654ed33aeea6bf11ac8ef05d02a6a04ed4686dd2f624d853bbec43cc8b6000806000600360405161443f9493929190615bda565b60405180910390a2614685565b60006144588284613d3d565b9050848114158061447957506818650127cc3dc80000614477846153fd565b105b15614586576144a96040518060400160405280600981526020016803732bba724a1a91d160bd1b81525082614268565b6144e86040518060400160405280601c81526020017f5f7061727469616c526564656d7074696f6e48696e744e4943523a200000000081525086614268565b61452f6040518060400160405280601681526020017f5f6765744e657444656274286e657744656274293a200000000000000000000081525061452a856153fd565b614268565b6145776040518060400160405280600f81526020017f4d494e5f4e45545f44454254293a2000000000000000000000000000000000008152506818650127cc3dc80000614268565b50506001604083015250614688565b60808b015160405163015f109360e51b81526001600160a01b038c81166004830152602482018490528981166044830152888116606483015290911690632be2126090608401600060405180830381600087803b1580156145e657600080fd5b505af11580156145fa573d6000803e3d6000fd5b5050506001600160a01b038b166000908152600e60205260409020848155600101839055506146288a6128f4565b506001600160a01b038a166000818152600e6020526040908190206002015490517fc3770d654ed33aeea6bf11ac8ef05d02a6a04ed4686dd2f624d853bbec43cc8b9161467b9187918791600390615bda565b60405180910390a2505b50505b979650505050505050565b60008061469e6133c0565b905060006146b0846110888888613390565b905060006146c96146c283600261339c565b8490613ba0565b90506146dd81670de0b6b3a76400006151b3565b9050600081116146ef576146ef615b7c565b600c8190556040518181527fc454ee9b76c52f782a256af821b857ca6e125d1e3333bcede402fec2bed9600c9060200160405180910390a161108e613404565b6000610a7d61259e610f5e565b60006147548361108886670de0b6b3a7640000613390565b9050818111156130855760405162461bcd60e51b815260206004820152601d60248201527f4665652065786365656465642070726f7669646564206d6178696d756d0000006044820152606401610b1c565b60008160048111156147ba576147ba61595c565b141580156147da575060018160048111156147d7576147d761595c565b14155b6147e6576147e6615b7c565b6015546147f281615412565b6001600160a01b0383166000908152600e60205260409020600301805483919060ff1916600183600481111561482a5761482a61595c565b02179055506001600160a01b0383166000908152600e6020908152604080832060018082018590559084905560149092528220828155015561486c83826154ec565b600b54604051631484968760e11b81526001600160a01b038581166004830152909116906329092d0e90602401600060405180830381600087803b1580156148b357600080fd5b505af11580156148c7573d6000803e3d6000fd5b50505050505050565b600082156148f15760006148e8846110888786613390565b915061286f9050565b5060001961286f565b600080614913670de0b6b3a76400006110888686613390565b905082811061286f5760405162461bcd60e51b815260206004820152603660248201527f54726f76654d616e616765723a2046656520776f756c6420656174207570206160448201527f6c6c2072657475726e656420636f6c6c61746572616c000000000000000000006064820152608401610b1c565b6001600160a01b0381166000908152600e6020526040902060020154600f546149b39082612863565b600f55506001600160a01b03166000908152600e6020526040812060020155565b6040516305af902160e31b8152600481018390526001600160a01b03841690632d7c810890602401600060405180830381600087803b158015614a1657600080fd5b505af1158015614a2a573d6000803e3d6000fd5b5050604051636b05e97760e01b8152600481018590526001600160a01b0387169250636b05e9779150602401600060405180830381600087803b158015614a7057600080fd5b505af1158015614a84573d6000803e3d6000fd5b5050604051631ef796e760e01b8152600481018490526001600160a01b0386169250631ef796e7915060240161327d565b600080601154600003614ac9575081610a7d565b600060105411614adb57614adb615b7c565b61286f6011546110886010548661339090919063ffffffff16565b614b456040518061012001604052806000815260200160008152602001600081526020016000815260200160008152602001600081526020016000815260200160008152602001600081525090565b614b6960405180606001604052806000815260200160008152602001600081525090565b601554600110614b795750614688565b614b8287611c45565b60408501526020848101919091528401819052908352614ba19061567a565b604083018190526802b5e3af16b188000060608401526020830151614bc591612863565b8152670de0b6b3a76400008611614cb457614bea8989836020015184604001516149d4565b614bf38761498a565b60006080830181905260a0830152815160c0830152805160e0830152614c1a8760036147a6565b815160208301516040516001600160a01b038a16927fea67486ed7ebe3eea8ab3390efd4a3c8aae48be5bea27df104a8af786c40843492614c5d92600290615cf0565b60405180910390a2866001600160a01b03167fc3770d654ed33aeea6bf11ac8ef05d02a6a04ed4686dd2f624d853bbec43cc8b60008060006002604051614ca79493929190615bda565b60405180910390a2614eab565b670de0b6b3a764000086118015614cd25750670f43fc2c04ee000086105b15614d2257614ceb8989836020015184604001516149d4565b614cf48761498a565b81518151614d03919087615687565b60e086015260c085015260a08401526080830152614c1a8760036147a6565b670f43fc2c04ee00008610158015614d3957508386105b8015614d46575081518510155b15614e5357614d5f8989836020015184604001516149d4565b84600003614d6f57614d6f615b7c565b614d788761498a565b614d8b82600001518360200151856156e1565b9150614d988760036147a6565b61010082015115614e1057600754610100830151604051633f10abab60e01b81526001600160a01b038a811660048301526024820192909252911690633f10abab90604401600060405180830381600087803b158015614df757600080fd5b505af1158015614e0b573d6000803e3d6000fd5b505050505b815160a08301516040516001600160a01b038a16927fea67486ed7ebe3eea8ab3390efd4a3c8aae48be5bea27df104a8af786c40843492614c5d92600290615cf0565b614ea26040518061012001604052806000815260200160008152602001600081526020016000815260200160008152602001600081526020016000815260200160008152602001600081525090565b91506146889050565b50979650505050505050565b614f066040518061012001604052806000815260200160008152602001600081526020016000815260200160008152602001600081526020016000815260200160008152602001600081525090565b60408083015190840151614f1991613ba0565b604082015260608083015190840151614f3191613ba0565b606082015281516020840151614f4691613ba0565b6020808301919091528201518351614f5d91613ba0565b815260808083015190840151614f7291613ba0565b608082015260a08083015190840151614f8a91613ba0565b60a082015260c08083015190840151614fa291613ba0565b60c082015260e08083015190840151614fba91613ba0565b60e08201526101008083015190840151614fd391613ba0565b61010082015292915050565b600080614fed8585856148d0565b6714d1120d7b1600001195945050505050565b61504f6040518061012001604052806000815260200160008152602001600081526020016000815260200160008152602001600081526020016000815260200160008152602001600081525090565b61507360405180606001604052806000815260200160008152602001600081525090565b61507c84611c45565b604085019081526020858101928352860192909252918452905190516150a69188918891906149d4565b6150af8461498a565b6150bc826020015161567a565b604083018190526802b5e3af16b1880000606084015260208301516000916150e49190612863565b90506150f583600001518286615687565b60e087015260c086015260a085015260808401526151148560036147a6565b825160208401516040516001600160a01b038816927fea67486ed7ebe3eea8ab3390efd4a3c8aae48be5bea27df104a8af786c4084349261515792600190615cf0565b60405180910390a2846001600160a01b03167fc3770d654ed33aeea6bf11ac8ef05d02a6a04ed4686dd2f624d853bbec43cc8b600080600060016040516151a19493929190615bda565b60405180910390a25050949350505050565b60008183106151c2578161286f565b5090919050565b6000610f6b603c611088600d544261286390919063ffffffff16565b6000631f5405008211156151fb57631f54050091505b816000036152125750670de0b6b3a7640000610a7d565b670de0b6b3a764000083835b600181111561527f57615232600282615d0b565b6000036152575761524382836157b0565b915061525081600261339c565b905061521e565b61526182846157b0565b925061526d82836157b0565b91506152506002611088836001612863565b61108e82846157b0565b610a2e816157d9565b6040848101516006549151632770a7eb60e21b81526001600160a01b03928316600482015260248101859052911690639dc29fac90604401600060405180830381600087803b1580156152e457600080fd5b505af11580156152f8573d6000803e3d6000fd5b505085516040516305af902160e31b8152600481018690526001600160a01b039091169250632d7c81089150602401600060405180830381600087803b15801561534157600080fd5b505af1158015615355573d6000803e3d6000fd5b50505060a0850151604051633f10abab60e01b81526001600160a01b038681166004830152602482018590529091169150633f10abab90604401600060405180830381600087803b1580156153a957600080fd5b505af11580156153bd573d6000803e3d6000fd5b5050855160a08701516040516373333ae560e11b81526001600160a01b039182166004820152602481018690529116925063e66675ca915060440161327d565b6000610a7d826802b5e3af16b1880000612863565b60018111801561548d5750600b546040805163de8fa43160e01b815290516001926001600160a01b03169163de8fa4319160048083019260209291908290030181865afa158015615467573d6000803e3d6000fd5b505050506040513d601f19601f8201168201806040525081019061548b9190615af6565b115b610a2e5760405162461bcd60e51b815260206004820152602a60248201527f54726f76654d616e616765723a204f6e6c79206f6e652074726f766520696e206044820152697468652073797374656d60b01b6064820152608401610b1c565b6001600160a01b0382166000908152600e602052604081206003015460ff169081600481111561551e5761551e61595c565b1415801561553e5750600181600481111561553b5761553b61595c565b14155b61554a5761554a615b7c565b6001600160a01b0383166000908152600e6020526040812060040154908390615574826001612863565b90508083111561558657615586615b7c565b60006015828154811061559b5761559b615b66565b600091825260209091200154601580546001600160a01b0390921692508291869081106155ca576155ca615b66565b600091825260208083209190910180546001600160a01b0319166001600160a01b03948516179055918316808252600e835260409182902060040187905581519081529182018690527f02b04ae5f7be9ca7c103293a2aa15f3c339d15d6eda53b721fef7b0e609c831a910160405180910390a1601580548061564f5761564f615d1f565b600082815260209020810160001990810180546001600160a01b031916905501905550505050505050565b6000610a7d60c883615b3b565b600080808084156156cb5761569c87866151b3565b93506156ac876110888887613390565b92506156b88785612863565b91506156c48684612863565b90506156d8565b5060009250829150859050845b93509350935093565b6157306040518061012001604052806000815260200160008152602001600081526020016000815260200160008152602001600081526020016000815260200160008152602001600081525090565b8381526020810183905260006157528361108887670f43fc2c04ee0000613390565b905061575d8161567a565b604083018190526802b5e3af16b1880000606084015260808301869052615785908290612863565b60a08301526157948482612863565b61010083015250600060c0820181905260e08201529392505050565b6000806157bd8484613390565b9050613d90670de0b6b3a76400006110886146c2600283615b3b565b60006a636f6e736f6c652e6c6f679050600080835160208501845afa505050565b6001600160a01b0381168114610a2e57600080fd5b803561581a816157fa565b919050565b60006020828403121561583157600080fd5b813561286f816157fa565b6000806040838503121561584f57600080fd5b823561585a816157fa565b946020939093013593505050565b634e487b7160e01b600052604160045260246000fd5b6000602080838503121561589157600080fd5b823567ffffffffffffffff808211156158a957600080fd5b818501915085601f8301126158bd57600080fd5b8135818111156158cf576158cf615868565b8060051b604051601f19603f830116810181811085821117156158f4576158f4615868565b60405291825284820192508381018501918883111561591257600080fd5b938501935b82851015615937576159288561580f565b84529385019392850192615917565b98975050505050505050565b60006020828403121561595557600080fd5b5035919050565b634e487b7160e01b600052602160045260246000fd5b858152602081018590526040810184905260a08101600584106159975761599761595c565b6060820193909352608001529392505050565b60008060008060008060008060008060006101608c8e0312156159cc57600080fd5b8b356159d7816157fa565b9a5060208c01356159e7816157fa565b995060408c01356159f7816157fa565b985060608c0135615a07816157fa565b975060808c0135615a17816157fa565b965060a08c0135615a27816157fa565b955060c08c0135615a37816157fa565b945060e08c0135615a47816157fa565b93506101008c0135615a58816157fa565b9250615a676101208d0161580f565b9150615a766101408d0161580f565b90509295989b509295989b9093969950565b600080600080600080600060e0888a031215615aa357600080fd5b873596506020880135615ab5816157fa565b95506040880135615ac5816157fa565b94506060880135615ad5816157fa565b9699959850939660808101359560a0820135955060c0909101359350915050565b600060208284031215615b0857600080fd5b5051919050565b634e487b7160e01b600052601260045260246000fd5b634e487b7160e01b600052601160045260246000fd5b600082615b4a57615b4a615b0f565b500490565b8082028115828204841417610a7d57610a7d615b25565b634e487b7160e01b600052603260045260246000fd5b634e487b7160e01b600052600160045260246000fd5b600060208284031215615ba457600080fd5b815161286f816157fa565b600081615bbe57615bbe615b25565b506000190190565b60048110615bd657615bd661595c565b9052565b848152602081018490526040810183905260808101611c316060830184615bc6565b81810381811115610a7d57610a7d615b25565b600060018201615c2157615c21615b25565b5060010190565b80820180821115610a7d57610a7d615b25565b600060208284031215615c4d57600080fd5b8151801515811461286f57600080fd5b6000815180845260005b81811015615c8357602081850181015186830182015201615c67565b506000602082860101526020601f19601f83011685010191505092915050565b604081526000615cb66040830185615c5d565b90508260208301529392505050565b604081526000615cd86040830185615c5d565b90506001600160a01b03831660208301529392505050565b8381526020810183905260608101613d906040830184615bc6565b600082615d1a57615d1a615b0f565b500690565b634e487b7160e01b600052603160045260246000fdfea164736f6c6343000811000a",
  "devdoc": {
    "kind": "dev",
    "methods": {
      "owner()": {
        "details": "Returns the address of the current owner."
      },
      "renounceOwnership()": {
        "details": "Leaves the contract without owner. It will not be possible to call `onlyOwner` functions. Can only be called by the current owner. NOTE: Renouncing ownership will leave the contract without an owner, thereby disabling any functionality that is only available to the owner."
      },
      "transferOwnership(address)": {
        "details": "Transfers ownership of the contract to a new account (`newOwner`). Can only be called by the current owner."
      }
    },
    "version": 1
  },
  "userdoc": {
    "kind": "user",
    "methods": {},
    "version": 1
  },
  "storageLayout": {
    "storage": [
      {
        "astId": 4126,
        "contract": "contracts/protocol/TroveManager.sol:TroveManager",
        "label": "activePool",
        "offset": 0,
        "slot": "0",
        "type": "t_contract(IActivePool)4320"
      },
      {
        "astId": 4129,
        "contract": "contracts/protocol/TroveManager.sol:TroveManager",
        "label": "defaultPool",
        "offset": 0,
        "slot": "1",
        "type": "t_contract(IDefaultPool)4673"
      },
      {
        "astId": 4132,
        "contract": "contracts/protocol/TroveManager.sol:TroveManager",
        "label": "priceFeed",
        "offset": 0,
        "slot": "2",
        "type": "t_contract(IPriceFeed)4759"
      },
      {
        "astId": 53,
        "contract": "contracts/protocol/TroveManager.sol:TroveManager",
        "label": "_owner",
        "offset": 0,
        "slot": "3",
        "type": "t_address"
      },
      {
        "astId": 15153,
        "contract": "contracts/protocol/TroveManager.sol:TroveManager",
        "label": "borrowerOperationsAddress",
        "offset": 0,
        "slot": "4",
        "type": "t_address"
      },
      {
        "astId": 15157,
        "contract": "contracts/protocol/TroveManager.sol:TroveManager",
        "label": "stabilityPool",
        "offset": 0,
        "slot": "5",
        "type": "t_contract(IStabilityPool)5136"
      },
      {
        "astId": 15159,
        "contract": "contracts/protocol/TroveManager.sol:TroveManager",
        "label": "gasPoolAddress",
        "offset": 0,
        "slot": "6",
        "type": "t_address"
      },
      {
        "astId": 15162,
        "contract": "contracts/protocol/TroveManager.sol:TroveManager",
        "label": "collSurplusPool",
        "offset": 0,
        "slot": "7",
        "type": "t_contract(ICollSurplusPool)4616"
      },
      {
        "astId": 15166,
        "contract": "contracts/protocol/TroveManager.sol:TroveManager",
        "label": "zkusdToken",
        "offset": 0,
        "slot": "8",
        "type": "t_contract(IZKUSDToken)5817"
      },
      {
        "astId": 15170,
        "contract": "contracts/protocol/TroveManager.sol:TroveManager",
        "label": "zkToken",
        "offset": 0,
        "slot": "9",
        "type": "t_contract(IZKToken)5761"
      },
      {
        "astId": 15174,
        "contract": "contracts/protocol/TroveManager.sol:TroveManager",
        "label": "zktStaking",
        "offset": 0,
        "slot": "10",
        "type": "t_contract(IZKTStaking)5726"
      },
      {
        "astId": 15177,
        "contract": "contracts/protocol/TroveManager.sol:TroveManager",
        "label": "sortedTroves",
        "offset": 0,
        "slot": "11",
        "type": "t_contract(ISortedTroves)4907"
      },
      {
        "astId": 15207,
        "contract": "contracts/protocol/TroveManager.sol:TroveManager",
        "label": "baseRate",
        "offset": 0,
        "slot": "12",
        "type": "t_uint256"
      },
      {
        "astId": 15209,
        "contract": "contracts/protocol/TroveManager.sol:TroveManager",
        "label": "lastFeeOperationTime",
        "offset": 0,
        "slot": "13",
        "type": "t_uint256"
      },
      {
        "astId": 15232,
        "contract": "contracts/protocol/TroveManager.sol:TroveManager",
        "label": "Troves",
        "offset": 0,
        "slot": "14",
        "type": "t_mapping(t_address,t_struct(Trove)15227_storage)"
      },
      {
        "astId": 15234,
        "contract": "contracts/protocol/TroveManager.sol:TroveManager",
        "label": "totalStakes",
        "offset": 0,
        "slot": "15",
        "type": "t_uint256"
      },
      {
        "astId": 15236,
        "contract": "contracts/protocol/TroveManager.sol:TroveManager",
        "label": "totalStakesSnapshot",
        "offset": 0,
        "slot": "16",
        "type": "t_uint256"
      },
      {
        "astId": 15238,
        "contract": "contracts/protocol/TroveManager.sol:TroveManager",
        "label": "totalCollateralSnapshot",
        "offset": 0,
        "slot": "17",
        "type": "t_uint256"
      },
      {
        "astId": 15240,
        "contract": "contracts/protocol/TroveManager.sol:TroveManager",
        "label": "L_NEON",
        "offset": 0,
        "slot": "18",
        "type": "t_uint256"
      },
      {
        "astId": 15242,
        "contract": "contracts/protocol/TroveManager.sol:TroveManager",
        "label": "L_ZKUSDDebt",
        "offset": 0,
        "slot": "19",
        "type": "t_uint256"
      },
      {
        "astId": 15247,
        "contract": "contracts/protocol/TroveManager.sol:TroveManager",
        "label": "rewardSnapshots",
        "offset": 0,
        "slot": "20",
        "type": "t_mapping(t_address,t_struct(RewardSnapshot)15252_storage)"
      },
      {
        "astId": 15255,
        "contract": "contracts/protocol/TroveManager.sol:TroveManager",
        "label": "TroveOwners",
        "offset": 0,
        "slot": "21",
        "type": "t_array(t_address)dyn_storage"
      },
      {
        "astId": 15257,
        "contract": "contracts/protocol/TroveManager.sol:TroveManager",
        "label": "lastNEONError_Redistribution",
        "offset": 0,
        "slot": "22",
        "type": "t_uint256"
      },
      {
        "astId": 15259,
        "contract": "contracts/protocol/TroveManager.sol:TroveManager",
        "label": "lastZKUSDDebtError_Redistribution",
        "offset": 0,
        "slot": "23",
        "type": "t_uint256"
      }
    ],
    "types": {
      "t_address": {
        "encoding": "inplace",
        "label": "address",
        "numberOfBytes": "20"
      },
      "t_array(t_address)dyn_storage": {
        "base": "t_address",
        "encoding": "dynamic_array",
        "label": "address[]",
        "numberOfBytes": "32"
      },
      "t_contract(IActivePool)4320": {
        "encoding": "inplace",
        "label": "contract IActivePool",
        "numberOfBytes": "20"
      },
      "t_contract(ICollSurplusPool)4616": {
        "encoding": "inplace",
        "label": "contract ICollSurplusPool",
        "numberOfBytes": "20"
      },
      "t_contract(IDefaultPool)4673": {
        "encoding": "inplace",
        "label": "contract IDefaultPool",
        "numberOfBytes": "20"
      },
      "t_contract(IPriceFeed)4759": {
        "encoding": "inplace",
        "label": "contract IPriceFeed",
        "numberOfBytes": "20"
      },
      "t_contract(ISortedTroves)4907": {
        "encoding": "inplace",
        "label": "contract ISortedTroves",
        "numberOfBytes": "20"
      },
      "t_contract(IStabilityPool)5136": {
        "encoding": "inplace",
        "label": "contract IStabilityPool",
        "numberOfBytes": "20"
      },
      "t_contract(IZKTStaking)5726": {
        "encoding": "inplace",
        "label": "contract IZKTStaking",
        "numberOfBytes": "20"
      },
      "t_contract(IZKToken)5761": {
        "encoding": "inplace",
        "label": "contract IZKToken",
        "numberOfBytes": "20"
      },
      "t_contract(IZKUSDToken)5817": {
        "encoding": "inplace",
        "label": "contract IZKUSDToken",
        "numberOfBytes": "20"
      },
      "t_enum(Status)15215": {
        "encoding": "inplace",
        "label": "enum TroveManager.Status",
        "numberOfBytes": "1"
      },
      "t_mapping(t_address,t_struct(RewardSnapshot)15252_storage)": {
        "encoding": "mapping",
        "key": "t_address",
        "label": "mapping(address => struct TroveManager.RewardSnapshot)",
        "numberOfBytes": "32",
        "value": "t_struct(RewardSnapshot)15252_storage"
      },
      "t_mapping(t_address,t_struct(Trove)15227_storage)": {
        "encoding": "mapping",
        "key": "t_address",
        "label": "mapping(address => struct TroveManager.Trove)",
        "numberOfBytes": "32",
        "value": "t_struct(Trove)15227_storage"
      },
      "t_struct(RewardSnapshot)15252_storage": {
        "encoding": "inplace",
        "label": "struct TroveManager.RewardSnapshot",
        "members": [
          {
            "astId": 15249,
            "contract": "contracts/protocol/TroveManager.sol:TroveManager",
            "label": "NEON",
            "offset": 0,
            "slot": "0",
            "type": "t_uint256"
          },
          {
            "astId": 15251,
            "contract": "contracts/protocol/TroveManager.sol:TroveManager",
            "label": "ZKUSDDebt",
            "offset": 0,
            "slot": "1",
            "type": "t_uint256"
          }
        ],
        "numberOfBytes": "64"
      },
      "t_struct(Trove)15227_storage": {
        "encoding": "inplace",
        "label": "struct TroveManager.Trove",
        "members": [
          {
            "astId": 15217,
            "contract": "contracts/protocol/TroveManager.sol:TroveManager",
            "label": "debt",
            "offset": 0,
            "slot": "0",
            "type": "t_uint256"
          },
          {
            "astId": 15219,
            "contract": "contracts/protocol/TroveManager.sol:TroveManager",
            "label": "coll",
            "offset": 0,
            "slot": "1",
            "type": "t_uint256"
          },
          {
            "astId": 15221,
            "contract": "contracts/protocol/TroveManager.sol:TroveManager",
            "label": "stake",
            "offset": 0,
            "slot": "2",
            "type": "t_uint256"
          },
          {
            "astId": 15224,
            "contract": "contracts/protocol/TroveManager.sol:TroveManager",
            "label": "status",
            "offset": 0,
            "slot": "3",
            "type": "t_enum(Status)15215"
          },
          {
            "astId": 15226,
            "contract": "contracts/protocol/TroveManager.sol:TroveManager",
            "label": "arrayIndex",
            "offset": 0,
            "slot": "4",
            "type": "t_uint256"
          }
        ],
        "numberOfBytes": "160"
      },
      "t_uint256": {
        "encoding": "inplace",
        "label": "uint256",
        "numberOfBytes": "32"
      }
    }
  }
}