{
  "address": "0xE25c8c538ac4Bdab3cb7e27d9b52f28e7657896B",
  "abi": [
    {
      "inputs": [
        {
          "internalType": "address",
          "name": "_communityIssuanceAddress",
          "type": "address"
        },
        {
          "internalType": "address",
          "name": "_zktStakingAddress",
          "type": "address"
        },
        {
          "internalType": "address",
          "name": "_lockupFactoryAddress",
          "type": "address"
        },
        {
          "internalType": "address",
          "name": "_bountyAddress",
          "type": "address"
        },
        {
          "internalType": "address",
          "name": "_lpRewardsAddress",
          "type": "address"
        },
        {
          "internalType": "address",
          "name": "_multisigAddress",
          "type": "address"
        }
      ],
      "stateMutability": "nonpayable",
      "type": "constructor"
    },
    {
      "anonymous": false,
      "inputs": [
        {
          "indexed": true,
          "internalType": "address",
          "name": "owner",
          "type": "address"
        },
        {
          "indexed": true,
          "internalType": "address",
          "name": "spender",
          "type": "address"
        },
        {
          "indexed": false,
          "internalType": "uint256",
          "name": "value",
          "type": "uint256"
        }
      ],
      "name": "Approval",
      "type": "event"
    },
    {
      "anonymous": false,
      "inputs": [
        {
          "indexed": false,
          "internalType": "address",
          "name": "_communityIssuanceAddress",
          "type": "address"
        }
      ],
      "name": "CommunityIssuanceAddressSet",
      "type": "event"
    },
    {
      "anonymous": false,
      "inputs": [
        {
          "indexed": false,
          "internalType": "address",
          "name": "_lockupContractFactoryAddress",
          "type": "address"
        }
      ],
      "name": "LockupContractFactoryAddressSet",
      "type": "event"
    },
    {
      "anonymous": false,
      "inputs": [
        {
          "indexed": true,
          "internalType": "address",
          "name": "from",
          "type": "address"
        },
        {
          "indexed": true,
          "internalType": "address",
          "name": "to",
          "type": "address"
        },
        {
          "indexed": false,
          "internalType": "uint256",
          "name": "value",
          "type": "uint256"
        }
      ],
      "name": "Transfer",
      "type": "event"
    },
    {
      "anonymous": false,
      "inputs": [
        {
          "indexed": false,
          "internalType": "address",
          "name": "_zktStakingAddress",
          "type": "address"
        }
      ],
      "name": "ZKTStakingAddressSet",
      "type": "event"
    },
    {
      "inputs": [],
      "name": "ONE_YEAR_IN_SECONDS",
      "outputs": [
        {
          "internalType": "uint256",
          "name": "",
          "type": "uint256"
        }
      ],
      "stateMutability": "view",
      "type": "function"
    },
    {
      "inputs": [
        {
          "internalType": "address",
          "name": "owner",
          "type": "address"
        },
        {
          "internalType": "address",
          "name": "spender",
          "type": "address"
        }
      ],
      "name": "allowance",
      "outputs": [
        {
          "internalType": "uint256",
          "name": "",
          "type": "uint256"
        }
      ],
      "stateMutability": "view",
      "type": "function"
    },
    {
      "inputs": [
        {
          "internalType": "address",
          "name": "spender",
          "type": "address"
        },
        {
          "internalType": "uint256",
          "name": "amount",
          "type": "uint256"
        }
      ],
      "name": "approve",
      "outputs": [
        {
          "internalType": "bool",
          "name": "",
          "type": "bool"
        }
      ],
      "stateMutability": "nonpayable",
      "type": "function"
    },
    {
      "inputs": [
        {
          "internalType": "address",
          "name": "account",
          "type": "address"
        }
      ],
      "name": "balanceOf",
      "outputs": [
        {
          "internalType": "uint256",
          "name": "",
          "type": "uint256"
        }
      ],
      "stateMutability": "view",
      "type": "function"
    },
    {
      "inputs": [],
      "name": "communityIssuanceAddress",
      "outputs": [
        {
          "internalType": "address",
          "name": "",
          "type": "address"
        }
      ],
      "stateMutability": "view",
      "type": "function"
    },
    {
      "inputs": [],
      "name": "decimals",
      "outputs": [
        {
          "internalType": "uint8",
          "name": "",
          "type": "uint8"
        }
      ],
      "stateMutability": "view",
      "type": "function"
    },
    {
      "inputs": [
        {
          "internalType": "address",
          "name": "spender",
          "type": "address"
        },
        {
          "internalType": "uint256",
          "name": "subtractedValue",
          "type": "uint256"
        }
      ],
      "name": "decreaseAllowance",
      "outputs": [
        {
          "internalType": "bool",
          "name": "",
          "type": "bool"
        }
      ],
      "stateMutability": "nonpayable",
      "type": "function"
    },
    {
      "inputs": [],
      "name": "domainSeparator",
      "outputs": [
        {
          "internalType": "bytes32",
          "name": "",
          "type": "bytes32"
        }
      ],
      "stateMutability": "view",
      "type": "function"
    },
    {
      "inputs": [],
      "name": "getDeploymentStartTime",
      "outputs": [
        {
          "internalType": "uint256",
          "name": "",
          "type": "uint256"
        }
      ],
      "stateMutability": "view",
      "type": "function"
    },
    {
      "inputs": [],
      "name": "getLpRewardsEntitlement",
      "outputs": [
        {
          "internalType": "uint256",
          "name": "",
          "type": "uint256"
        }
      ],
      "stateMutability": "view",
      "type": "function"
    },
    {
      "inputs": [
        {
          "internalType": "address",
          "name": "spender",
          "type": "address"
        },
        {
          "internalType": "uint256",
          "name": "addedValue",
          "type": "uint256"
        }
      ],
      "name": "increaseAllowance",
      "outputs": [
        {
          "internalType": "bool",
          "name": "",
          "type": "bool"
        }
      ],
      "stateMutability": "nonpayable",
      "type": "function"
    },
    {
      "inputs": [],
      "name": "lockupContractFactory",
      "outputs": [
        {
          "internalType": "contract ILockupContractFactory",
          "name": "",
          "type": "address"
        }
      ],
      "stateMutability": "view",
      "type": "function"
    },
    {
      "inputs": [],
      "name": "multisigAddress",
      "outputs": [
        {
          "internalType": "address",
          "name": "",
          "type": "address"
        }
      ],
      "stateMutability": "view",
      "type": "function"
    },
    {
      "inputs": [],
      "name": "name",
      "outputs": [
        {
          "internalType": "string",
          "name": "",
          "type": "string"
        }
      ],
      "stateMutability": "view",
      "type": "function"
    },
    {
      "inputs": [
        {
          "internalType": "address",
          "name": "owner",
          "type": "address"
        }
      ],
      "name": "nonces",
      "outputs": [
        {
          "internalType": "uint256",
          "name": "",
          "type": "uint256"
        }
      ],
      "stateMutability": "view",
      "type": "function"
    },
    {
      "inputs": [
        {
          "internalType": "address",
          "name": "owner",
          "type": "address"
        },
        {
          "internalType": "address",
          "name": "spender",
          "type": "address"
        },
        {
          "internalType": "uint256",
          "name": "amount",
          "type": "uint256"
        },
        {
          "internalType": "uint256",
          "name": "deadline",
          "type": "uint256"
        },
        {
          "internalType": "uint8",
          "name": "v",
          "type": "uint8"
        },
        {
          "internalType": "bytes32",
          "name": "r",
          "type": "bytes32"
        },
        {
          "internalType": "bytes32",
          "name": "s",
          "type": "bytes32"
        }
      ],
      "name": "permit",
      "outputs": [],
      "stateMutability": "nonpayable",
      "type": "function"
    },
    {
      "inputs": [],
      "name": "permitTypeHash",
      "outputs": [
        {
          "internalType": "bytes32",
          "name": "",
          "type": "bytes32"
        }
      ],
      "stateMutability": "pure",
      "type": "function"
    },
    {
      "inputs": [
        {
          "internalType": "address",
          "name": "_sender",
          "type": "address"
        },
        {
          "internalType": "uint256",
          "name": "_amount",
          "type": "uint256"
        }
      ],
      "name": "sendToZKTStaking",
      "outputs": [],
      "stateMutability": "nonpayable",
      "type": "function"
    },
    {
      "inputs": [],
      "name": "symbol",
      "outputs": [
        {
          "internalType": "string",
          "name": "",
          "type": "string"
        }
      ],
      "stateMutability": "view",
      "type": "function"
    },
    {
      "inputs": [],
      "name": "totalSupply",
      "outputs": [
        {
          "internalType": "uint256",
          "name": "",
          "type": "uint256"
        }
      ],
      "stateMutability": "view",
      "type": "function"
    },
    {
      "inputs": [
        {
          "internalType": "address",
          "name": "recipient",
          "type": "address"
        },
        {
          "internalType": "uint256",
          "name": "amount",
          "type": "uint256"
        }
      ],
      "name": "transfer",
      "outputs": [
        {
          "internalType": "bool",
          "name": "",
          "type": "bool"
        }
      ],
      "stateMutability": "nonpayable",
      "type": "function"
    },
    {
      "inputs": [
        {
          "internalType": "address",
          "name": "sender",
          "type": "address"
        },
        {
          "internalType": "address",
          "name": "recipient",
          "type": "address"
        },
        {
          "internalType": "uint256",
          "name": "amount",
          "type": "uint256"
        }
      ],
      "name": "transferFrom",
      "outputs": [
        {
          "internalType": "bool",
          "name": "",
          "type": "bool"
        }
      ],
      "stateMutability": "nonpayable",
      "type": "function"
    },
    {
      "inputs": [],
      "name": "version",
      "outputs": [
        {
          "internalType": "string",
          "name": "",
          "type": "string"
        }
      ],
      "stateMutability": "pure",
      "type": "function"
    },
    {
      "inputs": [],
      "name": "zktStakingAddress",
      "outputs": [
        {
          "internalType": "address",
          "name": "",
          "type": "address"
        }
      ],
      "stateMutability": "view",
      "type": "function"
    }
  ],
  "transactionHash": "0x3f116725a19b46ccfeaaae444a78db05adb44f47b56e1aae8b841c3e8e1cec28",
  "args": [
    "0x8D5b0392F6EEC07782A029145C4b635F75c01054",
    "0xf6fBE482d5bDb000360F30ba681778d326a356f5",
    "0x65A7C956F9AB396ea85360862035E61F41aAdF13",
    "0x256dB3D00b3338f118a58dC95a6076bc5022Ba01",
    "0x0000000000000000000000000000000000000000",
    "0x256dB3D00b3338f118a58dC95a6076bc5022Ba01"
  ],
  "numDeployments": 1,
  "solcInputHash": "86ff82a7dcea9d0b86c350418d855a56",
  "bytecode": "0x6101a060405269d3c21bcecceda10000006006553480156200002057600080fd5b5060405162001cb438038062001cb48339810160408190526200004391620004d6565b604051806040016040528060038152602001621692d560ea1b815250604051806040016040528060078152602001662d25aa37b5b2b760c91b815250604051806040016040528060038152602001621692d560ea1b8152508160039081620000ac9190620005fb565b506004620000bb8282620005fb565b5050815160209283012060408051808201825260018152603160f81b9085015260c08281527fc89efdaa54c0f20c7adf612882df0950f5a951637e0307cdcb4c672f298b8bc660e08190524660a081815284517f8b73c3c69bb8fe3d512ecc4cf759cc79239f7b179b0ffacaa9a75d522b39400f818a0152808601969096526060860192909252608080860191909152308583015283518086039092018252939091019091528051930192909220909152506200017886620002ec565b6200018385620002ec565b6200018e84620002ec565b600780546001600160a01b0319166001600160a01b038381169190911790915542610100528681166101205285811661014052841661018052600654600090620001e6906002620003af602090811b6200091d17901c565b9050620001f48482620003c6565b600654600090620002109060206200091d620003af821b17811c565b90506200021e8882620003c6565b6000620002576003620002436004600654620003af60201b6200091d1790919060201c565b6200048960201b620009291790919060201c565b61016081905290506001600160a01b03851662000280576200027a8482620003c6565b6200028c565b6200028c8582620003c6565b6000620002ce82620002ba85620002ba88620002ba6064600654620003af60201b6200091d1790919060201c565b6200049760201b620009351790919060201c565b9050620002dc8582620003c6565b5050505050505050505062000746565b6001600160a01b038116620003485760405162461bcd60e51b815260206004820152601e60248201527f4163636f756e742063616e6e6f74206265207a65726f2061646472657373000060448201526064015b60405180910390fd5b6200035e81620004a560201b620009411760201c565b620003ac5760405162461bcd60e51b815260206004820181905260248201527f4163636f756e7420636f64652073697a652063616e6e6f74206265207a65726f60448201526064016200033f565b50565b6000620003bd8284620006dd565b90505b92915050565b6001600160a01b0382166200041e5760405162461bcd60e51b815260206004820152601f60248201527f45524332303a206d696e7420746f20746865207a65726f20616464726573730060448201526064016200033f565b8060026000828254620004329190620006f7565b90915550506001600160a01b038216600081815260208181526040808320805486019055518481527fddf252ad1be2c89b69c2b068fc378daa952ba7f163c4a11628f55a4df523b3ef910160405180910390a35050565b6000620003bd82846200070d565b6000620003bd828462000730565b6001600160a01b03163b151590565b505050565b80516001600160a01b0381168114620004d157600080fd5b919050565b60008060008060008060c08789031215620004f057600080fd5b620004fb87620004b9565b95506200050b60208801620004b9565b94506200051b60408801620004b9565b93506200052b60608801620004b9565b92506200053b60808801620004b9565b91506200054b60a08801620004b9565b90509295509295509295565b634e487b7160e01b600052604160045260246000fd5b600181811c908216806200058257607f821691505b602082108103620005a357634e487b7160e01b600052602260045260246000fd5b50919050565b601f821115620004b457600081815260208120601f850160051c81016020861015620005d25750805b601f850160051c820191505b81811015620005f357828155600101620005de565b505050505050565b81516001600160401b0381111562000617576200061762000557565b6200062f816200062884546200056d565b84620005a9565b602080601f8311600181146200066757600084156200064e5750858301515b600019600386901b1c1916600185901b178555620005f3565b600085815260208120601f198616915b82811015620006985788860151825594840194600190910190840162000677565b5085821015620006b75787850151600019600388901b60f8161c191681555b5050505050600190811b01905550565b634e487b7160e01b600052601160045260246000fd5b8082028115828204841417620003c057620003c0620006c7565b80820180821115620003c057620003c0620006c7565b6000826200072b57634e487b7160e01b600052601260045260246000fd5b500490565b81810381811115620003c057620003c0620006c7565b60805160a05160c05160e05161010051610120516101405161016051610180516114d3620007e1600039600081816103100152610d570152600061033c01526000818161038b0152818161080201528181610b760152610f7f0152600081816103c70152610b3901526000818161024d015261095d015260006108cf015260006108aa0152600061082f0152600061085701526114d36000f3fe608060405234801561001057600080fd5b50600436106101985760003560e01c8063811c5b4d116100e3578063d505accf1161008c578063e7c8fed411610066578063e7c8fed414610422578063f00adbf61461042d578063f698da251461044057600080fd5b8063d505accf146103ad578063d874ea74146103c2578063dd62ed3e146103e957600080fd5b8063a457c2d7116100bd578063a457c2d714610360578063a9059cbb14610373578063b4bb222d1461038657600080fd5b8063811c5b4d1461030b57806395d89b4114610332578063974f55901461033a57600080fd5b8063395093511161014557806354fd4d501161011f57806354fd4d501461029c57806370a08231146102b95780637ecebe00146102e257600080fd5b806339509351146102385780633c84b7c21461024b5780635462870d1461027157600080fd5b806318160ddd1161017657806318160ddd1461020e57806323b872dd14610216578063313ce5671461022957600080fd5b806306fdde031461019d578063095ea7b3146101bb57806310ce43bd146101de575b600080fd5b6101a5610448565b6040516101b29190611244565b60405180910390f35b6101ce6101c93660046112ae565b6104da565b60405190151581526020016101b2565b7f6e71edae12b1b97f4d1f60370fef10105fa2faae0126114a169c64845d6126c95b6040519081526020016101b2565b600254610200565b6101ce6102243660046112d8565b610504565b604051601281526020016101b2565b6101ce6102463660046112ae565b610538565b7f0000000000000000000000000000000000000000000000000000000000000000610200565b600754610284906001600160a01b031681565b6040516001600160a01b0390911681526020016101b2565b6040805180820190915260018152603160f81b60208201526101a5565b6102006102c7366004611314565b6001600160a01b031660009081526020819052604090205490565b6102006102f0366004611314565b6001600160a01b031660009081526005602052604090205490565b6102847f000000000000000000000000000000000000000000000000000000000000000081565b6101a5610559565b7f0000000000000000000000000000000000000000000000000000000000000000610200565b6101ce61036e3660046112ae565b610568565b6101ce6103813660046112ae565b610589565b6102847f000000000000000000000000000000000000000000000000000000000000000081565b6103c06103bb36600461132f565b6105ca565b005b6102847f000000000000000000000000000000000000000000000000000000000000000081565b6102006103f73660046113a2565b6001600160a01b03918216600090815260016020908152604080832093909416825291909152205490565b6102006301e1338081565b6103c061043b3660046112ae565b6107de565b61020061082b565b606060038054610457906113d5565b80601f0160208091040260200160405190810160405280929190818152602001828054610483906113d5565b80156104d05780601f106104a5576101008083540402835291602001916104d0565b820191906000526020600020905b8154815290600101906020018083116104b357829003601f168201915b5050505050905090565b60006104e4610950565b156104f1576104f1610987565b6104fb83836109f4565b90505b92915050565b600061050e610950565b1561051c5761051c84610a0c565b61052583610a7e565b610530848484610c43565b949350505050565b6000610542610950565b1561054f5761054f610987565b6104fb8383610c67565b606060048054610457906113d5565b6000610572610950565b1561057f5761057f610987565b6104fb8383610ca6565b6007546000906001600160a01b0316331480156105a957506105a9610950565b156105b7576105b783610d38565b6105c083610a7e565b6104fb8383610e42565b4284101561061f5760405162461bcd60e51b815260206004820152601760248201527f5a4b5553443a206578706972656420646561646c696e6500000000000000000060448201526064015b60405180910390fd5b600061062961082b565b6001600160a01b038916600090815260056020526040812080547f6e71edae12b1b97f4d1f60370fef10105fa2faae0126114a169c64845d6126c9928c928c928c9290919061067783611425565b909155506040805160208101969096526001600160a01b0394851690860152929091166060840152608083015260a082015260c0810187905260e001604051602081830303815290604052805190602001206040516020016106f092919061190160f01b81526002810192909252602282015260420190565b60408051601f198184030181528282528051602091820120600080855291840180845281905260ff88169284019290925260608301869052608083018590529092509060019060a0016020604051602081039080840390855afa15801561075b573d6000803e3d6000fd5b505050602060405103519050886001600160a01b0316816001600160a01b0316146107c85760405162461bcd60e51b815260206004820152601860248201527f5a4b5553443a20696e76616c6964207369676e617475726500000000000000006044820152606401610616565b6107d3898989610e50565b505050505050505050565b6107e6610f74565b6107ee610950565b156107fc576107fc82610a0c565b610827827f000000000000000000000000000000000000000000000000000000000000000083611012565b5050565b60007f0000000000000000000000000000000000000000000000000000000000000000460361087957507f000000000000000000000000000000000000000000000000000000000000000090565b50604080517f8b73c3c69bb8fe3d512ecc4cf759cc79239f7b179b0ffacaa9a75d522b39400f6020808301919091527f0000000000000000000000000000000000000000000000000000000000000000828401527f000000000000000000000000000000000000000000000000000000000000000060608301524660808301523060a0808401919091528351808403909101815260c0909201909252805191012090565b60006104fb828461143e565b60006104fb8284611455565b60006104fb8284611477565b6001600160a01b03163b151590565b60006301e13380610981427f0000000000000000000000000000000000000000000000000000000000000000610935565b10905090565b6007546001600160a01b031633036109f25760405162461bcd60e51b815260206004820152602860248201527f5a4b546f6b656e3a2063616c6c6572206d757374206e6f7420626520746865206044820152676d756c746973696760c01b6064820152608401610616565b565b600033610a02818585610e50565b5060019392505050565b6007546001600160a01b0390811690821603610a7b5760405162461bcd60e51b815260206004820152602860248201527f5a4b546f6b656e3a2073656e646572206d757374206e6f7420626520746865206044820152676d756c746973696760c01b6064820152608401610616565b50565b6001600160a01b03811615801590610a9f57506001600160a01b0381163014155b610b375760405162461bcd60e51b815260206004820152605060248201527f5a4b3a2043616e6e6f74207472616e7366657220746f6b656e7320646972656360448201527f746c7920746f20746865205a4b20746f6b656e20636f6e7472616374206f722060648201527f746865207a65726f206164647265737300000000000000000000000000000000608482015260a401610616565b7f00000000000000000000000000000000000000000000000000000000000000006001600160a01b0316816001600160a01b031614158015610bab57507f00000000000000000000000000000000000000000000000000000000000000006001600160a01b0316816001600160a01b031614155b610a7b5760405162461bcd60e51b815260206004820152605160248201527f5a4b3a2043616e6e6f74207472616e7366657220746f6b656e7320646972656360448201527f746c7920746f2074686520636f6d6d756e6974792069737375616e6365206f7260648201527f207374616b696e6720636f6e7472616374000000000000000000000000000000608482015260a401610616565b600033610c518582856111b8565b610c5c858585611012565b506001949350505050565b3360008181526001602090815260408083206001600160a01b0387168452909152812054909190610a029082908690610ca190879061148a565b610e50565b3360008181526001602090815260408083206001600160a01b038716845290915281205490919083811015610d2b5760405162461bcd60e51b815260206004820152602560248201527f45524332303a2064656372656173656420616c6c6f77616e63652062656c6f77604482015264207a65726f60d81b6064820152608401610616565b610c5c8286868403610e50565b60405163bb7603f160e01b81526001600160a01b0382811660048301527f0000000000000000000000000000000000000000000000000000000000000000169063bb7603f190602401602060405180830381865afa158015610d9e573d6000803e3d6000fd5b505050506040513d601f19601f82011682018060405250810190610dc2919061149d565b610a7b5760405162461bcd60e51b815260206004820152604560248201527f5a4b546f6b656e3a20726563697069656e74206d7573742062652061204c6f6360448201527f6b7570436f6e7472616374207265676973746572656420696e2074686520466160648201526463746f727960d81b608482015260a401610616565b600033610a02818585611012565b6001600160a01b038316610eb25760405162461bcd60e51b8152602060048201526024808201527f45524332303a20617070726f76652066726f6d20746865207a65726f206164646044820152637265737360e01b6064820152608401610616565b6001600160a01b038216610f135760405162461bcd60e51b815260206004820152602260248201527f45524332303a20617070726f766520746f20746865207a65726f206164647265604482015261737360f01b6064820152608401610616565b6001600160a01b0383811660008181526001602090815260408083209487168084529482529182902085905590518481527f8c5be1e5ebec7d5bd14f71427d1e84f3dd0314c0f7b2291e5b200ac8c7c3b925910160405180910390a3505050565b336001600160a01b037f000000000000000000000000000000000000000000000000000000000000000016146109f25760405162461bcd60e51b815260206004820152602f60248201527f5a4b546f6b656e3a2063616c6c6572206d75737420626520746865205a4b545360448201527f74616b696e6720636f6e747261637400000000000000000000000000000000006064820152608401610616565b6001600160a01b0383166110765760405162461bcd60e51b815260206004820152602560248201527f45524332303a207472616e736665722066726f6d20746865207a65726f206164604482015264647265737360d81b6064820152608401610616565b6001600160a01b0382166110d85760405162461bcd60e51b815260206004820152602360248201527f45524332303a207472616e7366657220746f20746865207a65726f206164647260448201526265737360e81b6064820152608401610616565b6001600160a01b038316600090815260208190526040902054818110156111505760405162461bcd60e51b815260206004820152602660248201527f45524332303a207472616e7366657220616d6f756e7420657863656564732062604482015265616c616e636560d01b6064820152608401610616565b6001600160a01b03848116600081815260208181526040808320878703905593871680835291849020805487019055925185815290927fddf252ad1be2c89b69c2b068fc378daa952ba7f163c4a11628f55a4df523b3ef910160405180910390a35b50505050565b6001600160a01b0383811660009081526001602090815260408083209386168352929052205460001981146111b257818110156112375760405162461bcd60e51b815260206004820152601d60248201527f45524332303a20696e73756666696369656e7420616c6c6f77616e63650000006044820152606401610616565b6111b28484848403610e50565b600060208083528351808285015260005b8181101561127157858101830151858201604001528201611255565b506000604082860101526040601f19601f8301168501019250505092915050565b80356001600160a01b03811681146112a957600080fd5b919050565b600080604083850312156112c157600080fd5b6112ca83611292565b946020939093013593505050565b6000806000606084860312156112ed57600080fd5b6112f684611292565b925061130460208501611292565b9150604084013590509250925092565b60006020828403121561132657600080fd5b6104fb82611292565b600080600080600080600060e0888a03121561134a57600080fd5b61135388611292565b965061136160208901611292565b95506040880135945060608801359350608088013560ff8116811461138557600080fd5b9699959850939692959460a0840135945060c09093013592915050565b600080604083850312156113b557600080fd5b6113be83611292565b91506113cc60208401611292565b90509250929050565b600181811c908216806113e957607f821691505b60208210810361140957634e487b7160e01b600052602260045260246000fd5b50919050565b634e487b7160e01b600052601160045260246000fd5b6000600182016114375761143761140f565b5060010190565b80820281158282048414176104fe576104fe61140f565b60008261147257634e487b7160e01b600052601260045260246000fd5b500490565b818103818111156104fe576104fe61140f565b808201808211156104fe576104fe61140f565b6000602082840312156114af57600080fd5b815180151581146114bf57600080fd5b939250505056fea164736f6c6343000811000a",
  "devdoc": {
    "kind": "dev",
    "methods": {
      "allowance(address,address)": {
        "details": "See {IERC20-allowance}."
      },
      "balanceOf(address)": {
        "details": "See {IERC20-balanceOf}."
      },
      "decimals()": {
        "details": "Returns the number of decimals used to get its user representation. For example, if `decimals` equals `2`, a balance of `505` tokens should be displayed to a user as `5.05` (`505 / 10 ** 2`). Tokens usually opt for a value of 18, imitating the relationship between Ether and Wei. This is the default value returned by this function, unless it's overridden. NOTE: This information is only used for _display_ purposes: it in no way affects any of the arithmetic of the contract, including {IERC20-balanceOf} and {IERC20-transfer}."
      },
      "decreaseAllowance(address,uint256)": {
        "details": "Atomically decreases the allowance granted to `spender` by the caller. This is an alternative to {approve} that can be used as a mitigation for problems described in {IERC20-approve}. Emits an {Approval} event indicating the updated allowance. Requirements: - `spender` cannot be the zero address. - `spender` must have allowance for the caller of at least `subtractedValue`."
      },
      "increaseAllowance(address,uint256)": {
        "details": "Atomically increases the allowance granted to `spender` by the caller. This is an alternative to {approve} that can be used as a mitigation for problems described in {IERC20-approve}. Emits an {Approval} event indicating the updated allowance. Requirements: - `spender` cannot be the zero address."
      },
      "name()": {
        "details": "Returns the name of the token."
      },
      "nonces(address)": {
        "details": "Returns the current ERC2612 nonce for `owner`. This value must be included whenever a signature is generated for {permit}. Every successful call to {permit} increases `owner`'s nonce by one. This prevents a signature from being used multiple times. `owner` can limit the time a Permit is valid for by setting `deadline` to a value in the near future. The deadline argument can be set to uint(-1) to create Permits that effectively never expire."
      },
      "permit(address,address,uint256,uint256,uint8,bytes32,bytes32)": {
        "details": "Sets `amount` as the allowance of `spender` over `owner`'s tokens, given `owner`'s signed approval. IMPORTANT: The same issues {IERC20-approve} has related to transaction ordering also apply here. Emits an {Approval} event. Requirements: - `owner` cannot be the zero address. - `spender` cannot be the zero address. - `deadline` must be a timestamp in the future. - `v`, `r` and `s` must be a valid `secp256k1` signature from `owner` over the EIP712-formatted function arguments. - the signature must use ``owner``'s current nonce (see {nonces}). For more information on the signature format, see the https://eips.ethereum.org/EIPS/eip-2612#specification[relevant EIP section]."
      },
      "symbol()": {
        "details": "Returns the symbol of the token, usually a shorter version of the name."
      },
      "totalSupply()": {
        "details": "See {IERC20-totalSupply}."
      }
    },
    "version": 1
  },
  "userdoc": {
    "kind": "user",
    "methods": {},
    "version": 1
  },
  "storageLayout": {
    "storage": [
      {
        "astId": 174,
        "contract": "contracts/common/ZKToken.sol:ZKToken",
        "label": "_balances",
        "offset": 0,
        "slot": "0",
        "type": "t_mapping(t_address,t_uint256)"
      },
      {
        "astId": 180,
        "contract": "contracts/common/ZKToken.sol:ZKToken",
        "label": "_allowances",
        "offset": 0,
        "slot": "1",
        "type": "t_mapping(t_address,t_mapping(t_address,t_uint256))"
      },
      {
        "astId": 182,
        "contract": "contracts/common/ZKToken.sol:ZKToken",
        "label": "_totalSupply",
        "offset": 0,
        "slot": "2",
        "type": "t_uint256"
      },
      {
        "astId": 184,
        "contract": "contracts/common/ZKToken.sol:ZKToken",
        "label": "_name",
        "offset": 0,
        "slot": "3",
        "type": "t_string_storage"
      },
      {
        "astId": 186,
        "contract": "contracts/common/ZKToken.sol:ZKToken",
        "label": "_symbol",
        "offset": 0,
        "slot": "4",
        "type": "t_string_storage"
      },
      {
        "astId": 5286,
        "contract": "contracts/common/ZKToken.sol:ZKToken",
        "label": "_nonces",
        "offset": 0,
        "slot": "5",
        "type": "t_mapping(t_address,t_uint256)"
      },
      {
        "astId": 4419,
        "contract": "contracts/common/ZKToken.sol:ZKToken",
        "label": "_1_MILLION",
        "offset": 0,
        "slot": "6",
        "type": "t_uint256"
      },
      {
        "astId": 4432,
        "contract": "contracts/common/ZKToken.sol:ZKToken",
        "label": "multisigAddress",
        "offset": 0,
        "slot": "7",
        "type": "t_address"
      }
    ],
    "types": {
      "t_address": {
        "encoding": "inplace",
        "label": "address",
        "numberOfBytes": "20"
      },
      "t_mapping(t_address,t_mapping(t_address,t_uint256))": {
        "encoding": "mapping",
        "key": "t_address",
        "label": "mapping(address => mapping(address => uint256))",
        "numberOfBytes": "32",
        "value": "t_mapping(t_address,t_uint256)"
      },
      "t_mapping(t_address,t_uint256)": {
        "encoding": "mapping",
        "key": "t_address",
        "label": "mapping(address => uint256)",
        "numberOfBytes": "32",
        "value": "t_uint256"
      },
      "t_string_storage": {
        "encoding": "bytes",
        "label": "string",
        "numberOfBytes": "32"
      },
      "t_uint256": {
        "encoding": "inplace",
        "label": "uint256",
        "numberOfBytes": "32"
      }
    }
  }
}