{
  "address": "0x059aBe94C9Fcf76672c41f0907273C4FD66b12e1",
  "abi": [
    {
      "inputs": [
        {
          "internalType": "address",
          "name": "_ownership",
          "type": "address"
        }
      ],
      "stateMutability": "nonpayable",
      "type": "constructor"
    },
    {
      "anonymous": false,
      "inputs": [
        {
          "indexed": false,
          "internalType": "address",
          "name": "_activePoolAddress",
          "type": "address"
        }
      ],
      "name": "ActivePoolAddressSet",
      "type": "event"
    },
    {
      "anonymous": false,
      "inputs": [
        {
          "indexed": false,
          "internalType": "address",
          "name": "_borrowerOperationsAddress",
          "type": "address"
        }
      ],
      "name": "BorrowerOperationsAddressSet",
      "type": "event"
    },
    {
      "anonymous": false,
      "inputs": [
        {
          "indexed": false,
          "internalType": "address",
          "name": "_account",
          "type": "address"
        },
        {
          "indexed": false,
          "internalType": "uint256",
          "name": "_amount",
          "type": "uint256"
        }
      ],
      "name": "EtherSent",
      "type": "event"
    },
    {
      "anonymous": false,
      "inputs": [
        {
          "indexed": false,
          "internalType": "uint256",
          "name": "_F_NEON",
          "type": "uint256"
        }
      ],
      "name": "F_NEONUpdated",
      "type": "event"
    },
    {
      "anonymous": false,
      "inputs": [
        {
          "indexed": false,
          "internalType": "uint256",
          "name": "_F_ZKUSD",
          "type": "uint256"
        }
      ],
      "name": "F_ZKUSDUpdated",
      "type": "event"
    },
    {
      "anonymous": false,
      "inputs": [
        {
          "indexed": true,
          "internalType": "address",
          "name": "previousOwner",
          "type": "address"
        },
        {
          "indexed": true,
          "internalType": "address",
          "name": "newOwner",
          "type": "address"
        }
      ],
      "name": "OwnershipTransferred",
      "type": "event"
    },
    {
      "anonymous": false,
      "inputs": [
        {
          "indexed": true,
          "internalType": "address",
          "name": "staker",
          "type": "address"
        },
        {
          "indexed": false,
          "internalType": "uint256",
          "name": "newStake",
          "type": "uint256"
        }
      ],
      "name": "StakeChanged",
      "type": "event"
    },
    {
      "anonymous": false,
      "inputs": [
        {
          "indexed": false,
          "internalType": "address",
          "name": "_staker",
          "type": "address"
        },
        {
          "indexed": false,
          "internalType": "uint256",
          "name": "_F_NEON",
          "type": "uint256"
        },
        {
          "indexed": false,
          "internalType": "uint256",
          "name": "_F_ZKUSD",
          "type": "uint256"
        }
      ],
      "name": "StakerSnapshotsUpdated",
      "type": "event"
    },
    {
      "anonymous": false,
      "inputs": [
        {
          "indexed": true,
          "internalType": "address",
          "name": "staker",
          "type": "address"
        },
        {
          "indexed": false,
          "internalType": "uint256",
          "name": "ZKUSDGain",
          "type": "uint256"
        },
        {
          "indexed": false,
          "internalType": "uint256",
          "name": "NEONGain",
          "type": "uint256"
        }
      ],
      "name": "StakingGainsWithdrawn",
      "type": "event"
    },
    {
      "anonymous": false,
      "inputs": [
        {
          "indexed": false,
          "internalType": "uint256",
          "name": "_totalZKTStaked",
          "type": "uint256"
        }
      ],
      "name": "TotalZKTStakedUpdated",
      "type": "event"
    },
    {
      "anonymous": false,
      "inputs": [
        {
          "indexed": false,
          "internalType": "address",
          "name": "_troveManager",
          "type": "address"
        }
      ],
      "name": "TroveManagerAddressSet",
      "type": "event"
    },
    {
      "anonymous": false,
      "inputs": [
        {
          "indexed": false,
          "internalType": "address",
          "name": "_zkTokenAddress",
          "type": "address"
        }
      ],
      "name": "ZKTokenAddressSet",
      "type": "event"
    },
    {
      "anonymous": false,
      "inputs": [
        {
          "indexed": false,
          "internalType": "address",
          "name": "_zkusdTokenAddress",
          "type": "address"
        }
      ],
      "name": "ZKUSDTokenAddressSet",
      "type": "event"
    },
    {
      "inputs": [],
      "name": "DECIMAL_PRECISION",
      "outputs": [
        {
          "internalType": "uint256",
          "name": "",
          "type": "uint256"
        }
      ],
      "stateMutability": "view",
      "type": "function"
    },
    {
      "inputs": [],
      "name": "F_NEON",
      "outputs": [
        {
          "internalType": "uint256",
          "name": "",
          "type": "uint256"
        }
      ],
      "stateMutability": "view",
      "type": "function"
    },
    {
      "inputs": [],
      "name": "F_ZKUSD",
      "outputs": [
        {
          "internalType": "uint256",
          "name": "",
          "type": "uint256"
        }
      ],
      "stateMutability": "view",
      "type": "function"
    },
    {
      "inputs": [],
      "name": "NAME",
      "outputs": [
        {
          "internalType": "string",
          "name": "",
          "type": "string"
        }
      ],
      "stateMutability": "view",
      "type": "function"
    },
    {
      "inputs": [],
      "name": "activePoolAddress",
      "outputs": [
        {
          "internalType": "address",
          "name": "",
          "type": "address"
        }
      ],
      "stateMutability": "view",
      "type": "function"
    },
    {
      "inputs": [],
      "name": "borrowerOperationsAddress",
      "outputs": [
        {
          "internalType": "address",
          "name": "",
          "type": "address"
        }
      ],
      "stateMutability": "view",
      "type": "function"
    },
    {
      "inputs": [
        {
          "internalType": "address",
          "name": "_user",
          "type": "address"
        }
      ],
      "name": "getPendingNEONGain",
      "outputs": [
        {
          "internalType": "uint256",
          "name": "",
          "type": "uint256"
        }
      ],
      "stateMutability": "view",
      "type": "function"
    },
    {
      "inputs": [
        {
          "internalType": "address",
          "name": "_user",
          "type": "address"
        }
      ],
      "name": "getPendingZKUSDGain",
      "outputs": [
        {
          "internalType": "uint256",
          "name": "",
          "type": "uint256"
        }
      ],
      "stateMutability": "view",
      "type": "function"
    },
    {
      "inputs": [
        {
          "internalType": "uint256",
          "name": "_NEONFee",
          "type": "uint256"
        }
      ],
      "name": "increaseF_NEON",
      "outputs": [],
      "stateMutability": "nonpayable",
      "type": "function"
    },
    {
      "inputs": [
        {
          "internalType": "uint256",
          "name": "_ZKUSDFee",
          "type": "uint256"
        }
      ],
      "name": "increaseF_ZKUSD",
      "outputs": [],
      "stateMutability": "nonpayable",
      "type": "function"
    },
    {
      "inputs": [],
      "name": "owner",
      "outputs": [
        {
          "internalType": "address",
          "name": "",
          "type": "address"
        }
      ],
      "stateMutability": "view",
      "type": "function"
    },
    {
      "inputs": [],
      "name": "renounceOwnership",
      "outputs": [],
      "stateMutability": "nonpayable",
      "type": "function"
    },
    {
      "inputs": [
        {
          "internalType": "address",
          "name": "_zkTokenAddress",
          "type": "address"
        },
        {
          "internalType": "address",
          "name": "_zkusdTokenAddress",
          "type": "address"
        },
        {
          "internalType": "address",
          "name": "_troveManagerAddress",
          "type": "address"
        },
        {
          "internalType": "address",
          "name": "_borrowerOperationsAddress",
          "type": "address"
        },
        {
          "internalType": "address",
          "name": "_activePoolAddress",
          "type": "address"
        }
      ],
      "name": "setAddresses",
      "outputs": [],
      "stateMutability": "nonpayable",
      "type": "function"
    },
    {
      "inputs": [
        {
          "internalType": "address",
          "name": "",
          "type": "address"
        }
      ],
      "name": "snapshots",
      "outputs": [
        {
          "internalType": "uint256",
          "name": "F_NEON_Snapshot",
          "type": "uint256"
        },
        {
          "internalType": "uint256",
          "name": "F_ZKUSD_Snapshot",
          "type": "uint256"
        }
      ],
      "stateMutability": "view",
      "type": "function"
    },
    {
      "inputs": [
        {
          "internalType": "uint256",
          "name": "_ZKTamount",
          "type": "uint256"
        }
      ],
      "name": "stake",
      "outputs": [],
      "stateMutability": "nonpayable",
      "type": "function"
    },
    {
      "inputs": [
        {
          "internalType": "address",
          "name": "",
          "type": "address"
        }
      ],
      "name": "stakes",
      "outputs": [
        {
          "internalType": "uint256",
          "name": "",
          "type": "uint256"
        }
      ],
      "stateMutability": "view",
      "type": "function"
    },
    {
      "inputs": [],
      "name": "totalZKTStaked",
      "outputs": [
        {
          "internalType": "uint256",
          "name": "",
          "type": "uint256"
        }
      ],
      "stateMutability": "view",
      "type": "function"
    },
    {
      "inputs": [
        {
          "internalType": "address",
          "name": "newOwner",
          "type": "address"
        }
      ],
      "name": "transferOwnership",
      "outputs": [],
      "stateMutability": "nonpayable",
      "type": "function"
    },
    {
      "inputs": [],
      "name": "troveManagerAddress",
      "outputs": [
        {
          "internalType": "address",
          "name": "",
          "type": "address"
        }
      ],
      "stateMutability": "view",
      "type": "function"
    },
    {
      "inputs": [
        {
          "internalType": "uint256",
          "name": "_ZKTamount",
          "type": "uint256"
        }
      ],
      "name": "unstake",
      "outputs": [],
      "stateMutability": "nonpayable",
      "type": "function"
    },
    {
      "inputs": [],
      "name": "zkToken",
      "outputs": [
        {
          "internalType": "contract IZKToken",
          "name": "",
          "type": "address"
        }
      ],
      "stateMutability": "view",
      "type": "function"
    },
    {
      "inputs": [],
      "name": "zkusdToken",
      "outputs": [
        {
          "internalType": "contract IZKUSDToken",
          "name": "",
          "type": "address"
        }
      ],
      "stateMutability": "view",
      "type": "function"
    },
    {
      "stateMutability": "payable",
      "type": "receive"
    }
  ],
  "transactionHash": "0xf0c14ba3d4cac2164bde48f284c98214159379876ed397498e139bba9a70efc6",
  "args": [
    "0x6352ea70c6FE6c0F09Ab4d9d873E9B9C20079ffe"
  ],
  "numDeployments": 1,
  "solcInputHash": "035045f1e037f3a6258fc3cece2987fc",
  "bytecode": "0x608060405234801561001057600080fd5b5060405161142638038061142683398101604081905261002f91610097565b61003833610047565b61004181610047565b506100c7565b600080546001600160a01b038381166001600160a01b0319831681178455604051919092169283917f8be0079c531659141344cd1fd0a4f28419497f9722a3daafe3b4186f6b6457e09190a35050565b6000602082840312156100a957600080fd5b81516001600160a01b03811681146100c057600080fd5b9392505050565b611350806100d66000396000f3fe6080604052600436106101595760003560e01c80638da5cb5b116100bb578063a694fc3a1161007f578063b7f8cf9b11610059578063b7f8cf9b14610422578063d711d88d14610442578063f2fde38b1461046257600080fd5b8063a694fc3a146103cc578063ac0ff4cb146103ec578063b08bc7221461040257600080fd5b80638da5cb5b146103195780639e82964b14610337578063a20baee61461034d578063a3d701b714610369578063a3f4df7e1461038957600080fd5b806335a3f7071161011d578063715018a6116100f7578063715018a6146102c4578063732a2069146102d95780637d8c87aa146102f957600080fd5b806335a3f7071461024c5780635a4d28bb146102845780635dd68acd146102a457600080fd5b806316934fc41461016d57806318403acf146101ad5780632e17de78146101c357806331e8179e146101e357806334b3081f1461020357600080fd5b3661016857610166610482565b005b600080fd5b34801561017957600080fd5b5061019a6101883660046111c5565b60016020526000908152604090205481565b6040519081526020015b60405180910390f35b3480156101b957600080fd5b5061019a60035481565b3480156101cf57600080fd5b506101666101de3660046111e0565b6104ef565b3480156101ef57600080fd5b506101666101fe3660046111e0565b610713565b34801561020f57600080fd5b5061023761021e3660046111c5565b6005602052600090815260409020805460019091015482565b604080519283526020830191909152016101a4565b34801561025857600080fd5b5060075461026c906001600160a01b031681565b6040516001600160a01b0390911681526020016101a4565b34801561029057600080fd5b5060085461026c906001600160a01b031681565b3480156102b057600080fd5b506101666102bf3660046111f9565b610792565b3480156102d057600080fd5b50610166610953565b3480156102e557600080fd5b5061019a6102f43660046111c5565b610965565b34801561030557600080fd5b5060065461026c906001600160a01b031681565b34801561032557600080fd5b506000546001600160a01b031661026c565b34801561034357600080fd5b5061019a60045481565b34801561035957600080fd5b5061019a670de0b6b3a764000081565b34801561037557600080fd5b506101666103843660046111e0565b610976565b34801561039557600080fd5b506103bf6040518060400160405280600a8152602001695a4b545374616b696e6760b01b81525081565b6040516101a4919061125e565b3480156103d857600080fd5b506101666103e73660046111e0565b6109e7565b3480156103f857600080fd5b5061019a60025481565b34801561040e57600080fd5b50600a5461026c906001600160a01b031681565b34801561042e57600080fd5b5060095461026c906001600160a01b031681565b34801561044e57600080fd5b5061019a61045d3660046111c5565b610bee565b34801561046e57600080fd5b5061016661047d3660046111c5565b610bf9565b600a546001600160a01b031633146104ed5760405162461bcd60e51b8152602060048201526024808201527f5a4b545374616b696e673a2063616c6c6572206973206e6f7420416374697665604482015263141bdbdb60e21b60648201526084015b60405180910390fd5b565b3360009081526001602052604090205461050881610c72565b600061051333610cd6565b9050600061052033610d37565b905061052b33610d74565b831561065357600061053d8585610de4565b9050600061054b8583610dfc565b33600090815260016020526040902081905560025490915061056d9083610dfc565b60028190556040519081527ff26829b154fc12fc2b0f08fdf27197a71ea6988e92d2ea854232ad51bb4f2bf79060200160405180910390a160065460405163a9059cbb60e01b8152336004820152602481018490526001600160a01b039091169063a9059cbb906044016020604051808303816000875af11580156105f6573d6000803e3d6000fd5b505050506040513d601f19601f8201168201806040525081019061061a91906112ac565b5060405181815233907f39df0e5286a3ef2f42a0bf52f32cfe2c58e5b0405f47fe512f2c2439e4cfe2049060200160405180910390a250505b604080518281526020810184905233917ff744d34ca1cb25acfa4180df5f09a67306107110a9f4b6ed99bb3be259738215910160405180910390a260075460405163a9059cbb60e01b8152336004820152602481018390526001600160a01b039091169063a9059cbb906044016020604051808303816000875af11580156106df573d6000803e3d6000fd5b505050506040513d601f19601f8201168201806040525081019061070391906112ac565b5061070d82610e08565b50505050565b61071b610f03565b60025460009015610748576002546107459061073f84670de0b6b3a7640000610f6b565b90610f77565b90505b6004546107559082610f83565b60048190556040519081527feeec1f97075595b7ecda7ab1b13078c6dd153c8a72fbf0b2808062bea2fa0744906020015b60405180910390a15050565b61079a610f8f565b6107a385610fe9565b6107ac84610fe9565b6107b583610fe9565b6107be82610fe9565b6107c781610fe9565b6006805473ffffffffffffffffffffffffffffffffffffffff199081166001600160a01b03888116918217909355600780548316888516179055600880548316878516179055600980548316868516179055600a80549092169284169290921790556040519081527f4738bd2fa051c658ff5fb2e55ea0ec02521ca2c563327a88ebe9f2a8ab15c3169060200160405180910390a16040516001600160a01b03851681527f4738bd2fa051c658ff5fb2e55ea0ec02521ca2c563327a88ebe9f2a8ab15c3169060200160405180910390a16040516001600160a01b03841681527f41097dcc1f7cbd663d822443d7972f05b04f71918b30fe9fc59dd6e42e2280609060200160405180910390a16040516001600160a01b03831681527f5962f8af633c4df1ab230096f773a514ee5adf7785c621ecdcdb764cb7f6e3919060200160405180910390a16040516001600160a01b03821681527f8f6a6e7d20a3233e0a79883272259ffbd7a243734e397bc2b4642c79d7fa8a6d9060200160405180910390a15050505050565b61095b610f8f565b6104ed6000611096565b600061097082610cd6565b92915050565b61097e6110f3565b600254600090156109a5576002546109a29061073f84670de0b6b3a7640000610f6b565b90505b6003546109b29082610f83565b60038190556040519081527f9a1a26277da4d4786df2501c73f69f832526c90e4e815642bf931508f505db0590602001610786565b6109f08161114d565b3360009081526001602052604081205490808215610a1f57610a1133610cd6565b9150610a1c33610d37565b90505b610a2833610d74565b6000610a348486610f83565b336000908152600160205260409020819055600254909150610a569086610f83565b60028190556040519081527ff26829b154fc12fc2b0f08fdf27197a71ea6988e92d2ea854232ad51bb4f2bf79060200160405180910390a16006546040516378056dfb60e11b8152336004820152602481018790526001600160a01b039091169063f00adbf690604401600060405180830381600087803b158015610ada57600080fd5b505af1158015610aee573d6000803e3d6000fd5b50506040518381523392507f39df0e5286a3ef2f42a0bf52f32cfe2c58e5b0405f47fe512f2c2439e4cfe204915060200160405180910390a2604080518381526020810185905233917ff744d34ca1cb25acfa4180df5f09a67306107110a9f4b6ed99bb3be259738215910160405180910390a28315610be75760075460405163a9059cbb60e01b8152336004820152602481018490526001600160a01b039091169063a9059cbb906044016020604051808303816000875af1158015610bb9573d6000803e3d6000fd5b505050506040513d601f19601f82011682018060405250810190610bdd91906112ac565b50610be783610e08565b5050505050565b600061097082610d37565b610c01610f8f565b6001600160a01b038116610c665760405162461bcd60e51b815260206004820152602660248201527f4f776e61626c653a206e6577206f776e657220697320746865207a65726f206160448201526564647265737360d01b60648201526084016104e4565b610c6f81611096565b50565b60008111610c6f5760405162461bcd60e51b815260206004820152602b60248201527f5a4b545374616b696e673a2055736572206d75737420686176652061206e6f6e60448201526a2d7a65726f207374616b6560a81b60648201526084016104e4565b6001600160a01b0381166000908152600560205260408120546003548290610d2f90670de0b6b3a76400009061073f90610d109086610dfc565b6001600160a01b03881660009081526001602052604090205490610f6b565b949350505050565b6001600160a01b0381166000908152600560205260408120600101546004548290610d2f90670de0b6b3a76400009061073f90610d109086610dfc565b600380546001600160a01b03831660008181526005602090815260409182902093845560045460019094018490559354815192835293820193909352918201527f6b5cf27595af4428271524e0a5abd2b63f6fee1a61e31970490f5a10e257a1cd9060600160405180910390a150565b6000818310610df35781610df5565b825b9392505050565b6000610df582846112e4565b60408051338152602081018390527f6109e2559dfa766aaec7118351d48a523f0a4157f49c8d68749c8ac41318ad12910160405180910390a1604051600090339083908381818185875af1925050503d8060008114610e83576040519150601f19603f3d011682016040523d82523d6000602084013e610e88565b606091505b5050905080610eff5760405162461bcd60e51b815260206004820152602f60248201527f5a4b545374616b696e673a204661696c656420746f2073656e6420616363756d60448201527f756c61746564204e454f4e4761696e000000000000000000000000000000000060648201526084016104e4565b5050565b6009546001600160a01b031633146104ed5760405162461bcd60e51b815260206004820152602560248201527f5a4b545374616b696e673a2063616c6c6572206973206e6f7420426f72726f7760448201526465724f707360d81b60648201526084016104e4565b6000610df582846112f7565b6000610df5828461130e565b6000610df58284611330565b6000546001600160a01b031633146104ed5760405162461bcd60e51b815260206004820181905260248201527f4f776e61626c653a2063616c6c6572206973206e6f7420746865206f776e657260448201526064016104e4565b6001600160a01b03811661103f5760405162461bcd60e51b815260206004820152601e60248201527f4163636f756e742063616e6e6f74206265207a65726f2061646472657373000060448201526064016104e4565b6001600160a01b0381163b610c6f5760405162461bcd60e51b815260206004820181905260248201527f4163636f756e7420636f64652073697a652063616e6e6f74206265207a65726f60448201526064016104e4565b600080546001600160a01b0383811673ffffffffffffffffffffffffffffffffffffffff19831681178455604051919092169283917f8be0079c531659141344cd1fd0a4f28419497f9722a3daafe3b4186f6b6457e09190a35050565b6008546001600160a01b031633146104ed5760405162461bcd60e51b815260206004820181905260248201527f5a4b545374616b696e673a2063616c6c6572206973206e6f742054726f76654d60448201526064016104e4565b60008111610c6f5760405162461bcd60e51b815260206004820152602360248201527f5a4b545374616b696e673a20416d6f756e74206d757374206265206e6f6e2d7a60448201526265726f60e81b60648201526084016104e4565b80356001600160a01b03811681146111c057600080fd5b919050565b6000602082840312156111d757600080fd5b610df5826111a9565b6000602082840312156111f257600080fd5b5035919050565b600080600080600060a0868803121561121157600080fd5b61121a866111a9565b9450611228602087016111a9565b9350611236604087016111a9565b9250611244606087016111a9565b9150611252608087016111a9565b90509295509295909350565b600060208083528351808285015260005b8181101561128b5785810183015185820160400152820161126f565b506000604082860101526040601f19601f8301168501019250505092915050565b6000602082840312156112be57600080fd5b81518015158114610df557600080fd5b634e487b7160e01b600052601160045260246000fd5b81810381811115610970576109706112ce565b8082028115828204841417610970576109706112ce565b60008261132b57634e487b7160e01b600052601260045260246000fd5b500490565b80820180821115610970576109706112ce56fea164736f6c6343000811000a",
  "devdoc": {
    "kind": "dev",
    "methods": {
      "owner()": {
        "details": "Returns the address of the current owner."
      },
      "renounceOwnership()": {
        "details": "Leaves the contract without owner. It will not be possible to call `onlyOwner` functions. Can only be called by the current owner. NOTE: Renouncing ownership will leave the contract without an owner, thereby disabling any functionality that is only available to the owner."
      },
      "transferOwnership(address)": {
        "details": "Transfers ownership of the contract to a new account (`newOwner`). Can only be called by the current owner."
      }
    },
    "version": 1
  },
  "userdoc": {
    "kind": "user",
    "methods": {},
    "version": 1
  },
  "storageLayout": {
    "storage": [
      {
        "astId": 53,
        "contract": "contracts/common/ZKTStaking.sol:ZKTStaking",
        "label": "_owner",
        "offset": 0,
        "slot": "0",
        "type": "t_address"
      },
      {
        "astId": 3199,
        "contract": "contracts/common/ZKTStaking.sol:ZKTStaking",
        "label": "stakes",
        "offset": 0,
        "slot": "1",
        "type": "t_mapping(t_address,t_uint256)"
      },
      {
        "astId": 3201,
        "contract": "contracts/common/ZKTStaking.sol:ZKTStaking",
        "label": "totalZKTStaked",
        "offset": 0,
        "slot": "2",
        "type": "t_uint256"
      },
      {
        "astId": 3203,
        "contract": "contracts/common/ZKTStaking.sol:ZKTStaking",
        "label": "F_NEON",
        "offset": 0,
        "slot": "3",
        "type": "t_uint256"
      },
      {
        "astId": 3205,
        "contract": "contracts/common/ZKTStaking.sol:ZKTStaking",
        "label": "F_ZKUSD",
        "offset": 0,
        "slot": "4",
        "type": "t_uint256"
      },
      {
        "astId": 3210,
        "contract": "contracts/common/ZKTStaking.sol:ZKTStaking",
        "label": "snapshots",
        "offset": 0,
        "slot": "5",
        "type": "t_mapping(t_address,t_struct(Snapshot)3215_storage)"
      },
      {
        "astId": 3218,
        "contract": "contracts/common/ZKTStaking.sol:ZKTStaking",
        "label": "zkToken",
        "offset": 0,
        "slot": "6",
        "type": "t_contract(IZKToken)5761"
      },
      {
        "astId": 3221,
        "contract": "contracts/common/ZKTStaking.sol:ZKTStaking",
        "label": "zkusdToken",
        "offset": 0,
        "slot": "7",
        "type": "t_contract(IZKUSDToken)5817"
      },
      {
        "astId": 3223,
        "contract": "contracts/common/ZKTStaking.sol:ZKTStaking",
        "label": "troveManagerAddress",
        "offset": 0,
        "slot": "8",
        "type": "t_address"
      },
      {
        "astId": 3225,
        "contract": "contracts/common/ZKTStaking.sol:ZKTStaking",
        "label": "borrowerOperationsAddress",
        "offset": 0,
        "slot": "9",
        "type": "t_address"
      },
      {
        "astId": 3227,
        "contract": "contracts/common/ZKTStaking.sol:ZKTStaking",
        "label": "activePoolAddress",
        "offset": 0,
        "slot": "10",
        "type": "t_address"
      }
    ],
    "types": {
      "t_address": {
        "encoding": "inplace",
        "label": "address",
        "numberOfBytes": "20"
      },
      "t_contract(IZKToken)5761": {
        "encoding": "inplace",
        "label": "contract IZKToken",
        "numberOfBytes": "20"
      },
      "t_contract(IZKUSDToken)5817": {
        "encoding": "inplace",
        "label": "contract IZKUSDToken",
        "numberOfBytes": "20"
      },
      "t_mapping(t_address,t_struct(Snapshot)3215_storage)": {
        "encoding": "mapping",
        "key": "t_address",
        "label": "mapping(address => struct ZKTStaking.Snapshot)",
        "numberOfBytes": "32",
        "value": "t_struct(Snapshot)3215_storage"
      },
      "t_mapping(t_address,t_uint256)": {
        "encoding": "mapping",
        "key": "t_address",
        "label": "mapping(address => uint256)",
        "numberOfBytes": "32",
        "value": "t_uint256"
      },
      "t_struct(Snapshot)3215_storage": {
        "encoding": "inplace",
        "label": "struct ZKTStaking.Snapshot",
        "members": [
          {
            "astId": 3212,
            "contract": "contracts/common/ZKTStaking.sol:ZKTStaking",
            "label": "F_NEON_Snapshot",
            "offset": 0,
            "slot": "0",
            "type": "t_uint256"
          },
          {
            "astId": 3214,
            "contract": "contracts/common/ZKTStaking.sol:ZKTStaking",
            "label": "F_ZKUSD_Snapshot",
            "offset": 0,
            "slot": "1",
            "type": "t_uint256"
          }
        ],
        "numberOfBytes": "64"
      },
      "t_uint256": {
        "encoding": "inplace",
        "label": "uint256",
        "numberOfBytes": "32"
      }
    }
  }
}