{
  "address": "0x047Bb936232185fe896C59f47A2401b7602DCFaf",
  "abi": [
    {
      "inputs": [
        {
          "internalType": "address",
          "name": "_troveManagerAddress",
          "type": "address"
        },
        {
          "internalType": "address",
          "name": "_stabilityPoolAddress",
          "type": "address"
        },
        {
          "internalType": "address",
          "name": "_borrowerOperationsAddress",
          "type": "address"
        }
      ],
      "stateMutability": "nonpayable",
      "type": "constructor"
    },
    {
      "anonymous": false,
      "inputs": [
        {
          "indexed": true,
          "internalType": "address",
          "name": "owner",
          "type": "address"
        },
        {
          "indexed": true,
          "internalType": "address",
          "name": "spender",
          "type": "address"
        },
        {
          "indexed": false,
          "internalType": "uint256",
          "name": "value",
          "type": "uint256"
        }
      ],
      "name": "Approval",
      "type": "event"
    },
    {
      "anonymous": false,
      "inputs": [
        {
          "indexed": false,
          "internalType": "address",
          "name": "_newBorrowerOperationsAddress",
          "type": "address"
        }
      ],
      "name": "BorrowerOperationsAddressChanged",
      "type": "event"
    },
    {
      "anonymous": false,
      "inputs": [
        {
          "indexed": false,
          "internalType": "address",
          "name": "_newStabilityPoolAddress",
          "type": "address"
        }
      ],
      "name": "StabilityPoolAddressChanged",
      "type": "event"
    },
    {
      "anonymous": false,
      "inputs": [
        {
          "indexed": true,
          "internalType": "address",
          "name": "from",
          "type": "address"
        },
        {
          "indexed": true,
          "internalType": "address",
          "name": "to",
          "type": "address"
        },
        {
          "indexed": false,
          "internalType": "uint256",
          "name": "value",
          "type": "uint256"
        }
      ],
      "name": "Transfer",
      "type": "event"
    },
    {
      "anonymous": false,
      "inputs": [
        {
          "indexed": false,
          "internalType": "address",
          "name": "_troveManagerAddress",
          "type": "address"
        }
      ],
      "name": "TroveManagerAddressChanged",
      "type": "event"
    },
    {
      "anonymous": false,
      "inputs": [
        {
          "indexed": false,
          "internalType": "address",
          "name": "_user",
          "type": "address"
        },
        {
          "indexed": false,
          "internalType": "uint256",
          "name": "_amount",
          "type": "uint256"
        }
      ],
      "name": "ZKUSDTokenBalanceUpdated",
      "type": "event"
    },
    {
      "inputs": [
        {
          "internalType": "address",
          "name": "owner",
          "type": "address"
        },
        {
          "internalType": "address",
          "name": "spender",
          "type": "address"
        }
      ],
      "name": "allowance",
      "outputs": [
        {
          "internalType": "uint256",
          "name": "",
          "type": "uint256"
        }
      ],
      "stateMutability": "view",
      "type": "function"
    },
    {
      "inputs": [
        {
          "internalType": "address",
          "name": "spender",
          "type": "address"
        },
        {
          "internalType": "uint256",
          "name": "amount",
          "type": "uint256"
        }
      ],
      "name": "approve",
      "outputs": [
        {
          "internalType": "bool",
          "name": "",
          "type": "bool"
        }
      ],
      "stateMutability": "nonpayable",
      "type": "function"
    },
    {
      "inputs": [
        {
          "internalType": "address",
          "name": "account",
          "type": "address"
        }
      ],
      "name": "balanceOf",
      "outputs": [
        {
          "internalType": "uint256",
          "name": "",
          "type": "uint256"
        }
      ],
      "stateMutability": "view",
      "type": "function"
    },
    {
      "inputs": [],
      "name": "borrowerOperationsAddress",
      "outputs": [
        {
          "internalType": "address",
          "name": "",
          "type": "address"
        }
      ],
      "stateMutability": "view",
      "type": "function"
    },
    {
      "inputs": [
        {
          "internalType": "address",
          "name": "_account",
          "type": "address"
        },
        {
          "internalType": "uint256",
          "name": "_amount",
          "type": "uint256"
        }
      ],
      "name": "burn",
      "outputs": [],
      "stateMutability": "nonpayable",
      "type": "function"
    },
    {
      "inputs": [],
      "name": "decimals",
      "outputs": [
        {
          "internalType": "uint8",
          "name": "",
          "type": "uint8"
        }
      ],
      "stateMutability": "view",
      "type": "function"
    },
    {
      "inputs": [
        {
          "internalType": "address",
          "name": "spender",
          "type": "address"
        },
        {
          "internalType": "uint256",
          "name": "subtractedValue",
          "type": "uint256"
        }
      ],
      "name": "decreaseAllowance",
      "outputs": [
        {
          "internalType": "bool",
          "name": "",
          "type": "bool"
        }
      ],
      "stateMutability": "nonpayable",
      "type": "function"
    },
    {
      "inputs": [],
      "name": "domainSeparator",
      "outputs": [
        {
          "internalType": "bytes32",
          "name": "",
          "type": "bytes32"
        }
      ],
      "stateMutability": "view",
      "type": "function"
    },
    {
      "inputs": [
        {
          "internalType": "address",
          "name": "spender",
          "type": "address"
        },
        {
          "internalType": "uint256",
          "name": "addedValue",
          "type": "uint256"
        }
      ],
      "name": "increaseAllowance",
      "outputs": [
        {
          "internalType": "bool",
          "name": "",
          "type": "bool"
        }
      ],
      "stateMutability": "nonpayable",
      "type": "function"
    },
    {
      "inputs": [
        {
          "internalType": "address",
          "name": "_account",
          "type": "address"
        },
        {
          "internalType": "uint256",
          "name": "_amount",
          "type": "uint256"
        }
      ],
      "name": "mint",
      "outputs": [],
      "stateMutability": "nonpayable",
      "type": "function"
    },
    {
      "inputs": [],
      "name": "name",
      "outputs": [
        {
          "internalType": "string",
          "name": "",
          "type": "string"
        }
      ],
      "stateMutability": "view",
      "type": "function"
    },
    {
      "inputs": [
        {
          "internalType": "address",
          "name": "owner",
          "type": "address"
        }
      ],
      "name": "nonces",
      "outputs": [
        {
          "internalType": "uint256",
          "name": "",
          "type": "uint256"
        }
      ],
      "stateMutability": "view",
      "type": "function"
    },
    {
      "inputs": [
        {
          "internalType": "address",
          "name": "owner",
          "type": "address"
        },
        {
          "internalType": "address",
          "name": "spender",
          "type": "address"
        },
        {
          "internalType": "uint256",
          "name": "amount",
          "type": "uint256"
        },
        {
          "internalType": "uint256",
          "name": "deadline",
          "type": "uint256"
        },
        {
          "internalType": "uint8",
          "name": "v",
          "type": "uint8"
        },
        {
          "internalType": "bytes32",
          "name": "r",
          "type": "bytes32"
        },
        {
          "internalType": "bytes32",
          "name": "s",
          "type": "bytes32"
        }
      ],
      "name": "permit",
      "outputs": [],
      "stateMutability": "nonpayable",
      "type": "function"
    },
    {
      "inputs": [],
      "name": "permitTypeHash",
      "outputs": [
        {
          "internalType": "bytes32",
          "name": "",
          "type": "bytes32"
        }
      ],
      "stateMutability": "pure",
      "type": "function"
    },
    {
      "inputs": [
        {
          "internalType": "address",
          "name": "_poolAddress",
          "type": "address"
        },
        {
          "internalType": "address",
          "name": "_receiver",
          "type": "address"
        },
        {
          "internalType": "uint256",
          "name": "_amount",
          "type": "uint256"
        }
      ],
      "name": "returnFromPool",
      "outputs": [],
      "stateMutability": "nonpayable",
      "type": "function"
    },
    {
      "inputs": [
        {
          "internalType": "address",
          "name": "_sender",
          "type": "address"
        },
        {
          "internalType": "address",
          "name": "_poolAddress",
          "type": "address"
        },
        {
          "internalType": "uint256",
          "name": "_amount",
          "type": "uint256"
        }
      ],
      "name": "sendToPool",
      "outputs": [],
      "stateMutability": "nonpayable",
      "type": "function"
    },
    {
      "inputs": [],
      "name": "stabilityPoolAddress",
      "outputs": [
        {
          "internalType": "address",
          "name": "",
          "type": "address"
        }
      ],
      "stateMutability": "view",
      "type": "function"
    },
    {
      "inputs": [],
      "name": "symbol",
      "outputs": [
        {
          "internalType": "string",
          "name": "",
          "type": "string"
        }
      ],
      "stateMutability": "view",
      "type": "function"
    },
    {
      "inputs": [],
      "name": "totalSupply",
      "outputs": [
        {
          "internalType": "uint256",
          "name": "",
          "type": "uint256"
        }
      ],
      "stateMutability": "view",
      "type": "function"
    },
    {
      "inputs": [
        {
          "internalType": "address",
          "name": "recipient",
          "type": "address"
        },
        {
          "internalType": "uint256",
          "name": "amount",
          "type": "uint256"
        }
      ],
      "name": "transfer",
      "outputs": [
        {
          "internalType": "bool",
          "name": "",
          "type": "bool"
        }
      ],
      "stateMutability": "nonpayable",
      "type": "function"
    },
    {
      "inputs": [
        {
          "internalType": "address",
          "name": "sender",
          "type": "address"
        },
        {
          "internalType": "address",
          "name": "recipient",
          "type": "address"
        },
        {
          "internalType": "uint256",
          "name": "amount",
          "type": "uint256"
        }
      ],
      "name": "transferFrom",
      "outputs": [
        {
          "internalType": "bool",
          "name": "",
          "type": "bool"
        }
      ],
      "stateMutability": "nonpayable",
      "type": "function"
    },
    {
      "inputs": [],
      "name": "troveManagerAddress",
      "outputs": [
        {
          "internalType": "address",
          "name": "",
          "type": "address"
        }
      ],
      "stateMutability": "view",
      "type": "function"
    },
    {
      "inputs": [],
      "name": "version",
      "outputs": [
        {
          "internalType": "string",
          "name": "",
          "type": "string"
        }
      ],
      "stateMutability": "pure",
      "type": "function"
    }
  ],
  "transactionHash": "0x1a65fcd04405e2022b954100a6e48369e1659040e8075731066c3cf97049e07c",
  "args": [
    "0x48965fa744281d70F99d5d2Be675bF6acD218b3d",
    "0x4A718536cb1e82C6cd7E568d3faF1fa0cEb41C7e",
    "0xa84E7097FEB261532B91b6f551C9416659D4bfb0"
  ],
  "numDeployments": 1,
  "solcInputHash": "f9c74d7f5e28e55cf22d22e90c37188e",
  "bytecode": "0x6101606040523480156200001257600080fd5b5060405162001b7e38038062001b7e833981016040819052620000359162000359565b6040518060400160405280601081526020016f2d25aaa9a21029ba30b13632b1b7b4b760811b8152506040518060400160405280601081526020016f2d25aaa9a21029ba30b13632b1b7b4b760811b815250604051806040016040528060058152602001641692d554d160da1b8152508160039081620000b6919062000448565b506004620000c5828262000448565b5050815160209283012060408051808201825260018152603160f81b9085015260c08281527fc89efdaa54c0f20c7adf612882df0950f5a951637e0307cdcb4c672f298b8bc660e08190524660a081815284517f8b73c3c69bb8fe3d512ecc4cf759cc79239f7b179b0ffacaa9a75d522b39400f818a01528086019690965260608601929092526080808601919091523085830152835180860390920182529390910190915280519301929092209091525062000182836200026a565b6200018d826200026a565b62000198816200026a565b6001600160a01b0383166101008190526040519081527f143219c9e69b09e07e095fcc889b43d8f46ca892bba65f08dc3a0050869a56789060200160405180910390a16001600160a01b0382166101208190526040519081527f82966d27eea39b038ee0fa30cd16532bb24f6e65d31cb58fb227aa5766cdcc7f9060200160405180910390a16001600160a01b0381166101408190526040519081527f3ca631ffcd2a9b5d9ae18543fc82f58eb4ca33af9e6ab01b7a8e95331e6ed9859060200160405180910390a150505062000514565b6001600160a01b038116620002c65760405162461bcd60e51b815260206004820152601e60248201527f4163636f756e742063616e6e6f74206265207a65726f2061646472657373000060448201526064015b60405180910390fd5b620002dc816200032d60201b6200091b1760201c565b6200032a5760405162461bcd60e51b815260206004820181905260248201527f4163636f756e7420636f64652073697a652063616e6e6f74206265207a65726f6044820152606401620002bd565b50565b6001600160a01b03163b151590565b80516001600160a01b03811681146200035457600080fd5b919050565b6000806000606084860312156200036f57600080fd5b6200037a846200033c565b92506200038a602085016200033c565b91506200039a604085016200033c565b90509250925092565b634e487b7160e01b600052604160045260246000fd5b600181811c90821680620003ce57607f821691505b602082108103620003ef57634e487b7160e01b600052602260045260246000fd5b50919050565b601f8211156200044357600081815260208120601f850160051c810160208610156200041e5750805b601f850160051c820191505b818110156200043f578281556001016200042a565b5050505b505050565b81516001600160401b03811115620004645762000464620003a3565b6200047c81620004758454620003b9565b84620003f5565b602080601f831160018114620004b457600084156200049b5750858301515b600019600386901b1c1916600185901b1785556200043f565b600085815260208120601f198616915b82811015620004e557888601518255948401946001909101908401620004c4565b5085821015620005045787850151600019600388901b60f8161c191681555b5050505050600190811b01905550565b60805160a05160c05160e0516101005161012051610140516115c9620005b56000396000818161037301528181610dfd01528181610ef1015261103d0152600081816101c801528181610a8b01528181610d82015281816110a201526112a70152600081816102b901528181610a5901528181610dbf015261106f015260006108cd015260006108a80152600061082d0152600061085501526115c96000f3fe608060405234801561001057600080fd5b506004361061017d5760003560e01c80635a4d28bb116100e3578063a9059cbb1161008c578063d505accf11610066578063d505accf146103a8578063dd62ed3e146103bb578063f698da25146103f457600080fd5b8063a9059cbb1461035b578063b7f8cf9b1461036e578063bb997bac1461039557600080fd5b806395d89b41116100bd57806395d89b411461032d5780639dc29fac14610335578063a457c2d71461034857600080fd5b80635a4d28bb146102b457806370a08231146102db5780637ecebe001461030457600080fd5b806320c582be11610145578063395093511161011f578063395093511461027157806340c10f191461028457806354fd4d501461029757600080fd5b806320c582be1461023a57806323b872dd1461024f578063313ce5671461026257600080fd5b806306fdde0314610182578063095ea7b3146101a05780630b622ab2146101c357806310ce43bd1461020257806318160ddd14610232575b600080fd5b61018a6103fc565b60405161019791906113af565b60405180910390f35b6101b36101ae366004611419565b61048e565b6040519015158152602001610197565b6101ea7f000000000000000000000000000000000000000000000000000000000000000081565b6040516001600160a01b039091168152602001610197565b7f6e71edae12b1b97f4d1f60370fef10105fa2faae0126114a169c64845d6126c95b604051908152602001610197565b600254610224565b61024d610248366004611443565b6104a8565b005b6101b361025d366004611443565b6104c0565b60405160128152602001610197565b6101b361027f366004611419565b6104de565b61024d610292366004611419565b61051d565b6040805180820190915260018152603160f81b602082015261018a565b6101ea7f000000000000000000000000000000000000000000000000000000000000000081565b6102246102e936600461147f565b6001600160a01b031660009081526020819052604090205490565b61022461031236600461147f565b6001600160a01b031660009081526005602052604090205490565b61018a610533565b61024d610343366004611419565b610542565b6101b3610356366004611419565b610554565b6101b3610369366004611419565b6105f6565b6101ea7f000000000000000000000000000000000000000000000000000000000000000081565b61024d6103a3366004611443565b610612565b61024d6103b636600461149a565b61061a565b6102246103c936600461150d565b6001600160a01b03918216600090815260016020908152604080832093909416825291909152205490565b610224610829565b60606003805461040b90611540565b80601f016020809104026020016040519081016040528092919081815260200182805461043790611540565b80156104845780601f1061045957610100808354040283529160200191610484565b820191906000526020600020905b81548152906001019060200180831161046757829003601f168201915b5050505050905090565b60003361049c81858561092a565b60019150505b92915050565b6104b0610a4e565b6104bb838383610b21565b505050565b60006104cb83610cc7565b6104d6848484610ecd565b949350505050565b3360008181526001602090815260408083206001600160a01b038716845290915281205490919061049c9082908690610518908790611590565b61092a565b610525610ee6565b61052f8282610f73565b5050565b60606004805461040b90611540565b61054a611032565b61052f828261115c565b3360008181526001602090815260408083206001600160a01b0387168452909152812054909190838110156105de5760405162461bcd60e51b815260206004820152602560248201527f45524332303a2064656372656173656420616c6c6f77616e63652062656c6f77604482015264207a65726f60d81b60648201526084015b60405180910390fd5b6105eb828686840361092a565b506001949350505050565b600061060183610cc7565b61060b838361128e565b9392505050565b6104b061129c565b4284101561066a5760405162461bcd60e51b815260206004820152601760248201527f5a4b5553443a206578706972656420646561646c696e6500000000000000000060448201526064016105d5565b6000610674610829565b6001600160a01b038916600090815260056020526040812080547f6e71edae12b1b97f4d1f60370fef10105fa2faae0126114a169c64845d6126c9928c928c928c929091906106c2836115a3565b909155506040805160208101969096526001600160a01b0394851690860152929091166060840152608083015260a082015260c0810187905260e0016040516020818303038152906040528051906020012060405160200161073b92919061190160f01b81526002810192909252602282015260420190565b60408051601f198184030181528282528051602091820120600080855291840180845281905260ff88169284019290925260608301869052608083018590529092509060019060a0016020604051602081039080840390855afa1580156107a6573d6000803e3d6000fd5b505050602060405103519050886001600160a01b0316816001600160a01b0316146108135760405162461bcd60e51b815260206004820152601860248201527f5a4b5553443a20696e76616c6964207369676e6174757265000000000000000060448201526064016105d5565b61081e89898961092a565b505050505050505050565b60007f0000000000000000000000000000000000000000000000000000000000000000460361087757507f000000000000000000000000000000000000000000000000000000000000000090565b50604080517f8b73c3c69bb8fe3d512ecc4cf759cc79239f7b179b0ffacaa9a75d522b39400f6020808301919091527f0000000000000000000000000000000000000000000000000000000000000000828401527f000000000000000000000000000000000000000000000000000000000000000060608301524660808301523060a0808401919091528351808403909101815260c0909201909252805191012090565b6001600160a01b03163b151590565b6001600160a01b03831661098c5760405162461bcd60e51b8152602060048201526024808201527f45524332303a20617070726f76652066726f6d20746865207a65726f206164646044820152637265737360e01b60648201526084016105d5565b6001600160a01b0382166109ed5760405162461bcd60e51b815260206004820152602260248201527f45524332303a20617070726f766520746f20746865207a65726f206164647265604482015261737360f01b60648201526084016105d5565b6001600160a01b0383811660008181526001602090815260408083209487168084529482529182902085905590518481527f8c5be1e5ebec7d5bd14f71427d1e84f3dd0314c0f7b2291e5b200ac8c7c3b925910160405180910390a3505050565b336001600160a01b037f0000000000000000000000000000000000000000000000000000000000000000161480610aad5750336001600160a01b037f000000000000000000000000000000000000000000000000000000000000000016145b610b1f5760405162461bcd60e51b815260206004820152603760248201527f5a4b5553443a2043616c6c6572206973206e6569746865722054726f76654d6160448201527f6e61676572206e6f722053746162696c697479506f6f6c00000000000000000060648201526084016105d5565b565b6001600160a01b038316610b855760405162461bcd60e51b815260206004820152602560248201527f45524332303a207472616e736665722066726f6d20746865207a65726f206164604482015264647265737360d81b60648201526084016105d5565b6001600160a01b038216610be75760405162461bcd60e51b815260206004820152602360248201527f45524332303a207472616e7366657220746f20746865207a65726f206164647260448201526265737360e81b60648201526084016105d5565b6001600160a01b03831660009081526020819052604090205481811015610c5f5760405162461bcd60e51b815260206004820152602660248201527f45524332303a207472616e7366657220616d6f756e7420657863656564732062604482015265616c616e636560d01b60648201526084016105d5565b6001600160a01b03848116600081815260208181526040808320878703905593871680835291849020805487019055925185815290927fddf252ad1be2c89b69c2b068fc378daa952ba7f163c4a11628f55a4df523b3ef910160405180910390a35b50505050565b6001600160a01b03811615801590610ce857506001600160a01b0381163014155b610d805760405162461bcd60e51b815260206004820152605660248201527f5a4b5553443a2043616e6e6f74207472616e7366657220746f6b656e7320646960448201527f726563746c7920746f20746865205a4b55534420746f6b656e20636f6e74726160648201527f6374206f7220746865207a65726f206164647265737300000000000000000000608482015260a4016105d5565b7f00000000000000000000000000000000000000000000000000000000000000006001600160a01b0316816001600160a01b031614158015610df457507f00000000000000000000000000000000000000000000000000000000000000006001600160a01b0316816001600160a01b031614155b8015610e3257507f00000000000000000000000000000000000000000000000000000000000000006001600160a01b0316816001600160a01b031614155b610eca5760405162461bcd60e51b815260206004820152605860248201527f5a4b5553443a2043616e6e6f74207472616e7366657220746f6b656e7320646960448201527f726563746c7920746f207468652053746162696c697479506f6f6c2c2054726f60648201527f76654d616e61676572206f7220426f72726f7765724f70730000000000000000608482015260a4016105d5565b50565b600033610edb858285611323565b6105eb858585610b21565b336001600160a01b037f00000000000000000000000000000000000000000000000000000000000000001614610b1f5760405162461bcd60e51b815260206004820152602c60248201527f5a4b555344546f6b656e3a2043616c6c6572206973206e6f7420426f72726f7760448201526b65724f7065726174696f6e7360a01b60648201526084016105d5565b6001600160a01b038216610fc95760405162461bcd60e51b815260206004820152601f60248201527f45524332303a206d696e7420746f20746865207a65726f20616464726573730060448201526064016105d5565b8060026000828254610fdb9190611590565b90915550506001600160a01b038216600081815260208181526040808320805486019055518481527fddf252ad1be2c89b69c2b068fc378daa952ba7f163c4a11628f55a4df523b3ef910160405180910390a35050565b336001600160a01b037f00000000000000000000000000000000000000000000000000000000000000001614806110915750336001600160a01b037f000000000000000000000000000000000000000000000000000000000000000016145b806110c45750336001600160a01b037f000000000000000000000000000000000000000000000000000000000000000016145b610b1f5760405162461bcd60e51b815260206004820152604e60248201527f5a4b5553443a2043616c6c6572206973206e65697468657220426f72726f776560448201527f724f7065726174696f6e73206e6f722054726f76654d616e61676572206e6f7260648201527f2053746162696c697479506f6f6c000000000000000000000000000000000000608482015260a4016105d5565b6001600160a01b0382166111bc5760405162461bcd60e51b815260206004820152602160248201527f45524332303a206275726e2066726f6d20746865207a65726f206164647265736044820152607360f81b60648201526084016105d5565b6001600160a01b038216600090815260208190526040902054818110156112305760405162461bcd60e51b815260206004820152602260248201527f45524332303a206275726e20616d6f756e7420657863656564732062616c616e604482015261636560f01b60648201526084016105d5565b6001600160a01b0383166000818152602081815260408083208686039055600280548790039055518581529192917fddf252ad1be2c89b69c2b068fc378daa952ba7f163c4a11628f55a4df523b3ef910160405180910390a3505050565b60003361049c818585610b21565b336001600160a01b037f00000000000000000000000000000000000000000000000000000000000000001614610b1f5760405162461bcd60e51b815260206004820152602660248201527f5a4b5553443a2043616c6c6572206973206e6f74207468652053746162696c696044820152651d1e541bdbdb60d21b60648201526084016105d5565b6001600160a01b038381166000908152600160209081526040808320938616835292905220546000198114610cc157818110156113a25760405162461bcd60e51b815260206004820152601d60248201527f45524332303a20696e73756666696369656e7420616c6c6f77616e636500000060448201526064016105d5565b610cc1848484840361092a565b600060208083528351808285015260005b818110156113dc578581018301518582016040015282016113c0565b506000604082860101526040601f19601f8301168501019250505092915050565b80356001600160a01b038116811461141457600080fd5b919050565b6000806040838503121561142c57600080fd5b611435836113fd565b946020939093013593505050565b60008060006060848603121561145857600080fd5b611461846113fd565b925061146f602085016113fd565b9150604084013590509250925092565b60006020828403121561149157600080fd5b61060b826113fd565b600080600080600080600060e0888a0312156114b557600080fd5b6114be886113fd565b96506114cc602089016113fd565b95506040880135945060608801359350608088013560ff811681146114f057600080fd5b9699959850939692959460a0840135945060c09093013592915050565b6000806040838503121561152057600080fd5b611529836113fd565b9150611537602084016113fd565b90509250929050565b600181811c9082168061155457607f821691505b60208210810361157457634e487b7160e01b600052602260045260246000fd5b50919050565b634e487b7160e01b600052601160045260246000fd5b808201808211156104a2576104a261157a565b6000600182016115b5576115b561157a565b506001019056fea164736f6c6343000811000a",
  "devdoc": {
    "kind": "dev",
    "methods": {
      "allowance(address,address)": {
        "details": "See {IERC20-allowance}."
      },
      "approve(address,uint256)": {
        "details": "See {IERC20-approve}. NOTE: If `amount` is the maximum `uint256`, the allowance is not updated on `transferFrom`. This is semantically equivalent to an infinite approval. Requirements: - `spender` cannot be the zero address."
      },
      "balanceOf(address)": {
        "details": "See {IERC20-balanceOf}."
      },
      "decimals()": {
        "details": "Returns the number of decimals used to get its user representation. For example, if `decimals` equals `2`, a balance of `505` tokens should be displayed to a user as `5.05` (`505 / 10 ** 2`). Tokens usually opt for a value of 18, imitating the relationship between Ether and Wei. This is the default value returned by this function, unless it's overridden. NOTE: This information is only used for _display_ purposes: it in no way affects any of the arithmetic of the contract, including {IERC20-balanceOf} and {IERC20-transfer}."
      },
      "decreaseAllowance(address,uint256)": {
        "details": "Atomically decreases the allowance granted to `spender` by the caller. This is an alternative to {approve} that can be used as a mitigation for problems described in {IERC20-approve}. Emits an {Approval} event indicating the updated allowance. Requirements: - `spender` cannot be the zero address. - `spender` must have allowance for the caller of at least `subtractedValue`."
      },
      "increaseAllowance(address,uint256)": {
        "details": "Atomically increases the allowance granted to `spender` by the caller. This is an alternative to {approve} that can be used as a mitigation for problems described in {IERC20-approve}. Emits an {Approval} event indicating the updated allowance. Requirements: - `spender` cannot be the zero address."
      },
      "name()": {
        "details": "Returns the name of the token."
      },
      "nonces(address)": {
        "details": "Returns the current ERC2612 nonce for `owner`. This value must be included whenever a signature is generated for {permit}. Every successful call to {permit} increases `owner`'s nonce by one. This prevents a signature from being used multiple times. `owner` can limit the time a Permit is valid for by setting `deadline` to a value in the near future. The deadline argument can be set to uint(-1) to create Permits that effectively never expire."
      },
      "permit(address,address,uint256,uint256,uint8,bytes32,bytes32)": {
        "details": "Sets `amount` as the allowance of `spender` over `owner`'s tokens, given `owner`'s signed approval. IMPORTANT: The same issues {IERC20-approve} has related to transaction ordering also apply here. Emits an {Approval} event. Requirements: - `owner` cannot be the zero address. - `spender` cannot be the zero address. - `deadline` must be a timestamp in the future. - `v`, `r` and `s` must be a valid `secp256k1` signature from `owner` over the EIP712-formatted function arguments. - the signature must use ``owner``'s current nonce (see {nonces}). For more information on the signature format, see the https://eips.ethereum.org/EIPS/eip-2612#specification[relevant EIP section]."
      },
      "symbol()": {
        "details": "Returns the symbol of the token, usually a shorter version of the name."
      },
      "totalSupply()": {
        "details": "See {IERC20-totalSupply}."
      }
    },
    "version": 1
  },
  "userdoc": {
    "kind": "user",
    "methods": {},
    "version": 1
  },
  "storageLayout": {
    "storage": [
      {
        "astId": 174,
        "contract": "contracts/common/ZKUSDToken.sol:ZKUSDToken",
        "label": "_balances",
        "offset": 0,
        "slot": "0",
        "type": "t_mapping(t_address,t_uint256)"
      },
      {
        "astId": 180,
        "contract": "contracts/common/ZKUSDToken.sol:ZKUSDToken",
        "label": "_allowances",
        "offset": 0,
        "slot": "1",
        "type": "t_mapping(t_address,t_mapping(t_address,t_uint256))"
      },
      {
        "astId": 182,
        "contract": "contracts/common/ZKUSDToken.sol:ZKUSDToken",
        "label": "_totalSupply",
        "offset": 0,
        "slot": "2",
        "type": "t_uint256"
      },
      {
        "astId": 184,
        "contract": "contracts/common/ZKUSDToken.sol:ZKUSDToken",
        "label": "_name",
        "offset": 0,
        "slot": "3",
        "type": "t_string_storage"
      },
      {
        "astId": 186,
        "contract": "contracts/common/ZKUSDToken.sol:ZKUSDToken",
        "label": "_symbol",
        "offset": 0,
        "slot": "4",
        "type": "t_string_storage"
      },
      {
        "astId": 4967,
        "contract": "contracts/common/ZKUSDToken.sol:ZKUSDToken",
        "label": "_nonces",
        "offset": 0,
        "slot": "5",
        "type": "t_mapping(t_address,t_uint256)"
      }
    ],
    "types": {
      "t_address": {
        "encoding": "inplace",
        "label": "address",
        "numberOfBytes": "20"
      },
      "t_mapping(t_address,t_mapping(t_address,t_uint256))": {
        "encoding": "mapping",
        "key": "t_address",
        "label": "mapping(address => mapping(address => uint256))",
        "numberOfBytes": "32",
        "value": "t_mapping(t_address,t_uint256)"
      },
      "t_mapping(t_address,t_uint256)": {
        "encoding": "mapping",
        "key": "t_address",
        "label": "mapping(address => uint256)",
        "numberOfBytes": "32",
        "value": "t_uint256"
      },
      "t_string_storage": {
        "encoding": "bytes",
        "label": "string",
        "numberOfBytes": "32"
      },
      "t_uint256": {
        "encoding": "inplace",
        "label": "uint256",
        "numberOfBytes": "32"
      }
    }
  }
}